:100000000C94B4030C94DC030C94DC030C94DC031C
:100010000C94DC030C94DC030C94DC030C94DC03E4
:100020000C94DC030C94DC030C94DC030C94DC03D4
:100030000C94DC030C94DC030C94DC030C94DC03C4
:100040000C94101A0C94DC030C94DC030C94DC0369
:100050000C94DC030C94DC030C94DC030C94DC03A4
:100060000C94E3180C94DC037E0981098409870948
:100070008A099D099A09A009204F464600204F4E43
:100080002000457869742020202020202020202076
:100090002020005465737420416C61726D20202013
:1000A0002020200052657365742053657474696E56
:1000B000677320200053637265656E205361766517
:1000C00072202020200053686F772053746172746F
:1000D00073637265656E0042617474657279204164
:1000E0006C61726D202020004C69506F20337320AA
:1000F0004D65746572202020004C69506F2032736A
:10010000204D6574657220202000466C6970205374
:10011000637265656E202020202000352E36352044
:1001200020202020352E382020202020352E393543
:100130000020204368616E6E656C202020205253A1
:10014000534900204D487A005343414E002000207F
:1001500020002000200020204368616E6E656C2026
:100160002020205253534900204D487A003230312C
:10017000362D30382D32300076312E342062792001
:1001800044766F676F6E656E004359434C4F502B3A
:1001900000E916D516C116AD169916851671165DAD
:1001A00016651678168B169E16B116C416D716EA63
:1001B000164916351621160D16FD16111725173975
:1001C000176C1680169416A816BC16D016E416F8EE
:1001D000161A163F1664168916AE16D316F8161D93
:1001E00017131220112110072208180609190523D8
:1001F0000A1A040B1B03240C1C020D1D25010E1EE4
:10020000000F1F26141527161700000000003E5B84
:100210004F5B3E3E6B4F6B3E1C3E7C3E1C183C7E53
:100220003C181C577D571C1C5E7F5E1C00183C1838
:1002300000FFE7C3E7FF0018241800FFE7DBE7FF34
:1002400030483A060E2629792926407F05050740C1
:100250007F05253F5A3CE73C5A7F3E1C1C08081C82
:100260001C3E7F14227F22145F5F005F5F06097FC0
:10027000017F006689956A606060606094A2FFA259
:100280009408047E040810207E201008082A1C0808
:10029000081C2A08081E101010100C1E0C1E0C3012
:1002A000383E3830060E3E0E06000000000000000A
:1002B0005F00000007000700147F147F14242A7FCA
:1002C0002A12231308646236495620500008070397
:1002D00000001C2241000041221C002A1C7F1C2A15
:1002E00008083E0808008070300008080808080068
:1002F0000060600020100804023E5149453E004263
:100300007F400072494949462141494D3318141232
:100310007F1027454545393C4A494931412111095A
:10032000073649494936464949291E00001400004C
:100330000040340000000814224114141414140066
:100340004122140802015909063E415D594E7C12B2
:1003500011127C7F494949363E414141227F41414A
:10036000413E7F494949417F090909013E414151C7
:10037000737F0808087F00417F41002040413F0112
:100380007F081422417F404040407F021C027F7F53
:100390000408107F3E4141413E7F090909063E4164
:1003A00051215E7F09192946264949493203017FB7
:1003B00001033F4040403F1F2040201F3F40384046
:1003C0003F631408146303047804036159494D43DF
:1003D000007F4141410204081020004141417F0457
:1003E000020102044040404040000307080020543E
:1003F0005478407F2844443838444444283844449E
:10040000287F385454541800087E090218A4A49C6C
:10041000787F0804047800447D40002040403D007F
:100420007F1028440000417F40007C047804787CE1
:10043000080404783844444438FC18242418182448
:100440002418FC7C08040408485454542404043F31
:1004500044243C4040207C1C2040201C3C40304038
:100460003C44281028444C9090907C4464544C4464
:100470000008364100000077000000413608000205
:10048000010204023C2623263C1EA1A161123A402F
:1004900040207A38545455592155557941225454A5
:1004A0007842215554784020545579400C1E5272A0
:1004B000123955555559395454545939555454587D
:1004C0000000457C410002457D420001457C407DA5
:1004D0001211127DF0282528F07C54554500205437
:1004E000547C547C0A097F4932494949323A444490
:1004F000443A324A4848303A4141217A3A4240200F
:1005000078009DA0A07D3D4242423D3D4040403D9F
:100510003C24FF2424487E4943662B2FFC2F2BFFCD
:100520000929F620C0887E0903205454794100002F
:10053000447D413048484A32384040227A007A0AA5
:100540000A727D0D19317D2629292F28262929296E
:100550002630484D402038080808080808080838A0
:100560002F10C8ACBA2F102834FA00007B00000806
:10057000142A142222142A14085500550055AA558D
:10058000AA55AAFF55FF55FF000000FF00101010EC
:10059000FF00141414FF001010FF00FF1010F010E3
:1005A000F0141414FC001414F700FF0000FF00FF07
:1005B0001414F404FC141417101F10101F101F142F
:1005C00014141F00101010F0000000001F10101075
:1005D000101F10101010F010000000FF101010106D
:1005E0001010101010FF10000000FF140000FF009A
:1005F000FF00001F10170000FC04F414141710175C
:100600001414F404F40000FF00F714141414141468
:1006100014F700F7141414171410101F101F1414DB
:1006200014F4141010F010F000001F101F00000050
:100630001F14000000FC140000F010F01010FF1058
:10064000FF141414FF141010101F00000000F0100D
:10065000FFFFFFFFFFF0F0F0F0F0FFFFFF000000F2
:100660000000FFFF0F0F0F0F0F3844443844FC4ABF
:100670004A4A347E02020606027E027E0263554921
:1006800041633844443C04407E201E2006027E0222
:100690000299A5E7A5991C2A492A1C4C7201724CA3
:1006A000304A4D4D303048784830BC625A463D3E65
:1006B000494949007E0101017E2A2A2A2A2A444406
:1006C0005F444440514A444040444A51400000FF86
:1006D0000103E080FF000008086B6B083612362427
:1006E00036060F090F060000181800000010100051
:1006F0003040FF0101001F01011E00191D171200EB
:100700003C3C3C3C000000000000000008000201EE
:1007100000000304070000000000000000010204C4
:100720000810204080010204081020010204081073
:10073000200404040404040404020202020202036A
:100740000303030303000000002300260029000028
:10075000000000250028002B0000000000240027D6
:10076000002A0000030A411811241FBECFEFD8E071
:10077000DEBFCDBF15E0A0E0B1E0EEE8FFE302C0D0
:1007800005900D92A63AB107D9F726E0A6EAB5E0A2
:1007900001C01D92A63CB207E1F717E0C8E6D7E01A
:1007A00004C02297FE010E94201FC436D107C9F75A
:1007B0000E94341D0C94C51F0C940000E82FF0E03B
:1007C000EF51FE4FE491F0E0EE0FFF1FEF56FE4FAA
:1007D00085919491089581E08093A7051092A805D2
:1007E0008093A9058093AA058093AB051092AC0570
:1007F00008950F931F93CF93DF936091C90580E015
:1008000090E00E94AF1F07EA15E0C0E0D0E0F801D9
:1008100061918F012196CE010E94AF1FC630D10594
:10082000B1F76EEE87E090E0DF91CF911F910F91CD
:100830000C94AF1F0F931F93CF93DF9387E090E04B
:100840000E94A71F8E3EA9F480E090E00E94A71F9F
:100850008093C90507EA15E0C1E0D0E0CE010E940F
:10086000A71FF80181938F012196C730D105B1F7F9
:1008700002C080E001C081E0DF91CF911F910F9114
:1008800008950F931F93CF93DF93182F0E941B1C83
:10089000019749F1C0E0D0E0812F0E941B1C892BF9
:1008A00041F4219665E070E080E090E00E94891AB2
:1008B000F3CF9E01205531092C3D310528F0CC3273
:1008C000D14020F401E003C003E001C004E0C0E037
:1008D000D0E0812F0E941B1C019739F42196C93268
:1008E000D10599F409C080E017C0A89728F4812F9A
:1008F0000E941B1C892B11F0802F0EC0812F0E949B
:100900001B1C892BD9F382E007C065E070E080E012
:1009100090E00E94891ADDCFDF91CF911F910F9156
:100920000895EF92FF920F931F93CF93DF938C0163
:10093000F12CE12CCCE2D1E08F2D0E94DE03801B54
:10094000910B1816190634F48F2D0E94DE03801BBC
:10095000910B07C08F2D0E94DE039801281B390BD5
:10096000C9018C179D0714F0CE0101C0EF2CF39440
:1009700038E2F31611F0EC01DFCF8E2DDF91CF912D
:100980001F910F91FF90EF9008950F931F93CF93B6
:10099000DF93082F10E2C0E0D0E0802F0E94071BF9
:1009A000C80FD91F1150C9F7CE0125E0969587953C
:1009B0002A95E1F7DF91CF911F910F910895DB0107
:1009C000E82FF0E0EF51FE4FE491E83010F481E4BD
:1009D0000DC0E03110F482E409C0E83110F485E480
:1009E00005C0E03210F486E401C082E58C93E77024
:1009F000EF5C1196EC93119712961C921297CD0111
:100A000008951F93CF93DF93EB01E82FF0E0EF51B0
:100A1000FE4F1491183018F46DE175E011C01031DB
:100A200018F466E275E00CC0183118F46FE275E056
:100A300007C0103218F46CE375E002C066E475E09C
:100A4000CE010E94A01FDE010D900020E9F7119752
:100A5000AC1BBD0BCE018A0F911DDC0117701F5C12
:100A60001C9311961C92CE01DF91CF911F91089596
:100A70008F5D91409C01369527952F7156E0969594
:100A800087955A95E1F79695982F8827979587959A
:100A9000822B089560E082E00E94E51B81E090E0F7
:100AA0000E94C31A61E084E00E94E51B81E090E0AF
:100AB0000E94C31A61E082E00E94E51B81E090E0A1
:100AC0000E94C31A60E082E00E94E51B81E090E092
:100AD0000C94C31A60E082E00E94E51B81E090E084
:100AE0000E94C31A60E084E00E94E51B81E090E070
:100AF0000E94C31A61E082E00E94E51B81E090E061
:100B00000E94C31A60E082E00E94E51B81E090E051
:100B10000C94C31A81E090E00E94C31A60E083E065
:100B20000E94E51B81E090E00C94C31A81E090E004
:100B30000E94C31A61E083E00E94E51B81E090E01F
:100B40000C94C31A1F93CF93DF930E943805EC01D6
:100B50000E94960581E090E00E94C31A0E948A05D7
:100B60000E944A050E946A050E946A050E946A0561
:100B70000E944A0510E1C0FF03C00E944A0502C05E
:100B80000E946A05D695C7951150A9F70E946A057B
:100B90000E946A050E946A050E946A050E949605E5
:100BA00081E090E00E94C31A60E083E00E94E51BB0
:100BB00060E082E00E94E51B60E084E0DF91CF917D
:100BC0001F910C94E51BCF92DF92EF92FF920F934F
:100BD0001F93CF93DF93EC012A96C0FF21968E01DD
:100BE000ECE3DE2EE12CF12C053387E1180718F435
:100BF0000B5F1F4F02C00DE016E1C8010E94A20565
:100C000069E170E080E090E00E94891A84E10E942E
:100C1000C504E816F90610F4E8017C01DA9451F4F1
:100C20008E01045111096E0124E1C20ED11CE12C88
:100C3000F12C0BC08A3F9105B8F2F2CFE8010E5FAC
:100C40001F4F0C151D0591F07C01C8010E94A205E3
:100C500069E170E080E090E00E94891A84E10E94DE
:100C6000C504E816F90650F3C701E9CFCE010E948A
:100C7000A205CE01DF91CF911F910F91FF90EF90D0
:100C8000DF90CF900895CF93C3E060E270E086E0FC
:100C90000E94241B68EC70E080E090E00E94891ABA
:100CA00060E070E086E00E94241B68EB7BE080E05F
:100CB00090E00E94891AC15041F7C3E060E270E001
:100CC00086E00E94241B64E670E080E090E00E94D1
:100CD000891A60E070E086E00E94241B68EE73E0F1
:100CE00080E090E00E94891AC15041F7C3E060E2C1
:100CF00070E086E00E94241B62E370E080E090E0F8
:100D00000E94891A60E070E086E00E94241B68EC73
:100D100070E080E090E00E94891AC15041F760E0E5
:100D200070E086E0CF910C94241B9F92AF92BF920B
:100D3000CF92DF92EF92FF920F931F93CF93DF93A7
:100D4000942EC62FD0E0A82EB12C650183E0C80EEA
:100D5000D11CE091CB05F091CC050484F585E02D04
:100D6000EE24E394F12C02E010E024E030E0AE0148
:100D7000B6018BEC95E00995E091CB05F091CC059F
:100D8000AE014E5F5F4F0484F585E02D04E110E075
:100D90002AE030E0B5018BEC95E00995E091CB05B8
:100DA000F091CC05AE014C5F5F4FB5016E5F7F4F98
:100DB0000484F585E02DE12CF12C00E110E026E023
:100DC00030E08BEC95E0099585E58915B0F4E0916C
:100DD000CB05F091CC050484F585E02DEE24E39459
:100DE000F12C02E010E024E030E0AE014B5F5F4FF9
:100DF000B6018BEC95E0099503C081E48915B0F448
:100E0000E091CB05F091CC050484F585E02DEE242E
:100E1000E394F12C02E010E024E030E0AE01485F02
:100E20005F4FB6018BEC95E0099503C08DE2891503
:100E3000B0F4E091CB05F091CC050484F585E02D6C
:100E4000EE24E394F12C02E010E024E030E0AE0167
:100E5000455F5F4FB6018BEC95E0099503C089E1D2
:100E60008915B0F4E091CB05F091CC050484F585AB
:100E7000E02DEE24E394F12C02E010E024E030E0D9
:100E8000AE01425F5F4FB6018BEC95E0099503C060
:100E900085E08915A8F4E091CB05F091CC05AE0171
:100EA0004F5E5F4F0484F585E02DEE24E394F12C32
:100EB00002E010E024E030E0B6018BEC95E009950B
:100EC000DF91CF911F910F91FF90EF90DF90CF9026
:100ED000BF90AF909F900895CF92DF92EF92FF92D4
:100EE0000F931F93CF93DF939091A9058091A8054D
:100EF000911103C0882309F470C0811105C003E873
:100F000012E0C7E2D2E004C00DEA11E0CFE6D1E082
:100F10008FE00E94C5048017910708F049C0C817E8
:100F2000D90710F5BC016C1B7D0B80E090E00E949E
:100F3000D81D6B017C01B8016C1B7D0B80E090E03B
:100F40000E94D81D9B01AC01C701B6010E94441D3F
:100F500020E030E048EC52E40E94661E0E94AC1D86
:100F6000462F653010F00AC040E082E390E0909395
:100F7000B0058093AF0588EC90E00AC06F3068F44C
:100F800084E690E09093B0058093AF0588EE93E0FF
:100F90009093AE058093AD0514C0693150F488EC90
:100FA00090E09093B0058093AF0588EB9BE0F0CF85
:100FB00043E61092B0051092AF051092AE05109264
:100FC000AD0560E28AE3DF91CF911F910F91FF9011
:100FD000EF90DF90CF900C949506DF91CF911F9109
:100FE0000F91FF90EF90DF90CF900895BF92CF9236
:100FF000DF92EF92FF920F931F93CF93DF93CDB7C2
:10100000DEB766970FB6F894DEBF0FBECDBFB82E21
:101010006B018BEC95E00E94B91061E070E08BEC05
:1010200095E00E94521740E050E06AE070E08BECDF
:1010300095E00E94461763E08BEC95E00E944C1708
:101040008B2D0E94DE03BC014AE050E08BEC95E062
:101050000E94071D47E050E06BE470E08BEC95E0E8
:101060000E94461762E08BEC95E00E944C1768E600
:1010700071E08BEC95E00E94821CE091CB05F09131
:10108000CC050680F781E02DEE24E394F12C08E1F5
:1010900010E02FE730E048E150E060E070E08BECDA
:1010A00095E009954BE150E060E070E08BEC95E055
:1010B0000E94461761E08BEC95E00E944C1766E5B4
:1010C00071E08BEC95E00E94821C47E250E060E00A
:1010D00070E08BEC95E00E94461762E08BEC95E0A7
:1010E0000E944C1764E571E08BEC95E00E94821C35
:1010F00062E571E08BEC95E00E94821C8E010F5F2F
:101100001F4FB8018B2D0E94DF04BC018BEC95E0D2
:101110000E94A51C6FE471E08BEC95E00E94821C9C
:101120004AE050E0B6018BEC95E00E94071D49E3D0
:1011300050E060E070E08BEC95E00E94461761E0C3
:101140008BEC95E00E944C17B8018B2D0E94010595
:10115000F80101900020E9F7C8018E1B9F0B46960D
:1011600096958795D82EE12CF12CDE1451F06DE484
:1011700071E08BEC95E00E94821C8FEFE81AF80A70
:10118000F4CFB8018BEC95E00E94A51C0E946C077F
:101190008BEC95E00E94691266960FB6F894DEBF5C
:1011A0000FBECDBFDF91CF911F910F91FF90EF90B8
:1011B000DF90CF90BF900895EF92FF920F931F930F
:1011C0008BEC95E00E94B91061E070E08BEC95E04B
:1011D0000E94521740E050E06AE070E08BEC95E02E
:1011E0000E94461763E08BEC95E00E944C1768E480
:1011F00071E08BEC95E00E94821C47E050E06BE4CC
:1012000070E08BEC95E00E94461762E08BEC95E075
:101210000E944C1763E471E08BEC95E00E94821C05
:10122000E091CB05F091CC050680F781E02DEE240E
:10123000E394F12C08E110E02FE730E048E150E0C2
:1012400060E070E08BEC95E009954BE150E060E0E8
:1012500070E08BEC95E00E94461761E08BEC95E026
:101260000E944C1761E371E08BEC95E00E94821CB8
:101270000E946C078BEC95E01F910F91FF90EF900F
:101280000C9469121F93CF93DF93182F8BEC95E08A
:101290000E94B91040E050E060E070E08BEC95E017
:1012A0000E94461761E08BEC95E00E944C171123D9
:1012B00019F0CFEFC10F01C0C8E0D7E0C93008F086
:1012C000C0E0C11305C041E050E060E070E004C040
:1012D00040E050E061E070E08BEC95E00E94581730
:1012E0004C2F50E0FA013197E830F10520F4EC5C26
:1012F000FF4F0C941E1F6AE071E00EC069EF70E0B2
:101300000BC068EE70E008C067ED70E005C066ECE9
:1013100070E002C065EB70E08BEC95E00E94821CEF
:10132000EC2FF0E0E955FA4F80818823B1F06DE7AA
:1013300070E015C064EA70E005C063E970E002C0C7
:1013400062E870E08BEC95E00E94821C60E575E03D
:101350008BEC95E00E94A51C06C068E770E08BEC62
:1013600095E00E94821C8BEC95E00E94A71CCF5F49
:10137000D15009F0A3CF8BEC95E0DF91CF911F9175
:101380000C946912CF9380E00E94420985E00E948C
:101390004104C0E08C2F0E94420985E00E94410474
:1013A000823059F018F4813021F0F4CF853048F0C4
:1013B000F1CFCF5FC93069F3EDCFCC23C1F0C1507D
:1013C000E9CFC830B1F0C73019F40E94EB03E2CF87
:1013D000C63019F40E944306DDCFEC2FF0E0E9554A
:1013E000FA4F81E09081911180E08083D3CFC8E0F3
:1013F000D1CFCF9108958BEC95E00E94B9108BEC82
:1014000095E00C94691264E08BEC95E00C94A010CC
:101410000F931F93CF93DF931FE1115031F185E0BC
:101420000E941B1C892B69F1CBEFD0E02197C1F002
:1014300060E870E080E090E00E940D1D062F60E4FF
:1014400070E080E090E00E940D1D462F50E0602F7C
:1014500070E020E030E08BEC95E00E94E90FE6CFF1
:101460008BEC95E00E946912D8CF8BEC95E00E943E
:10147000B9108BEC95E0DF91CF911F910F910C94F7
:101480006912DF91CF911F910F910895EF92FF9212
:101490000F931F93CF938BEC95E00E94B910E091CE
:1014A000CB05F091CC050680F781E02DEE24E39486
:1014B000F12C00E010E02FE730E040E050E060E089
:1014C00070E08BEC95E0099561E070E08BEC95E0C5
:1014D0000E94521744E050E061E070E08BEC95E030
:1014E0000E94461763E08BEC95E00E944C1769E878
:1014F00071E08BEC95E00E94821CE091CB05F091AD
:10150000CC050680F781E02D0BE110E02FE730E0FD
:101510004BE150E060E070E08BEC95E0099543E230
:1015200050E06FE070E08BEC95E00E94461761E0C0
:101530008BEC95E00E944C1768E771E08BEC95E02E
:101540000E94821C42E350E061E270E08BEC95E087
:101550000E9446176DE671E08BEC95E00E94821CBC
:101560008BEC95E00E946912C8EC85E00E941B1C80
:10157000892B79F06AE070E080E090E00E94891A9F
:10158000C15099F7CF911F910F91FF90EF900C945C
:10159000080ACF911F910F91FF90EF90089561E09D
:1015A0008DE00E94AC1B61E08DE00E94E51B60E0D5
:1015B00085E00E94AC1B62E085E00E94E51B61E0D3
:1015C00086E00E94AC1B61E083E00E94AC1B61E0FE
:1015D00084E00E94AC1B61E082E00E94AC1B0E9490
:1015E0001A04811104C01092C9050E94EB03809176
:1015F000C9050E94DE030E94A20521E04CE362E0DF
:101600008BEC95E00E9434118BEC95E00E94B910B0
:101610008091A705882329F062E08BEC95E00E9479
:1016200061178BEC95E00E94691285E00E941B1CFB
:10163000892B69F40E94C2090E94F9038091A705D1
:10164000882329F062E08BEC95E00E94611780917D
:10165000AB0581110E94460A0E945A1A605F784DBC
:101660008F4F9F4F6093C2057093C3058093C4054D
:101670009093C50508950F931F93CF93DF93C62FC3
:10168000DEE0D80F8091A60526E330E0281B310963
:1016900060910A0170E000E010E040E050E08BEC67
:1016A00095E00E94AE0E6D2F70E001E010E026E3A1
:1016B00030E040E050E08BEC95E00E94AE0ED0931D
:1016C0000A01C63320F085E38093A60502C0C093CB
:1016D000A6058BEC95E0DF91CF911F910F910C94B3
:1016E0006912EF92FF920F931F938BEC95E00E948B
:1016F000B910E091CB05F091CC050680F781E02D83
:10170000EE24E394F12C07E310E02FE730E047E309
:1017100050E060E070E08BEC95E0099561E070E0EE
:101720008BEC95E00E94521761E08BEC95E00E94F3
:101730004C1749E350E060E070E08BEC95E00E94CC
:1017400046176BE171E08BEC95E00E94821C60E033
:1017500080E01F910F91FF90EF900C943B0B9F92B4
:10176000AF92BF92CF92DF92EF92FF920F931F93AF
:10177000CF93DF935C010E94710BCA2DDB2D0AE031
:1017800010E079E3E72E77E1F72EE3E0CE2ED12CBF
:10179000F4E69F2E85E00E944104811127C0239624
:1017A000CA3387E1D80710F0CDE0D6E1CE010E9420
:1017B000A20569E170E080E090E00E94891A84E16E
:1017C0000E94C5048C589109B8010E94C91E262F99
:1017D000C7018C1B9D0BB6010E94C91E862F622F6C
:1017E000992D981B892F0E943B0BD4CF8E01045159
:1017F00011096496E12CF12CC8010E94A20569E14F
:1018000070E080E090E00E94891A84E10E94C504A3
:10181000E816F90610F0C70101C058010E5F1F4F0E
:101820000C171D0711F07C01E7CFC5010E94A2052E
:10183000C501DF91CF911F910F91FF90EF90DF9045
:10184000CF90BF90AF909F900895CF92DF92EF928C
:10185000FF9285E00E9441048093CA058230B9F16D
:1018600018F4813061F145C0833051F0843009F0C3
:1018700040C08091C9050E94DE030E94AF0B08C0E2
:101880000E94DC088091C9050E94DE030E94E305E6
:101890000E9491048093C90560E070E00E94F60701
:1018A0000E945A1A675E7F4F8F4F9F4F6093BE050D
:1018B0007093BF058093C0059093C1051AC08091B5
:1018C000C905873210F48F5F08C080E006C08091A0
:1018D000C9058150873208F087E28093C9050E94CC
:1018E000DE030E94A20560E070E08091C9050E94BD
:1018F000F6078091CA05882371F00E945A1A605F2A
:10190000784D8F4F9F4F6093C2057093C3058093AE
:10191000C4059093C5050E945A1AC090BE05D09088
:10192000BF05E090C005F090C105C616D706E806D1
:10193000F906B8F48091AC05882309F4A2C0C090E0
:10194000C205D090C305E090C405F090C5050E9483
:101950005A1AC616D706E806F90608F092C00E9481
:10196000FB099091C9058091C805981781F00E94E4
:101970005A1AC090BA05D090BB05E090BC05F09013
:10198000BD05C616D706E806F90608F495C00E94FC
:101990005A1AC090B605D090B705E090B805F090FF
:1019A000B905C616D706E806F906A8F481E09091B5
:1019B0000B01911180E080930B010E945A1A6C5028
:1019C0007E4F8F4F9F4F6093B6057093B7058093FE
:1019D000B8059093B90560910B018DE00E94E51B5D
:1019E0008091AA05882309F443C08091AF059091A6
:1019F000B005892BE9F10E945A1AC090B205D09027
:101A0000B305E090B405F090B505C616D706E80614
:101A1000F90608F066C081E09091B105911180E06F
:101A20008093B105882361F060E270E086E00E9457
:101A3000241B0E945A1A2091AF053091B0050BC0AB
:101A400060E070E086E00E94241B0E945A1A2091F8
:101A5000AD053091AE05620F731F811D911D60931E
:101A6000B2057093B3058093B4059093B50539C062
:101A700060E070E086E0FF90EF90DF90CF900C94F4
:101A8000241B84E10E94C5049093C7058093C6057A
:101A9000BC018091C9050E94F6070E945A1A68513C
:101AA0007C4F8F4F9F4F6093BE057093BF0580930F
:101AB000C0059093C10555CF0E94F9038091C905D7
:101AC0008093C8050E945A1A605F784D8F4F9F4FD0
:101AD0006093BA057093BB058093BC059093BD05D8
:101AE00056CFFF90EF90DF90CF9008950F931F9304
:101AF000CF93DF93EC018D89823061F08330D9F090
:101B0000813009F0C8C0EC81FD81E41BF50B3197F1
:101B1000DB0118C08C819D81DC01A61BB70BBD01C8
:101B20008E819F81FC01E41BF50BAF0141505109EF
:101B3000621B730BB0C0AE81BF81A61BB70BA21B8B
:101B4000B30BFA01F7FD05C18C819D81E817F907F8
:101B50000CF0FFC0B7FF04C02A0F3B1FA0E0B0E0AD
:101B60008E819F81AD01420F531F841795071CF48E
:101B70009C012A1B3B0B121613060CF0EAC0422FE5
:101B80008A2F86958695869590E8899FE00DF11DB0
:101B90001124E45EFE4FA77069F158E05A1B852FAF
:101BA00090E0EC01CC5EDE4F6881251760F4DC012B
:101BB000A21BB1098FEF90E00A2E02C09595879580
:101BC0000A94E2F768230130110539F048F0023039
:101BD000110551F48081862706C08081862B03C0C1
:101BE0006095808186238083451708F4B2C0451B29
:101BF000E058FF4F4830A0F102301105A9F4DF0191
:101C0000842F9C9190959C93A058BF4F885088300A
:101C1000C0F788EF840F869586958695B0E88B9FF0
:101C2000E00DF11D112419C081E00130110509F00A
:101C300080E0982F9195EF01842F9883C058DF4F53
:101C400088508830D0F788EF840F869586958695E2
:101C500090E8899FE00DF11D1124E058FF4F477077
:101C6000442309F476C0A42FB0E0A45FBE4F9C913A
:101C70000130110541F050F00230110509F069C042
:101C80008081892706C08081892B03C0909580813F
:101C9000892380835EC057FD5CC08E819F81481779
:101CA00059070CF056C077FF04C0260F371F60E0BD
:101CB00070E08C819D81FB01E20FF31F8E179F075F
:101CC0001CF49C01261B370B121613060CF041C0A6
:101CD000CA0157FD0796E3E095958795EA95E1F7E8
:101CE0009695982F882797958795845E9E4F860FA7
:101CF000971F4770552761E070E001C0660F4A9555
:101D0000EAF7462F0130110541F088F00230110545
:101D100001F5FC01280F391F15C0FC01280F391FE0
:101D2000E217F307B1F08081842B8193F9CF60959E
:101D3000FC01280F391FE217F30759F08081862331
:101D40008193F9CFE217F30721F0808184278193F3
:101D5000F9CFDF91CF911F910F9108950F931F93AA
:101D6000CF93DF93FC018589823069F08330E1F005
:101D7000813009F082C0C481D581C41BD50BC21B40
:101D8000D30BDB0117C084819581DC01A61BB70B47
:101D9000BD016150710986819781DC01A41BB50BDF
:101DA000AD01421B530B69C0A681B781A61BB70BBF
:101DB0001197EA01B7FD08C186819781A817B90775
:101DC0000CF002C1D7FF04C02C0F3D1FC0E0D0E0D3
:101DD00084819581AE01420F531F841795071CF42F
:101DE0009C012C1B3D0B121613060CF0EDC0CD010F
:101DF000B7FD079643E0959587954A95E1F7969547
:101E0000982F882797958795845E9E4F8C0F9D1FEE
:101E1000A770BB2741E050E00A2E01C0440F0A948E
:101E2000EAF7642F0130110549F098F002301105EE
:101E300009F0CAC0FC01280F391F17C0FC01280F88
:101E4000391FE217F30709F4BFC08081862B819305
:101E5000F8CF4095FC01280F391FE217F30709F46A
:101E6000B3C0808184238193F8CFE217F30709F48C
:101E7000ABC0808186278193F8CF77FDA5C0848190
:101E80009581681779070CF09FC057FF04C0240F95
:101E9000351F40E050E086819781FA01E20FF31F81
:101EA0008E179F071CF49C01241B350B121613067A
:101EB0000CF08AC0522F842F869586958695FB015B
:101EC000B0E88B9FE00DF11D1124E45EFE4F4770DA
:101ED00069F168E0641B862F90E0EC01CC5EDE4F78
:101EE0004881261760F4DC01A21BB1098FEF90E056
:101EF0000A2E02C0959587950A94E2F7482301308F
:101F0000110539F048F00230110551F48081842721
:101F100006C08081842B03C0409580818423808308
:101F2000561708F451C0561BE058FF4F5830A0F127
:101F300002301105A9F4DF01852F9C9190959C93A7
:101F4000A058BF4F88508830C0F788EF850F86951E
:101F500086958695B0E88B9FE00DF11D112419C080
:101F600081E00130110509F080E0982F9195EF0193
:101F7000852F9883C058DF4F88508830D0F788EF7E
:101F8000850F86958695869590E8899FE00DF11DD1
:101F90001124E058FF4F57705523B1F0A52FB0E042
:101FA000A45FBE4F9C910130110539F048F002301A
:101FB000110551F48081892706C08081892B03C0D7
:101FC0009095808189238083DF91CF911F910F911C
:101FD0000895CF92DF92EF92FF920F931F93CF93CA
:101FE000DF937C018B01EA01690177FDA0C00E94AB
:101FF0007617081719070CF09AC0D7FD98C0C701CB
:102000000E947A17C817D9070CF091C0C7010E9427
:102010005E17823009F07FC0F701848195819C01B1
:10202000201B310B89010150110986819781FC0128
:10203000EC1BFD0BEF0121970BC0813049F4F70138
:10204000848195818C1B9D0BE8018C010150110945
:10205000F1E0CF16D10431F010F132E0C316D10413
:10206000E1F165C0FE01D7FD379683E0F595E79570
:102070008A95E1F7F695FE2FEE27F795E795E00FA5
:10208000F11FE45EFE4FC770DD2781E090E00C2E6B
:1020900001C0880F0A94EAF79081982B3AC0FE019C
:1020A000D7FD3796A3E0F595E795AA95E1F7F69564
:1020B000FE2FEE27F795E795E00FF11FE45EFE4F48
:1020C000C770DD2781E090E00C2E01C0880F0A94D4
:1020D000EAF78095908198231CC0FE01D7FD3796C2
:1020E00063E0F595E7956A95E1F7F695FE2FEE2703
:1020F000F795E795E00FF11FE45EFE4FC770DD270F
:1021000081E090E00C2E01C0880F0A94EAF79081DC
:10211000982790830CC0833009F08FCFF701868118
:102120009781801B910B8E01EC01219791CFDF915C
:10213000CF911F910F91FF90EF90DF90CF90089576
:102140001F93CF93DF93EC01162F40E450E060E83B
:1021500070E00E94AD1489E595E0998388838FEF44
:102160008C8F88A38E8F8D8F1F8FDF91CF911F91C2
:10217000089580E094E0ECE1F1E0DF019C011D9224
:1021800021503040E1F70895FC0181A1882339F006
:102190006EBD00000DB407FEFDCF8EB5089588E03A
:1021A00090E030E8A4A1B5A14C9123A5209524236B
:1021B0002C93A2A1B3A122A5432F462321F04C9139
:1021C000422B4C9304C04C91209524232C93A4A122
:1021D000B5A12C9143A5242B2C933695019711F78B
:1021E00008951F93CF93DF93EC01162F8C8D8F3FB3
:1021F00009F1EEA1FFA180819CA5892B8083E8A530
:10220000F9A590818DA5809589238083EEA1FFA1FA
:1022100090818CA5809589238083CE010E94C41073
:10222000EEA1FFA180819CA5892B8083DF91CF91B6
:102230001F9108958A8D682F772767FD70958DEF20
:1022400095E00E94291860E08DEF95E00E94D61776
:10225000612F8DEF95E00E94D6178DEF95E0DF910D
:10226000CF911F910C943E180F931F93CF93DF9340
:10227000EC01162F022F6B8F4A8F8C8D8F3F09F444
:102280008CC061E08E8D0E94AC1B61E088A10E9431
:10229000AC1B88A1992787FD9095FC01EF5CF84F56
:1022A000E491F0E0EE0FFF1FE15BF84F25913491D0
:1022B0003FA32EA3FC01E35EF84F84918CA78E8D83
:1022C000992787FD9095FC01EF5CF84FE491F0E0D1
:1022D000EE0FFF1FE15BF84F2591349139A728A736
:1022E000FC01E35EF84F84918DA789A1811134C070
:1022F00061E08C8D0E94AC1B61E08D8D0E94AC1B57
:102300008D8D992787FD9095FC01EF5CF84FE49146
:10231000F0E0EE0FFF1FE15BF84F259134913DA3F4
:102320002CA3FC01E35EF84F84918BA78C8D992739
:1023300087FD9095FC01EF5CF84FE491F0E0EE0F23
:10234000FF1FE15BF84F259134913BA32AA3FC01C9
:10235000E35EF84F84918AA789A1882311F10E9436
:10236000F0128091FB05882399F09FB7F894809133
:10237000FB05813059F48DB38093F9052DB380911D
:10238000FA05809582238DBB9FBF02C09093F9050B
:1023900080E58CBD81E08DBD04C08DEF95E00E948D
:1023A00015180023F1F08F8D87FD1BC061E00E949E
:1023B000AC1B61E08F8D0E94E51B61E070E080E066
:1023C00090E00E94891A60E08F8D0E94E51B6AE010
:1023D00070E080E090E00E94891A61E08F8D0E9499
:1023E000E51B6EEACE010E94F11065EDCE010E9460
:1023F000F11060E8CE010E94F11068EACE010E945F
:10240000F1106FE3CE010E94F11063EDCE010E9446
:10241000F11060E0CE010E94F11060E4CE010E9454
:10242000F1106DE8CE010E94F110113011F460E15D
:1024300001C064E1CE010E94F11060E2CE010E9471
:10244000F11060E0CE010E94F11061EACE010E941D
:10245000F11068ECCE010E94F1106AEDCE010E94ED
:10246000F11062E1CE010E94F11061E8CE010E94FC
:10247000F110113011F46FE901C06FECCE010E9430
:10248000F11069EDCE010E94F110113011F462E2F9
:1024900001C061EFCE010E94F1106BEDCE010E94F0
:1024A000F11060E4CE010E94F11064EACE010E94B6
:1024B000F11066EACE010E94F1106EE2CE010E9498
:1024C000F1106FEACE01DF91CF911F910F910C9423
:1024D000F110DF92EF92FF920F931F93CF93DF9350
:1024E000EC0161E20E94F11060E0CE010E94F11067
:1024F0006FE7CE010E94F11062E2CE010E94F1105E
:1025000060E0CE010E94F11067E0CE010E94F11060
:102510008C8D8F3F31F1EEA1FFA180819CA5892B8D
:102520008083E8A5F9A580819DA5892B8083EEA1F4
:10253000FFA190818CA58095892380830CE111E017
:10254000F80161918F01CE010E94C410F5E00C31B9
:102550001F07B1F7EEA1FFA180819CA5892B808385
:1025600037C0D090B8008CE08093B8000CE111E047
:102570006A8D772767FD70958DEF95E00E94291889
:10258000E091FD05F091FE050190F081E02D60E401
:102590008DEF95E00995E12CF12CF801EE0DFF1D72
:1025A00060818DEF95E00E94D6178FEFE81AF80A48
:1025B000E0E1EE16F10489F78DEF95E00E943E18F8
:1025C000005F1F4FF5E00C311F0791F6D092B80065
:1025D000DF91CF911F910F91FF90EF90DF900895C1
:1025E000CF93CFB7F8948091FC05811127C0EBE31E
:1025F000F7E08491E7E2F7E09491E82FF0E0EE0F46
:10260000FF1FE75AF84FA591B4918C91892321F4CB
:1026100061E08AE00E94E51B61E08AE00E94AC1B59
:102620008CB580618CBD8CB580648CBD61E08DE023
:102630000E94AC1B61E08BE00E94AC1B8091FC050A
:102640008F5F8093FC05CFBFCF9108952F923F926B
:102650004F925F926F927F928F929F92AF92BF92B2
:10266000CF92DF92EF92FF920F931F93CF93DF935E
:1026700000D000D0CDB7DEB74C017C836B836A01FC
:102680005901C8018701AC014C195D0957FF03C00E
:1026900051954195510995016B817C81261B370B22
:1026A00037FF03C031952195310922242394312C21
:1026B0002417350714F0212C312C2114310459F042
:1026C0003A2D2B2D5C01832F922F3B812C81DC82B4
:1026D000CB82C32ED22EAB81BC81AA16BB065CF482
:1026E0003C2D2D2D6C01832F922F3B812C81BC82A0
:1026F000AB82A32EB22E2501EB81FC814E1A5F0A1C
:102700003C016C187D0877FE03C0719461947108D8
:10271000720157FE03C0FFEFEF1AFF0AF594E7942A
:10272000C816D9062CF421E030E03A83298324C06E
:102730006FEF7FEF7A8369831FC0D401ED91FC9125
:102740000480F581E02D980121143104D9F04B81EA
:102750005C81B601C4010995E618F708F7FE06C0CA
:10276000E981FA81CE0EDF1EE40CF51C2B813C8141
:102770002F5F3F4F3C832B836B817C81A616B7066E
:10278000E4F604C0A6016B817C81E4CF0F900F902A
:102790000F900F90DF91CF911F910F91FF90EF90CD
:1027A000DF90CF90BF90AF909F908F907F906F9071
:1027B0005F904F903F902F9008956F927F928F92ED
:1027C0009F92AF92BF92CF92DF92EF92FF920F93C0
:1027D0001F93CF93DF93EC015B016A01390148013C
:1027E000E881F9810284F385E02D87010995E8816C
:1027F000F981A601480D591D415051090284F38504
:10280000E02D9301B501CE010995E881F98100849D
:10281000F185E02D9401A601B501CE010995E8816D
:10282000F981B501660D771D615071090084F1854C
:10283000E02D9401A601CE010995DF91CF911F9162
:102840000F91FF90EF90DF90CF90BF90AF909F904F
:102850008F907F906F900895EF92FF920F931F9348
:10286000DC01ED91FC91240F351F215031090680C8
:10287000F781E02D780189019B0109951F910F9146
:10288000FF90EF900895EF92FF920F931F93DC015A
:10289000ED91FC91260F371F215031090680F781F9
:1028A000E02D78018A0109951F910F91FF90EF901B
:1028B00008956F927F928F929F92AF92BF92CF9224
:1028C000DF92EF92FF920F931F93CF93DF935C0100
:1028D0004A0169013801EB01C60ED71ECC15DD0592
:1028E00074F4D501ED91FC910084F185E02D870110
:1028F0009301A401BE01C50109952196EFCFDF9197
:10290000CF911F910F91FF90EF90DF90CF90BF90EC
:10291000AF909F908F907F906F900895EF92FF926D
:102920000F931F93DC01ED91FC9111971A960D9175
:102930001C911B9718962D913C9119970684F78549
:10294000E02D7B0140E050E060E070E009951F91D0
:102950000F91FF90EF9008950895FC011382128269
:1029600081E795E0918380837583648357834683F1
:102970007187608753874287158A15861486178664
:10298000168621E0248B8FEF9FEF938B828B918BA8
:10299000808B268B178A118E108E08952F923F926E
:1029A0004F925F926F927F928F929F92AF92BF925F
:1029B000CF92DF92EF92FF920F931F93CF93DF930B
:1029C000CDB7DEB76A970FB6F894DEBF0FBECDBFA6
:1029D0001C0158874F831C870B87FA86E986CC82B7
:1029E000DC0158964D915C9159974115510509F0BC
:1029F000A6C018968D919C911997681779070CF0CD
:102A000056C11A968D919C911B97EF81F885E81716
:102A1000F9070CF04CC1D12CCB013C81F6E03F9F73
:102A2000800D911D1124181619060CF040C1C60125
:102A300003E0880F991F0A95E1F74F815885840FAD
:102A4000951F181619060CF032C157968C918111FA
:102A500003C0203B08F02F5F7E876D874B011982F2
:102A600019E0A12E12E0B12EA61AB70A55E0259F53
:102A7000A00CB11C11248981853039F0ED85FE85CB
:102A8000EA0DFB1D94919A8301C01A826F807884AD
:102A90002301A8E0AD83BA81B0FF12C0D101ED914E
:102AA000FC91BC81B13031F40480F581E02D2B859F
:102AB0003C8518C00684F785E02DEB84FC841DC09E
:102AC000E985FA852B853C85E217F307E1F0D10112
:102AD000ED91FC91BC81B13059F40480F581E02D79
:102AE00029853A85A2016D857E85C10109950BC0B6
:102AF0000684F785E02DE984FA8486019601A30116
:102B0000B401C1010995EA81E695EA83FD81F1509E
:102B1000FD836C0C7D1C2FEF421A520AF111BBCFC2
:102B200039813F5F39838C0C9D1C4D855E854F5FDD
:102B30005F4F5E874D87363009F09DCFB8C0FA01F0
:102B400034963491329785919491231BA7E02A9F64
:102B5000800D911D1124FA0125913491398B288B18
:102B6000FC01459154915A8F498FFC013296549142
:102B700059873196A491AF873196E491FC0135963F
:102B8000249131968491BC81B23050F0622E77242A
:102B900067FC7094E82FFF27E7FDF095FE87ED872F
:102BA000FC81CF2ED12C6C9C40016D9C900C7C9CA8
:102BB000900C1124860E971EA12C1982DE8ACD8AD4
:102BC000AB01420F511D27FD5A955E834D83AF81A6
:102BD000B885A80FB11D87FDBA95B88FAF8B598105
:102BE0008F85581708F063C0852F90E02D853E85AE
:102BF000280F391F2C9DD0012D9DB00D3C9DB00D8F
:102C00001124EF81F885EA0FFB1FFB83EA836D80B7
:102C10007E802401FA2D2D81F21BFA8B4F89588D6D
:102C2000480F591F5C8B4B8B9A89960D862D2D81F1
:102C3000821B39858317B0F5977061F4898D9A8D61
:102C40000196E889F989298D3A8DE20FF31FB49036
:102C50009A8F898FB7FE1DC0D101ED91FC91BC8187
:102C6000B13059F40480F581E02D2B853C854B89EA
:102C70005C89B301C10109950CC00684F785E02D7C
:102C8000EB84FC84860196014A815B81B201C1011B
:102C90000995BB0CED89FE894E0E5F1EFFEF6F1A82
:102CA0007F0AC2CFA30E49814F5F498398CF6A96AE
:102CB0000FB6F894DEBF0FBECDBFDF91CF911F914D
:102CC0000F91FF90EF90DF90CF90BF90AF909F90CB
:102CD0008F907F906F905F904F903F902F900895CE
:102CE000AF92BF92CF92EF92FF920F931F93CF9329
:102CF000DF93EC01262F888D998D009709F042C053
:102D00006A3069F42C898E859F8538E0239F800D79
:102D1000911D11249F878E871D861C86ABC06D3048
:102D200009F4A8C08E898823C1F03C898C859D85D3
:102D300046E0349F800D911D1124488559858417E4
:102D400095075CF01D861C868E859F85E8E03E9F7A
:102D5000800D911D11249F878E87EA88FB88088942
:102D600019894E855F856C857D85CC88CE010E9452
:102D7000CE142C898C859D85F6E02F9F800D911DAA
:102D8000112441C06A3079F41D861C864C89FC01EF
:102D9000369684912E853F85489F200D311D112444
:102DA0003F872E8767C06D3009F464C0AC014C5F6B
:102DB0005F4FFA013491631708F45CC03196E491D7
:102DC000E61708F457C0FA014491362F341BFC0172
:102DD0003296A590B490F7E03F9FA00CB11C11244F
:102DE000F5013296A4913196E491AA2311F0E111F4
:102DF0000DC0F5013496A4902C898C859D85A29EEA
:102E0000800D911D11249D878C8734C0F501359666
:102E1000E4913E89332309F13C89B0E0AE0FB11D46
:102E2000E7FDBA953A9FA0013B9F500D11246C8598
:102E30007D85460F571F68857985461757076CF0C3
:102E40001D861C86FC01369684914E855F85389FD1
:102E5000400D511D11245F874E87EA88FB88088941
:102E600019894E855F856C857D85CC88CE010E9451
:102E7000CE14BFCF81E090E0DF91CF911F910F91F1
:102E8000FF90EF90CF90BF90AF900895FC017587B1
:102E90006487578746870895611101C061E0FC018E
:102EA000648B0895FC01738B628B718B608B08952A
:102EB000FC01718B608B538B428B0895FC018589DB
:102EC0000895FC016370658B84819581268137812B
:102ED000613039F0633029F091878087338722870A
:102EE000089531872087938782870895FC01808524
:102EF00091850895FC0182859385089580912D0622
:102F000090E020912E06821B9109089520912E06B3
:102F100080912D06281750F4E22FF0E0E15DF94F83
:102F2000808190E02F5F20932E0608958FEF9FEF12
:102F30000895E0912E0680912D06E81730F4F0E018
:102F4000E15DF94F808190E008958FEF9FEF089544
:102F50000895CF92DF92EF92FF920F931F93CF933A
:102F6000DF937C01CB018A0120910906222389F09D
:102F7000EB016B01C40ED51ECC15DD0569F069911E
:102F8000D701ED91FC910190F081E02DC7010995E9
:102F9000F3CF642F0E94BA18C801DF91CF911F911F
:102FA0000F91FF90EF90DF90CF900895CF93DF9334
:102FB0001F92CDB7DEB76983209109062223D1F095
:102FC00020910A06203240F021E030E0FC013383FA
:102FD000228380E090E015C080910B06E82FF0E09E
:102FE000E45FF94F998190838F5F80930B06809304
:102FF0000A0605C061E0CE0101960E94BA1881E080
:1030000090E00F90DF91CF910895FC01138212821E
:1030100048EE53E060E070E0448355836683778335
:1030200089E895E091838083089510922E0610928E
:103030002D0610920B0610920A060C94451881E09A
:103040008093090660932C0610920B0610920A06D4
:1030500008950C941F180F93062F21E040910A0643
:103060006CE076E080912C060E94631810920B06AB
:1030700010920A06109209060F91089561E00C94CF
:103080002B188DEF95E00C9405181092BC0681E08A
:103090008093BA061092B90661E082E10E94E51BB6
:1030A00061E083E10E94E51BE9EBF0E080818E7F27
:1030B000808380818D7F808380E28093B80085E467
:1030C0008093BC0008950F93413208F04AC090915C
:1030D000BC069111FCCF92E09093BC060093BA0617
:1030E0009FEF90934F061092940640939306FB0136
:1030F00065E976E0DB019A2F961B941718F49191FD
:103100009D93F9CF1092BB069091BB06880F892B37
:103110008093BB068091B906813061F41092B906A4
:103120008091BB068093BB008091BC0083FDF8CFEB
:1031300085EC01C085EE8093BC00222321F08091B4
:10314000BC068230E1F380914F068F3F61F08091A1
:103150004F06803251F080914F06803341F483E076
:1031600007C081E005C080E003C082E001C084E0C8
:103170000F910895613298F42091BC06243089F4AF
:1031800060937106FC0183E796E0DC012A2F281B7F
:10319000261718F421912D93F9CF80E0089581E04E
:1031A000089582E0089585ED8093BC008091BC0075
:1031B00084FDFCCF1092BC06089585EC8093BC0082
:1031C0001092BC0608951F920F920FB60F92112411
:1031D0002F933F934F935F936F937F938F939F931F
:1031E000AF93BF93EF93FF938091B900887F8036B0
:1031F00009F49EC078F5883209F45DC090F48031FE
:1032000009F456C038F4882309F4F5C0883009F46D
:103210004FC0F5C0883109F44EC0803209F45FC058
:10322000EEC0803409F46AC058F4803309F457C002
:10323000883309F0E4C080934F060E94DD18DFC098
:10324000803509F44FC0883509F45DC0883409F031
:10325000D6C0D3C0883909F4C4C0A8F4883709F4AB
:1032600067C038F4883609F463C0803709F460C059
:10327000C6C0883809F4B5C0803909F45FC0803809
:1032800009F0BDC05BC0803B09F483C038F4803ACC
:1032900009F466C0883A09F47CC0B1C0803C09F4E6
:1032A000A4C0883C09F4A1C0883B09F487C0A7C02A
:1032B0008091BB0610C09091940680919306981758
:1032C00070F5E091940681E08E0F80939406F0E013
:1032D000EB56F94F80818093BB0085EC83C08093CF
:1032E0004F068BC0E091940681E08E0F8093940688
:1032F0008091BB00F0E0EB56F94F808390919406EB
:10330000809193066BC0E091940681E08E0F8093CC
:1033100094068091BB00F0E0EB56F94F80838091DA
:10332000BA0681116AC081E08093B90684EA5EC062
:1033300083E08093BC0610925006CFCF8091500658
:10334000803208F04EC0E091500681E08E0F8093ED
:1033500050068091BB00F0E0EF5AF94F8083BDCF5B
:103360000E94DD1880915006803230F4E0915006C2
:10337000F0E0EF5AF94F10826091500670E0E09152
:10338000B506F091B60681E596E0099510925006D3
:1033900036C084E08093BC061092720610927106CB
:1033A000E091B706F091B8060995809171068111F8
:1033B00005C081E08093710610927306E091720659
:1033C00081E08E0F80937206F0E0ED58F94F808116
:1033D0008093BB009091720680917106981708F453
:1033E0007CCF85E88093BC000AC085EC8093BC004C
:1033F0001092BC0604C010924F060E94D318FF9191
:10340000EF91BF91AF919F918F917F916F915F915C
:103410004F913F912F910F900FBE0F901F901895D5
:103420001F920F920FB60F9211242F933F938F93F9
:103430009F93AF93BF938091BE069091BF06A091DA
:10344000C006B091C1063091BD0626E0230F2D378E
:1034500020F40296A11DB11D05C029E8230F039693
:10346000A11DB11D2093BD068093BE069093BF069B
:10347000A093C006B093C1068091C2069091C30686
:10348000A091C406B091C5060196A11DB11D8093FF
:10349000C2069093C306A093C406B093C506BF911D
:1034A000AF919F918F913F912F910F900FBE0F90F1
:1034B0001F9018952FB7F8946091BE067091BF06C3
:1034C0008091C0069091C1062FBF08953FB7F89430
:1034D0008091C2069091C306A091C406B091C50622
:1034E00026B5A89B05C02F3F19F00196A11DB11D5F
:1034F0003FBF6627782F892F9A2F620F711D811D7C
:10350000911D43E0660F771F881F991F4A95D1F7D9
:1035100008958F929F92AF92BF92CF92DF92EF92D7
:10352000FF926B017C010E94661A4B015C01C11481
:10353000D104E104F104F1F00E94431D0E94661AD7
:10354000681979098A099B09683E734081059105CC
:1035500070F321E0C21AD108E108F10888EE880E64
:1035600083E0981EA11CB11CC114D104E104F10434
:1035700029F7DDCFFF90EF90DF90CF90BF90AF9015
:103580009F908F9008958330910528F0880F991FA0
:1035900004970197F1F70895789484B5826084BD0B
:1035A00084B5816084BD85B5826085BD85B5816047
:1035B00085BDEEE6F0E0808181608083E1E8F0E0A7
:1035C0001082808182608083808181608083E0E8D6
:1035D000F0E0808181608083E1EBF0E080818460B5
:1035E0008083E0EBF0E0808181608083EAE7F0E0B7
:1035F00080818460808380818260808380818E7FEF
:1036000080838081806880831092C10008958E300D
:1036100008F08E50877020911C0590E4299F90013E
:103620001124822B80937C0080917A0080648093A7
:103630007A0080917A0086FDFCCF809178002091FD
:10364000790090E0922B08951F93CF93DF93182F6A
:10365000EB0161E00E94AC1B209711F460E004C014
:10366000CF3FD10539F461E0812FDF91CF911F91D8
:103670000C94E51BE12FF0E0E75FF84FE491E330B5
:10368000F9F048F4E130B9F0E230A1F584B5806298
:1036900084BDC8BD34C0E730E9F0E83019F1E4304A
:1036A00049F580918000806280938000D0938B00E8
:1036B000C0938A0024C084B5806884BDC7BD1FC084
:1036C00080918000806880938000D0938900C093AF
:1036D000880015C08091B00080688093B000C093CE
:1036E000B3000DC08091B00080628093B000C093A1
:1036F000B40005C0C038D1050CF0B5CFAFCFDF9115
:10370000CF911F910895833081F028F4813099F092
:103710008230A1F008958730A9F08830B9F0843064
:10372000D1F4809180008F7D03C0809180008F77DD
:1037300080938000089584B58F7702C084B58F7D13
:1037400084BD08958091B0008F7703C08091B00050
:103750008F7D8093B0000895CF93DF9390E0FC01BC
:10376000E35EF84F2491FC01EF5CF84F84918823CD
:1037700049F190E0880F991FFC01E75AF84FA59195
:10378000B491815B984FFC01C591D4919FB76111B1
:1037900008C0F8948C91209582238C938881822391
:1037A0000AC0623051F4F8948C91322F3095832303
:1037B0008C938881822B888304C0F8948C91822B0F
:1037C0008C939FBFDF91CF9108950F931F93CF9359
:1037D000DF931F92CDB7DEB7282F30E0F901E75F06
:1037E000F84F8491F901E35EF84F1491F901EF5C11
:1037F000F84F04910023C9F0882321F069830E94C7
:10380000831B6981E02FF0E0EE0FFF1FE15BF84FB3
:10381000A591B4919FB7F8948C91611103C0109554
:10382000812301C0812B8C939FBF0F90DF91CF919B
:103830001F910F910895CF93DF93282F30E0F90166
:10384000E75FF84F8491F901E35EF84FD491F901F5
:10385000EF5CF84FC491CC2391F081110E94831B3F
:10386000EC2FF0E0EE0FFF1FEB5BF84FA591B4914A
:103870002C912D2381E090E021F480E002C080E0D3
:1038800090E0DF91CF910895CF92DF92EF92FF9277
:103890000F931F93CF93DF937C016A01EB0100E04C
:1038A00010E00C151D0571F06991D701ED91FC91A7
:1038B0000190F081E02DC7010995892B19F00F5F68
:1038C0001F4FEFCFC801DF91CF911F910F91FF9054
:1038D000EF90DF90CF9008956115710581F0DB01C5
:1038E0000D900020E9F7AD0141505109461B570BDF
:1038F000DC01ED91FC910280F381E02D099480E0E0
:1039000090E00895EF92FF920F931F93CF93DF9370
:103910008C017B01C0E0D0E0F701EC0FFD1F64914A
:10392000662359F0F801A081B181ED91FC91C801A5
:103930000995892B11F02196EFCFCE01DF91CF9120
:103940001F910F91FF90EF9008950C946C1C65E906
:1039500075E00C946C1C8F929F92AF92BF92DF9295
:10396000EF92FF920F931F93CF93DF93CDB7DEB704
:10397000A1970FB6F894DEBF0FBECDBF7C01F42F28
:10398000D52ECB0119A2223008F42AE08E010F5D5A
:103990001F4F822E912CA12CB12C6F2F7D2DA501B4
:1039A00094010E94DD1EF22FD32ECA01015011098D
:1039B0006A3014F4E0E301C0E7E3E60FD801EC93CA
:1039C000232B242B252B49F7B801C7010E946C1C1F
:1039D000A1960FB6F894DEBF0FBECDBFDF91CF9199
:1039E0001F910F91FF90EF90DF90BF90AF909F904D
:1039F0008F9008952115310541F4DC01ED91FC9182
:103A00000190F081E02D642F09940C94AB1C9A0175
:103A1000AB0160E070E00C94FA1CCF93DF9300D010
:103A200000D0CDB7DEB79B01AC01611571058105F2
:103A3000910569F069833A834B835C830E948D1FF3
:103A400029813A814B815C810E94FF1E03C060E0A6
:103A500070E0CB010F900F900F900F90DF91CF91FE
:103A600008950E949B1F08950E94CC1A0E94331D46
:103A70000E94CF0AC0E0D0E00E94250C2097E1F31D
:103A80000E940000F9CF08950CD0E6C0DED040F0CF
:103A9000D5D030F021F45F3F19F0C7C0511110C1EB
:103AA000CAC0EBD098F39923C9F35523B1F3951B02
:103AB000550BBB27AA2762177307840738F09F5F4F
:103AC0005F4F220F331F441FAA1FA9F333D00E2EBE
:103AD0003AF0E0E830D091505040E695001CCAF72B
:103AE00029D0FE2F27D0660F771F881FBB1F2617F0
:103AF00037074807AB07B0E809F0BB0B802DBF01C3
:103B0000FF2793585F4F2AF09E3F510568F08DC004
:103B1000D7C05F3FECF3983EDCF3869577956795C9
:103B2000B795F7959F5FC9F7880F911D9695879573
:103B300097F90895E1E0660F771F881FBB1F621792
:103B400073078407BA0720F0621B730B840BBA0B50
:103B5000EE1F88F7E095089598D088F09F5790F071
:103B6000B92F9927B751A0F0D1F0660F771F881FA2
:103B7000991F1AF0BA95C9F712C0B13081F09FD0E1
:103B8000B1E008959CC0672F782F8827B85F39F07F
:103B9000B93FCCF3869577956795B395D9F73EF401
:103BA00090958095709561957F4F8F4F9F4F0895A9
:103BB000E89409C097FB3EF49095809570956195C7
:103BC0007F4F8F4F9F4F9923A9F0F92F96E9BB277D
:103BD0009395F695879577956795B795F111F8CFF9
:103BE000FAF4BB0F11F460FF1BC06F5F7F4F8F4F64
:103BF0009F4F16C0882311F096E911C0772321F05A
:103C00009EE8872F762F05C0662371F096E8862FF1
:103C100070E060E02AF09A95660F771F881FDAF748
:103C2000880F9695879597F9089597F99F6780E88B
:103C300070E060E008959FEF80EC089500240A94FE
:103C40001616170618060906089500240A94121677
:103C50001306140605060895092E0394000C11F4AA
:103C6000882352F0BB0F40F4BF2B11F460FF04C057
:103C70006F5F7F4F8F4F9F4F089557FD9058440FB0
:103C8000551F59F05F3F71F04795880F97FB991FBB
:103C900061F09F3F79F08795089512161306140678
:103CA000551FF2CF4695F1DF08C016161706180605
:103CB000991FF1CF86957105610508940895E894E0
:103CC000BB2766277727CB0197F908950BD0C4CF80
:103CD000B5DF28F0BADF18F0952309F0A6CFABCFF7
:103CE0001124EECFCADFA0F3959FD1F3950F50E0DA
:103CF000551F629FF001729FBB27F00DB11D639F9E
:103D0000AA27F00DB11DAA1F649F6627B00DA11D43
:103D1000661F829F2227B00DA11D621F739FB00DE9
:103D2000A11D621F839FA00D611D221F749F332759
:103D3000A00D611D231F849F600D211D822F762FF2
:103D40006A2F11249F5750408AF0E1F088234AF0EF
:103D5000EE0FFF1FBB1F661F771F881F915050403B
:103D6000A9F79E3F510570F060CFAACF5F3FECF3FB
:103D7000983EDCF3869577956795B795F795E79527
:103D80009F5FC1F7FE2B880F911D9695879597F938
:103D90000895AA1BBB1B51E107C0AA1FBB1FA61792
:103DA000B70710F0A61BB70B881F991F5A95A9F7E4
:103DB00080959095BC01CD010895A1E21A2EAA1B11
:103DC000BB1BFD010DC0AA1FBB1FEE1FFF1FA217CB
:103DD000B307E407F50720F0A21BB30BE40BF50BC8
:103DE000661F771F881F991F1A9469F76095709551
:103DF000809590959B01AC01BD01CF010895052EE2
:103E000097FB1EF400940E94161F57FD07D00E94D6
:103E1000DD1E07FC03D04EF40C94161F5095409500
:103E2000309521953F4F4F4F5F4F08959095809566
:103E3000709561957F4F8F4F9F4F0895EE0FFF1F35
:103E40000590F491E02D09940E942F1FA59F900DDD
:103E5000B49F900DA49F800D911D11240895A29FE1
:103E6000B001B39FC001A39F700D811D1124911D4E
:103E7000B29F700D811D1124911D08958F929F9204
:103E8000AF92BF92CF92DF92EF92FF92CF93DF93E8
:103E9000EC01688179818A819B81611571058105B9
:103EA000910521F464E279ED8BE597E02DE133EFA4
:103EB00041E050E00E94FF1E49015A019B01AC0104
:103EC000A7EAB1E40E94241F6B017C01ACEEB4EFC1
:103ED000A50194010E94C01FC60ED71EE81EF91E40
:103EE000F7FE06C081E0C81AD108E10880E8F80AA8
:103EF000C882D982EA82FB82C701B6019F77DF912F
:103F0000CF91FF90EF90DF90CF90BF90AF909F90B8
:103F10008F9008950E943E1F089586E091E00E94D0
:103F20003E1F089560930601709307018093080176
:103F300090930901089581E090E0F8940C94C51FD6
:103F4000FB01DC0101900D920020E1F70895F99941
:103F5000FECF92BD81BDF89A992780B50895262F8E
:103F6000F999FECF1FBA92BD81BD20BD0FB6F8945E
:103F7000FA9AF99A0FBE01960895B7FF0C94241F80
:0E3F80000E94241F821B930B0895F894FFCF1C
:103F8E000000C6068000010000000E0100010307BC
:103F9E000F1F3F7F0080C0E0F0F8FCFEFFFFFFFF29
:103FAE00FFFFFFFFFFFFFFFFFFFFFFFFFFFFFFFF13
:103FBE00FFFFFFFFFFFFFFFFFFFFFFFFFFFFFFFF03
:103FCE00FFFFFFFFFFFFFFFFFFFFFFFFFFFFFFFFF3
:103FDE00FFFFFFFFFFFFFFFFFFFFFFFFFFFFFFFFE3
:103FEE00FFFFFFFFFFFFFFFFFFFFFFFFFFFFFFFFD3
:103FFE00FFFFFFFFFFFFFFFFFFFFFFFFFFFFFFFFC3
:10400E00FFFFFFFFFFFFFFFFFFFFFFFFFFFFFFFFB2
:10401E00FFFFFFFFFFFFFFFFFFFFFFFFFFFFFFFFA2
:10402E00FFFF7F3F3F3F3F3F3F3F3F3F3F3F3F3FD2
:10403E00FFFFBF3F3F3F3F7F7FFFFF7F7F3F3FBF82
:10404E00FFFF7F3F3F3F3F3F3F3F3F3F3F3F3F3FB2
:10405E003F3FFFFF3F3FFFFFFFFFFFFFFFFFFFFF62
:10406E00FFFFFFFFFF7F3F3F3F3F3F3F3F3F3F3F52
:10407E003F3F3F3F3F7FFFFF3F3F3F3F3F3F3F3F82
:10408E003F3F3F3F3F3F3F3F3F7FFFFFFFFFFF3F32
:10409E003F3F3FFFFFFFFFFFFFFFFFFFFFFFFFFF62
:1040AE00FFFFF0E0E2E7E7E7E7E7E7E7E7E7E7E765
:1040BE00FFFFFFFFFFFEE2E1E1E0E0FEFEFFFFFF9C
:1040CE00FFFFF0E0E0E2E7E7E7E7E7E7E7E7E7E74C
:1040DE00E7E7FFFFE0E0E7E7E7E7E7E7E7E7E7E740
:1040EE00E7E7E7FFFFF0E0E2E7E7E7E7E7E7E7E725
:1040FE00E7E7E7E2E0F0FFFFE0E0E0FFF9F9F9F9CA
:10410E00F9F9F9F9F9F9F9F8F8FCFFFFF8F8F8E020
:10411E00E0E0E0F8F8F8FFFFFFFFFFFFFFFFFFFF13
:10412E00FFFFFFFF7F7F7F7F7F7F7F7F7F7F7F7F91
:10413E007F7F7F7F7F7F7F7F7F7F7F7F7F7F7F7F81
:10414E007F7F7F7F7F7F7F7F7F7F7F7F7F7F7F7F71
:10415E007F7F7F7F7F7F7F7F7F7F7F7F7F7F7F7F61
:10416E007F7F7F7F7F7F7F7F7F7F7F7F7F7F7F7F51
:10417E007F7F7F7F7F7F7F7F7F7F7F7F7F7F7F7F41
:10418E007F7F7F7F7F7F7F7F7F7F7F7F7F7F7F7F31
:10419E007F7F7F7F7FFFFFFFFFFFFFFFFFFFFFFFA1
:1041AE00FFFFFFFFFEFEFEFEFEFEFEFEFEFEFEFE1D
:1041BE00FEFEFEFEFEFEFEFEFEFEFEFEFEFEFEFE11
:1041CE00FEFEFEFEFEFEFEFEFEFEFEFEFEFEFEFE01
:1041DE00FEFEFEFEFEFEFEFEFEFEFEFEFEFEFEFEF1
:1041EE00FEFEFEFEFEFEFEFEFEFEFEFEFEFEFEFEE1
:1041FE00FEFEFEFEFEFEFEFEFEFEFEFEFEFEFEFED1
:10420E00FEFEFEFEFEFEFEFEFEFEFEFEFEFEFEFEC0
:10421E00FEFEFEFEFEFFFFFFFFFFFFFFFFFFFFFFA5
:10422E00FFFFFF070707A7A7A7A7A7A707474FFFE8
:10423E00F7E7E7C7472F2F1F1FCFCFE7E7F7FFFFA0
:10424E00FFFFFFFF070707BFBF07E7E7E7E7E7E760
:10425E00FFFF070707A7A7A7A7A7A7A7E7E7FFFFE0
:10426E00070707A7A72727A7A7A7A7CFFFFF070718
:10427E0007E7CF9F3F7FFF070707FFFF0707A7A7A8
:10428E00A7A7A7A7A7A7E7E7FFFF070707E7CF9F00
:10429E003F7FFF070707FFFFFFFFFFFFFFFFFFFF48
:1042AE00FFFFFFFCFCFCFCFCFCFCFCFCFCFCFEFF32
:1042BE00FFFFFFFFFCFCFCFCFCFFFFFFFFFFFFFF0F
:1042CE00FFFFFFFFFCFCFCFFFFFCFCFCFCFCFCFC0E
:1042DE00FFFFFCFCFCFCFCFCFCFCFCFCFCFCFFFF04
:1042EE00FCFCFCFFFFFCFCFCFCFCFCFCFFFFFCFCF4
:1042FE00FCFFFFFFFFFEFCFCFCFCFFFFFCFCFCFCDC
:10430E00FCFCFCFCFCFCFCFCFFFFFCFCFCFFFFFFD0
:10431E00FFFEFCFCFCFCFFFFFFFFFFFFFFFFFFFFAC
:10432E00FFFFFFFFFFFFFFFFFFFFFFFFFFFFFFFF8F
:10433E00FFFFFFFFFFFFFFFFFFFFFFFFFFFFFFFF7F
:10434E00FFFFFFFFFFFFFFFFFFFFFFFFFFFFFFFF6F
:10435E00FFFFFFFFFFFFFFFFFFFFFFFFFFFFFFFF5F
:10436E00FFFFFFFFFFFFFFFFFFFFFFFFFFFFFFFF4F
:10437E00FFFFFFFFFFFFFFFFFFFFFFFFFFFFFFFF3F
:10438E00FFFFFFFFFFFFFFF9F7EFE1FFFFFDE0FF8C
:10439E00EFFFF1EEEEF1FFFFFFFFFFFF01426F7344
:1043AE0063616D204100426F7363616D2042004670
:1043BE006F78746563682F444A49200046617453D0
:1043CE006861726B20005261636562616E642000E9
:1043DE002020202000000000007016441CE90F264B
:1043EE0013AE0E760DDD1359148E14AC14000000AE
:1043FE00007016441C311D26132C144314DD135962
:10440E00148E14AC1400000000D617A9177E178660
:10441E00179917A8170D0A006E616E00696E660077
:06442E006F7666002E000F
:00000001FF
