:100000000C94E7030C940F040C940F040C940F044D
:100010000C940F040C940F040C940F040C940F0414
:100020000C940F040C940F040C940F040C940F0404
:100030000C940F040C940F040C940F040C940F04F4
:100040000C9476110C940F040C940F040C940F0470
:100050000C940F040C940F040C940F040C940F04D4
:100060000C94C0110C940F0489088C088F08920816
:10007000950898089B089E08A108A408A708E916F7
:10008000D516C116AD169916851671165D1665162C
:1000900078168B169E16B116C416D716EA16491690
:1000A000351621160D16FD161117251739176C1662
:1000B00080169416A816BC16D016E416F8161A1652
:1000C0003F1664168916AE16D316F8161D17F214CD
:1000D00017153C1561158615AB15D015F515282992
:1000E0002A2B2C2D2E2F1320121121100722081835
:1000F00006091905230A1A040B1B03240C1C020D04
:100100001D25010E1E000F1F26141527161720008F
:100110002020002000200020204368616E6E656C66
:10012000202020205253534900204D487A002E00B1
:100130004F4646004F4E200020004578697420202D
:10014000202020202020202020200052657365746C
:100150002053657474696E6773202000546573744E
:1001600020416C61726D20202020202000446973A2
:10017000706C6179204C6F772042616E640053632C
:100180007265656E205361766572202020200053D1
:10019000686F7720537461727473637265656E0063
:1001A000426174746572792043616C69622E20200B
:1001B00000416C61726D204C6576656C20202020BA
:1001C00020004261747465727920416C61726D2007
:1001D0002020004C69506F203373204D6574657288
:1001E000202020004C69506F203273204D657465CB
:1001F0007220202000466C69702053637265656E22
:1002000020202020200000000000240027002A00D9
:1002100000000000250028002B00323031372D303F
:10022000332D31300076312E352062792044766FBF
:10023000676F6E656E004359434C4F502B00352E4F
:1002400036352020202020352E3820202020203533
:100250002E393500352E33352020202020352E36FE
:100260002020202020352E39350020204368616E63
:100270006E656C202020205253534900204D487A4F
:10028000005343414E0000000000003E5B4F5B3EC8
:100290003E6B4F6B3E1C3E7C3E1C183C7E3C181C4B
:1002A000577D571C1C5E7F5E1C00183C1800FFE742
:1002B000C3E7FF0018241800FFE7DBE7FF30483AE8
:1002C000060E2629792926407F050507407F05254A
:1002D0003F5A3CE73C5A7F3E1C1C08081C1C3E7FD2
:1002E00014227F22145F5F005F5F06097F017F0099
:1002F0006689956A606060606094A2FFA2940804B9
:100300007E040810207E201008082A1C08081C2AD9
:1003100008081E101010100C1E0C1E0C30383E3831
:1003200030060E3E0E06000000000000005F0000D8
:100330000007000700147F147F14242A7F2A122349
:100340001308646236495620500008070300001C59
:100350002241000041221C002A1C7F1C2A08083E62
:100360000808008070300008080808080000606075
:100370000020100804023E5149453E00427F4000E3
:1003800072494949462141494D331814127F1027BB
:10039000454545393C4A494931412111090736490A
:1003A000494936464949291E0000140000004034DE
:1003B00000000008142241141414141400412214E3
:1003C0000802015909063E415D594E7C1211127C0A
:1003D0007F494949363E414141227F4141413E7F6B
:1003E000494949417F090909013E414151737F084B
:1003F00008087F00417F41002040413F017F0814F1
:1004000022417F404040407F021C027F7F04081051
:100410007F3E4141413E7F090909063E4151215E2F
:100420007F09192946264949493203017F01033FC3
:100430004040403F1F2040201F3F4038403F631452
:1004400008146303047804036159494D43007F4154
:1004500041410204081020004141417F0402010291
:1004600004404040404000030708002054547840B6
:100470007F284444383844444428384444287F384A
:100480005454541800087E090218A4A49C787F08CC
:1004900004047800447D40002040403D007F102847
:1004A000440000417F40007C047804787C08040408
:1004B000783844444438FC1824241818242418FCA0
:1004C0007C08040408485454542404043F44243C45
:1004D0004040207C1C2040201C3C4030403C4428B4
:1004E0001028444C9090907C4464544C440008364E
:1004F00041000000770000004136080002010204BC
:10050000023C2623263C1EA1A161123A4040207ADB
:100510003854545559215555794122545478422123
:100520005554784020545579400C1E52721239555A
:100530005555593954545459395554545800004557
:100540007C410002457D420001457C407D12111234
:100550007DF0282528F07C545545002054547C54C7
:100560007C0A097F4932494949323A4444443A3283
:100570004A4848303A4141217A3A42402078009D29
:10058000A0A07D3D4242423D3D4040403D3C24FFD5
:100590002424487E4943662B2FFC2F2BFF0929F684
:1005A00020C0887E090320545479410000447D41D5
:1005B0003048484A32384040227A007A0A0A727D2E
:1005C0000D19317D2629292F282629292926304849
:1005D0004D4020380808080808080808382F10C8B7
:1005E000ACBA2F102834FA00007B000008142A143B
:1005F0002222142A14085500550055AA55AA55AAB6
:10060000FF55FF55FF000000FF00101010FF001401
:100610001414FF001010FF00FF1010F010F014145D
:1006200014FC001414F700FF0000FF00FF1414F482
:1006300004FC141417101F10101F101F1414141F83
:1006400000101010F0000000001F101010101F10FC
:10065000101010F010000000FF10101010101010FB
:100660001010FF10000000FF140000FF00FF00004A
:100670001F10170000FC04F414141710171414F4BE
:1006800004F40000FF00F714141414141414F700F9
:10069000F7141414171410101F101F141414F4144A
:1006A0001010F010F000001F101F0000001F1400B9
:1006B0000000FC140000F010F01010FF10FF1414E4
:1006C00014FF141010101F00000000F010FFFFFFB7
:1006D000FFFFF0F0F0F0F0FFFFFF0000000000FF70
:1006E000FF0F0F0F0F0F3844443844FC4A4A4A3476
:1006F0007E02020606027E027E026355494163388D
:1007000044443C04407E201E2006027E020299A53D
:10071000E7A5991C2A492A1C4C7201724C304A4D9B
:100720004D303048784830BC625A463D3E494949D0
:10073000007E0101017E2A2A2A2A2A44445F444479
:1007400040514A444040444A51400000FF0103E008
:1007500080FF000008086B6B083612362436060F3F
:10076000090F06000018180000001010003040FFAC
:100770000101001F01011E00191D1712003C3C3C25
:100780003C000000000000000000230026002900BB
:100790000404040404040404020202020202030327
:1007A000030303030102040810204080010204082F
:1007B00010200102040810200000000800020100BF
:1007C0000003040700000000000000005C1C11246E
:1007D0001FBECFEFD8E0DEBFCDBF26E0A4E8B5E076
:1007E00001C01D92A538B207E1F715E0A0E0B1E025
:1007F000E4E6FEE302C005900D92A438B107D9F7F4
:1008000013E0C7EED3E004C02197FE010E94AD1CA7
:10081000C63ED107C9F70E94E2150C94301F0C9414
:1008200000000F931F93CF93DF93DC0155968C91BB
:100830005597823071F0833009F1813009F08CC016
:100840001496ED91FC911597E41BF50BE21BF30B4D
:1008500020C01496ED91FC911597CF01861B970B44
:10086000BC01615071091696ED91FC911797CF016B
:10087000841B950BAC01421B530B6EC01696ED9179
:10088000FC911797CF01861B970BBC016150710932
:10089000FA0177FD1BC116968D919C9117976817E9
:1008A00079070CF013C1F7FF04C02E0F3F1FE0E0E3
:1008B000F0E014968D919C911597AF01420F531F54
:1008C000841795071CF49C012E1B3F0B1216130670
:1008D0000CF0FCC0CB0177FD079643E0959587951A
:1008E0004A95E1F79695982F882797958795E80F71
:1008F000F91FEE5FFE4F6770772781E090E001C03F
:10090000880F6A95EAF7482F0130110541F088F009
:100910000230110509F0DAC02E0F3F1F15C02E0F4F
:100920003F1FE217F30709F4D1C08081842B819324
:10093000F8CF80952E0F3F1FE217F30709F4C6C0CA
:10094000908198239193F8CFE217F30709F4BEC082
:10095000808184278193F8CF77FDB8C014968D915C
:100960009C911597681779070CF0B0C057FF04C029
:10097000240F351F40E050E016968D919C911797FB
:10098000FA01E20FF31F8E179F071CF49C01241B32
:10099000350B121613060CF099C0A22F842F8695E2
:1009A0008695869590E8899F600D711D1124FB0145
:1009B000EE5FFE4F4770A9F198E0941B492F50E07D
:1009C000EA01C25FDA4F8881291790F4421B51096E
:1009D0002FEF30E002C0359527954A95E2F7822344
:1009E0000130110541F068F00230110589F06EC048
:1009F0000130110519F42081822B0CC00130110542
:100A000020F480952081822305C00230110531F445
:100A1000208182278083A91708F458C0A91BE058B9
:100A2000FF4FA83048F10230110559F4EF018A2F29
:100A3000988190959883C058DF4F88508830C0F7D0
:100A400030C081E00130110509F080E08195EF01AF
:100A50009A2F8883C058DF4F98509830D0F788EF8E
:100A60008A0F86958695869590E8899FE00DF11D01
:100A70001124E058FF4FA770AA2341F1B0E0AA5F0C
:100A8000BA4F8C910130110529F038F00230110570
:100A9000D1F01CC09081892B18C08095908189234A
:100AA00014C088EF8A0F86958695869590E8899F71
:100AB000E00DF11D1124E058FF4FA77039F0B0E0B0
:100AC000AA5FBA4F8C91908189278083DF91CF9163
:100AD0001F910F9108950F931F93CF93DF93DC0124
:100AE000FB0155968C915597823081F0833019F136
:100AF000813051F514968D919C911597BC01641B22
:100B0000750BAB0141505109BF0181C014966D9125
:100B10007C911597CB018E1B9F0BFC0116968D9136
:100B20009C911797BC01641B750BAB014150510997
:100B3000E21BF30B09C016966D917C9117976E1B03
:100B40007F0B621B730B63C057FD1CC116968D9102
:100B50009C911797481759070CF014C1F7FF04C070
:100B60002E0F3F1FE0E0F0E014968D919C911597B9
:100B7000BF01620F731F861797071CF49C012E1B81
:100B80003F0B121613060CF0FDC0CA0157FD079665
:100B900063E0959587956A95E1F79695982F882754
:100BA00097958795E80FF91FEE5FFE4F4770552721
:100BB00081E090E001C0880F4A95EAF7482F0130A4
:100BC000110541F088F00230110509F0DBC02E0F4D
:100BD0003F1F15C02E0F3F1FE217F30709F4D2C0C5
:100BE0008081842B8193F8CF80952E0F3F1FE217D1
:100BF000F30709F4C7C0908198239193F8CFE217C7
:100C0000F30709F4BFC0808184278193F8CF57FD93
:100C1000B9C014968D919C911597481759070CF0FF
:100C2000B1C077FF04C0260F371F60E070E0169652
:100C30008D919C911797FB01E20FF31F8E179F0771
:100C40001CF49C01261B370B121613060CF09AC0DD
:100C5000A22F862F86958695869590E8899F400DD0
:100C6000511D1124FA01EE5FFE4F6770A9F198E063
:100C7000961B492F50E0EA01C25FDA4F888129179D
:100C800090F4421B51092FEF30E002C035952795B3
:100C90004A95E2F782230130110541F068F00230F5
:100CA000110589F06FC00130110519F42081822BE4
:100CB0000CC00130110520F480952081822305C0ED
:100CC0000230110531F4208182278083A91708F4AE
:100CD00059C0A91BE058FF4FA83048F10230110558
:100CE00059F4EF018A2F988190959883C058DF4F6F
:100CF00088508830C0F731C081E00130110509F01B
:100D000080E08195EF019A2F8883C058DF4F98507B
:100D10009830D0F788EF8A0F86958695869560E89B
:100D2000869FE00DF11D1124E058FF4FA770AA2304
:100D300049F1B0E0AA5FBA4F8C910130110529F05A
:100D400038F002301105D9F01DC09081892B03C005
:100D5000809590818923808315C088EF8A0F8695BE
:100D60008695869570E8879FE00DF11D1124E05867
:100D7000FF4FA77039F0B0E0AA5FBA4F8C91908115
:100D80008927E9CFDF91CF911F910F910895FC0141
:100D900077FD9AC080859185681779070CF094C01B
:100DA00057FD92C082859385481759070CF08CC077
:100DB0008589823009F07CC084819581DC01A61B85
:100DC000B70BBD016150710986819781FC01E41B5D
:100DD000F50BAF01415051090AC0813041F48481C3
:100DE0009581841B950BAB01BC01615071092130C9
:100DF000310529F008F122303105E1F10895FA01B9
:100E000057FD3796A3E0F595E795AA95E1F7F69596
:100E1000FE2FEE27F795E7956E0F7F1FFB01EE5F24
:100E2000FE4F4770552781E090E001C0880F4A953A
:100E3000EAF79081892B3AC0FA0157FD379623E0F3
:100E4000F595E7952A95E1F7F695FE2FEE27F795AC
:100E5000E7956E0F7F1FFB01EE5FFE4F4770552732
:100E600081E090E001C0880F4A95EAF78095908173
:100E700089231CC0FA0157FD379683E0F595E79565
:100E80008A95E1F7F695FE2FEE27F795E7956E0F19
:100E90007F1FFB01EE5FFE4F4770552781E090E01A
:100EA00001C0880F4A95EAF79081892780830895C9
:100EB000833009F092CF86819781861B970BBA0108
:100EC000AC014150510993CF089560E082E00E9447
:100ED000C41060E084E00E94C41061E082E00E94DF
:100EE000C41060E082E00C94C41060E082E00E94D4
:100EF000C41061E084E00E94C41061E082E00E94BE
:100F0000C41060E082E00C94C4100F931F93CF9341
:100F1000DF93C62FDEE0D80F8091840526E330E012
:100F2000281B310990910001692F70E000E010E06A
:100F300040E050E086E596E00E9411046D2F70E0DD
:100F400001E010E026E330E040E050E086E596E086
:100F50000E941104D0930001C63320F085E38093F2
:100F6000840502C0C0938405DF91CF911F910F913A
:100F70000C94D5131F93CF93DF938F5D91409C0109
:100F8000369527952F71EC0156E0D695C7955A9561
:100F9000E1F7D695DC2FCC27D795C795C22B61E01A
:100FA00083E00E94C41060E083E00E94C4100E94AD
:100FB00075070E9465070E9465070E9465070E94E9
:100FC000750710E1C0FF03C00E94750702C00E94B0
:100FD0006507D695C7951150A9F70E9465070E942D
:100FE00065070E9465070E94650761E083E00E9433
:100FF000C41060E083E00E94C41060E082E00E94C0
:10100000C41060E084E0DF91CF911F910C94C41074
:1010100092EF980F8E3008F0892F8770982F906488
:1010200080E240E050E090937C0020917A002064C0
:1010300020937A0020917A0026FDFCCF2091780041
:101040006091790030E0362B420F531F815059F7E1
:10105000CA0125E0969587952A95E1F708958FE0D6
:101060000E9408082091900530E02A573140820FF5
:10107000931F65E070E00E94991CCB01C296089511
:10108000CF92DF92EF92FF920F931F93CF93DF9354
:10109000D82FC62E0E94811310926306109262060A
:1010A000109265061092640681E080936A06DD2343
:1010B00019F0CFEFCD0F01C0CBE087E0D82E01E0D3
:1010C00010E09AE0E92EF12CCC3008F0C0E010934B
:1010D0006706009366061092690610926806CD13A3
:1010E0000AC0C11008C010926706109266061093DD
:1010F0006906009368064C2F50E0FA013197EB30F7
:10110000F10520F4EC5CFF4F0C94AD1C85EF91E0F1
:1011100020C084EE91E01DC083ED91E01AC082EC06
:1011200091E017C081EB91E014C080EA91E011C01A
:101130008FE891E00EC08EE791E00BC08DE691E064
:1011400008C08CE591E005C08BE491E002C08AE321
:1011500091E00E94C11510936706009366061092F5
:10116000690610926806CD130AC0CC2041F0109297
:10117000670610926606109369060093680688E376
:1011800091E00E94C115C43020F08AEF8C0F8330AB
:1011900078F4EC2FF0E0E557FA4F8081882319F0BE
:1011A00084E391E002C080E391E00E94C11526C073
:1011B000C43021F460918F0570E016C0C530D1F4C1
:1011C0000E942F08B7010E94991C80E090E04AE03D
:1011D0000E9480158EE291E00E94C1150E942F08A6
:1011E000B7010E94991CBC0180E090E04AE00E9497
:1011F000801504C08EE395E00E946E1583E495E0AF
:101200000E946E15CF5FDA94D1105ECFDF91CF913F
:101210001F910F91FF90EF90DF90CF900C94D5131A
:10122000CF92DF92EF92FF920F931F93CF93DF93B2
:1012300090918D0580918C05911103C0882309F44C
:10124000E6C0882329F0C4E5D0E004E410E004C03F
:10125000CEE7D0E006E610E00E942F088C179D072D
:1012600008F04AC00817190718F5BC01601B710B7C
:1012700080E090E00E94541D6B017C01CE01801B38
:10128000910BBC0180E090E00E94541D9B01AC01D9
:10129000C701B6010E94B31C20E030E048EC52E4E4
:1012A0000E94E21D0E94251DC62F653010F00AC065
:1012B000C0E082E390E090938A058093890588ECF2
:1012C00090E00AC06F3068F484E690E090938A055D
:1012D0008093890588EE93E0909388058093870535
:1012E00014C0693150F488EC90E090938A058093A3
:1012F000890588EB9BE0F0CFC3E610928A05109237
:1013000089051092880510928705EE24E394F12C4C
:1013100002E010E024E030E040E250E06DE370E0F5
:1013200086E596E00E94A00F04E110E02AE030E09C
:1013300042E250E06AE370E086E596E00E94A00F8A
:10134000E12CF12C00E110E026E030E044E250E036
:101350006CE370E086E596E00E94A00FC63580F051
:10136000EE24E394F12C02E010E024E030E045E2CA
:1013700050E06DE370E086E596E00E94A00F02C0A9
:10138000C23480F0EE24E394F12C02E010E024E07B
:1013900030E048E250E06DE370E086E596E00E94C0
:1013A000A00F02C0CE3280F0EE24E394F12C02E0D4
:1013B00010E024E030E04BE250E06DE370E086E5C1
:1013C00096E00E94A00F02C0CA3180F0EE24E394A0
:1013D000F12C02E010E024E030E04EE250E06DE35A
:1013E00070E086E596E00E94A00F02C0C63078F05B
:1013F000EE24E394F12C02E010E024E030E041E33D
:1014000050E06DE370E086E596E00E94A00FDF916A
:10141000CF911F910F91FF90EF90DF90CF900895A3
:101420000F931F93CF93DF936091940580E090E03A
:101430000E94BF1E0BE815E0C0E0D0E0F80161910A
:101440008F012196CE010E94BF1EC930D105B1F790
:101450006FEE8AE090E0DF91CF911F910F910C9495
:10146000BF1EEBE8F5E081E08083118282838383F5
:1014700095E0948390E8958386831782808708950A
:10148000E82FF0E0E252FF4FE491F0E0EE0FFF1F93
:10149000E258FF4F859194910895AF92BF92CF92F9
:1014A000DF92EF92FF920F931F93CF93DF93CDB70D
:1014B000DEB766970FB6F894DEBF0FBECDBFB82E6D
:1014C0006B010E94811381E090E090936906809304
:1014D000680690936706809366068AE090E0909392
:1014E000630680936206109265061092640683E09C
:1014F00080936A068B2D0E94400ABC0180E090E038
:101500004AE00E9480158BE490E0909363068093FC
:10151000620687E090E0909365068093640632E06F
:10152000A32EA0926A0689E291E00E94C115EE24E2
:10153000E394F12C08E110E02FE730E048E150E0BF
:1015400060E070E086E596E00E94EF0F109263067F
:10155000109262068BE190E090936506809364069A
:1015600081E080936A0687E191E00E94C1151092A4
:1015700063061092620687E290E09093650680937E
:101580006406A0926A0685E191E00E94C11583E19C
:1015900091E00E94C1150B2D10E002521F4FF8017F
:1015A0008491883010F491E411C0803110F492E4F9
:1015B0000DC0883110F495E409C0803210F496E42F
:1015C00005C0883210F492E501C09CE499838770CD
:1015D0008F5C8A831B82CE0101967C010E946E156E
:1015E00080E191E00E94C115B60180E090E04AE000
:1015F0000E948015109263061092620689E390E0C3
:10160000909365068093640681E080936A06F801F2
:101610000491083018F466E475E016C0003118F43F
:101620006FE475E011C0083118F468E575E00CC08E
:10163000003218F465E675E007C0083218F46FE66A
:1016400075E002C069E775E0C7010E94541EF7010A
:1016500001900020E9F73197EE19FF09FF27D70124
:10166000AE0FBF1F07700F5C0C93EC0FFD1F1282B3
:10167000F70101900020E9F7C7018E1B9F0B4696EA
:1016800096958795182F112331F08EE091E00E94F6
:10169000C1151150F8CFC7010E946E150E941009A4
:1016A0000E94D51366960FB6F894DEBF0FBECDBF6D
:1016B000DF91CF911F910F91FF90EF90DF90CF902E
:1016C000BF90AF900895EF92FF920F931F93CF9327
:1016D000DF938C0180919305882311F0D0E001C045
:1016E000D8E0CD2F8CE2E82EFF24F3948C2F0E94BB
:1016F000400A801B910B1816190634F48C2F0E9497
:10170000400A801B910B07C08C2F0E94400A980151
:10171000281B390BC9018E159F0514F4DC2F7C01A1
:10172000CF5FC03319F78D2FDF91CF911F910F91AC
:10173000FF90EF900895CF92DF92EF92FF920F9378
:101740001F93CF93DF936C017A018B01C0E0D0E04F
:10175000CE15DF0589F0D8016D918D01D601ED918F
:10176000FC910190F081E02DC6010995892B11F4BF
:101770007E0102C02196ECCFC701DF91CF911F916E
:101780000F91FF90EF90DF90CF9008953FB7F894BE
:101790008091FB059091FC05A091FD05B091FE059F
:1017A00026B5A89B05C02F3F19F00196A11DB11DBC
:1017B0003FBFBA2FA92F982F8827820F911DA11DF7
:1017C000B11DBC01CD0143E0660F771F881F991F33
:1017D0004A95D1F7089585ED8093BC008091BC00B7
:1017E00084FDFCCF1092260608954091D105262F46
:1017F00030E0240F311D21323105DCF42091260622
:101800002430C9F4FC0180E090E0861758F4309150
:10181000D1052191DC01A155BA4FA30FB11D2C9325
:101820000196F3CF8091D105680F6093D10580E0D8
:10183000089581E0089582E00895089581E090E0A0
:101840003091860520918505321710F480E090E0F4
:1018500091958195910908958091860590918505CE
:10186000891730F48F5F8093860580E090E00895BB
:101870008FEF9FEF08958091850590E02091860578
:10188000821B91090895CF92DF92EF92FF920F93FE
:101890001F93CF93DF937C01262F972F8A0180918E
:1018A0002706882391F0C62FD72F6E01C40ED51EB0
:1018B000CC15DD0571F06991D701ED91FC91019096
:1018C000F081E02DC7010995F3CF642F822F0E948C
:1018D000F50BC801DF91CF911F910F91FF90EF9011
:1018E000DF90CF900895CF93DF931F92CDB7DEB7EF
:1018F0006983209127062223D1F0209149062032C6
:1019000040F021E030E0FC013383228380E090E06E
:1019100015C080912806E82FF0E0E75DF94F998126
:1019200090838F5F809328068093490605C061E00D
:10193000CE0101960E94F50B81E090E00F90DF91BF
:10194000CF91089508952F923F924F925F926F9298
:101950007F928F929F92AF92BF92CF92DF92EF923F
:10196000FF920F931F93CF93DF93CDB7DEB76B97A3
:101970000FB6F894DEBF0FBECDBF4C015A8349832A
:101980001F830E83FD82EC82CB82DC0158964D9141
:101990005C9159974115510509F0A5C018968D9194
:1019A0009C911997681779070CF05AC11A968D9176
:1019B0009C911B97E981FA81E817F9070CF050C157
:1019C000D12CCB013B81F6E03F9F800D911D11246E
:1019D000181619060CF044C1C60133E0880F991F90
:1019E0003A95E1F749815A81840F951F1816190617
:1019F0000CF036C157968C91811103C0203B08F042
:101A00002F5F55E0259F900111247E876D875B0134
:101A1000212CC901861B970B99878887A981BA81D8
:101A20001896BB87AA87B5E02B1641F0E885F985A3
:101A3000EA0DFB1DEA57FD4F349001C0312C69803F
:101A40007A80230130FE12C0D401ED91FC91BB815C
:101A5000B13031F40480F581E02D2E813F8118C032
:101A60000684F785E02DEE80FF801CC0EC81FD81AF
:101A70002E813F81E217F307E1F0D401ED91FC9153
:101A8000BB81B13051F40480F581E02D2C813D8182
:101A9000A301B501C40109950CC00684F785E02DAA
:101AA000EC80FD8086019601A2016D857E85C401D2
:101AB00009953694EFEF6E1A7E0A4C0C5D1C2A8550
:101AC0003B856216730609F0BDCF23943FEFA31A3E
:101AD000B30A4D855E854C0D5D1D5E874D8756E0D2
:101AE0002512A1CFBDC0FA01349634913297859169
:101AF0009491231BA7E02A9F800D911D1124FA01C8
:101B0000259134913A8B298BFC0125903490FC016E
:101B1000329634913887319644914C873196E491CE
:101B2000FC013596A491319684915B81523050F03E
:101B30006A2E0A2E000C7708E82F082E000CFF0BE7
:101B4000FB87EA87FB81CF2ED12C6C9C90016D9C8A
:101B5000300D7C9C300D1124A901460F571F588B66
:101B60004F871C82A12CEA2FAA0FFF0B3B016E0EA0
:101B70007F1E5885650F711DDB01AE0FBF1FBF8B28
:101B8000AE8BE981FA81E80FF11D87FDFA95F98F97
:101B9000E88F9C85A91608F063C08A2D90E04A85DD
:101BA0005B85480F591F4C9D90014D9D300D5C9DEC
:101BB000300D1124A981BA81A20FB31FBE87AD8752
:101BC0007B8E6A8E4F845888BC81B619BB8BE88D9A
:101BD000F98DE80FF91FFD8BEC8B8B89FA8D8F0F38
:101BE0002A8D3B8D4E895F892417350799F18770BF
:101BF00041F4C1010196E989FA89E20DF31DB4901F
:101C00001C01B7FE1EC0D401ED91FC91BB81B13027
:101C100061F40480F581E02D2E813F814C895D893E
:101C20006A8D7B8DC40109950CC00684F785E02D73
:101C3000EE80FF80860196014D855E85B201C4016C
:101C40000995BB0CEA8DFB8D3196FB8FEA8F4C0C0E
:101C50005D1CC3CF5C818885580F5C83A39499CFAA
:101C60006B960FB6F894DEBF0FBECDBFDF91CF915C
:101C70001F910F91FF90EF90DF90CF90BF90AF90AA
:101C80009F908F907F906F905F904F903F902F909C
:101C90000895AF92BF92CF92EF92FF920F931F934E
:101CA000CF93DF93EC01262F888D998D009709F053
:101CB00042C06A3069F42C898E859F8538E0239F65
:101CC000800D911D11249F878E871D861C86ACC0B8
:101CD0006D3009F4A9C08E898823C1F03C898C85B8
:101CE0009D8546E0349F800D911D112448855985BE
:101CF000841795075CF01D861C868E859F85E8E01D
:101D00003E9F800D911D11249F878E87EA88FB8856
:101D1000088919894E855F856C857D85CC88CE01C3
:101D20000E94A30C2C898C859D85F6E02F9F800D49
:101D3000911D112441C06A3079F41D861C862C89BE
:101D4000FC013696E4918E859F852E9F800D911D16
:101D500011249F878E8768C06D3009F465C0AC017F
:101D60004C5F5F4FFA013491631708F45DC0319600
:101D7000E491E61708F458C0FA014491362F341B59
:101D8000FC013296A590B490F7E03F9FA00CB11CE7
:101D90001124F501329634913196E491332311F0F8
:101DA000E1110DC0F5013496E4912C898C859D8557
:101DB000E29F800D911D11249D878C8735C0F50110
:101DC000359644915E89552311F16C89E32FF0E03B
:101DD000E40FF11D47FDFA956E9FD0016F9FB00D86
:101DE00011244C855D854A0F5B1FE885F9854E17E8
:101DF0005F076CF01D861C86FC013696E4918E858B
:101E00009F856E9F800D911D11249F878E87EA8884
:101E1000FB88088919894E855F856C857D85CC880E
:101E2000CE010E94A30CBECF81E090E0DF91CF9164
:101E30001F910F91FF90EF90CF90BF90AF900895BA
:101E4000EF92FF920F931F93DC01ED91FC9111979C
:101E50001A960D911C911B9718962D913C911997EC
:101E60000684F785E02D7B0140E050E060E070E003
:101E700009951F910F91FF90EF9008956F927F92B7
:101E80008F929F92AF92BF92CF92DF92EF92FF928A
:101E90000F931F93CF93DF936C015A014801EB011D
:101EA0003B01620E731EC615D70574F4D601ED9181
:101EB000FC910084F185E02D87019401A501BE010C
:101EC000C60109952196EFCFDF91CF911F910F9118
:101ED000FF90EF90DF90CF90BF90AF909F908F904A
:101EE0007F906F900895EF92FF920F931F93DC0104
:101EF000ED91FC91260F371F215031090680F781A3
:101F0000E02D78018A0109951F910F91FF90EF90C4
:101F10000895EF92FF920F931F937801DC01ED91EA
:101F2000FC91240F351F8901015011090680F781AA
:101F3000E02D9B0109951F910F91FF90EF9008955F
:101F40006F927F928F929F92AF92BF92CF92DF92C9
:101F5000EF92FF920F931F93CF93DF93EC014B010E
:101F60005A0169013801E881F9810284F385E02D85
:101F700087010995E881F981A501460D571D41505A
:101F800051090284F385E02D9601B401CE01099533
:101F9000E881F9810084F185E02D9301A501B40168
:101FA000CE010995E881F981C80CD91CB6016150B0
:101FB00071090084F185E02D9301A501CE010995F9
:101FC000DF91CF911F910F91FF90EF90DF90CF9015
:101FD000BF90AF909F908F907F906F9008952F92B9
:101FE0003F924F925F926F927F928F929F92AF92A9
:101FF000BF92CF92DF92EF92FF920F931F93CF93F6
:10200000DF9300D01F92CDB7DEB74C017B836A838C
:102010006A01590117019801241B350B37FF03C0D2
:10202000319521953109C5014A815B81841B950B4E
:1020300097FF03C091958195910951E059838217CB
:10204000930714F019820BC09A2D8B2D5801092F7C
:10205000182F9A818B81DB82CA82C92ED82E8A8161
:102060009B81A816B9065CF49C2D8D2D6801092F63
:10207000182F9A818B81BB82AA82A92EB82E2501A6
:10208000AA81BB814A1A5B0A38016C187D0877FE69
:1020900003C0719461947108720157FE03C0BFEFD1
:1020A000EB1AFB0AF594E794C016D1061CF00FEF6B
:1020B0001FEF1FC001E010E01CC0D401ED91FC91A6
:1020C000B9810480F581E02D9101BB23C1F04A81E3
:1020D0005B81B601C4010995E618F708F7FE04C054
:1020E000C00ED11EE40CF51CEA81FB813196FB8306
:1020F000EA834A815B81A416B506FCF604C0A601FA
:102100006A817B81E7CF0F900F900F90DF91CF9185
:102110001F910F91FF90EF90DF90CF90BF90AF9005
:102120009F908F907F906F905F904F903F902F90F7
:1021300008950E944F1E833081F028F4813099F079
:102140008230A1F008958730A9F08830B9F084304A
:10215000D1F4809180008F7D03C0809180008F77C3
:1021600080938000089584B58F7702C084B58F7DF9
:1021700084BD08958091B0008F7703C08091B00036
:102180008F7D8093B00008951F93CF93DF93282F06
:1021900030E0F901E854F84F8491F901EC55F84F1B
:1021A000D491F901E057F84FC491CC23C9F0162F10
:1021B00081110E949B10EC2FF0E0EE0FFF1FE05FFB
:1021C000FD4FA591B4918FB7F894111105C09C9162
:1021D000ED2FE095E92302C0EC91ED2BEC938FBF3E
:1021E000DF91CF911F910895CF93DF9390E0FC0191
:1021F000EC55F84F2491FC01E057F84F8491882367
:1022000061F190E0880F991FFC01EA5FFD4FC591D5
:10221000D491FC01E05FFD4FA591B491611109C01B
:102220009FB7F8948881209582238883EC912E2390
:102230000BC0623061F49FB7F8943881822F80958B
:1022400083238883EC912E2B2C939FBF06C08FB7DE
:10225000F894E8812E2B28838FBFDF91CF910895CA
:102260008F929F92AF92BF92CF92DF92EF92FF92A6
:102270006B017C010E94C60B4B015C01C114D104AF
:10228000E104F104F1F00E94C60BDC01CB018819D6
:102290009909AA09BB09883E9340A105B10570F3CD
:1022A00021E0C21AD108E108F10888EE880E83E027
:1022B000981EA11CB11CC114D104E104F10419F74A
:1022C000DDCFFF90EF90DF90CF90BF90AF909F90C9
:1022D0008F9008952FB7F8946091F7057091F805E5
:1022E0008091F9059091FA052FBF08951F920F92E2
:1022F0000FB60F9211242F933F938F939F93AF9319
:10230000BF938091F7059091F805A091F905B091E0
:10231000FA053091F60526E0230F2D3720F40296BA
:10232000A11DB11D05C029E8230F0396A11DB11DF4
:102330002093F6058093F7059093F805A093F9058F
:10234000B093FA058091FB059091FC05A091FD05E5
:10235000B091FE050196A11DB11D8093FB059093E0
:10236000FC05A093FD05B093FE05BF91AF919F9131
:102370008F913F912F910F900FBE0F901F90189546
:102380001F920F920FB60F9211242F933F934F93EA
:102390005F936F937F938F939F93AF93BF93EF93CD
:1023A000FF938091B900887F803609F49CC068F55E
:1023B000883209F45BC090F4803109F454C038F4D9
:1023C000882309F4F6C0883009F44DC0F6C088317E
:1023D00009F44CC0803209F45DC0EFC0803409F4C8
:1023E00068C048F4803309F455C0883309F0E5C06B
:1023F00080932406D8C0803509F44FC0883509F48D
:102400005DC0883409F0D9C0D6C0883909F4C7C086
:10241000A8F4883709F467C038F4883609F463C033
:10242000803709F460C0C9C0883809F4B8C0803961
:1024300009F45FC0803809F0C0C05BC0803B09F47C
:1024400086C038F4803A09F466C0883A09F47FC03F
:10245000B4C0803C09F4A7C0883C09F4A4C0883B00
:1024600009F48AC0AAC08091010610C09091230689
:1024700080912206981770F5E091230681E08E0F77
:1024800080932306F0E0EE5FF94F80818093BB00DC
:1024900085EC86C0809324068EC0E091230681E0FF
:1024A0008E0F809323068091BB00F0E0EE5FF94F22
:1024B000808390912306809122066EC0E0912306CE
:1024C00081E08E0F809323068091BB00F0E0EE5FE9
:1024D000F94F80838091250681116DC081E0809342
:1024E000000684EA61C083E0809326061092F50519
:1024F000CFCF8091F505803208F051C0E091F5050D
:1025000081E08E0F8093F5058091BB00F0E0EB52E7
:10251000FA4F8083BDCF85EC8093BC0010922606D5
:102520008091F505803230F4E091F505F0E0EB5252
:10253000FA4F10826091F50570E0E091D305F091BB
:10254000D40585ED95E009951092F50536C084E037
:10255000809326061092D2051092D105E091CF0506
:10256000F091D00509958091D105811105C081E0D8
:102570008093D1051092AF05E091D20581E08E0FD6
:102580008093D205F0E0E155FA4F80818093BB0043
:102590009091D2058091D105981708F479CF85E8FC
:1025A0008093BC000AC085EC8093BC001092260684
:1025B00004C0109224060E94EB0BFF91EF91BF9193
:1025C000AF919F918F917F916F915F914F913F91CB
:1025D0002F910F900FBE0F901F90189520914906D4
:1025E00090918406213208F04AC08091260681111C
:1025F000FCCF32E03093260631E0309325063FEFE2
:10260000309324061092230620932206A9E2B6E016
:1026100042E056E0FA013E2F341B321718F43D9188
:102620003193F9CF1092010620910106990F922B58
:102630009093010690910006913061F4109200068B
:10264000909101069093BB009091BC0093FDF8CF50
:1026500095EC01C095EE9093BC00909126069230C7
:10266000E1F3909124069F3F79F080912406803217
:1026700041F080912406803331F084E005C081E090
:1026800003C082E001C083E0109228061092490640
:1026900010922706089590917706992339F08EBD00
:1026A00000000DB407FEFDCF8EB5089528E030E0A0
:1026B00040E8E0917A06F0917B0650819091810686
:1026C000909595239083E0917806F091790690910A
:1026D0008006542F582319F05081952B03C0508148
:1026E000909595239083E0917A06F0917B06508136
:1026F00090918106952B9083469521503109C9F61A
:10270000089580E094E0E2E0F1E0DF019C011D9299
:1027100021503040E1F70895CF93C82F8091720681
:102720008F3F59F1E0917C06F0917D068081909178
:102730008206982B9083E0917E06F0917F0620819F
:1027400090918306909592239083E0917C06F0917E
:102750007D062081909182069095922390838C2F04
:102760000E944B13E0917C06F0917D069081809150
:102770008206892B8083CF9108958091700691E025
:10278000909327068093840610922806109249069B
:1027900060E08AE496E00E94730C6C2F8AE496E075
:1027A0000E94730CCF910C94EE129F92AF92BF9245
:1027B000CF92DF92EF92FF920F931F93CF93DF930D
:1027C00080E00E948C1380E10E948C1380E40E94C0
:1027D0008C13809172068F3F09F456C090EBD92E6E
:1027E000C0E0D0E08D2D0E948C1382E00E948C13FB
:1027F00080E10E948C1300E010E0E0917C06F091F3
:102800007D06908180918206892B8083E0917E06EF
:10281000F0917F06908180918306892B8083E091DF
:102820007C06F0917D0690818091820680958923B7
:102830008083E12CF12C5801AC0EBD1EF701EA0D8E
:10284000FB1DEE5FFE4F80810E944B138FEFE81A55
:10285000F80A80E1E816F10489F7E0917C06F0912E
:102860007D06908180918206892B8083005F1F4FB7
:102870000038110511F6C058DF4FD394C11584E01C
:10288000D80709F0AFCF4BC0C090B8008CE0809360
:10289000B80080EBD82EC0E0D0E0992493948D2D21
:1028A0000E948C1382E00E948C1380E10E948C13A2
:1028B00000E010E0809170069092270680938406D5
:1028C000109228061092490660E48AE496E00E947D
:1028D000730CE12CF12C5801AC0EBD1EF701EA0D72
:1028E000FB1DEE5FFE4F60818AE496E00E94730C50
:1028F0008FEFE81AF80A80E1E816F10479F70E94F0
:10290000EE12005F1F4F00381105A1F6C058DF4FCF
:10291000D394C11584E0D80711F6C092B800DF91B6
:10292000CF911F910F91FF90EF90DF90CF90BF90CC
:10293000AF909F900895CF93DF93EDEBF7E08491F4
:10294000E9EAF7E0D491E5E9F7E0C491CC2391F00E
:1029500081110E949B10EC2FF0E0EE0FFF1FEA5751
:10296000F84FA591B491EC91ED2381E090E021F432
:1029700080E002C080E090E0DF91CF9108950F9356
:102980001F93CF930E949B140197D1F100E010E0B8
:102990000E949B14892B49F40F5F1F4F65E070E084
:1029A00080E090E00E943011F3CFC801805591097A
:1029B0008C3D910528F00C32114020F0C4E003C09A
:1029C000C3E001C0C1E08091FF05811103C000E0B8
:1029D00010E011C01092FF05C130C9F785E020C09A
:1029E0000F5F1F4F09321105A1F065E070E080E034
:1029F00090E00E9430110E949B14019719F4F0CFCF
:102A000080E00EC00832110521F00E949B14892B32
:102A100011F08C2F05C00E949B14892BE1F382E0FA
:102A2000CF911F910F910895CF93DF93EC0161E057
:102A300086E00E94F410209711F460E004C0CF3FBC
:102A4000D10531F461E086E0DF91CF910C94C410A0
:102A5000EEEBF7E0E491E330F9F048F4E130B9F05F
:102A6000E230A1F584B5806284BDC8BD34C0E730D2
:102A7000E9F0E83019F1E43049F580918000806296
:102A800080938000D0938B00C0938A0024C084B5CB
:102A9000806884BDC7BD1FC080918000806880931E
:102AA0008000D0938900C093880015C08091B00049
:102AB00080688093B000C093B3000DC08091B000D7
:102AC00080628093B000C093B40005C0C038D105C7
:102AD0000CF0B8CFB2CFDF91CF910895009769F095
:102AE000FC0101900020E9F73197AF01481B590B19
:102AF000BC0186E596E00C949B0B80E090E0089585
:102B00008F929F92AF92BF920F931F93CF93DF93B9
:102B1000CDB7DEB7A1970FB6F894DEBF0FBECDBF1D
:102B200019A2423008F44AE08E010F5D1F4F842E37
:102B3000912CA12CB12CA50194010E94FF1EE62F1F
:102B4000B901CA0101501109EA3014F4E05D01C075
:102B5000E95CD801EC93232B242B252B61F7C801CA
:102B60000E946E15A1960FB6F894DEBF0FBECDBFC2
:102B7000DF91CF911F910F91BF90AF909F908F9059
:102B800008950F931F93CF93DF938C01C0E0D0E0A3
:102B9000F801EC0FFD1F6491662371F0E091560679
:102BA000F09157060190F081E02D86E596E00995B9
:102BB000892B11F02196ECCFCE01DF91CF911F919F
:102BC0000F910895CF93DF931F92CDB7DEB778941E
:102BD00084B5826084BD84B5816084BD85B5826022
:102BE00085BD85B5816085BD80916E0081608093D3
:102BF0006E0010928100809181008260809381003C
:102C0000809181008160809381008091800081604B
:102C1000809380008091B10084608093B1008091A6
:102C2000B00081608093B00080917A0084608093CE
:102C30007A0080917A00826080937A0080917A0095
:102C40008E7F80937A0080917A00806880937A00EA
:102C50001092C10061E08DE00E94F41061E08DE00F
:102C60000E94C41060E085E00E94F41062E085E0FC
:102C70000E94C41061E086E00E94F41061E083E0ED
:102C80000E94F41061E084E00E94F41061E082E0B0
:102C90000E94F4108AE090E00E94B71E8F3EC9F4B3
:102CA00080E090E00E94B71E809394050BE815E049
:102CB000EE24E394F12CC7010E94B71EF801819322
:102CC0008F01FFEFEF1AFF0A8AE0E816F10499F787
:102CD00009C0809193058111B5C588E08093940562
:102CE0000E94310A809194050E94400A0E94BA070E
:102CF00082E0809371068CE3809370068091720667
:102D00008F3F09F4BFC061E0809174060E94F41007
:102D100061E0809176060E94F41080917606082E7C
:102D2000000C990BFC01E057F84FE491F0E0EE0F36
:102D3000FF1FE05FFD4F2591349130937D06209376
:102D40007C06FC01EC55F84FE491E09382068091FB
:102D50007406082E000C990BFC01E057F84FE49123
:102D6000F0E0EE0FFF1FE05FFD4F259134913093AF
:102D70007F0620937E06FC01EC55F84FE491E0932A
:102D800083068091770681113EC061E080917206D2
:102D90000E94F41061E0809173060E94F41080910B
:102DA0007306082E000C990BFC01E057F84FE491D4
:102DB000F0E0EE0FFF1FE05FFD4F2591349130935F
:102DC0007B0620937A06FC01EC55F84FE491E093E2
:102DD000810680917206082E000C990BFC01E057C9
:102DE000F84FE491F0E0EE0FFF1FE05FFD4F2591FB
:102DF00034913093790620937806FC01EC55F84F16
:102E0000E491E093800680917706882309F461C0FD
:102E10001FB7F89480919505811127C0EAE9F7E082
:102E20008491EEEAF7E09491E82FF0E0EE0FFF1FB7
:102E3000EA5FFD4FA591B491EC91E92321F461E0A3
:102E40008AE00E94C41061E08AE00E94F4108CB510
:102E500080618CBD8CB580648CBD61E08DE00E948A
:102E6000F41061E08BE00E94F410809195058F5F73
:102E7000809395051FBF8CB58C7F8CBD8DB581600F
:102E80008DBD27C0109286051092850510922806E8
:102E9000109249061092260681E080932506109232
:102EA000000661E082E10E94C41061E083E10E94BB
:102EB000C4108091B9008E7F8093B9008091B900D1
:102EC0008D7F8093B90080E28093B80085E4809381
:102ED000BC0061E0809175060E94F41061E0809171
:102EE00075060E94C41061E070E080E090E00E94EE
:102EF000301160E0809175060E94C4106AE070E0B5
:102F000080E090E00E94301161E0809175060E949F
:102F1000C4108EEA0E948C1385ED0E948C1380E809
:102F20000E948C1388EA0E948C138FE30E948C13FA
:102F300083ED0E948C1380E00E948C1380E40E9439
:102F40008C138DE80E948C1384E10E948C1380E224
:102F50000E948C1380E00E948C1381EA0E948C13E3
:102F600088EC0E948C138AED0E948C1382E10E94EF
:102F70008C1381E80E948C138FEC0E948C1389EDD6
:102F80000E948C1381EF0E948C138BED0E948C1396
:102F900080E40E948C1384EA0E948C1386EA0E94CB
:102FA0008C138FEA0E948C130E94811380918B05F1
:102FB000882399F082E080936B0680915A06909165
:102FC0005B0690935F0680935E0680915C0690910D
:102FD0005D0690936106809360060E94D5130E945F
:102FE0009B14892B09F0DBC060E080E00E94400860
:102FF0000E94BF1420E000E0622F802F29830E94EE
:1030000040080E94BF1429812223E9F18230D9F0BF
:1030100018F4813031F04EC4853008F04BC420E004
:10302000EBCF043039F480918F05883008F042C42A
:103030008F5F11C00530E9F4809190058A3F08F058
:1030400039C48B5F13C0043049F480918F058230FE
:1030500008F430C4815080938F052CC4053049F4A6
:1030600080919005863008F425C4855080939005A2
:1030700021C4E02FF0E0E557FA4F81E090819111F3
:1030800080E0808317C4823061F018F4813021F031
:10309000B3CF853058F0B0CF0F5F0C3008F4ACCF11
:1030A000AACF002309F404C40150A6CF0B3009F4C1
:1030B0005DC00A3021F429830E94310A55C00930CD
:1030C00009F0F8C313E080E290E029830E94141510
:1030D00068EC70E080E090E00E94301180E090E0C9
:1030E0000E94141568EB7BE080E090E00E943011B4
:1030F000115029811111E7CF13E080E290E029837C
:103100000E94141564E670E080E090E00E943011A7
:1031100080E090E00E94141568EE73E080E090E09B
:103120000E943011115029811111E7CF13E080E284
:1031300090E029830E94141562E370E080E090E043
:103140000E94301180E090E00E94141568EC70E05D
:1031500080E090E00E943011115029811111E7CFD9
:1031600080E090E00E941415298146CF0E94100A49
:1031700080918B05882399F082E080936B06809183
:103180005A0690915B0690935F0680935E0680914D
:103190005C0690915D069093610680936006809135
:1031A0009105882309F4A2C00E948113EE24E394C0
:1031B000F12C00E010E02FE730E040E050E060E06C
:1031C00070E086E596E00E94EF0F81E090E090933A
:1031D00069068093680690936706809366069093CD
:1031E00063068093620684E090E090936506809386
:1031F000640683E080936A0686E392E00E94C1152C
:103200000BE110E02FE730E04BE150E060E070E0D0
:1032100086E596E00E94EF0F8FE090E090936306C2
:103220008093620683E290E0909365068093640643
:1032300081E080936A0685E292E00E94C11581E2F6
:1032400090E0909363068093620682E390E090930F
:103250006506809364068AE192E00E94C1150E948F
:10326000D51318EC0E949B14892B09F43FC06AE027
:1032700070E080E090E00E943011115099F7EFE18A
:103280007E2EF0E88F2E912CA12CB12CA0E4CA2E1A
:10329000D12CE12CF12C7A94772021F10E949B14FF
:1032A000892B21F10BEF10E001501109C1F00E94B0
:1032B000A91EA50194010E94CD1E662E0E94A91E82
:1032C000A70196010E94CD1E462F50E0662D70E0AA
:1032D00020E030E086E596E00E94C706E5CF0E9438
:1032E000D513D9CF0E9481130E94D5130E946A1171
:1032F000DC01CB01805F984DAF4FBF4F8093A60597
:103300009093A705A093A805B093A90579E3872E0C
:1033100077E1972ECC24C394D12C6AE0A62EB12C51
:103320000E94BF148093AE05823009F48CC120F452
:10333000813009F479C1A9C1833009F4A8C084306F
:1033400009F0A3C1809194050E94400A3C010E94AB
:103350008113EE24E394F12C07E310E02FE730E033
:1033600047E350E060E070E086E596E00E94EF0FF2
:10337000D0926906C0926806D0926706C09266062F
:1033800081E080936A06109263061092620689E3D8
:1033900090E090936506809364068091930588235E
:1033A00019F084E592E002C08EE392E00E94C1151C
:1033B00060E080E00E948507730104E60E94BF146C
:1033C000811141C010919305111103C083E090E079
:1033D00002C086E090E0E80EF91E9AE3E91697E154
:1033E000F90658F0111105C03DE0E32E36E1F32E49
:1033F00004C021EEE22E24E1F22EC7010E94BA079A
:1034000069E170E080E090E00E94301184E10E9468
:1034100008088C589109B5010E94991C462FC401D7
:103420008E199F09111103C063E070E002C066E0CD
:1034300070E00E94991C862F642FE02FE81B8E2FCE
:103440000E948507BBCF8701045111092701F4E1D0
:103450004F0E511CE12CF12CC8010E94BA0769E102
:1034600070E080E090E00E94301184E10E94080842
:10347000E816F90610F438017C010E5F1F4F0415A1
:10348000150551F7C3010E94BA07C301B5C089836E
:103490000E948113D0926906C0926806D092670696
:1034A000C0926606B0926306A0926206109265060C
:1034B00010926406898180936A0681E892E00E94F6
:1034C000C1158BE490E0909363068093620687E0D9
:1034D00090E0909365068093640682E080936A068C
:1034E0008CE792E00E94C115EE24E394F12C08E1F0
:1034F00010E02FE730E048E150E060E070E086E562
:1035000096E00E94EF0F10926306109262068BE124
:1035100090E0909365068093640681E080936A064C
:103520008AE692E00E94C1150E9410090E94D513FC
:10353000809194050E94400A60909305611003C039
:1035400023E030E002C026E030E02901480E591E99
:1035500040FC03C08FEF481A580A82018CE3782E92
:10356000E12CF12C053397E1190718F40B5F1F4F7D
:1035700007C0611003C00DE016E102C001EE14E1C6
:10358000C8010E94BA0769E170E080E090E00E9403
:10359000301184E10E940808E816F90610F42801A9
:1035A0007C017A9471100AC08201045111097201E0
:1035B000E4E1EE0EF11C612C712C04C08A3F9105F0
:1035C00088F2F2CFC8010E94BA0769E170E080E09A
:1035D00090E00E94301184E10E9408086816790684
:1035E00010F428013C010E5F1F4F0E151F0551F707
:1035F000C2010E94BA07C2010E94630B8093940526
:1036000060E070E00E944D0A0E946A11DC01CB016B
:103610004996A11DB11D8093AA059093AB05A09377
:10362000AC05B093AD0531C0809194058F3230F078
:1036300080919305811105C018E01BC011E0180F9F
:1036400018C010E016C040919405403388F4242F30
:1036500030E080919305811103C088E090E002C0C2
:1036600080E090E02817390719F01FEF140F01C010
:103670001FE210939405812F0E94400A0E94BA070E
:1036800060E070E0812F0E944D0A8091AE05882392
:1036900081F00E946A11DC01CB01805F984DAF4F31
:1036A000BF4F8093A6059093A705A093A805B0935C
:1036B000A9050E946A110091AA051091AB052091FD
:1036C000AC053091AD050617170728073907E0F458
:1036D00080919205882309F4B7C04090A6055090C8
:1036E000A7056090A8057090A9050E946A1146166A
:1036F00057066806790608F0A7C00E9481130E9449
:10370000D51381E08093FF05909194058091A305E6
:10371000981781F00E946A1100919F051091A005F1
:103720002091A1053091A205061717072807390730
:1037300008F4A7C00E946A1100919B0510919C0596
:1037400020919D0530919E05061717072807390718
:10375000B8F481E090910101911180E08093010122
:103760000E946A11DC01CB018C509E4FAF4FBF4FBE
:1037700080939B0590939C05A0939D05B0939E0517
:10378000609101018DE00E94C41080918E05882314
:1037900009F44CC0E0908905F0908A05E114F10429
:1037A00009F444C00E946A11009197051091980590
:1037B0002091990530919A050617170728073907B0
:1037C000C8F581E090919605911180E0809396056F
:1037D000882399F0C60100908F0502C0880F991FB9
:1037E0000A94E2F70E9414150E946A11DC01CB01D1
:1037F0008E0D9F1DA11DB11D10C080E090E00E94A4
:1038000014150E946A112091870530918805DC010A
:10381000CB01820F931FA11DB11D8093970590933B
:103820009805A0939905B0939A0504C080E090E0B4
:103830000E94141580E090E0892B09F471CD0E945C
:10384000000068CD80E04ACA84E10E940808909395
:10385000A5058093A405BC01809194050E944D0AA2
:103860000E946A11DC01CB0188519C4FAF4FBF4FC2
:103870008093AA059093AB05A093AC05B093AD05DA
:1038800043CF0E94100A809194058093A3050E9463
:103890006A11DC01CB01805F984DAF4FBF4F809321
:1038A0009F059093A005A093A105B093A20542CFD8
:1038B0000BE0A2CB21E0A0CBEAE4F6E01382128277
:1038C00088EE93E0A0E0B0E084839583A683B7837D
:1038D0008AE195E091838083E6E5F6E01382128227
:1038E00020E830E03583248380E490E0978386836A
:1038F0003187208793878287158A158614861786D5
:10390000168681E0848B2FEF3FEF338B228B318B38
:10391000208B868B178A118E108E8AE295E0918318
:1039200080838FEF848F80A3868F858F84E0878F3D
:103930000895AA1BBB1B51E107C0AA1FBB1FA617F6
:10394000B70710F0A61BB70B881F991F5A95A9F748
:1039500080959095BC01CD010895EE0FFF1F059055
:10396000F491E02D09940E94C71C0C94A81D0E949C
:10397000A11D58F00E949A1D40F029F45F3F29F0E4
:103980000C94911D51110C94DC1D0C94971D0E94F8
:10399000B91D68F39923B1F3552391F3951B550B8A
:1039A000BB27AA2762177307840738F09F5F5F4F12
:1039B000220F331F441FAA1FA9F335D00E2E3AF051
:1039C000E0E832D091505040E695001CCAF72BD069
:1039D000FE2F29D0660F771F881FBB1F26173707BA
:1039E0004807AB07B0E809F0BB0B802DBF01FF27EC
:1039F00093585F4F3AF09E3F510578F00C94911D1B
:103A00000C94DC1D5F3FE4F3983ED4F386957795E4
:103A10006795B795F7959F5FC9F7880F911D9695A4
:103A2000879597F90895E1E0660F771F881FBB1F00
:103A3000621773078407BA0720F0621B730B840BAD
:103A4000BA0BEE1F88F7E09508950E94C11D88F01B
:103A50009F5798F0B92F9927B751B0F0E1F0660F52
:103A6000771F881F991F1AF0BA95C9F714C0B13093
:103A700091F00E94DB1DB1E008950C94DB1D672FCF
:103A8000782F8827B85F39F0B93FCCF386957795C2
:103A90006795B395D9F73EF49095809570956195AB
:103AA0007F4F8F4F9F4F0895E89409C097FB3EF4D6
:103AB00090958095709561957F4F8F4F9F4F99237B
:103AC000A9F0F92F96E9BB279395F69587957795F9
:103AD0006795B795F111F8CFFAF4BB0F11F460FFB9
:103AE0001BC06F5F7F4F8F4F9F4F16C0882311F011
:103AF00096E911C0772321F09EE8872F762F05C025
:103B0000662371F096E8862F70E060E02AF09A95BF
:103B1000660F771F881FDAF7880F9695879597F9B4
:103B2000089597F99F6780E870E060E008959FEF3F
:103B300080EC089500240A94161617061806090644
:103B4000089500240A941216130614060506089513
:103B5000092E0394000C11F4882352F0BB0F40F49B
:103B6000BF2B11F460FF04C06F5F7F4F8F4F9F4FDB
:103B7000089557FD9058440F551F59F05F3F71F05D
:103B80004795880F97FB991F61F09F3F79F08795C4
:103B90000895121613061406551FF2CF4695F1DF4D
:103BA00008C0161617061806991FF1CF86957105DD
:103BB000610508940895E894BB2766277727CB0111
:103BC00097F908950E94F51D0C94A81D0E949A1D56
:103BD00038F00E94A11D20F0952311F00C94911D46
:103BE0000C94971D11240C94DC1D0E94B91D70F3D8
:103BF000959FC1F3950F50E0551F629FF001729F92
:103C0000BB27F00DB11D639FAA27F00DB11DAA1FA0
:103C1000649F6627B00DA11D661F829F2227B00DED
:103C2000A11D621F739FB00DA11D621F839FA00D78
:103C3000611D221F749F3327A00D611D231F849FC8
:103C4000600D211D822F762F6A2F11249F5750401F
:103C50009AF0F1F088234AF0EE0FFF1FBB1F661F9A
:103C6000771F881F91505040A9F79E3F510580F063
:103C70000C94911D0C94DC1D5F3FE4F3983ED4F34B
:103C8000869577956795B795F795E7959F5FC1F707
:103C9000FE2B880F911D9695879597F9089581E0E1
:103CA00090E0F8940C94301FFB01DC0101900D9220
:103CB0000020E1F708958F929F92AF92BF92CF922A
:103CC000DF92EF92FF92CF93DF93EC0168817981CD
:103CD0008A819B81611571058105910521F464E25A
:103CE00079ED8BE597E02DE133EF41E050E00E9464
:103CF000CD1E49015A019B01AC01A7EAB1E40E9423
:103D0000EC1E6B017C01ACEEB4EFA50194010E94A6
:103D1000FA1EDC01CB018C0D9D1DAE1DBF1DB7FF32
:103D200003C00197A109B04888839983AA83BB8304
:103D3000BC01CD019F77DF91CF91FF90EF90DF9095
:103D4000CF90BF90AF909F908F9008950E945B1E80
:103D5000089582E095E00E945B1E0895609302053D
:103D60007093030580930405909305050895F999D0
:103D7000FECF92BD81BDF89A992780B50895262F70
:103D8000F999FECF1FBA92BD81BD20BD0FB6F89440
:103D9000FA9AF99A0FBE01960895052E97FB1EF424
:103DA00000940E94E41E57FD07D00E94FF1E07FCEE
:103DB00003D04EF40C94E41E509540953095219517
:103DC0003F4F4F4F5F4F0895909580957095619547
:103DD0007F4F8F4F9F4F08950E94211FA59F900DE9
:103DE000B49F900DA49F800D911D11240895B7FFDD
:103DF0000C94EC1E0E94EC1E821B930B0895A1E212
:103E00001A2EAA1BBB1BFD010DC0AA1FBB1FEE1F54
:103E1000FF1FA217B307E407F50720F0A21BB30B9F
:103E2000E40BF50B661F771F881F991F1A9469F71B
:103E300060957095809590959B01AC01BD01CF0177
:103E40000895A29FB001B39FC001A39F700D811D73
:103E50001124911DB29F700D811D1124911D089593
:043E6000F894FFCF04
:103E64000E0100000000000000000000000000003F
:103E7400000000000000000000000000000000003E
:103E8400000000000000000000000000000000002E
:103E9400000000000000000000000000000000001E
:103EA400008080800000000000000000000000008E
:103EB4000000008080C0C00000000000000000007E
:103EC40000000000000000000000000000000000EE
:103ED40000000000000000000000000000000000DE
:103EE40000000000000000000000000000000000CE
:103EF40000000000000080C0E0F0F8FCF8E00000E2
:103F0400000000000000000000000000000000802D
:103F1400808080800080800000000080808080801D
:103F240000FFFFFF00000000808080800000808090
:103F3400000080FFFF8080008080008080808000FF
:103F440080800000000000808000008C8E840000CF
:103F540080F8F8F880000000000000000000000075
:103F64000000F0F0F0F0F0F0F0F0F0F0F0F0E0E04D
:103F7400C08000E0FCFEFFFFFF7FFFFFFFFFFF00AC
:103F840000000000000000000000000000FEFFC769
:103F94000101010183FFFF00007CFEC70101010153
:103FA40083FFFFFF0038FEC78301010183C7FFFFC2
:103FB400000001FFFF010100FFFF070101010000F4
:103FC4007FFF80000000FFFF7F0000FFFFFF000075
:103FD40001FFFFFF010000000000000000000000DE
:103FE4000000030F3F7F7FFFFFFFFFFFFFFFE7C7D7
:103FF400C78F8F9FBFFFFFC3C0F0FFFFFFFFFFFC12
:10400400FCFCFCFCFCFCFCF8F8F0F0E0C000010354
:10401400030303030103030000000001030303037C
:104024000101030100000001030303030101030371
:104034000000000303000000030300000000000070
:104044000001030303030301000000010301000056
:104054000003030100000000000000000000000055
:10406400000000000080C0E0F0F9FFFFFFFFFF3F09
:104074001F0F87C7F7FFFF1F1F3DFCF8F8F8F87CF8
:104084007DFFFFFFFFFFFFFFFF7F3F0F0700303083
:10409400000000000000000000000000000000001C
:1040A400000000000000FEFEFC0000000000000014
:1040B400000000000000000000000000000000E01C
:1040C400C0000000000000000000000030300000CC
:1040D40000000000000000000000000000000000DC
:1040E400000000C0FEFFFFFFFFFFFFFFFFFF7F7F19
:1040F4003F1F0F071F7FFFFFF8F8FFFFFFFFFFFEC3
:10410400F8E0000000010000000000000000FEFED6
:10411400000000FCFEFC0C06060EFCF80000F0F8A3
:104124001C0E0606060CFFFFFF0000FEFE0000004A
:1041340000FCFEFC00183C7E66E6CE84000006FF10
:10414400FF0606FCFEFC0C0606060000FEFE000050
:10415400C0F8FC4E4646464E7C7840183C76E6CE87
:10416400CC800000000000000000000000000000FF
:1041740000000000000001070F1F1F3F3F3F3F1FCB
:104184000F030000000000000000000000000F0FFB
:104194000000000F0F0F000000000F0F00000307C6
:1041A4000E0C18180C060F0F0F0000010F0E0C1840
:1041B4000C0F070100040E0C180C0F070000000F71
:1041C4000F00000F0F0F0000000000000F0F000091
:1041D4000007070C0C181C0C060600040E0C180C27
:1041E4000F070000000000000000000000000000B5
:1041F40000000000000000000000000000000000BB
:1042040000000000000000000000000000000000AA
:10421400000000000000000000000000000000009A
:10422400000000000000000000000000000000008A
:10423400000000000000000000000000000000007A
:10424400000000000000000000000000000000006A
:10425400000000000000000000000000000000005A
:10426400000001000000000103070F1F3F7F0080D2
:10427400C0E0F0F8FCFE00000000730C430C3B0CA3
:104284002C0C1E0C1D0C00000000490E9B0BC706D5
:10429400EF0F11046B05A00F3E0F200FA20C20207E
:1042A4002020000D0A00426F7363616D20410042BB
:1042B4006F7363616D204200466F78746563682F85
:1042C400444A492000466174536861726B2000526D
:1042D40061636562616E6420004C6F7762616E6435
:0442E4002020000096
:00000001FF
