:100000000C94B3030C94DB030C94DB030C94DB0320
:100010000C94DB030C94DB030C94DB030C94DB03E8
:100020000C94DB030C94DB030C94DB030C94DB03D8
:100030000C94DB030C94DB030C94DB030C94DB03C8
:100040000C9462190C94DB030C94DB030C94DB031B
:100050000C94DB030C94DB030C94DB030C94DB03A8
:100060000C9435180C94DB033B093E094109440903
:1000700047095A095709204F464600204F4E004570
:10008000786974202020202020202020202020009B
:1000900052657365742053657474696E67732020AC
:1000A0000053637265656E2053617665722020206F
:1000B000200053686F7720537461727473637265A4
:1000C000656E004261747465727920416C61726D75
:1000D000202020004C69506F203373204D657465DB
:1000E00072202020004C69506F203273204D6574BF
:1000F000657220202000466C69702053637265652C
:100100006E20202020200020003E004F7074696F78
:100110006E7320436F6E66696700352E363520207A
:10012000202020352E382020202020352E39350063
:1001300020204368616E6E656C202020205253534E
:100140004900204D487A005343414E0020002020B2
:10015000002000200020204368616E6E656C202026
:1001600020205253534900204D487A003230313616
:100170002D30372D31350076312E332062792044F1
:10018000766F676F6E656E004359434C4F502B007E
:10019000E916D516C116AD169916851671165D1697
:1001A000651678168B169E16B116C416D716EA1663
:1001B0004916351621160D16FD1611172517391774
:1001C0006C1680169416A816BC16D016E416F816EF
:1001D0001A163F1664168916AE16D316F8161D1792
:1001E0001312201121100722081806091905230AE5
:1001F0001A040B1B03240C1C020D1D25010E1E00EE
:100200000F1F26141527161700000000003E5B4F35
:100210005B3E3E6B4F6B3E1C3E7C3E1C183C7E3C66
:10022000181C577D571C1C5E7F5E1C00183C180074
:10023000FFE7C3E7FF0018241800FFE7DBE7FF3004
:10024000483A060E2629792926407F050507407F72
:1002500005253F5A3CE73C5A7F3E1C1C08081C1CE5
:100260003E7F14227F22145F5F005F5F06097F01DB
:100270007F006689956A606060606094A2FFA294C6
:1002800008047E040810207E201008082A1C080894
:100290001C2A08081E101010100C1E0C1E0C3038E2
:1002A0003E3830060E3E0E06000000000000005FE3
:1002B00000000007000700147F147F14242A7F2AFF
:1002C00012231308646236495620500008070300C1
:1002D000001C2241000041221C002A1C7F1C2A080D
:1002E000083E080800807030000808080808000070
:1002F00060600020100804023E5149453E00427FE4
:10030000400072494949462141494D331814127F32
:100310001027454545393C4A4949314121110907D2
:100320003649494936464949291E00001400000053
:100330004034000000081422411414141414004125
:1003400022140802015909063E415D594E7C1211E2
:10035000127C7F494949363E414141227F4141411A
:100360003E7F494949417F090909013E4141517395
:100370007F0808087F00417F41002040413F017F06
:10038000081422417F404040407F021C027F7F04CE
:1003900008107F3E4141413E7F090909063E415117
:1003A000215E7F09192946264949493203017F0107
:1003B000033F4040403F1F2040201F3F4038403F08
:1003C000631408146303047804036159494D43001E
:1003D0007F4141410204081020004141417F040255
:1003E00001020440404040400003070800205454EC
:1003F00078407F28444438384444442838444428CA
:100400007F385454541800087E090218A4A49C781C
:100410007F0804047800447D40002040403D007F78
:100420001028440000417F40007C047804787C0858
:100430000404783844444438FC182424181824242C
:1004400018FC7C08040408485454542404043F4411
:10045000243C4040207C1C2040201C3C4030403C40
:1004600044281028444C9090907C4464544C4400A0
:100470000836410000007700000041360800020104
:100480000204023C2623263C1EA1A161123A4040F0
:10049000207A38545455592155557941225454786D
:1004A00042215554784020545579400C1E52721206
:1004B000395555555939545454593955545458008F
:1004C00000457C410002457D420001457C407D1293
:1004D00011127DF0282528F07C54554500205454F5
:1004E0007C547C0A097F4932494949323A444444A0
:1004F0003A324A4848303A4141217A3A42402078DB
:10050000009DA0A07D3D4242423D3D4040403D3CDB
:1005100024FF2424487E4943662B2FFC2F2BFF0900
:1005200029F620C0887E09032054547941000044F4
:100530007D413048484A32384040227A007A0A0ADF
:10054000727D0D19317D2629292F28262929292652
:1005500030484D4020380808080808080808382F97
:1005600010C8ACBA2F102834FA00007B0000081421
:100570002A142222142A14085500550055AA55AAF7
:1005800055AAFF55FF55FF000000FF00101010FF97
:1005900000141414FF001010FF00FF1010F010F0F2
:1005A000141414FC001414F700FF0000FF00FF14E3
:1005B00014F404FC141417101F10101F101F14142F
:1005C000141F00101010F0000000001F1010101079
:1005D0001F10101010F010000000FF10101010106D
:1005E00010101010FF10000000FF140000FF00FFAB
:1005F00000001F10170000FC04F414141710171447
:1006000014F404F40000FF00F71414141414141468
:10061000F700F7141414171410101F101F141414DB
:10062000F4141010F010F000001F101F0000001F45
:1006300014000000FC140000F010F01010FF10FF78
:10064000141414FF141010101F00000000F010FF0D
:10065000FFFFFFFFF0F0F0F0F0FFFFFF00000000F1
:1006600000FFFF0F0F0F0F0F3844443844FC4A4A75
:100670004A347E02020606027E027E02635549412A
:10068000633844443C04407E201E2006027E020261
:1006900099A5E7A5991C2A492A1C4C7201724C3075
:1006A0004A4D4D303048784830BC625A463D3E494C
:1006B0004949007E0101017E2A2A2A2A2A44445FF0
:1006C000444440514A444040444A51400000FF01E4
:1006D00003E080FF000008086B6B083612362436F2
:1006E000060F090F06000018180000001010003057
:1006F00040FF0101001F01011E00191D1712003CDF
:100700003C3C3C000000000000000008000201002A
:1007100000030407000000000000000001020408BC
:10072000102040800102040810200102040810205B
:100730000404040404040404020202020202030387
:10074000030303030000000023002600290000002B
:100750000000250028002B000000000024002700D6
:100760002A00B109931711241FBECFEFD8E0DEBFD6
:10077000CDBF15E0A0E0B1E0E2E8FDE302C00590E6
:100780000D92A23AB107D9F726E0A2EAB5E001C07E
:100790001D92A93BB207E1F717E0C6E6D7E004C017
:1007A0002297FE010E941A1EC236D107C9F70E9485
:1007B0002E1C0C94BF1E0C940000E82FF0E0E052B9
:1007C000FE4FE491F0E0EE0FFF1FE057FE4F8591E2
:1007D0009491089581E08093A3051092A4058093DD
:1007E000A5051092A6058093A7051092A805089567
:1007F0000F931F93CF93DF936091BC0580E090E04F
:100800000E94A91E03EA15E0C0E0D0E0F801619162
:100810008F012196CE010E94A91EC630D105B1F7E5
:100820006EEE87E090E0DF91CF911F910F910C94D5
:10083000A91E0F931F93CF93DF9387E090E00E9450
:10084000A11E8E3EA9F480E090E00E94A11E80933C
:10085000BC0503EA15E0C1E0D0E0CE010E94A11E74
:10086000F80181938F012196C730D105B1F702C0FD
:1008700080E001C081E0DF91CF911F910F91089539
:100880000F931F93CF93DF93182F0E940E1B019796
:1008900011F480E04BC06BE470E080E090E00E94D7
:1008A000DB19812F0E940E1B019799F3C0E0D0E065
:1008B000812F0E940E1B892B41F4219665E070E088
:1008C00080E090E00E94DB19F3CF9E0120553109B2
:1008D0002C3D310528F0CC32D14020F401E003C09A
:1008E00003E001C004E0C0E0D0E0812F0E940E1BB5
:1008F000019791F42196C932D10589F46BE470E037
:1009000080E090E00E94DB19812F0E940E1B892B52
:1009100009F402E0802F0AC0A89781F7FBCF65E0B9
:1009200070E080E090E00E94DB19DFCFDF91CF9193
:100930001F910F910895EF92FF920F931F93CF9302
:10094000DF938C01F12CE12CCCE2D1E08F2D0E94C1
:10095000DD03801B910B1816190634F48F2D0E94AD
:10096000DD03801B910B07C08F2D0E94DD039801D2
:10097000281B390BC9018C179D0714F0CE0101C04B
:10098000EF2CF39438E2F31611F0EC01DFCF8E2D4B
:10099000DF91CF911F910F91FF90EF9008950F93EA
:1009A0001F93CF93DF93082F10E2C0E0D0E0802F99
:1009B0000E94591AC80FD91F1150C9F7CE0125E05E
:1009C000969587952A95E1F7DF91CF911F910F9129
:1009D0000895DB01E82FF0E0E052FE4FE491E830AB
:1009E00010F481E40DC0E03110F482E409C0E83174
:1009F00010F485E405C0E03210F486E401C082E51D
:100A00008C93E770EF5C1196EC93119712961C9201
:100A10001297CD0108951F93CF93DF93EB01E82F39
:100A2000F0E0E052FE4F1491183018F46DE175E0DB
:100A300011C0103118F466E275E00CC0183118F4DA
:100A40006FE275E007C0103218F46CE375E002C085
:100A500066E475E0CE010E949A1EDE010D90002032
:100A6000E9F71197AC1BBD0BCE018A0F911DDC017C
:100A700017701F5C1C9311961C92CE01DF91CF91D1
:100A80001F9108958F5D91409C01369527952F7198
:100A900056E0969587955A95E1F79695982F882771
:100AA00097958795822B089560E082E00E94D81A7E
:100AB00081E090E00E94151A61E084E00E94D81A5B
:100AC00081E090E00E94151A61E082E00E94D81A4D
:100AD00081E090E00E94151A60E082E00E94D81A3E
:100AE00081E090E00C94151A60E082E00E94D81A30
:100AF00081E090E00E94151A60E084E00E94D81A1C
:100B000081E090E00E94151A61E082E00E94D81A0C
:100B100081E090E00E94151A60E082E00E94D81AFD
:100B200081E090E00C94151A81E090E00E94151A83
:100B300060E083E00E94D81A81E090E00C94151ADE
:100B400081E090E00E94151A61E083E00E94D81ACB
:100B500081E090E00C94151A1F93CF93DF930E94CD
:100B60004205EC010E94A00581E090E00E94151A68
:100B70000E9494050E9454050E9474050E94740509
:100B80000E9474050E94540510E1C0FF03C00E943A
:100B9000540502C00E947405D695C7951150A9F757
:100BA0000E9474050E9474050E9474050E947405D9
:100BB0000E94A00581E090E00E94151A60E083E0A9
:100BC0000E94D81A60E082E00E94D81A60E084E0B7
:100BD000DF91CF911F910C94D81ACF92DF92EF92B0
:100BE000FF920F931F93CF93DF93EC012A96C0FFE0
:100BF00021968E01ECE3DE2EE12CF12C053387E10A
:100C0000180718F40B5F1F4F02C00DE016E1C80172
:100C10000E94AC0569E170E080E090E00E94DB1981
:100C200084E10E94CF04E816F90610F4E8017C0183
:100C3000DA9451F48E01045111096E0124E1C20EBF
:100C4000D11CE12CF12C0BC08A3F9105B8F2F2CFF8
:100C5000E8010E5F1F4F0C151D0591F07C01C801C6
:100C60000E94AC0569E170E080E090E00E94DB1931
:100C700084E10E94CF04E816F90650F3C701E9CFDA
:100C8000CE010E94AC05CE01DF91CF911F910F9153
:100C9000FF90EF90DF90CF9008959F92AF92BF9218
:100CA000CF92DF92EF92FF920F931F93CF93DF9338
:100CB000942EC62FD0E0A82EB12C650183E0C80E7B
:100CC000D11CE091BE05F091BF050484F585E02DAF
:100CD000EE24E394F12C02E010E024E030E0AE01D9
:100CE000B6018EEB95E00995E091BE05F091BF0548
:100CF000AE014E5F5F4F0484F585E02D04E110E006
:100D00002AE030E0B5018EEB95E00995E091BE0553
:100D1000F091BF05AE014C5F5F4FB5016E5F7F4F35
:100D20000484F585E02DE12CF12C00E110E026E0B3
:100D300030E08EEB95E009958FE58915B0F4E091F0
:100D4000BE05F091BF050484F585E02DEE24E39403
:100D5000F12C02E010E024E030E0AE014B5F5F4F89
:100D6000B6018EEB95E0099503C08BE48915B0F4CC
:100D7000E091BE05F091BF050484F585E02DEE24D9
:100D8000E394F12C02E010E024E030E0AE01485F93
:100D90005F4FB6018EEB95E0099503C087E3891597
:100DA000B0F4E091BE05F091BF050484F585E02D17
:100DB000EE24E394F12C02E010E024E030E0AE01F8
:100DC000455F5F4FB6018EEB95E0099503C083E266
:100DD0008915B0F4E091BE05F091BF050484F58556
:100DE000E02DEE24E394F12C02E010E024E030E06A
:100DF000AE01425F5F4FB6018EEB95E0099503C0EF
:100E00008FE08915A8F4E091BE05F091BF05AE0111
:100E10004F5E5F4F0484F585E02DEE24E394F12CC2
:100E200002E010E024E030E0B6018EEB95E0099599
:100E3000DF91CF911F910F91FF90EF90DF90CF90B6
:100E4000BF90AF909F900895CF92DF92EF92FF9264
:100E50000F931F93CF93DF939091A5058091A405E5
:100E6000911103C0882309F458C0811105C003E81B
:100E700012E0C7E2D2E004C00DEA11E0CFE6D1E013
:100E80008FE00E94CF048017910718F5C817D90783
:100E900010F5BC016C1B7D0B80E090E00E94D21C21
:100EA0006B017C01B8016C1B7D0B80E090E00E941F
:100EB000D21C9B01AC01C701B6010E943E1C20E080
:100EC00030E048EC52E40E94601D0E94A61CC62F30
:100ED00003C0C3E601C0C0E047E250E060E570E057
:100EE0008EEB95E00E949E1662E08EEB95E00E94EC
:100EF000A4164AE050E06C2F8EEB95E00E94FA1B9E
:100F00004C2F60E28AE3DF91CF911F910F91FF9008
:100F1000EF90DF90CF900C944D06DF91CF911F9111
:100F20000F91FF90EF90DF90CF900895DF92EF92B6
:100F3000FF920F931F93CF93DF93CDB7DEB76697E2
:100F40000FB6F894DEBF0FBECDBFD82E8EEB95E066
:100F50000E94111061E070E08EEB95E00E94AA16ED
:100F600040E050E06AE070E08EEB95E00E949E1653
:100F700063E08EEB95E00E94A4168D2D0E94DD03A8
:100F8000BC014AE050E08EEB95E00E94011C47E076
:100F900050E06BE470E08EEB95E00E949E1662E0FC
:100FA0008EEB95E00E94A41667E671E08EEB95E06B
:100FB0000E94751BE091BE05F091BF050680F78188
:100FC000E02DEE24E394F12C08E110E02FE730E06F
:100FD00048E150E060E070E08EEB95E009954BE170
:100FE00050E060E070E08EEB95E00E949E1661E0BC
:100FF0008EEB95E00E94A41665E571E08EEB95E01E
:101000000E94751B47E250E060E070E08EEB95E0D7
:101010000E949E1662E08EEB95E00E94A41663E5A6
:1010200071E08EEB95E00E94751B61E571E08EEB3F
:1010300095E00E94751B8E010F5F1F4FB8018D2D2B
:101040000E94E904BC018EEB95E00E94981B6EE4BF
:1010500071E08EEB95E00E94751B49E350E060E083
:1010600070E08EEB95E00E949E1661E08EEB95E0BD
:101070000E94A416B8018D2D0E940B05F801019065
:101080000020E9F7C8018E1B9F0B46969695879521
:10109000D82EE12CF12CDE1451F06CE471E08EEBD3
:1010A00095E00E94751B8FEFE81AF80AF4CFB8019B
:1010B0008EEB95E00E94981B0E9424078EEB95E032
:1010C0000E94C11166960FB6F894DEBF0FBECDBF69
:1010D000DF91CF911F910F91FF90EF90DF900895D6
:1010E000EF92FF920F931F938EEB95E00E941110E9
:1010F00061E070E08EEB95E00E94AA1640E050E0BF
:101100006AE070E08EEB95E00E949E1663E08EEB45
:1011100095E00E94A41667E471E08EEB95E00E94D2
:10112000751B47E050E06BE470E08EEB95E00E94A9
:101130009E1662E08EEB95E00E94A41662E471E0D8
:101140008EEB95E00E94751BE091BE05F091BF0506
:101150000680F781E02DEE24E394F12C08E110E005
:101160002FE730E048E150E060E070E08EEB95E082
:1011700009954BE150E060E070E08EEB95E00E9455
:101180009E1661E08EEB95E00E94A41660E371E08C
:101190008EEB95E00E94751B0E9424078EEB95E074
:1011A0001F910F91FF90EF900C94C111EF92FF925D
:1011B0000F931F93CF93DF93D82F8EEB95E00E9470
:1011C0001110E091BE05F091BF050684F785E02D72
:1011D000EE24E394F12C0BE010E020E830E040E056
:1011E00050E060E070E08EEB95E0099560E070E023
:1011F0008EEB95E00E94AA1661E08EEB95E00E94CE
:10120000A41642E050E062E070E08EEB95E00E94B0
:101210009E166BE071E08EEB95E00E94751B4EE030
:1012200050E060E070E08EEB95E00E949E1661E079
:1012300070E08EEB95E00E94AA16CD2F16E0C83024
:1012400008F0C0E0CD1303C069E071E002C067E0C0
:1012500071E08EEB95E00E94751B4C2F50E0FA0177
:101260003197E730F10520F4EC5CFF4F0C94181E29
:1012700066EF70E00EC065EE70E00BC064ED70E0EC
:1012800008C063EC70E005C062EB70E002C061EA88
:1012900070E08EEB95E00E94751BEC2FF0E0ED55B1
:1012A000FA4F8081882349F06BE770E008C060E95D
:1012B00070E005C06FE770E002C066E770E08EEB9B
:1012C00095E00E94751B8EEB95E00E949A1BCF5F04
:1012D000115009F0B4CF8EEB95E0DF91CF911F91C3
:1012E0000F91FF90EF900C94C111CF9380E00E947A
:1012F000D60885E00E944004C0E08C2F0E94D608EA
:1013000085E00E944004823059F018F4813021F0C9
:10131000F4CF853048F0F1CFCF5FC83069F3EDCF1F
:10132000CC2399F0C150E9CFC63089F0C73019F409
:101330000E94EA03E2CFEC2FF0E0ED55FA4F81E096
:101340009081911180E08083D8CFC7E0D6CFCF9134
:1013500008958EEB95E00E9411108EEB95E00C94B1
:10136000C11164E08EEB95E00C94F80F0F931F937E
:10137000CF93DF931FE1115031F185E00E940E1BE6
:10138000892B69F1CBEFD0E02197C1F060E870E0E4
:1013900080E090E00E94071C062F60E470E080E08F
:1013A00090E00E94071C462F50E0602F70E020E084
:1013B00030E08EEB95E00E94410FE6CF8EEB95E09A
:1013C0000E94C111D8CF8EEB95E00E9411108EEBD8
:1013D00095E0DF91CF911F910F910C94C111DF9196
:1013E000CF911F910F910895EF92FF920F931F934A
:1013F000CF938EEB95E00E941110E091BE05F09125
:10140000BF050680F781E02DEE24E394F12C00E087
:1014100010E02FE730E040E050E060E070E08EEB5D
:1014200095E0099561E070E08EEB95E00E94AA16C8
:1014300044E050E061E070E08EEB95E00E949E1683
:1014400063E08EEB95E00E94A41668E871E08EEBF5
:1014500095E00E94751BE091BE05F091BF050680E6
:10146000F781E02D0BE110E02FE730E04BE150E099
:1014700060E070E08EEB95E0099543E250E06FE0AC
:1014800070E08EEB95E00E949E1661E08EEB95E099
:101490000E94A41667E771E08EEB95E00E94751B31
:1014A00042E350E061E270E08EEB95E00E949E1610
:1014B0006CE671E08EEB95E00E94751B8EEB95E07B
:1014C0000E94C111C8EC85E00E940E1B892B79F0A7
:1014D0006AE070E080E090E00E94DB19C15099F76B
:1014E000CF911F910F91FF90EF900C94B609CF917F
:1014F0001F910F91FF90EF90089561E08DE00E94A1
:101500009F1A61E08DE00E94D81A60E085E00E9499
:101510009F1A62E085E00E94D81A61E083E00E9491
:101520009F1A61E084E00E949F1A61E082E00E94BD
:101530009F1A0E941904811104C01092BC050E94D8
:10154000EA038091BC050E94DD030E94AC0521E006
:101550004CE362E08EEB95E00E948C108EEB95E000
:101560000E9411108091A305882329F062E08EEB80
:1015700095E00E94B3168EEB95E00E94C11185E0C4
:101580000E940E1B892B69F40E9475090E94F803C2
:101590008091A305882329F062E08EEB95E00E94FC
:1015A000B3168091A70581110E94F4090E94AC191D
:1015B000605F784D8F4F9F4F6093B5057093B60570
:1015C0008093B7059093B80508950F931F93CF9319
:1015D000DF93C62FDEE0D80F8091A20526E330E02E
:1015E000281B310960910A0170E000E010E040E042
:1015F00050E08EEB95E00E94060E6D2F70E001E04A
:1016000010E026E330E040E050E08EEB95E00E94F1
:10161000060ED0930A01C63320F085E38093A2051D
:1016200002C0C093A2058EEB95E0DF91CF911F9190
:101630000F910C94C111EF92FF920F931F938EEBB9
:1016400095E00E941110E091BE05F091BF05068063
:10165000F781E02DEE24E394F12C07E310E02FE76F
:1016600030E047E350E060E070E08EEB95E00995F4
:1016700061E070E08EEB95E00E94AA1661E08EEBCF
:1016800095E00E94A41649E350E060E070E08EEB24
:1016900095E00E949E166AE171E08EEB95E00E9453
:1016A000751B60E080E01F910F91FF90EF900C940C
:1016B000E50A9F92AF92BF92CF92DF92EF92FF9294
:1016C0000F931F93CF93DF935C010E941B0BCA2DD6
:1016D000DB2D0AE010E0E9E3EE2EE7E1FE2EF3E079
:1016E000CF2ED12CA4E69A2E85E00E9440048111D1
:1016F00027C02396CA3387E1D80710F0CDE0D6E1A2
:10170000CE010E94AC0569E170E080E090E00E94AB
:10171000DB1984E10E94CF048C589109B8010E9422
:10172000C31D262FC7018C1B9D0BB6010E94C31D34
:10173000862F622F992D981B892F0E94E50AD4CFFE
:101740008E01045111096496E12CF12CC8010E940C
:10175000AC0569E170E080E090E00E94DB1984E173
:101760000E94CF04E816F90610F0C70101C0580125
:101770000E5F1F4F0C171D0711F07C01E7CFC5014D
:101780000E94AC05C501DF91CF911F910F91FF9091
:10179000EF90DF90CF90BF90AF909F900895CF9241
:1017A000DF92EF92FF9285E00E9440048093BD0596
:1017B0008230B9F118F4813061F145C0833051F0C5
:1017C000843009F040C08091BC050E94DD030E9476
:1017D000590B08C00E9470088091BC050E94DD036F
:1017E0000E94ED050E949B048093BC0560E070E0C0
:1017F0000E9496070E94AC19675E7F4F8F4F9F4FE4
:101800006093B1057093B2058093B3059093B405CE
:101810001AC08091BC05873210F48F5F08C080E049
:1018200006C08091BC058150873208F087E2809322
:10183000BC050E94DD030E94AC0560E070E0809171
:10184000BC050E9496078091BD05882371F00E9417
:10185000AC19605F784D8F4F9F4F6093B5057093C3
:10186000B6058093B7059093B8050E94AC19C09057
:10187000B105D090B205E090B305F090B405C6165E
:10188000D706E806F906B8F48091A805882309F47C
:1018900055C0C090B505D090B605E090B705F09062
:1018A000B8050E94AC19C616D706E806F90608F076
:1018B00045C00E94A9099091BC058091BB0598176D
:1018C00081F00E94AC19C090AD05D090AE05E090BB
:1018D000AF05F090B005C616D706E806F90608F47D
:1018E00048C00E94AC19C090A905D090AA05E0900C
:1018F000AB05F090AC05C616D706E806F906A8F4C5
:1019000081E090910B01911180E080930B010E9486
:10191000AC196C507E4F8F4F9F4F6093A905709309
:10192000AA058093AB059093AC0560910B018DE007
:10193000FF90EF90DF90CF900C94D81A84E10E9432
:10194000CF049093BA058093B905BC018091BC0582
:101950000E9496070E94AC1968517C4F8F4F9F4F91
:101960006093B1057093B2058093B3059093B4056D
:10197000A2CF0E94F8038091BC058093BB050E9412
:10198000AC19605F784D8F4F9F4F6093AD0570939A
:10199000AE058093AF059093B005A3CF0F931F932F
:1019A000CF93DF93EC018D89823061F08330D9F0E1
:1019B000813009F0C8C0EC81FD81E41BF50B319743
:1019C000DB0118C08C819D81DC01A61BB70BBD011A
:1019D0008E819F81FC01E41BF50BAF014150510941
:1019E000621B730BB0C0AE81BF81A61BB70BA21BDD
:1019F000B30BFA01F7FD05C18C819D81E817F9074A
:101A00000CF0FFC0B7FF04C02A0F3B1FA0E0B0E0FE
:101A10008E819F81AD01420F531F841795071CF4DF
:101A20009C012A1B3B0B121613060CF0EAC0422F36
:101A30008A2F86958695869590E8899FE00DF11D01
:101A40001124E45EFE4FA77069F158E05A1B852F00
:101A500090E0EC01CC5EDE4F6881251760F4DC017C
:101A6000A21BB1098FEF90E00A2E02C095958795D1
:101A70000A94E2F768230130110539F048F002308A
:101A8000110551F48081862706C08081862B03C012
:101A90006095808186238083451708F4B2C0451B7A
:101AA000E058FF4F4830A0F102301105A9F4DF01E2
:101AB000842F9C9190959C93A058BF4F885088305C
:101AC000C0F788EF840F869586958695B0E88B9F42
:101AD000E00DF11D112419C081E00130110509F05C
:101AE00080E0982F9195EF01842F9883C058DF4FA5
:101AF00088508830D0F788EF840F86958695869534
:101B000090E8899FE00DF11D1124E058FF4F4770C8
:101B1000442309F476C0A42FB0E0A45FBE4F9C918B
:101B20000130110541F050F00230110509F069C093
:101B30008081892706C08081892B03C09095808190
:101B4000892380835EC057FD5CC08E819F814817CA
:101B500059070CF056C077FF04C0260F371F60E00E
:101B600070E08C819D81FB01E20FF31F8E179F07B0
:101B70001CF49C01261B370B121613060CF041C0F7
:101B8000CA0157FD0796E3E095958795EA95E1F739
:101B90009695982F882797958795845E9E4F860FF8
:101BA000971F4770552761E070E001C0660F4A95A6
:101BB000EAF7462F0130110541F088F00230110597
:101BC00001F5FC01280F391F15C0FC01280F391F32
:101BD000E217F307B1F08081842B8193F9CF6095F0
:101BE000FC01280F391FE217F30759F08081862383
:101BF0008193F9CFE217F30721F080818427819345
:101C0000F9CFDF91CF911F910F9108950F931F93FB
:101C1000CF93DF93FC018589823069F08330E1F056
:101C2000813009F082C0C481D581C41BD50BC21B91
:101C3000D30BDB0117C084819581DC01A61BB70B98
:101C4000BD016150710986819781DC01A41BB50B30
:101C5000AD01421B530B69C0A681B781A61BB70B10
:101C60001197EA01B7FD08C186819781A817B907C6
:101C70000CF002C1D7FF04C02C0F3D1FC0E0D0E024
:101C800084819581AE01420F531F841795071CF480
:101C90009C012C1B3D0B121613060CF0EDC0CD0160
:101CA000B7FD079643E0959587954A95E1F7969598
:101CB000982F882797958795845E9E4F8C0F9D1F40
:101CC000A770BB2741E050E00A2E01C0440F0A94E0
:101CD000EAF7642F0130110549F098F00230110540
:101CE00009F0CAC0FC01280F391F17C0FC01280FDA
:101CF000391FE217F30709F4BFC08081862B819357
:101D0000F8CF4095FC01280F391FE217F30709F4BB
:101D1000B3C0808184238193F8CFE217F30709F4DD
:101D2000ABC0808186278193F8CF77FDA5C08481E1
:101D30009581681779070CF09FC057FF04C0240FE6
:101D4000351F40E050E086819781FA01E20FF31FD2
:101D50008E179F071CF49C01241B350B12161306CB
:101D60000CF08AC0522F842F869586958695FB01AC
:101D7000B0E88B9FE00DF11D1124E45EFE4F47702B
:101D800069F168E0641B862F90E0EC01CC5EDE4FC9
:101D90004881261760F4DC01A21BB1098FEF90E0A7
:101DA0000A2E02C0959587950A94E2F748230130E0
:101DB000110539F048F00230110551F48081842773
:101DC00006C08081842B03C040958081842380835A
:101DD000561708F451C0561BE058FF4F5830A0F179
:101DE00002301105A9F4DF01852F9C9190959C93F9
:101DF000A058BF4F88508830C0F788EF850F869570
:101E000086958695B0E88B9FE00DF11D112419C0D1
:101E100081E00130110509F080E0982F9195EF01E4
:101E2000852F9883C058DF4F88508830D0F788EFCF
:101E3000850F86958695869590E8899FE00DF11D22
:101E40001124E058FF4F57705523B1F0A52FB0E093
:101E5000A45FBE4F9C910130110539F048F002306B
:101E6000110551F48081892706C08081892B03C028
:101E70009095808189238083DF91CF911F910F916D
:101E80000895CF92DF92EF92FF920F931F93CF931B
:101E9000DF937C018B01EA01690177FDA0C00E94FC
:101EA000C816081719070CF09AC0D7FD98C0C701CB
:101EB0000E94CC16C817D9070CF091C0C7010E9428
:101EC000B016823009F07FC0F701848195819C01B2
:101ED000201B310B89010150110986819781FC017A
:101EE000EC1BFD0BEF0121970BC0813049F4F7018A
:101EF000848195818C1B9D0BE8018C010150110997
:101F0000F1E0CF16D10431F010F132E0C316D10464
:101F1000E1F165C0FE01D7FD379683E0F595E795C1
:101F20008A95E1F7F695FE2FEE27F795E795E00FF6
:101F3000F11FE45EFE4FC770DD2781E090E00C2EBC
:101F400001C0880F0A94EAF79081982B3AC0FE01ED
:101F5000D7FD3796A3E0F595E795AA95E1F7F695B5
:101F6000FE2FEE27F795E795E00FF11FE45EFE4F99
:101F7000C770DD2781E090E00C2E01C0880F0A9425
:101F8000EAF78095908198231CC0FE01D7FD379613
:101F900063E0F595E7956A95E1F7F695FE2FEE2754
:101FA000F795E795E00FF11FE45EFE4FC770DD2760
:101FB00081E090E00C2E01C0880F0A94EAF790812E
:101FC000982790830CC0833009F08FCFF70186816A
:101FD0009781801B910B8E01EC01219791CFDF91AE
:101FE000CF911F910F91FF90EF90DF90CF900895C8
:101FF0001F93CF93DF93EC01162F40E450E060E88D
:1020000070E00E94051484E595E0998388838FEF42
:102010008C8F88A38E8F8D8F1F8FDF91CF911F9113
:10202000089580E094E0ECE1F1E0DF019C011D9275
:1020300021503040E1F70895FC0181A1882339F057
:102040006EBD00000DB407FEFDCF8EB5089588E08B
:1020500090E030E8A4A1B5A14C9123A520952423BC
:102060002C93A2A1B3A122A5432F462321F04C918A
:10207000422B4C9304C04C91209524232C93A4A173
:10208000B5A12C9143A5242B2C933695019711F7DC
:1020900008951F93CF93DF93EC01162F8C8D8F3F04
:1020A00009F1EEA1FFA180819CA5892B8083E8A581
:1020B000F9A590818DA5809589238083EEA1FFA14C
:1020C00090818CA5809589238083CE010E941C106D
:1020D000EEA1FFA180819CA5892B8083DF91CF9108
:1020E0001F9108958A8D682F772767FD709580EF7F
:1020F00095E00E947B1760E080EF95E00E94281732
:10210000612F80EF95E00E94281780EF95E0DF9126
:10211000CF911F910C9490170F931F93CF93DF9340
:10212000EC01162F022F6B8F4A8F8C8D8F3F09F495
:102130008CC061E08E8D0E949F1A61E088A10E9490
:102140009F1A88A1992787FD9095FC01E05DF84FC3
:10215000E491F0E0EE0FFF1FE25BF84F2591349120
:102160003FA32EA3FC01E45EF84F84918CA78E8DD3
:10217000992787FD9095FC01E05DF84FE491F0E030
:10218000EE0FFF1FE25BF84F2591349139A728A786
:10219000FC01E45EF84F84918DA789A1811134C0C0
:1021A00061E08C8D0E949F1A61E08D8D0E949F1AC4
:1021B0008D8D992787FD9095FC01E05DF84FE491A6
:1021C000F0E0EE0FFF1FE25BF84F259134913DA345
:1021D0002CA3FC01E45EF84F84918BA78C8D99278A
:1021E00087FD9095FC01E05DF84FE491F0E0EE0F83
:1021F000FF1FE25BF84F259134913BA32AA3FC011A
:10220000E45EF84F84918AA789A1882311F10E9486
:1022100048128091EE05882399F09FB7F894809139
:10222000EE05813059F48DB38093EC052DB3809188
:10223000ED05809582238DBB9FBF02C09093EC0576
:1022400080E58CBD81E08DBD04C080EF95E00E94EB
:1022500067170023F1F08F8D87FD1BC061E00E949E
:102260009F1A61E08F8D0E94D81A61E070E080E0D3
:1022700090E00E94DB1960E08F8D0E94D81A6AE01E
:1022800070E080E090E00E94DB1961E08F8D0E9499
:10229000D81A6EEACE010E94491065EDCE010E9467
:1022A000491060E8CE010E94491068EACE010E9400
:1022B00049106FE3CE010E94491063EDCE010E94E8
:1022C000491060E0CE010E94491060E4CE010E94F6
:1022D00049106DE8CE010E944910113011F460E1FF
:1022E00001C064E1CE010E94491060E2CE010E946B
:1022F000491060E0CE010E94491061EACE010E94BF
:10230000491068ECCE010E9449106AEDCE010E948E
:10231000491062E1CE010E94491061E8CE010E949D
:102320004910113011F46FE901C06FECCE010E9429
:10233000491069EDCE010E944910113011F462E29A
:1023400001C061EFCE010E9449106BEDCE010E94E9
:10235000491060E4CE010E94491064EACE010E9457
:10236000491066EACE010E9449106EE2CE010E9439
:1023700049106FEACE01DF91CF911F910F910C941C
:102380004910DF92EF92FF920F931F93CF93DF9349
:10239000EC0161E20E94491060E0CE010E94491008
:1023A0006FE7CE010E94491062E2CE010E944910FF
:1023B00060E0CE010E94491067E0CE010E94491002
:1023C0008C8D8F3F31F1EEA1FFA180819CA5892BDF
:1023D0008083E8A5F9A580819DA5892B8083EEA146
:1023E000FFA190818CA58095892380830CE111E069
:1023F000F80161918F01CE010E941C10F5E00C31B3
:102400001F07B1F7EEA1FFA180819CA5892B8083D6
:1024100037C0D090B8008CE08093B8000CE111E098
:102420006A8D772767FD709580EF95E00E947B1796
:10243000E091F005F091F1050190F081E02D60E46C
:1024400080EF95E00995E12CF12CF801EE0DFF1DD0
:10245000608180EF95E00E9428178FEFE81AF80A54
:10246000E0E1EE16F10489F780EF95E00E94901705
:10247000005F1F4FF5E00C311F0791F6D092B800B6
:10248000DF91CF911F910F91FF90EF90DF90089512
:10249000CF93CFB7F8948091EF05811127C0EAE37D
:1024A000F7E08491E6E2F7E09491E82FF0E0EE0F98
:1024B000FF1FE85AF84FA591B4918C91892321F41C
:1024C00061E08AE00E94D81A61E08AE00E949F1AC7
:1024D0008CB580618CBD8CB580648CBD61E08DE075
:1024E0000E949F1A61E08BE00E949F1A8091EF0585
:1024F0008F5F8093EF05CFBFCF9108952F923F92CA
:102500004F925F926F927F928F929F92AF92BF9203
:10251000CF92DF92EF92FF920F931F93CF93DF93AF
:1025200000D000D0CDB7DEB74C017C836B836A014D
:102530005901C8018701AC014C195D0957FF03C05F
:1025400051954195510995016B817C81261B370B73
:1025500037FF03C031952195310922242394312C72
:102560002417350714F0212C312C2114310459F093
:102570003A2D2B2D5C01832F922F3B812C81DC8205
:10258000CB82C32ED22EAB81BC81AA16BB065CF4D3
:102590003C2D2D2D6C01832F922F3B812C81BC82F1
:1025A000AB82A32EB22E2501EB81FC814E1A5F0A6D
:1025B0003C016C187D0877FE03C07194619471082A
:1025C000720157FE03C0FFEFEF1AFF0AF594E7947C
:1025D000C816D9062CF421E030E03A83298324C0C0
:1025E0006FEF7FEF7A8369831FC0D401ED91FC9177
:1025F0000480F581E02D980121143104D9F04B813C
:102600005C81B601C4010995E618F708F7FE06C01B
:10261000E981FA81CE0EDF1EE40CF51C2B813C8192
:102620002F5F3F4F3C832B836B817C81A616B706BF
:10263000E4F604C0A6016B817C81E4CF0F900F907B
:102640000F900F90DF91CF911F910F91FF90EF901E
:10265000DF90CF90BF90AF909F908F907F906F90C2
:102660005F904F903F902F9008956F927F928F923E
:102670009F92AF92BF92CF92DF92EF92FF920F9311
:102680001F93CF93DF93EC015B016A01390148018D
:10269000E881F9810284F385E02D87010995E881BD
:1026A000F981A601480D591D415051090284F38555
:1026B000E02D9301B501CE010995E881F9810084EF
:1026C000F185E02D9401A601B501CE010995E881BF
:1026D000F981B501660D771D615071090084F1859E
:1026E000E02D9401A601CE010995DF91CF911F91B4
:1026F0000F91FF90EF90DF90CF90BF90AF909F90A1
:102700008F907F906F900895EF92FF920F931F9399
:10271000DC01ED91FC91240F351F21503109068019
:10272000F781E02D780189019B0109951F910F9197
:10273000FF90EF900895EF92FF920F931F93DC01AB
:10274000ED91FC91260F371F215031090680F7814A
:10275000E02D78018A0109951F910F91FF90EF906C
:1027600008956F927F928F929F92AF92BF92CF9275
:10277000DF92EF92FF920F931F93CF93DF935C0151
:102780004A0169013801EB01C60ED71ECC15DD05E3
:1027900074F4D501ED91FC910084F185E02D870161
:1027A0009301A401BE01C50109952196EFCFDF91E8
:1027B000CF911F910F91FF90EF90DF90CF90BF903E
:1027C000AF909F908F907F906F900895EF92FF92BF
:1027D0000F931F93DC01ED91FC9111971A960D91C7
:1027E0001C911B9718962D913C9119970684F7859B
:1027F000E02D7B0140E050E060E070E009951F9122
:102800000F91FF90EF9008950895FC0113821282BA
:102810008CE695E091838083758364835783468338
:102820007187608753874287158A158614861786B5
:10283000168621E0248B8FEF9FEF938B828B918BF9
:10284000808B268B178A118E108E08952F923F92BF
:102850004F925F926F927F928F929F92AF92BF92B0
:10286000CF92DF92EF92FF920F931F93CF93DF935C
:10287000CDB7DEB76A970FB6F894DEBF0FBECDBFF7
:102880001C0158874F831C870B87FA86E986CC8208
:10289000DC0158964D915C9159974115510509F00D
:1028A000A6C018968D919C911997681779070CF01E
:1028B00056C11A968D919C911B97EF81F885E81768
:1028C000F9070CF04CC1D12CCB013C81F6E03F9FC5
:1028D000800D911D1124181619060CF040C1C60177
:1028E00003E0880F991F0A95E1F74F815885840FFF
:1028F000951F181619060CF032C157968C9181114C
:1029000003C0203B08F02F5F7E876D874B01198243
:1029100018E0A12E12E0B12EA61AB70A55E0259FA5
:10292000A00CB11C11248981853039F0ED85FE851C
:10293000EA0DFB1D94919A8301C01A826F807884FE
:102940002301A8E0AD83BA81B0FF12C0D101ED919F
:10295000FC91BC81B13031F40480F581E02D2B85F0
:102960003C8518C00684F785E02DEB84FC841DC0EF
:10297000E985FA852B853C85E217F307E1F0D10163
:10298000ED91FC91BC81B13059F40480F581E02DCA
:1029900029853A85A2016D857E85C10109950BC007
:1029A0000684F785E02DE984FA8486019601A30167
:1029B000B401C1010995EA81E695EA83FD81F150F0
:1029C000FD836C0C7D1C2FEF421A520AF111BBCF14
:1029D00039813F5F39838C0C9D1C4D855E854F5F2F
:1029E0005F4F5E874D87363009F09DCFB8C0FA0142
:1029F00034963491329785919491231BA7E02A9FB6
:102A0000800D911D1124FA0125913491398B288B69
:102A1000FC01459154915A8F498FFC013296549193
:102A200059873196A491AF873196E491FC01359690
:102A3000249131968491BC81B23050F0622E77247B
:102A400067FC7094E82FFF27E7FDF095FE87ED8780
:102A5000FC81CF2ED12C6C9C40016D9C900C7C9CF9
:102A6000900C1124860E971EA12C1982DE8ACD8A25
:102A7000AB01420F511D27FD5A955E834D83AF81F7
:102A8000B885A80FB11D87FDBA95B88FAF8B598156
:102A90008F85581708F063C0852F90E02D853E85FF
:102AA000280F391F2C9DD0012D9DB00D3C9DB00DE0
:102AB0001124EF81F885EA0FFB1FFB83EA836D8009
:102AC0007E802401FA2D2D81F21BFA8B4F89588DBF
:102AD000480F591F5C8B4B8B9A89960D862D2D8143
:102AE000821B39858317B0F5977061F4898D9A8DB3
:102AF0000196E889F989298D3A8DE20FF31FB49088
:102B00009A8F898FB7FE1DC0D101ED91FC91BC81D8
:102B1000B13059F40480F581E02D2B853C854B893B
:102B20005C89B301C10109950CC00684F785E02DCD
:102B3000EB84FC84860196014A815B81B201C1016C
:102B40000995BB0CED89FE894E0E5F1EFFEF6F1AD3
:102B50007F0AC2CFA30E49814F5F498398CF6A96FF
:102B60000FB6F894DEBF0FBECDBFDF91CF911F919E
:102B70000F91FF90EF90DF90CF90BF90AF909F901C
:102B80008F907F906F905F904F903F902F9008951F
:102B9000AF92BF92CF92EF92FF920F931F93CF937A
:102BA000DF93EC01262F888D998D009709F042C0A4
:102BB0006A3069F42C898E859F8538E0239F800DCB
:102BC000911D11249F878E871D861C86ABC06D309A
:102BD00009F4A8C08E898823C1F03C898C859D8525
:102BE00046E0349F800D911D112448855985841736
:102BF00095075CF01D861C868E859F85E8E03E9FCC
:102C0000800D911D11249F878E87EA88FB88088993
:102C100019894E855F856C857D85CC88CE010E94A3
:102C200026142C898C859D85F6E02F9F800D911DA3
:102C3000112441C06A3079F41D861C864C89FC0140
:102C4000369684912E853F85489F200D311D112495
:102C50003F872E8767C06D3009F464C0AC014C5FBC
:102C60005F4FFA013491631708F45CC03196E49128
:102C7000E61708F457C0FA014491362F341BFC01C3
:102C80003296A590B490F7E03F9FA00CB11C1124A0
:102C9000F5013296A4913196E491AA2311F0E11145
:102CA0000DC0F5013496A4902C898C859D85A29E3B
:102CB000800D911D11249D878C8734C0F5013596B8
:102CC000E4913E89332309F13C89B0E0AE0FB11D98
:102CD000E7FDBA953A9FA0013B9F500D11246C85EA
:102CE0007D85460F571F68857985461757076CF015
:102CF0001D861C86FC01369684914E855F85389F23
:102D0000400D511D11245F874E87EA88FB88088992
:102D100019894E855F856C857D85CC88CE010E94A2
:102D20002614BFCF81E090E0DF91CF911F910F91EA
:102D3000FF90EF90CF90BF90AF900895FC01758702
:102D40006487578746870895611101C061E0FC01DF
:102D5000648B0895FC01738B628B718B608B08957B
:102D6000FC0185890895FC016370658B84819581E0
:102D700026813781613039F0633029F0918780876F
:102D80003387228708953187208793878287089524
:102D9000FC01808591850895FC01828593850895C5
:102DA0008091200690E020912106821B91090895D0
:102DB0002091210680912006281750F4E22FF0E0A0
:102DC000EE5DF94F808190E02F5F209321060895FA
:102DD0008FEF9FEF0895E091210680912006E8177C
:102DE00030F4F0E0EE5DF94F808190E008958FEFD0
:102DF0009FEF08950895CF92DF92EF92FF920F9385
:102E00001F93CF93DF937C01CB018A012091FC05B6
:102E1000222389F0EB016B01C40ED51ECC15DD0514
:102E200069F06991D701ED91FC910190F081E02D5D
:102E3000C7010995F3CF642F0E940C18C801DF91D8
:102E4000CF911F910F91FF90EF90DF90CF90089559
:102E5000CF93DF931F92CDB7DEB769832091FC0536
:102E60002223D1F02091FD05203240F021E030E016
:102E7000FC013383228380E090E015C08091FE0541
:102E8000E82FF0E0E150FA4F998190838F5F8093B3
:102E9000FE058093FD0505C061E0CE0101960E940C
:102EA0000C1881E090E00F90DF91CF910895FC0124
:102EB0001382128248EE53E060E070E04483558351
:102EC0006683778384E895E09183808308951092E8
:102ED0002106109220061092FE051092FD050C941A
:102EE000971781E08093FC0560931F061092FE0502
:102EF0001092FD0508950C9471170F93062F21E091
:102F00004091FD056FEF75E080911F060E94B51797
:102F10001092FE051092FD051092FC050F91089588
:102F200061E00C947D1780EF95E00C945717109298
:102F3000AF0681E08093AD061092AC0661E082E1BD
:102F40000E94D81A61E083E10E94D81AE9EBF0E010
:102F500080818E7F808380818D7F808380E28093DB
:102F6000B80085E48093BC0008950F93413208F0C7
:102F70004AC09091AF069111FCCF92E09093AF06BA
:102F80000093AD069FEF9093420610928706409300
:102F90008606FB0168E876E0DB019A2F961B941702
:102FA00018F491919D93F9CF1092AE069091AE06D0
:102FB000880F892B8093AE068091AC06813061F436
:102FC0001092AC068091AE068093BB008091BC004D
:102FD00083FDF8CF85EC01C085EE8093BC002223F1
:102FE00021F08091AF068230E1F3809142068F3F5D
:102FF00061F080914206803251F080914206803328
:1030000041F483E007C081E005C080E003C082E0B6
:1030100001C084E00F910895613298F42091AF06C9
:10302000243089F460936406FC0186E696E0DC01B6
:103030002A2F281B261718F421912D93F9CF80E011
:10304000089581E0089582E0089585ED8093BC00A5
:103050008091BC0084FDFCCF1092AF06089585ECF2
:103060008093BC001092AF0608951F920F920FB686
:103070000F9211242F933F934F935F936F937F93FE
:103080008F939F93AF93BF93EF93FF938091B9007A
:10309000887F803609F49EC078F5883209F45DC0D7
:1030A00090F4803109F456C038F4882309F4F5C04F
:1030B000883009F44FC0F5C0883109F44EC0803221
:1030C00009F45FC0EEC0803409F46AC058F480335C
:1030D00009F457C0883309F0E4C0809342060E9487
:1030E0002F18DFC0803509F44FC0883509F45DC062
:1030F000883409F0D6C0D3C0883909F4C4C0A8F414
:10310000883709F467C038F4883609F463C080371B
:1031100009F460C0C6C0883809F4B5C0803909F424
:103120005FC0803809F0BDC05BC0803B09F483C03C
:1031300038F4803A09F466C0883A09F47CC0B1C01A
:10314000803C09F4A4C0883C09F4A1C0883B09F480
:1031500087C0A7C08091AE0610C09091870680916D
:103160008606981770F5E091870681E08E0F8093B0
:103170008706F0E0E857F94F80818093BB0085EC2B
:1031800083C0809342068BC0E091870681E08E0F5A
:10319000809387068091BB00F0E0E857F94F808369
:1031A00090918706809186066BC0E091870681E04A
:1031B0008E0F809387068091BB00F0E0E857F94FAF
:1031C00080838091AD0681116AC081E08093AC0656
:1031D00084EA5EC083E08093AF0610924306CFCFAF
:1031E00080914306803208F04EC0E091430681E0B2
:1031F0008E0F809343068091BB00F0E0EC5BF94FAB
:103200008083BDCF0E942F1880914306803230F416
:10321000E0914306F0E0EC5BF94F108260914306C9
:1032200070E0E091A806F091A90684E496E0099583
:103230001092430636C084E08093AF061092650674
:1032400010926406E091AA06F091AB060995809170
:103250006406811105C081E08093640610926606C1
:10326000E091650681E08E0F80936506F0E0EA59F3
:10327000F94F80818093BB00909165068091640630
:10328000981708F47CCF85E88093BC000AC085ECD1
:103290008093BC001092AF0604C0109242060E94B8
:1032A0002518FF91EF91BF91AF919F918F917F91E1
:1032B0006F915F914F913F912F910F900FBE0F90A3
:1032C0001F9018951F920F920FB60F9211242F93F3
:1032D0003F938F939F93AF93BF938091B10690914B
:1032E000B206A091B306B091B4063091B00626E0C4
:1032F000230F2D3720F40296A11DB11D05C029E82A
:10330000230F0396A11DB11D2093B0068093B10633
:103310009093B206A093B306B093B4068091B5061D
:103320009091B606A091B706B091B8060196A11D7E
:10333000B11D8093B5069093B606A093B706B093DF
:10334000B806BF91AF919F918F913F912F910F90B0
:103350000FBE0F901F9018952FB7F8946091B1068B
:103360007091B2068091B3069091B4062FBF089574
:103370003FB7F8948091B5069091B606A091B70634
:10338000B091B80626B5A89B05C02F3F19F001964D
:10339000A11DB11D3FBF6627782F892F9A2F620F7D
:1033A000711D811D911D43E0660F771F881F991FB6
:1033B0004A95D1F708958F929F92AF92BF92CF9284
:1033C000DF92EF92FF926B017C010E94B8194B01D2
:1033D0005C01C114D104E104F104F1F00E943D1C30
:1033E0000E94B819681979098A099B09683E7340D7
:1033F0008105910570F321E0C21AD108E108F108B6
:1034000088EE880E83E0981EA11CB11CC114D10463
:10341000E104F10429F7DDCFFF90EF90DF90CF902A
:10342000BF90AF909F908F9008958330910528F0C2
:10343000880F991F04970197F1F70895789484B540
:10344000826084BD84B5816084BD85B5826085BDA0
:1034500085B5816085BDEEE6F0E080818160808386
:10346000E1E8F0E010828081826080838081816069
:103470008083E0E8F0E0808181608083E1EBF0E030
:10348000808184608083E0EBF0E0808181608083D4
:10349000EAE7F0E0808184608083808182608083BD
:1034A00080818E7F80838081806880831092C100BC
:1034B00008958E3008F08E50877020911C0590E49E
:1034C000299F90011124822B80937C0080917A00A7
:1034D000806480937A0080917A0086FDFCCF809191
:1034E00078002091790090E0922B0895833081F04C
:1034F00028F4813099F08230A1F008958730A9F046
:103500008830B9F08430D1F4809180008F7D03C081
:10351000809180008F7780938000089584B58F77A5
:1035200002C084B58F7D84BD08958091B0008F77EF
:1035300003C08091B0008F7D8093B0000895CF9339
:10354000DF9390E0FC01E45EF84F2491FC01E05D24
:10355000F84F8491882349F190E0880F991FFC016E
:10356000E85AF84FA591B491825B984FFC01C59140
:10357000D4919FB7611108C0F8948C912095822353
:103580008C93888182230AC0623051F4F8948C9124
:10359000322F309583238C938881822B888304C0BB
:1035A000F8948C91822B8C939FBFDF91CF910895DB
:1035B0000F931F93CF93DF931F92CDB7DEB7282FC2
:1035C00030E0F901E85FF84F8491F901E45EF84FCB
:1035D0001491F901E05DF84F04910023C9F08823AC
:1035E00021F069830E94761A6981E02FF0E0EE0FE6
:1035F000FF1FE25BF84FA591B4919FB7F8948C91AF
:10360000611103C01095812301C0812B8C939FBF52
:103610000F90DF91CF911F910F910895CF93DF937A
:10362000282F30E0F901E85FF84F8491F901E45E5A
:10363000F84FD491F901E05DF84FC491CC2391F09B
:1036400081110E94761AEC2FF0E0EE0FFF1FEC5B69
:10365000F84FA591B4912C912D2381E090E021F4B5
:1036600080E002C080E090E0DF91CF910895CF929A
:10367000DF92EF92FF920F931F93CF93DF937C0122
:103680006A01EB0100E010E00C151D0571F0699175
:10369000D701ED91FC910190F081E02DC7010995D2
:1036A000892B19F00F5F1F4FEFCFC801DF91CF912A
:1036B0001F910F91FF90EF90DF90CF9008956115CB
:1036C000710581F0DB010D900020E9F7AD0141505B
:1036D0005109461B570BDC01ED91FC910280F381EF
:1036E000E02D099480E090E00895EF92FF920F930F
:1036F0001F93CF93DF938C017B01C0E0D0E0F701F3
:10370000EC0FFD1F6491662359F0F801A081B1818F
:10371000ED91FC91C8010995892B11F02196EFCF0D
:10372000CE01DF91CF911F910F91FF90EF900895FF
:103730000C945F1B60E975E00C945F1B8F929F9265
:10374000AF92BF92DF92EF92FF920F931F93CF93AE
:10375000DF93CDB7DEB7A1970FB6F894DEBF0FBEEB
:10376000CDBF7C01F42FD52ECB0119A2223008F455
:103770002AE08E010F5D1F4F822E912CA12CB12CBF
:103780006F2F7D2DA50194010E94D71DF22FD32EFE
:10379000CA01015011096A3014F4E0E301C0E7E303
:1037A000E60FD801EC93232B242B252B49F7B801E6
:1037B000C7010E945F1BA1960FB6F894DEBF0FBE33
:1037C000CDBFDF91CF911F910F91FF90EF90DF90D0
:1037D000BF90AF909F908F9008952115310541F4CF
:1037E000DC01ED91FC910190F081E02D642F0994B2
:1037F0000C949E1B9A01462F50E060E070E00C9400
:10380000ED1B9A01AB0160E070E00C94ED1BCF93CF
:10381000DF9300D000D0CDB7DEB79B01AC016115BE
:1038200071058105910569F069833A834B835C8357
:103830000E94871E29813A814B815C810E94F91D7B
:1038400003C060E070E0CB010F900F900F900F90DD
:10385000DF91CF9108950E94951E08950E941E1A2F
:103860000E942D1C0E947D0AC0E0D0E00E94CF0B78
:103870002097E1F30E940000F9CF08950CD0E6C034
:10388000DED040F0D5D030F021F45F3F19F0C7C052
:10389000511110C1CAC0EBD098F39923C9F3552335
:1038A000B1F3951B550BBB27AA2762177307840733
:1038B00038F09F5F5F4F220F331F441FAA1FA9F3E9
:1038C00033D00E2E3AF0E0E830D091505040E695DB
:1038D000001CCAF729D0FE2F27D0660F771F881F3C
:1038E000BB1F261737074807AB07B0E809F0BB0B2B
:1038F000802DBF01FF2793585F4F2AF09E3F51054F
:1039000068F08DC0D7C05F3FECF3983EDCF386953E
:1039100077956795B795F7959F5FC9F7880F911DC4
:103920009695879597F90895E1E0660F771F881FB0
:10393000BB1F621773078407BA0720F0621B730B63
:10394000840BBA0BEE1F88F7E095089598D088F0A5
:103950009F5790F0B92F9927B751A0F0D1F0660F7B
:10396000771F881F991F1AF0BA95C9F712C0B13096
:1039700081F09FD0B1E008959CC0672F782F8827F1
:10398000B85F39F0B93FCCF3869577956795B395D5
:10399000D9F73EF490958095709561957F4F8F4F44
:1039A0009F4F0895E89409C097FB3EF49095809549
:1039B000709561957F4F8F4F9F4F9923A9F0F92FF5
:1039C00096E9BB279395F695879577956795B79573
:1039D000F111F8CFFAF4BB0F11F460FF1BC06F5F59
:1039E0007F4F8F4F9F4F16C0882311F096E911C06B
:1039F000772321F09EE8872F762F05C0662371F08C
:103A000096E8862F70E060E02AF09A95660F771F9F
:103A1000881FDAF7880F9695879597F9089597F993
:103A20009F6780E870E060E008959FEF80EC089564
:103A300000240A941616170618060906089500248D
:103A40000A9412161306140605060895092E039407
:103A5000000C11F4882352F0BB0F40F4BF2B11F47B
:103A600060FF04C06F5F7F4F8F4F9F4F089557FDDA
:103A70009058440F551F59F05F3F71F04795880FDC
:103A800097FB991F61F09F3F79F087950895121673
:103A900013061406551FF2CF4695F1DF08C016161F
:103AA00017061806991FF1CF8695710561050894D0
:103AB0000895E894BB2766277727CB0197F90895E7
:103AC0000BD0C4CFB5DF28F0BADF18F0952309F08A
:103AD000A6CFABCF1124EECFCADFA0F3959FD1F3D1
:103AE000950F50E0551F629FF001729FBB27F00DAC
:103AF000B11D639FAA27F00DB11DAA1F649F662701
:103B0000B00DA11D661F829F2227B00DA11D621F4F
:103B1000739FB00DA11D621F839FA00D611D221F09
:103B2000749F3327A00D611D231F849F600D211DED
:103B3000822F762F6A2F11249F5750408AF0E1F090
:103B400088234AF0EE0FFF1FBB1F661F771F881FD9
:103B500091505040A9F79E3F510570F060CFAACF19
:103B60005F3FECF3983EDCF3869577956795B795C4
:103B7000F795E7959F5FC1F7FE2B880F911D9695EE
:103B8000879597F90895AA1BBB1B51E107C0AA1F8F
:103B9000BB1FA617B70710F0A61BB70B881F991FEE
:103BA0005A95A9F780959095BC01CD010895A1E2A1
:103BB0001A2EAA1BBB1BFD010DC0AA1FBB1FEE1FA7
:103BC000FF1FA217B307E407F50720F0A21BB30BF2
:103BD000E40BF50B661F771F881F991F1A9469F76E
:103BE00060957095809590959B01AC01BD01CF01CA
:103BF0000895052E97FB1EF400940E94101E57FD99
:103C000007D00E94D71D07FC03D04EF40C94101E61
:103C100050954095309521953F4F4F4F5F4F0895F8
:103C200090958095709561957F4F8F4F9F4F089528
:103C3000EE0FFF1F0590F491E02D09940E94291EBC
:103C4000A59F900DB49F900DA49F800D911D1124F0
:103C50000895A29FB001B39FC001A39F700D811D65
:103C60001124911DB29F700D811D1124911D089585
:103C70008F929F92AF92BF92CF92DF92EF92FF927C
:103C8000CF93DF93EC01688179818A819B816115F3
:103C900071058105910521F464E279ED8BE597E0EA
:103CA0002DE133EF41E050E00E94F91D49015A0136
:103CB0009B01AC01A7EAB1E40E941E1E6B017C01CE
:103CC000ACEEB4EFA50194010E94BA1EC60ED71E39
:103CD000E81EF91EF7FE06C081E0C81AD108E10807
:103CE00080E8F80AC882D982EA82FB82C701B6015D
:103CF0009F77DF91CF91FF90EF90DF90CF90BF90B3
:103D0000AF909F908F9008950E94381E089586E08E
:103D100091E00E94381E0895609306017093070198
:103D20008093080190930901089581E090E0F89450
:103D30000C94BF1EFB01DC0101900D920020E1F705
:103D40000895F999FECF92BD81BDF89A992780B563
:103D50000895262FF999FECF1FBA92BD81BD20BDCF
:103D60000FB6F894FA9AF99A0FBE01960895B7FF24
:103D70000C941E1E0E941E1E821B930B0895F89425
:023D8000FFCF73
:103D82000000B9068000010000000E0100010307D7
:103D92000F1F3F7F0080C0E0F0F8FCFEFFFFFFFF37
:103DA200FFFFFFFFFFFFFFFFFFFFFFFFFFFFFFFF21
:103DB200FFFFFFFFFFFFFFFFFFFFFFFFFFFFFFFF11
:103DC200FFFFFFFFFFFFFFFFFFFFFFFFFFFFFFFF01
:103DD200FFFFFFFFFFFFFFFFFFFFFFFFFFFFFFFFF1
:103DE200FFFFFFFFFFFFFFFFFFFFFFFFFFFFFFFFE1
:103DF200FFFFFFFFFFFFFFFFFFFFFFFFFFFFFFFFD1
:103E0200FFFFFFFFFFFFFFFFFFFFFFFFFFFFFFFFC0
:103E1200FFFFFFFFFFFFFFFFFFFFFFFFFFFFFFFFB0
:103E2200FFFF7F3F3F3F3F3F3F3F3F3F3F3F3F3FE0
:103E3200FFFFBF3F3F3F3F7F7FFFFF7F7F3F3FBF90
:103E4200FFFF7F3F3F3F3F3F3F3F3F3F3F3F3F3FC0
:103E52003F3FFFFF3F3FFFFFFFFFFFFFFFFFFFFF70
:103E6200FFFFFFFFFF7F3F3F3F3F3F3F3F3F3F3F60
:103E72003F3F3F3F3F7FFFFF3F3F3F3F3F3F3F3F90
:103E82003F3F3F3F3F3F3F3F3F7FFFFFFFFFFF3F40
:103E92003F3F3FFFFFFFFFFFFFFFFFFFFFFFFFFF70
:103EA200FFFFF0E0E2E7E7E7E7E7E7E7E7E7E7E773
:103EB200FFFFFFFFFFFEE2E1E1E0E0FEFEFFFFFFAA
:103EC200FFFFF0E0E0E2E7E7E7E7E7E7E7E7E7E75A
:103ED200E7E7FFFFE0E0E7E7E7E7E7E7E7E7E7E74E
:103EE200E7E7E7FFFFF0E0E2E7E7E7E7E7E7E7E733
:103EF200E7E7E7E2E0F0FFFFE0E0E0FFF9F9F9F9D8
:103F0200F9F9F9F9F9F9F9F8F8FCFFFFF8F8F8E02E
:103F1200E0E0E0F8F8F8FFFFFFFFFFFFFFFFFFFF21
:103F2200FFFFFFFF7F7F7F7F7F7F7F7F7F7F7F7F9F
:103F32007F7F7F7F7F7F7F7F7F7F7F7F7F7F7F7F8F
:103F42007F7F7F7F7F7F7F7F7F7F7F7F7F7F7F7F7F
:103F52007F7F7F7F7F7F7F7F7F7F7F7F7F7F7F7F6F
:103F62007F7F7F7F7F7F7F7F7F7F7F7F7F7F7F7F5F
:103F72007F7F7F7F7F7F7F7F7F7F7F7F7F7F7F7F4F
:103F82007F7F7F7F7F7F7F7F7F7F7F7F7F7F7F7F3F
:103F92007F7F7F7F7FFFFFFFFFFFFFFFFFFFFFFFAF
:103FA200FFFFFFFFFEFEFEFEFEFEFEFEFEFEFEFE2B
:103FB200FEFEFEFEFEFEFEFEFEFEFEFEFEFEFEFE1F
:103FC200FEFEFEFEFEFEFEFEFEFEFEFEFEFEFEFE0F
:103FD200FEFEFEFEFEFEFEFEFEFEFEFEFEFEFEFEFF
:103FE200FEFEFEFEFEFEFEFEFEFEFEFEFEFEFEFEEF
:103FF200FEFEFEFEFEFEFEFEFEFEFEFEFEFEFEFEDF
:10400200FEFEFEFEFEFEFEFEFEFEFEFEFEFEFEFECE
:10401200FEFEFEFEFEFFFFFFFFFFFFFFFFFFFFFFB3
:10402200FFFFFF070707A7A7A7A7A7A707474FFFF6
:10403200F7E7E7C7472F2F1F1FCFCFE7E7F7FFFFAE
:10404200FFFFFFFF070707BFBF07E7E7E7E7E7E76E
:10405200FFFF070707A7A7A7A7A7A7A7E7E7FFFFEE
:10406200070707A7A72727A7A7A7A7CFFFFF070726
:1040720007E7CF9F3F7FFF070707FFFF0707A7A7B6
:10408200A7A7A7A7A7A7E7E7FFFF070707E7CF9F0E
:104092003F7FFF070707FFFFFFFFFFFFFFFFFFFF56
:1040A200FFFFFFFCFCFCFCFCFCFCFCFCFCFCFEFF40
:1040B200FFFFFFFFFCFCFCFCFCFFFFFFFFFFFFFF1D
:1040C200FFFFFFFFFCFCFCFFFFFCFCFCFCFCFCFC1C
:1040D200FFFFFCFCFCFCFCFCFCFCFCFCFCFCFFFF12
:1040E200FCFCFCFFFFFCFCFCFCFCFCFCFFFFFCFC02
:1040F200FCFFFFFFFFFEFCFCFCFCFFFFFCFCFCFCEA
:10410200FCFCFCFCFCFCFCFCFFFFFCFCFCFFFFFFDE
:10411200FFFEFCFCFCFCFFFFFFFFFFFFFFFFFFFFBA
:10412200FFFFFFFFFFFFFFFFFFFFFFFFFFFFFFFF9D
:10413200FFFFFFFFFFFFFFFFFFFFFFFFFFFFFFFF8D
:10414200FFFFFFFFFFFFFFFFFFFFFFFFFFFFFFFF7D
:10415200FFFFFFFFFFFFFFFFFFFFFFFFFFFFFFFF6D
:10416200FFFFFFFFFFFFFFFFFFFFFFFFFFFFFFFF5D
:10417200FFFFFFFFFFFFFFFFFFFFFFFFFFFFFFFF4D
:10418200FFFFFFFFFFFFFFF9F7EFE1FFFFFDE0FF9A
:10419200EFFFF1EEEEF1FFFFFFFFFFFF01426F7352
:1041A20063616D204100426F7363616D204200467E
:1041B2006F78746563682F444A49200046617453DE
:1041C2006861726B20005261636562616E642000F7
:1041D20000000000C815371B410F7E12060ECE0CE0
:1041E2003513B113E613041400000000C815371B81
:1041F2002B1C7E1284139B133513B113E613041484
:10420200000000002817FB16D016D816EB16FA1677
:104212000D0A006E616E00696E66006F7666002E92
:0242220000009A
:00000001FF
