:100000000C9471040C94C00A0C94990A0C94360A4E
:100010000C94D3090C9462090C9499040C949904DF
:100020000C9499040C9499040C9499040C949904DC
:100030000C9499040C9499040C9499040C949904CC
:100040000C9450180C9499040C9443170C941D179D
:100050000C9499040C9499040C9499040C949904AC
:100060000C949A180C949904EE12F112F412F712EF
:10007000FA12FD1200130313061309130C130F13C6
:1000800012131513181300010203040506070001DB
:10009000020304050001020304050000000024001F
:1000A00027002A0000000000250028002B00323025
:1000B00031372D30332D31330076312E36206279B1
:1000C0002044766F676F6E656E004359434C4F5006
:1000D0002B00204F7074696F6E7320202020202029
:1000E00020202000204175746F205363616E6E657F
:1000F00072202020200020477261706869632053BD
:1001000063616E6E6572200020457869742020203E
:1001100020202020202020202000352E36352020B1
:10012000202020352E382020202020352E39350063
:10013000352E33352020202020352E36202020203B
:1001400020352E39350020204368616E6E656C20A5
:100150002020205253534900204D487A00534341F8
:100160004E00E916D516C116AD16991685167116EC
:100170005D16651678168B169E16B116C416D71620
:10018000EA164916351621160D16FD1611172517F4
:1001900039176C1680169416A816BC16D016E416DD
:1001A000F8161A163F1664168916AE16D316F816E8
:1001B0001D17F21417153C1561158615AB15D015D2
:1001C000F5152700240020001C001900150012005E
:1001D0000E001000130017001A001E002100250059
:1001E00028000D000B000A0008002B002C002E0038
:1001F0002F001100140018001B001F002200260011
:10020000290009000C000F0016001D0023002A0021
:100210002D0000000100020003000400050006009C
:10022000070028292A2B2C2D2E2F132012112110E4
:100230000722081806091905230A1A040B1B0324B0
:100240000C1C020D1D25010E1E000F1F2614152764
:100250001617200020200020002000202043686185
:100260006E6E656C202020205253534900204D486B
:100270007A00204F46460020204F4E002E002020BE
:1002800033730020203273002000457869742020E9
:10029000202020202020202020200052657365741B
:1002A0002053657474696E677320200054657374FD
:1002B00020416C61726D202020202020004C6F773F
:1002C0002042616E642020202020202020005261E6
:1002D00063652042616E642020202020202000469B
:1002E0006174736861726B2062616E64202020000B
:1002F000466F78746563682F444A492062616E6472
:1003000000426F7363616D20422062616E64202041
:100310002000426F7363616D20412062616E642032
:1003200020200053637265656E20536176657220EC
:100330002020200053686F772053746172747363B8
:100340007265656E00426174746572792043616CF8
:1003500069622E202000426174746572792054799C
:1003600070652020202000416C61726D206C6576E4
:10037000656C202020202000426174746572792011
:10038000616C61726D20202000466C69702053639F
:100390007265656E20202020200000000000003ED5
:1003A0005B4F5B3E3E6B4F6B3E1C3E7C3E1C183CE5
:1003B0007E3C181C577D571C1C5E7F5E1C00183C41
:1003C0001800FFE7C3E7FF0018241800FFE7DBE78A
:1003D000FF30483A060E2629792926407F05050771
:1003E000407F05253F5A3CE73C5A7F3E1C1C0808CD
:1003F0001C1C3E7F14227F22145F5F005F5F060992
:100400007F017F006689956A606060606094A2FFEA
:10041000A29408047E040810207E201008082A1CDC
:1004200008081C2A08081E101010100C1E0C1E0CA8
:1004300030383E3830060E3E0E0600000000000048
:10044000005F00000007000700147F147F14242AB7
:100450007F2A122313086462364956205000080789
:100460000300001C2241000041221C002A1C7F1CAA
:100470002A08083E080800807030000808080808AC
:10048000000060600020100804023E5149453E0013
:10049000427F400072494949462141494D33181471
:1004A000127F1027454545393C4A494931412111C0
:1004B00009073649494936464949291E00001400B2
:1004C00000004034000000081422411414141414D5
:1004D000004122140802015909063E415D594E7C33
:1004E0001211127C7F494949363E414141227F41E8
:1004F00041413E7F494949417F090909013E414146
:1005000051737F0808087F00417F41002040413F30
:10051000017F081422417F404040407F021C027F3F
:100520007F0408107F3E4141413E7F090909063E94
:100530004151215E7F091929462649494932030163
:100540007F01033F4040403F1F2040201F3F403875
:10055000403F631408146303047804036159494D50
:1005600043007F4141410204081020004141417F86
:1005700004020102044040404040000307080020FC
:10058000545478407F2844443838444444283844FC
:1005900044287F385454541800087E090218A4A433
:1005A0009C787F0804047800447D40002040403D52
:1005B000007F1028440000417F40007C04780478CC
:1005C0007C080404783844444438FC18242418185F
:1005D000242418FC7C0804040848545454240404BB
:1005E0003F44243C4040207C1C2040201C3C4030A8
:1005F000403C44281028444C9090907C4464544CD7
:100600004400083641000000770000004136080031
:1006100002010204023C2623263C1EA1A161123ADB
:100620004040207A38545455592155557941225427
:10063000547842215554784020545579400C1E522C
:1006400072123955555559395454545939555454D1
:10065000580000457C410002457D420001457C4038
:100660007D1211127DF0282528F07C54554500207C
:1006700054547C547C0A097F4932494949323A44EE
:1006800044443A324A4848303A4141217A3A424059
:100690002078009DA0A07D3D4242423D3D4040402B
:1006A0003D3C24FF2424487E4943662B2FFC2F2BFE
:1006B000FF0929F620C0887E09032054547941009F
:1006C00000447D413048484A32384040227A007A1E
:1006D0000A0A727D0D19317D2629292F28262929FC
:1006E000292630484D40203808080808080808081E
:1006F000382F10C8ACBA2F102834FA00007B000045
:1007000008142A142222142A14085500550055AA48
:1007100055AA55AAFF55FF55FF000000FF00101015
:1007200010FF00141414FF001010FF00FF1010F051
:1007300010F0141414FC001414F700FF0000FF0064
:10074000FF1414F404FC141417101F10101F101FB2
:100750001414141F00101010F0000000001F1010DF
:1007600010101F10101010F010000000FF101010DB
:10077000101010101010FF10000000FF140000FFF8
:1007800000FF00001F10170000FC04F414141710E1
:10079000171414F404F40000FF00F71414141414D4
:1007A0001414F700F7141414171410101F101F144A
:1007B0001414F4141010F010F000001F101F0000AB
:1007C000001F14000000FC140000F010F01010FFD7
:1007D00010FF141414FF141010101F00000000F07C
:1007E00010FFFFFFFFFFF0F0F0F0F0FFFFFF000051
:1007F000000000FFFF0F0F0F0F0F3844443844FC78
:100800004A4A4A347E02020606027E027E0263558E
:100810004941633844443C04407E201E2006027E49
:10082000020299A5E7A5991C2A492A1C4C7201725B
:100830004C304A4D4D303048784830BC625A463DC5
:100840003E494949007E0101017E2A2A2A2A2A447A
:10085000445F444440514A444040444A51400000AF
:10086000FF0103E080FF000008086B6B08361236BA
:100870002436060F090F060000181800000010109B
:10088000003040FF0101001F01011E00191D171259
:10089000003C3C3C3C000000000000000000230045
:1008A00026002900040404040404040402020202D1
:1008B0000202030303030303010204081020408023
:1008C00001020408102001020408102000000008A2
:1008D0000002010000030407000000000000000007
:1008E0000E2211241FBECFEFD8E0DEBFCDBF27E020
:1008F000A4E9B5E001C01D92AC3AB207E1F715E0FA
:10090000A0E0B1E0E2E5FAE402C005900D92A4395E
:10091000B107D9F714E0C1E7D4E004C02197FE0184
:100920000E94A422C037D107C9F70E94AC1A0C94C8
:1009300027250C940000E82FF0E0EE0FFF1FEE5388
:10094000FE4F859194910895CF93DF93ABECB5E082
:10095000E2E2F2E080E38E0F91919D938E13FCCF43
:1009600080910706882329F080910806882371F07A
:1009700019C0C0E0DFEF8C2F0E949B0485539A4F73
:10098000FC01D083CF5FC830B1F7EECFC8E0DFEF16
:100990008C2F0E949B0485539A4FFC01D083CF5F1C
:1009A000C031B1F78091090681110CC0C0E1DFEFC1
:1009B0008C2F0E949B0485539A4FFC01D083CF5FFC
:1009C000C831B1F780910A0681110CC0C8E1DFEF90
:1009D0008C2F0E949B0485539A4FFC01D083CF5FDC
:1009E000C032B1F780910B0681110CC0C0E2DFEF7D
:1009F0008C2F0E949B0485539A4FFC01D083CF5FBC
:100A0000C832B1F780910C0681110CC0C8E2DFEF4B
:100A10008C2F0E949B0485539A4FFC01D083CF5F9B
:100A2000C033B1F7DF91CF9108950F931F930E94C8
:100A3000F913892B59F40E94441860932A06709385
:100A40002B0680932C0690932D0656C080917A0633
:100A500090917B06A0917C06B0917D06892B8A2B14
:100A60008B2BA1F082E08093790610922A061092D7
:100A70002B0610922C0610922D0610927A061092D8
:100A80007B0610927C0610927D0636C08091FB0595
:100A9000882331F084E0809379061092FB051AC018
:100AA0000E94441800912A0610912B0620912C06D2
:100AB00030912D06DC01CB01801B910BA20BB30BF7
:100AC0008F359140A105B10510F083E001C081E0B0
:100AD0008093790610922A0610922B0610922C060B
:100AE00010922D060E94441860937A0670937B063C
:100AF00080937C0690937D061F910F9108950F932C
:100B00001F93CF93DF93C62FDEE0D80F80912E0680
:100B100026E330E0281B310990910101692F70E034
:100B200000E010E040E050E08DE297E00E94DE0E31
:100B30006D2F70E001E010E026E330E040E050E08F
:100B40008DE297E00E94DE0ED0930101C63320F0C3
:100B500085E380932E0602C0C0932E06DF91CF91CD
:100B60001F910F910C94A314E0E0F6E081E08083E4
:100B7000818395E09283138290E894838583168223
:100B80008783808781878287838784870C94A404E6
:100B9000FF920F931F93CF93DF9360E080E00E945A
:100BA00091120E941D14D0E0C0E001E010E06D2F12
:100BB0008C2F0E9491120E941D14DD23D1F18230EE
:100BC000C1F0833009F47AC0813009F079C0C230B5
:100BD00039F480910206883008F072C08F5F11C02E
:100BE000C430E9F4809104068A3F08F069C08B5F45
:100BF00013C0C23049F480910206823008F460C00C
:100C00008150809302065CC0C43049F48091040690
:100C1000863008F455C085508093040651C0EC2FEF
:100C2000F0E0E050FA4F81E09081911180E0808304
:100C300047C0823059F0833069F0813009F0B7CF76
:100C4000CF5FC03109F0B3CFC0E0B1CFCC23D1F139
:100C5000C150ADCFCF3059F1CE3019F40E94B40558
:100C6000A6CFCD3069F50E941D148111A0CF83E07D
:100C7000F82EC8010090020602C0880F991F0A943E
:100C8000E2F70E94521A62E370E080E090E00E9476
:100C90000A1880E090E00E94521A68EC70E080E050
:100CA00090E00E940A18FA94F110E3CFDCCFDF91B4
:100CB000CF911F910F91FF900C94A404D0E077CFB7
:100CC000D1E075CFCFE073CF92EF980F8E3008F060
:100CD000892F8770982F906480E240E050E09093D5
:100CE0007C0020917A00206420937A0020917A0081
:100CF00026FDFCCF209178006091790030E0362B02
:100D0000420F531F815059F7CA0125E096958795E8
:100D10002A95E1F708958FE00E9464062091040669
:100D200030E02A573140820F931F65E070E00E9447
:100D30009022CB01C2960895CF93DF93823041F485
:100D40008FE495E00E94BD156091020670E024C01A
:100D5000833051F480910306882319F083E892E0F0
:100D600038C08EE792E035C08430E9F40E948B06EB
:100D7000CAE0D0E0BE010E94902280E090E04AE00C
:100D80000E94F0198CE792E00E94311A0E948B06B3
:100D9000BE010E949022BC0180E090E04AE0DF9119
:100DA000CF910C94F01993EF980F933030F48EE4B8
:100DB00095E0DF91CF910C94BD15E82FF0E0E05065
:100DC000FA4F8081882319F087E792E002C082E71A
:100DD00092E0DF91CF910C94311ACF92DF92EF9293
:100DE000FF920F931F93CF93DF938091030681119E
:100DF00005C0CEE7D0E006E610E004C0C4E5D0E0D0
:100E000004E410E00E948B068C179D0708F04AC08E
:100E10000817190718F5BC01601B710B80E090E002
:100E20000E944B236B017C01CE01801B910BBC0106
:100E300080E090E00E944B239B01AC01C701B6010A
:100E40000E94AA2220E030E048EC52E40E94D9231C
:100E50000E941C23C62F653010F00AC0C0E082E358
:100E600090E09093FF058093FE0588EC90E00AC027
:100E70006F3068F484E690E09093FF058093FE0560
:100E800088EE93E09093FD058093FC0514C06931D2
:100E900050F488EC90E09093FF058093FE0588EB7A
:100EA0009BE0F0CFC3E61092FF051092FE05109272
:100EB000FD051092FC05EE24E394F12C02E010E015
:100EC00024E030E040E250E06DE370E08DE297E036
:100ED0000E94E50D04E110E02AE030E042E250E03B
:100EE0006AE370E08DE297E00E94E50DE12CF12CC1
:100EF00000E110E026E030E044E250E06CE370E016
:100F00008DE297E00E94E50DC63580F0EE24E39473
:100F1000F12C02E010E024E030E045E250E06DE327
:100F200070E08DE297E00E94E50D02C0C23480F0CF
:100F3000EE24E394F12C02E010E024E030E048E2FB
:100F400050E06DE370E08DE297E00E94E50D02C095
:100F5000CE3280F0EE24E394F12C02E010E024E0A5
:100F600030E04BE250E06DE370E08DE297E00E94EC
:100F7000E50D02C0CA3180F0EE24E394F12C02E0CA
:100F800010E024E030E04EE250E06DE370E08DE2EE
:100F900097E00E94E50D02C0C63078F0EE24E3949D
:100FA000F12C02E010E024E030E041E350E06DE39A
:100FB00070E08DE297E00E94E50DDF91CF911F91E7
:100FC0000F91FF90EF90DF90CF9008950F931F93B4
:100FD000CF93DF9360910D0680E090E00E94B624ED
:100FE00000E016E0C0E0D0E0F80161918F012196A9
:100FF000CE010E94B624CD30D105B1F760EF8EE06E
:1010000090E0DF91CF911F910F910C94B624E82FBF
:10101000F0E0EE5DFD4FE491F0E0EE0FFF1FEE59C2
:10102000FE4F859194910895AF92BF92CF92DF9237
:10103000EF92FF920F931F93CF93DF93CDB7DEB75D
:1010400066970FB6F894DEBF0FBECDBFB82E6B010A
:101050000E944F1481E090E09093400780933F07F7
:1010600090933E0780933D078AE090E090933A0783
:101070008093390710923C0710923B0783E08093DE
:1010800041078B2D0E940708BC0180E090E04AE0F8
:101090000E94F0198BE490E090933A07809339070F
:1010A00087E090E090933C0780933B0732E0A32ECB
:1010B000A09241078DE692E00E94311AEE24E3945B
:1010C000F12C08E110E02FE730E048E150E060E06B
:1010D00070E08DE297E00E94340E10923A07109271
:1010E00039078BE190E090933C0780933B0781E0C8
:1010F000809341078BE592E00E94311A10923A07E3
:101100001092390787E290E090933C0780933B0769
:10111000A092410789E592E00E94311A87E592E0AA
:101120000E94311A0B2D10E00E5D1D4FF8018491C5
:10113000883010F491E411C0803110F492E40DC0B5
:10114000883110F495E409C0803210F496E405C0AB
:10115000883210F493E401C09CE4998387708F5C1B
:101160008A831B82CE0101967C010E94BD1584E515
:1011700092E00E94311AB60180E090E04AE00E94BD
:10118000F01910923A071092390789E390E0909392
:101190003C0780933B0781E080934107F80104916D
:1011A000083018F463E575E016C0003118F46CE5FA
:1011B00075E011C0083118F465E675E00CC0003226
:1011C00018F462E775E007C0083218F46CE775E0C0
:1011D00002C066E875E0C7010E944B24F701019048
:1011E0000020E9F73197EE19FF09FF27D701AE0F6D
:1011F000BF1F07700F5C0C93EC0FFD1F1282F701ED
:1012000001900020E9F7C7018E1B9F0B469696952B
:101210008795182F112331F082E592E00E94311A50
:101220001150F8CFC7010E94BD150E94ED060E9423
:10123000A31466960FB6F894DEBF0FBECDBFDF9144
:10124000CF911F910F91FF90EF90DF90CF90BF90C3
:10125000AF900895EF92FF920F931F93CF93DF9378
:101260008C0180910C06882311F0D0E001C0D8E0F9
:10127000CD2F8CE2E82EFF24F3948C2F0E940708D8
:10128000801B910B1816190634F48C2F0E94070846
:10129000801B910B07C08C2F0E9407089801281B08
:1012A000390BC9018E159F0514F4DC2F7C01CF5F2B
:1012B000C03319F78D2FDF91CF911F910F91FF90C0
:1012C000EF9008951F920F920FB60F9211242F9353
:1012D0003F934F935F936F937F938F939F93AF93BE
:1012E000BF93CF93EF93FF9329B1C091980590914D
:1012F000C6058091C305322F309583239223892B15
:1013000090916D00C227C923C82320939805CC2350
:10131000C1F1C0FF05C0E0919905F0919A050995CA
:10132000C1FF05C0E0919B05F0919C050995C2FFA6
:1013300005C0E0919D05F0919E050995C3FF05C08C
:10134000E0919F05F091A0050995C4FF05C0E091CB
:10135000A105F091A2050995C5FF05C0E091A3057F
:10136000F091A4050995C6FF05C0E091A505F0918F
:10137000A6050995C7FF05C0E091A705F091A8054E
:101380000995FF91EF91CF91BF91AF919F918F916F
:101390007F916F915F914F913F912F910F900FBE71
:1013A0000F901F9018951F920F920FB60F92112455
:1013B0002F933F934F935F936F937F938F939F935D
:1013C000AF93BF93CF93EF93FF9326B1C091A9053D
:1013D0009091C7058091C405322F309583239223C5
:1013E000892B90916C00C227C923C8232093A9059B
:1013F000CC2351F1C0FF05C0E091AA05F091AB05E7
:101400000995C1FF05C0E091AC05F091AD050995C6
:10141000C2FF05C0E091AE05F091AF050995C3FF8D
:1014200005C0E091B005F091B1050995C4FF05C074
:10143000E091B205F091B3050995C5FF05C0E091B3
:10144000B405F091B5050995FF91EF91CF91BF914A
:10145000AF919F918F917F916F915F914F913F914C
:101460002F910F900FBE0F901F9018951F920F9203
:101470000FB60F9211242F933F934F935F936F9367
:101480007F938F939F93AF93BF93CF93EF93FF93EC
:1014900023B1C091B6059091C8058091C505322F42
:1014A000309583239223892B90916B00C227C92307
:1014B000C8232093B605CC2351F1C0FF05C0E091AD
:1014C000B705F091B8050995C1FF05C0E091B905D0
:1014D000F091BA050995C2FF05C0E091BB05F091F6
:1014E000BC050995C3FF05C0E091BD05F091BE059F
:1014F0000995C4FF05C0E091BF05F091C0050995AD
:10150000C5FF05C0E091C105F091C2050995FF91A5
:10151000EF91CF91BF91AF919F918F917F916F91FB
:101520005F914F913F912F910F900FBE0F901F90A1
:1015300018951F920F920FB60F9211242F933F937D
:101540004F935F936F937F938F939F93AF93BF93CB
:10155000EF93FF93E0919605F09197050995FF9120
:10156000EF91BF91AF919F918F917F916F915F911B
:101570004F913F912F910F900FBE0F901F90189594
:101580001F920F920FB60F9211242F933F934F93F8
:101590005F936F937F938F939F93AF93BF93EF93DB
:1015A000FF93E0919405F09195050995FF91EF91D6
:1015B000BF91AF919F918F917F916F915F914F916B
:1015C0003F912F910F900FBE0F901F901895089587
:1015D0002F923F924F925F926F927F928F929F9243
:1015E000AF92BF92CF92DF92EF92FF920F931F9331
:1015F000CF93DF93CDB7DEB76B970FB6F894DEBF0E
:101600000FBECDBF4C015A8349831F830E83FD82D9
:10161000EC82CB82DC0158964D915C915997411533
:10162000510509F0A5C018968D919C9119976817DE
:1016300079070CF05AC11A968D919C911B97E981FC
:10164000FA81E817F9070CF050C1D12CCB013B818E
:10165000F6E03F9F800D911D1124181619060CF01D
:1016600044C1C60133E0880F991F3A95E1F74981DB
:101670005A81840F951F181619060CF036C157961B
:101680008C91811103C0203B08F02F5F55E0259F0E
:10169000900111247E876D875B01212CC901861B77
:1016A000970B99878887A981BA811896BB87AA87E3
:1016B000B5E02B1641F0E885F985EA0DFB1DE656ED
:1016C000FC4F349001C0312C69807A80230130FEB8
:1016D00012C0D401ED91FC91BB81B13031F4048092
:1016E000F581E02D2E813F8118C00684F785E02D1D
:1016F000EE80FF801CC0EC81FD812E813F81E217CE
:10170000F307E1F0D401ED91FC91BB81B13051F4CC
:101710000480F581E02D2C813D81A301B501C40138
:1017200009950CC00684F785E02DEC80FD808601CC
:101730009601A2016D857E85C40109953694EFEF6F
:101740006E1A7E0A4C0C5D1C2A853B856216730658
:1017500009F0BDCF23943FEFA31AB30A4D855E85F0
:101760004C0D5D1D5E874D8756E02512A1CFBDC093
:10177000FA0134963491329785919491231BA7E016
:101780002A9F800D911D1124FA01259134913A8BE5
:10179000298BFC0125903490FC01329634913887D6
:1017A000319644914C873196E491FC013596A49191
:1017B000319684915B81523050F06A2E0A2E000CD3
:1017C0007708E82F082E000CFF0BFB87EA87FB81C8
:1017D000CF2ED12C6C9C90016D9C300D7C9C300DDB
:1017E0001124A901460F571F588B4F871C82A12C2B
:1017F000EA2FAA0FFF0B3B016E0E7F1E5885650F67
:10180000711DDB01AE0FBF1FBF8BAE8BE981FA816B
:10181000E80FF11D87FDFA95F98FE88F9C85A916D1
:1018200008F063C08A2D90E04A855B85480F591FF8
:101830004C9D90014D9D300D5C9D300D1124A98172
:10184000BA81A20FB31FBE87AD877B8E6A8E4F848D
:101850005888BC81B619BB8BE88DF98DE80FF91F4C
:10186000FD8BEC8B8B89FA8D8F0F2A8D3B8D4E89EA
:101870005F892417350799F1877041F4C1010196FA
:10188000E989FA89E20DF31DB4901C01B7FE1EC070
:10189000D401ED91FC91BB81B13061F40480F581FC
:1018A000E02D2E813F814C895D896A8D7B8DC4013D
:1018B00009950CC00684F785E02DEE80FF80860137
:1018C00096014D855E85B201C4010995BB0CEA8D78
:1018D000FB8D3196FB8FEA8F4C0C5D1CC3CF5C8176
:1018E0008885580F5C83A39499CF6B960FB6F894B4
:1018F000DEBF0FBECDBFDF91CF911F910F91FF9043
:10190000EF90DF90CF90BF90AF909F908F907F909F
:101910006F905F904F903F902F900895AF92BF923D
:10192000CF92EF92FF920F931F93CF93DF93EC012F
:10193000262F888D998D009709F042C06A3069F48E
:101940002C898E859F8538E0239F800D911D112461
:101950009F878E871D861C86ACC06D3009F4A9C098
:101960008E898823C1F03C898C859D8546E0349F13
:10197000800D911D112448855985841795075CF0C9
:101980001D861C868E859F85E8E03E9F800D911DFB
:1019900011249F878E87EA88FB88088919894E85DC
:1019A0005F856C857D85CC88CE010E94E80A2C89F4
:1019B0008C859D85F6E02F9F800D911D112441C0DF
:1019C0006A3079F41D861C862C89FC013696E491D8
:1019D0008E859F852E9F800D911D11249F878E8758
:1019E00068C06D3009F465C0AC014C5F5F4FFA010F
:1019F0003491631708F45DC03196E491E61708F45A
:101A000058C0FA014491362F341BFC013296A59040
:101A1000B490F7E03F9FA00CB11C1124F501329661
:101A200034913196E491332311F0E1110DC0F501A9
:101A30003496E4912C898C859D85E29F800D911DC3
:101A400011249D878C8735C0F501359644915E89B8
:101A5000552311F16C89E32FF0E0E40FF11D47FDF0
:101A6000FA956E9FD0016F9FB00D11244C855D8556
:101A70004A0F5B1FE885F9854E175F076CF01D86DE
:101A80001C86FC013696E4918E859F856E9F800DA5
:101A9000911D11249F878E87EA88FB880889198900
:101AA0004E855F856C857D85CC88CE010E94E80AD5
:101AB000BECF81E090E0DF91CF911F910F91FF9019
:101AC000EF90CF90BF90AF900895EF92FF920F9359
:101AD0001F93DC01ED91FC9111971A960D911C91C9
:101AE0001B9718962D913C9119970684F785E02D48
:101AF0007B0140E050E060E070E009951F910F919C
:101B0000FF90EF9008956F927F928F929F92AF9285
:101B1000BF92CF92DF92EF92FF920F931F93CF93DA
:101B2000DF936C015A014801EB013B01620E731E09
:101B3000C615D70574F4D601ED91FC910084F185AA
:101B4000E02D87019401A501BE01C60109952196EA
:101B5000EFCFDF91CF911F910F91FF90EF90DF902A
:101B6000CF90BF90AF909F908F907F906F9008958F
:101B7000EF92FF920F931F93DC01ED91FC91260FE2
:101B8000371F215031090680F781E02D78018A0145
:101B900009951F910F91FF90EF900895EF92FF929A
:101BA0000F931F937801DC01ED91FC91240F351FF9
:101BB0008901015011090680F781E02D9B010995EB
:101BC0001F910F91FF90EF9008956F927F928F92E7
:101BD0009F92AF92BF92CF92DF92EF92FF920F93BC
:101BE0001F93CF93DF93EC014B015A016901380138
:101BF000E881F9810284F385E02D87010995E88168
:101C0000F981A501460D571D415051090284F38504
:101C1000E02D9601B401CE010995E881F981008497
:101C2000F185E02D9301A501B401CE010995E8816C
:101C3000F981C80CD91CB601615071090084F18585
:101C4000E02D9301A501CE010995DF91CF911F9160
:101C50000F91FF90EF90DF90CF90BF90AF909F904B
:101C60008F907F906F9008952F923F924F925F9246
:101C70006F927F928F929F92AF92BF92CF92DF929C
:101C8000EF92FF920F931F93CF93DF9300D01F9299
:101C9000CDB7DEB74C017B836A836A015901170116
:101CA0009801241B350B37FF03C03195219531096D
:101CB000C5014A815B81841B950B97FF03C09195F9
:101CC0008195910951E059838217930714F0198285
:101CD0000BC09A2D8B2D5801092F182F9A818B81BB
:101CE000DB82CA82C92ED82E8A819B81A816B906AA
:101CF0005CF49C2D8D2D6801092F182F9A818B8102
:101D0000BB82AA82A92EB82E2501AA81BB814A1ABC
:101D10005B0A38016C187D0877FE03C071946194EA
:101D20007108720157FE03C0BFEFEB1AFB0AF5946E
:101D3000E794C016D1061CF00FEF1FEF1FC001E0A3
:101D400010E01CC0D401ED91FC91B9810480F581B3
:101D5000E02D9101BB23C1F04A815B81B601C40132
:101D60000995E618F708F7FE04C0C00ED11EE40C72
:101D7000F51CEA81FB813196FB83EA834A815B8112
:101D8000A416B506FCF604C0A6016A817B81E7CFE4
:101D90000F900F900F90DF91CF911F910F91FF90B7
:101DA000EF90DF90CF90BF90AF909F908F907F90FB
:101DB0006F905F904F903F902F9008950F931F93D7
:101DC000CF93DF93DC0155968C915597823071F05B
:101DD000833009F1813009F08CC01496ED91FC91AB
:101DE0001597E41BF50BE21BF30B20C01496ED9145
:101DF000FC911597CF01861B970BBC0161507109AF
:101E00001696ED91FC911797CF01841B950BAC01B1
:101E1000421B530B6EC01696ED91FC911797CF01A4
:101E2000861B970BBC0161507109FA0177FD1BC13C
:101E300016968D919C911797681779070CF013C12E
:101E4000F7FF04C02E0F3F1FE0E0F0E014968D91E5
:101E50009C911597AF01420F531F841795071CF4EF
:101E60009C012E1B3F0B121613060CF0FCC0CB017D
:101E700077FD079643E0959587954A95E1F7969506
:101E8000982F882797958795E80FF91FEE5FFE4FEB
:101E90006770772781E090E001C0880F6A95EAF7C4
:101EA000482F0130110541F088F00230110509F08A
:101EB000DAC02E0F3F1F15C02E0F3F1FE217F3078A
:101EC00009F4D1C08081842B8193F8CF80952E0FA7
:101ED0003F1FE217F30709F4C6C09081982391933E
:101EE000F8CFE217F30709F4BEC0808184278193FD
:101EF000F8CF77FDB8C014968D919C91159768170F
:101F000079070CF0B0C057FF04C0240F351F40E024
:101F100050E016968D919C911797FA01E20FF31FEE
:101F20008E179F071CF49C01241B350B12161306F9
:101F30000CF099C0A22F842F86958695869590E8FF
:101F4000899F600D711D1124FB01EE5FFE4F4770EC
:101F5000A9F198E0941B492F50E0EA01C25FDA4FE3
:101F60008881291790F4421B51092FEF30E002C0FD
:101F7000359527954A95E2F782230130110541F006
:101F800068F00230110589F06EC00130110519F4B6
:101F90002081822B0CC00130110520F48095208116
:101FA000822305C00230110531F42081822780830D
:101FB000A91708F458C0A91BE058FF4FA83048F1F2
:101FC0000230110559F4EF018A2F9881909598837A
:101FD000C058DF4F88508830C0F730C081E00130F2
:101FE000110509F080E08195EF019A2F8883C05890
:101FF000DF4F98509830D0F788EF8A0F86958695F6
:10200000869590E8899FE00DF11D1124E058FF4F5F
:10201000A770AA2341F1B0E0AA5FBA4F8C910130BA
:10202000110529F038F002301105D1F01CC0908163
:10203000892B18C080959081892314C088EF8A0F5E
:1020400086958695869590E8899FE00DF11D11246F
:10205000E058FF4FA77039F0B0E0AA5FBA4F8C91FB
:10206000908189278083DF91CF911F910F910895EF
:102070000F931F93CF93DF93DC01FB0155968C9157
:102080005597823081F0833019F1813051F51496E3
:102090008D919C911597BC01641B750BAB01415050
:1020A0005109BF0181C014966D917C911597CB01A8
:1020B0008E1B9F0BFC0116968D919C911797BC016E
:1020C000641B750BAB0141505109E21BF30B09C0B6
:1020D00016966D917C9117976E1B7F0B621B730B8D
:1020E00063C057FD1CC116968D919C911797481798
:1020F00059070CF014C1F7FF04C02E0F3F1FE0E09A
:10210000F0E014968D919C911597BF01620F731F9B
:10211000861797071CF49C012E1B3F0B1216130603
:102120000CF0FDC0CA0157FD079663E095958795B1
:102130006A95E1F79695982F882797958795E80FE8
:10214000F91FEE5FFE4F4770552781E090E001C018
:10215000880F4A95EAF7482F0130110541F088F0C1
:102160000230110509F0DBC02E0F3F1F15C02E0FE6
:102170003F1FE217F30709F4D2C08081842B8193BB
:10218000F8CF80952E0F3F1FE217F30709F4C7C061
:10219000908198239193F8CFE217F30709F4BFC019
:1021A000808184278193F8CF57FDB9C014968D9113
:1021B0009C911597481759070CF0B1C077FF04C0E0
:1021C000260F371F60E070E016968D919C9117974F
:1021D000FB01E20FF31F8E179F071CF49C01261BC7
:1021E000370B121613060CF09AC0A22F862F869575
:1021F0008695869590E8899F400D511D1124FA011E
:10220000EE5FFE4F6770A9F198E0961B492F50E0F2
:10221000EA01C25FDA4F8881291790F4421B510905
:102220002FEF30E002C0359527954A95E2F78223DB
:102230000130110541F068F00230110589F06FC0DE
:102240000130110519F42081822B0CC001301105D9
:1022500020F480952081822305C00230110531F4DD
:10226000208182278083A91708F459C0A91BE05850
:10227000FF4FA83048F10230110559F4EF018A2FC1
:10228000988190959883C058DF4F88508830C0F768
:1022900031C081E00130110509F080E08195EF0146
:1022A0009A2F8883C058DF4F98509830D0F788EF26
:1022B0008A0F86958695869560E8869FE00DF11DCC
:1022C0001124E058FF4FA770AA2349F1B0E0AA5F9C
:1022D000BA4F8C910130110529F038F00230110508
:1022E000D9F01DC09081892B03C0809590818923EE
:1022F000808315C088EF8A0F86958695869570E84D
:10230000879FE00DF11D1124E058FF4FA77039F0B1
:10231000B0E0AA5FBA4F8C9190818927E9CFDF9115
:10232000CF911F910F910895FC0177FD9AC0808590
:102330009185681779070CF094C057FD92C082858B
:102340009385481759070CF08CC08589823009F0B5
:102350007CC084819581DC01A61BB70BBD01615057
:10236000710986819781FC01E41BF50BAF01415097
:1023700051090AC0813041F484819581841B950BF9
:10238000AB01BC01615071092130310529F008F120
:1023900022303105E1F10895FA0157FD3796A3E0A7
:1023A000F595E795AA95E1F7F695FE2FEE27F795B7
:1023B000E7956E0F7F1FFB01EE5FFE4F47705527BD
:1023C00081E090E001C0880F4A95EAF79081892B5F
:1023D0003AC0FA0157FD379623E0F595E7952A951F
:1023E000E1F7F695FE2FEE27F795E7956E0F7F1F25
:1023F000FB01EE5FFE4F4770552781E090E001C082
:10240000880F4A95EAF78095908189231CC0FA01CC
:1024100057FD379683E0F595E7958A95E1F7F695B0
:10242000FE2FEE27F795E7956E0F7F1FFB01EE5FFE
:10243000FE4F4770552781E090E001C0880F4A9514
:10244000EAF79081892780830895833009F092CF3D
:1024500086819781861B970BBA01AC0141505109C7
:1024600093CF0895CF92DF92EF92FF920F931F9335
:10247000CF93DF937C01262F972F8A0180915606F8
:10248000882391F0C62FD72F6E01C40ED51ECC1510
:10249000DD0571F06991D701ED91FC910190F0811A
:1024A000E02DC7010995F3CF642F822F0E94C81930
:1024B000C801DF91CF911F910F91FF90EF90DF90B6
:1024C000CF900895CF93DF931F92CDB7DEB7698386
:1024D000209156062223D1F020917806203240F038
:1024E00021E030E0FC013383228380E090E015C0DE
:1024F00080915706E82FF0E0E85AF94F99819083D0
:102500008F5F809357068093780605C061E0CE0107
:1025100001960E94C81981E090E00F90DF91CF9161
:102520000895FF920F931F93CF93DF93D82F6623C5
:10253000D1F086E690E090933A078093390788E0DF
:1025400090E090933C0780933B0710923E071092D7
:102550003D0781E090E09093400780933F078D2FE7
:102560000E949C0680C00E944F1410923A0710925D
:10257000390710923C0710923B0781E08093410796
:10258000DD2319F0CFEFCD0F01C0CFE087E0F82EAB
:1025900001E010E0C03108F0C0E0CD1309C0109296
:1025A0003E0710923D071093400700933F0708C075
:1025B00010933E0700933D071092400710923F078B
:1025C0004C2F50E0FA013197EF30F10520F4EC5C2C
:1025D000FF4F0C94A42289E893E02CC088E793E095
:1025E00029C087E693E026C086E593E023C085E412
:1025F00093E020C084E393E01DC083E293E01AC01F
:1026000082E193E017C081E093E014C080EF92E094
:1026100011C08FED92E00EC08EEC92E00BC08DEBFE
:1026200092E008C08CEA92E005C08BE992E002C01B
:102630008AE892E00E94311A10933E0700933D070A
:102640001092400710923F0788E892E00E94311AEA
:102650008C2F0E949C0680E995E00E94BD15CF5FFB
:10266000FA94F11097CFDF91CF911F910F91FF90C6
:102670000C94A3142091780690915B07213208F006
:102680004AC0809155068111FCCF32E03093550647
:1026900031E0309354063FEF3093530610925206C8
:1026A00020935106A8E5B6E041E356E0FA013E2F3B
:1026B000341B321718F43D913193F9CF1092300644
:1026C00020913006990F922B9093300690912F060F
:1026D000913061F410922F06909130069093BB00D8
:1026E0009091BC0093FDF8CF95EC01C095EE9093CE
:1026F000BC00909155069230E1F3909153069F3FB4
:1027000079F080915306803241F0809153068033F6
:1027100031F084E005C081E003C082E001C083E0C5
:1027200010925706109278061092560608959091CE
:102730004E07992339F08EBD00000DB407FEFDCF82
:102740008EB5089528E030E040E8E0915107F0911F
:102750005207508190915807909595239083E0916E
:102760004F07F091500790915707542F582319F0B5
:102770005081952B03C05081909595239083E091D3
:102780005107F0915207508190915807952B9083F3
:10279000469521503109C9F60895CF93DF93C7E2DA
:1027A000D7E060E088810E949E1760E08C810E94E3
:1027B0009E1761E088810E949E1760E08881DF910A
:1027C000CF910C949E17CF93DF93C7E2D7E060E0E0
:1027D00088810E949E1761E08C810E949E1761E0B3
:1027E00088810E949E1760E08881DF91CF910C94D0
:1027F0009E17CF93DF93E1EDF8E08491EDEBF8E0E5
:10280000D491E9EAF8E0C491CC2391F081110E94BF
:102810007517EC2FF0E0EE0FFF1FE656F74FA5916E
:10282000B491EC91ED2381E090E021F480E002C0CE
:1028300080E090E0DF91CF910895CF92DF92EF9208
:10284000FF92C0907A06D0907B06E0907C06F090D4
:102850007D06C114D104E104F10479F00E9444180A
:10286000DC01CB018C199D09AE09BF098E35914061
:10287000A105B10510F480E00DC010927A06109207
:102880007B0610927C0610927D068091790681115C
:1028900010927906FF90EF90DF90CF90089580E03E
:1028A00094E0E2E0F1E0DF019C011D922150304014
:1028B000E1F70895CF93C82F809149078F3F59F1D1
:1028C000E0915307F0915407808190915907982B1C
:1028D0009083E0915507F0915607208190915A0717
:1028E000909592239083E0915307F09154072081B3
:1028F000909159079095922390838C2F0E94971363
:10290000E0915307F0915407908180915907892BEA
:102910008083CF9108958091470791E09093560668
:1029200080935B07109257061092780660E08BE167
:1029300097E00E9462126C2F8BE197E00E94621276
:10294000CF910C943A139F92AF92BF92CF92DF92A5
:10295000EF92FF920F931F93CF93DF9380E00E943B
:102960005A1480E10E945A1480E40E945A14809103
:1029700049078F3F09F456C090EBD92EC0E0D0E054
:102980008D2D0E945A1482E00E945A1480E10E9408
:102990005A1400E010E0E0915307F0915407908141
:1029A00080915907892B8083E0915507F091560754
:1029B000908180915A07892B8083E0915307F09191
:1029C0005407908180915907809589238083E12C59
:1029D000F12C5801AC0EBD1EF701EA0DFB1DEE5F98
:1029E000FE4F80810E9497138FEFE81AF80A80E16A
:1029F000E816F10489F7E0915307F09154079081AC
:102A000080915907892B8083005F1F4F0038110583
:102A100011F6C058DF4FD394C11584E0D80709F0F0
:102A2000AFCF4BC0C090B8008CE08093B80080EB73
:102A3000D82EC0E0D0E0992493948D2D0E945A1492
:102A400082E00E945A1480E10E945A1400E010E0D3
:102A5000809147079092560680935B071092570625
:102A60001092780660E48BE197E00E946212E12CFC
:102A7000F12C5801AC0EBD1EF701EA0DFB1DEE5FF7
:102A8000FE4F60818BE197E00E9462128FEFE81A9F
:102A9000F80A80E1E816F10479F70E943A13005F22
:102AA0001F4F00381105A1F6C058DF4FD394C11550
:102AB00084E0D80711F6C092B800DF91CF911F9142
:102AC0000F91FF90EF90DF90CF90BF90AF909F90CD
:102AD00008951F93CF93DF938F5D91409C013695AE
:102AE00027952F71EC0156E0D695C7955A95E1F7D9
:102AF000D695DC2FCC27D795C795C22B61E0809166
:102B000029070E949E1760E0809129070E949E1766
:102B10000E94E3130E94CD130E94CD130E94CD1397
:102B20000E94E31310E1C0FF03C00E94E31302C040
:102B30000E94CD13D695C7951150A9F70E94CD13C9
:102B40000E94CD130E94CD130E94CD1361E08091AD
:102B500029070E949E1760E0809129070E949E1716
:102B600060E0809127070E949E1760E080912B070C
:102B7000DF91CF911F910C949E17009769F0FC0193
:102B800001900020E9F73197AF01481B590BBC01B8
:102B90008DE297E00C94CF1580E090E00895CF92FD
:102BA000DF92EF92FF920F931F93CF93DF936C010D
:102BB0007A018B01C0E0D0E0CE15DF0589F0D801A5
:102BC0006D918D01D601ED91FC910190F081E02D88
:102BD000C6010995892B11F47E0102C02196ECCF24
:102BE000C701DF91CF911F910F91FF90EF90DF9080
:102BF000CF900895FC01918D828D981761F0828DA0
:102C0000DF01A80FB11D5D968C91928D9F5F9F7320
:102C1000928F90E008958FEF9FEF0895FC01918DC2
:102C2000828D981731F0828DE80FF11D858D90E02F
:102C300008958FEF9FEF0895FC01918D228D892FCC
:102C400090E0805C9F4F821B91098F7399270895B4
:102C50008EE796E00E941C1621E0892B09F420E003
:102C6000822F0895FC01848DDF01A80FB11DA35AA6
:102C7000BF4F2C91848D90E001968F739927848F9C
:102C8000A689B7892C93A089B1898C9180648C9393
:102C9000938D848D981306C00288F389E02D80817E
:102CA0008F7D80830895EF92FF920F931F93CF93B0
:102CB000DF93EC0181E0888F9B8D8C8D981305C08C
:102CC000E889F989808185FD24C0F62E0B8D10E0FE
:102CD0000F5F1F4F0F731127E02E8C8DE8120CC071
:102CE0000FB607FCFACFE889F989808185FFF5CF17
:102CF000CE010E943216F1CF8B8DFE01E80FF11D3F
:102D0000E35AFF4FF0820B8FEA89FB898081806252
:102D100007C0EE89FF896083E889F9898081806432
:102D2000808381E090E0DF91CF911F910F91FF9020
:102D3000EF900895CF93DF93EC01888D8823C9F03D
:102D4000EA89FB89808185FD05C0A889B9898C91B4
:102D500086FD0FC00FB607FCF5CF808185FFF2CF4F
:102D6000A889B9898C9185FFEDCFCE010E943216DA
:102D7000E7CFDF91CF91089580E090E0892B29F093
:102D80000E94281681110C94000008953FB7F89412
:102D90008091A8079091A907A091AA07B091AB07CD
:102DA00026B5A89B05C02F3F19F00196A11DB11DA6
:102DB0003FBFBA2FA92F982F8827820F911DA11DE1
:102DC000B11DBC01CD0143E0660F771F881F991F1D
:102DD0004A95D1F7089585ED8093BC008091BC00A1
:102DE00084FDFCCF109255060895089581E090E08F
:102DF0003091CA052091C905321710F480E090E0A7
:102E000091958195910908958091CA059091C90580
:102E1000891730F48F5F8093CA0580E090E00895B1
:102E20008FEF9FEF08958091C90590E02091CA052A
:102E3000821B910908950E9446241F920F920FB69B
:102E40000F9211242F933F934F935F936F937F9330
:102E50008F939F93AF93BF93EF93FF938EE796E08B
:102E60000E943216FF91EF91BF91AF919F918F9188
:102E70007F916F915F914F913F912F910F900FBE76
:102E80000F901F9018951F920F920FB60F9211245A
:102E90002F938F939F93EF93FF93E0918E06F09182
:102EA0008F068081E0919406F091950682FD12C014
:102EB0009081809197068F5F8F732091980682177B
:102EC00051F0E0919706F0E0E258F94F958F80932A
:102ED000970601C08081FF91EF919F918F912F9173
:102EE0000F900FBE0F901F901895833081F028F43B
:102EF000813099F08230A1F008958730A9F08830B0
:102F0000B9F08430D1F4809180008F7D03C080912E
:102F100080008F7780938000089584B58F7702C0FA
:102F200084B58F7D84BD08958091B0008F7703C0F4
:102F30008091B0008F7D8093B00008951F93CF9350
:102F4000DF93282F30E0F901E453F74F8491F90122
:102F5000E854F74FD491F901EC55F74FC491CC23C5
:102F6000C9F0162F81110E947517EC2FF0E0EE0FBB
:102F7000FF1FEC55FF4FA591B4918FB7F894111135
:102F800005C09C91ED2FE095E92302C0EC91ED2B5B
:102F9000EC938FBFDF91CF911F910895CF93DF9373
:102FA00090E0FC01E854F74F2491FC01EC55F74FF9
:102FB0008491882361F190E0880F991FFC01E65607
:102FC000FF4FC591D491FC01EC55FF4FA591B491F1
:102FD000611109C09FB7F894888120958223888366
:102FE000EC912E230BC0623061F49FB7F8943881C6
:102FF000822F809583238883EC912E2B2C939FBF67
:1030000006C08FB7F894E8812E2B28838FBFDF91FD
:10301000CF9108958F929F92AF92BF92CF92DF92FD
:10302000EF92FF926B017C010E94C6164B015C017E
:10303000C114D104E104F104F1F00E94C616DC01D0
:10304000CB0188199909AA09BB09883E9340A105BB
:10305000B10570F321E0C21AD108E108F10888EE49
:10306000880E83E0981EA11CB11CC114D104E10498
:10307000F10419F7DDCFFF90EF90DF90CF90BF9074
:10308000AF909F908F9008952FB7F8946091A40708
:103090007091A5078091A6079091A7072FBF08956B
:1030A0001F920F920FB60F9211242F933F938F937D
:1030B0009F93AF93BF938091A4079091A507A09190
:1030C000A607B091A7073091A30726E0230F2D375D
:1030D00020F40296A11DB11D05C029E8230F039617
:1030E000A11DB11D2093A3078093A4079093A5076A
:1030F000A093A607B093A7078091A8079091A9076E
:10310000A091AA07B091AB070196A11DB11D8093B4
:10311000A8079093A907A093AA07B093AB07BF9104
:10312000AF919F918F913F912F910F900FBE0F9074
:103130001F9018951F920F920FB60F9211242F9384
:103140003F934F935F936F937F938F939F93AF932F
:10315000BF93EF93FF938091B900887F803609F485
:103160009CC068F5883209F45BC090F4803109F4A2
:1031700054C038F4882309F4F6C0883009F44DC0EF
:10318000F6C0883109F44CC0803209F45DC0EFC04C
:10319000803409F468C048F4803309F455C088339A
:1031A00009F0E5C080935306D8C0803509F44FC0BC
:1031B000883509F45DC0883409F0D9C0D6C0883993
:1031C00009F4C7C0A8F4883709F467C038F4883612
:1031D00009F463C0803709F460C0C9C0883809F4B5
:1031E000B8C0803909F45FC0803809F0C0C05BC046
:1031F000803B09F486C038F4803A09F466C0883A06
:1032000009F47FC0B4C0803C09F4A7C0883C09F42D
:10321000A4C0883B09F48AC0AAC08091300610C0BF
:103220009091520680915106981770F5E0915206E0
:1032300081E08E0F80935206F0E0EF5CF94F8081C1
:103240008093BB0085EC86C0809353068EC0E091CE
:10325000520681E08E0F809352068091BB00F0E011
:10326000EF5CF94F808390915206809151066EC0B9
:10327000E091520681E08E0F809352068091BB0050
:10328000F0E0EF5CF94F80838091540681116DC0AE
:1032900081E080932F0684EA61C083E08093550625
:1032A0001092A207CFCF8091A207803208F051C0C0
:1032B000E091A20781E08E0F8093A2078091BB006E
:1032C000F0E0EE57F84F8083BDCF85EC8093BC00D3
:1032D000109255068091A207803230F4E091A20747
:1032E000F0E0EE57F84F10826091A20770E0E09195
:1032F0008007F091810782E897E009951092A20774
:1033000036C084E08093550610927F0710927E07A6
:10331000E0917C07F0917D07099580917E078111EE
:1033200005C081E080937E0710925C07E0917F07E3
:1033300081E08E0F80937F07F0E0E45AF84F8081A0
:103340008093BB0090917F0780917E07981708F4C7
:1033500079CF85E88093BC000AC085EC8093BC00DF
:103360001092550604C0109253060E94EB16FF916E
:10337000EF91BF91AF919F918F917F916F915F91ED
:103380004F913F912F910F900FBE0F901F90189566
:1033900040917E07262F30E0240F311D2132310568
:1033A000DCF4209155062430C9F4FC0180E090E063
:1033B000861758F430917E072191DC01A45AB84F4A
:1033C000A30FB11D2C930196F3CF80917E07680F58
:1033D00060937E0780E0089581E0089582E008957B
:1033E0008F929F92AF92BF920F931F93CF93DF93D1
:1033F000CDB7DEB7A1970FB6F894DEBF0FBECDBF35
:1034000019A2423008F44AE08E010F5D1F4F842E4E
:10341000912CA12CB12CA50194010E94F624E62F39
:10342000B901CA0101501109EA3014F4E05D01C08C
:10343000E95CD801EC93232B242B252B61F7C801E1
:103440000E94BD15A1960FB6F894DEBF0FBECDBF8A
:10345000DF91CF911F910F91BF90AF909F908F9070
:1034600008950F931F93CF93DF938C01C0E0D0E0BA
:10347000F801EC0FFD1F6491662371F0E0912D07B8
:10348000F0912E070190F081E02D8DE297E00995F3
:10349000892B11F02196ECCFCE01DF91CF911F91B6
:1034A0000F910895CF93DF93EC0161E086E00E94D5
:1034B000CE17209711F460E004C0CF3FD10531F45E
:1034C00061E086E0DF91CF910C949E17E2EDF8E089
:1034D000E491E330F9F048F4E130B9F0E230A1F5DD
:1034E00084B5806284BDC8BD34C0E730E9F0E830FF
:1034F00019F1E43049F5809180008062809380006A
:10350000D0938B00C0938A0024C084B5806884BDAA
:10351000C7BD1FC080918000806880938000D093D9
:103520008900C093880015C08091B00080688093A6
:10353000B000C093B3000DC08091B0008062809352
:10354000B000C093B40005C0C038D1050CF0B8CFAE
:10355000B2CFDF91CF910895CF93DF9300D0CDB755
:10356000DEB7789484B5826084BD84B5816084BD03
:1035700085B5826085BD85B5816085BD80916E0011
:10358000816080936E001092810080918100826042
:10359000809381008091810081608093810080917F
:1035A00080008160809380008091B100846080936E
:1035B000B1008091B00081608093B00080917A006A
:1035C000846080937A0080917A00826080937A0090
:1035D00080917A008E7F80937A0080917A00806853
:1035E00080937A001092C10061E08DE00E94CE17B6
:1035F00061E08DE00E949E1762E085E00E94CE1798
:10360000EDEBF8E08491E9EAF8E09491923059F416
:103610002091C805282B2093C8052091C505282B8B
:103620002093C50519C0933059F42091C705282B64
:103630002093C7052091C405282B2093C4050CC0F6
:10364000943051F42091C605282B2093C605209173
:10365000C305282B2093C305EBE8F0E0A49192303A
:10366000D1F4B0E0AA0FBB1FA954BA4F25E135E051
:103670002D933C93EEE9F8E0A591B4919C91909341
:10368000B6052BE630E030930F0620930E0690919E
:103690006800916037C09330D1F4B0E0AA0FBB1F2F
:1036A000A655BA4F25E135E02D933C93E0EAF8E0CA
:1036B000A591B4919C919093A9052CE630E03093AC
:1036C0000F0620930E069091680092601BC0943004
:1036D000D9F4B0E0AA0FBB1FA756BA4F25E135E0D9
:1036E0002D933C93E2EAF8E0A591B4919C919093DC
:1036F00098052DE630E030930F0620930E0690914A
:103700006800946090936800A0910E06B0910F0637
:10371000EC918E2B8C9361E086E00E94CE178EE0B8
:1037200090E00E94AE24803FC9F480E090E00E94C7
:10373000AE2480930D0600E016E0EE24E394F12C15
:10374000C7010E94AE24F80181938F01FFEFEF1AA9
:10375000FF0A2EE0E216F10499F709C080910C06E9
:103760008111EEC588E080930D060E94B40580911A
:103770000D060E9407080E94691582E080934807A1
:103780008CE380934707809149078F3F09F4BFC0BE
:1037900061E080914B070E94CE1761E080914D0758
:1037A0000E94CE1780914D07082E000C990BFC014A
:1037B000EC55F74FE491F0E0EE0FFF1FEC55FF4F93
:1037C000259134913093540720935307FC01E8541A
:1037D000F74FE491E093590780914B07082E000CB6
:1037E000990BFC01EC55F74FE491F0E0EE0FFF1F51
:1037F000EC55FF4F25913491309356072093550790
:10380000FC01E854F74FE491E0935A0780914E078A
:1038100081113EC061E0809149070E94CE1761E0AE
:1038200080914A070E94CE1780914A07082E000C0B
:10383000990BFC01EC55F74FE491F0E0EE0FFF1F00
:10384000EC55FF4F25913491309352072093510747
:10385000FC01E854F74FE491E09358078091490741
:10386000082E000C990BFC01EC55F74FE491F0E0A9
:10387000EE0FFF1FEC55FF4F259134913093500709
:1038800020934F07FC01E854F74FE491E09357076A
:1038900080914E07882309F461C01FB7F894809186
:1038A0001006811127C0EEEAF8E08491E2ECF8E01E
:1038B0009491E82FF0E0EE0FFF1FE656FF4FA59121
:1038C000B491EC91E92321F461E08AE00E949E1713
:1038D00061E08AE00E94CE178CB580618CBD8CB50A
:1038E00080648CBD61E08DE00E94CE1761E08BE0CA
:1038F0000E94CE17809110068F5F809310061FBF25
:103900008CB58C7F8CBD8DB581608DBD27C010922C
:10391000CA051092C90510925706109278061092A7
:10392000550681E08093540610922F0661E082E1F3
:103930000E949E1761E083E10E949E178091B9006A
:103940008E7F8093B9008091B9008D7F8093B900FC
:1039500080E28093B80085E48093BC0061E08091B0
:103960004C070E94CE1761E080914C070E949E1781
:1039700061E070E080E090E00E940A1860E08091D1
:103980004C070E949E176AE070E080E090E00E9481
:103990000A1861E080914C070E949E178EEA0E94EF
:1039A0005A1485ED0E945A1480E80E945A1488EA3D
:1039B0000E945A148FE30E945A1483ED0E945A14F5
:1039C00080E00E945A1480E40E945A148DE80E94FC
:1039D0005A1484E10E945A1480E20E945A1480E032
:1039E0000E945A1481EA0E945A1488EC0E945A14C8
:1039F0008AED0E945A1482E10E945A1481E80E94C2
:103A00005A148FEC0E945A1489ED0E945A1481EFC7
:103A10000E945A148BED0E945A1480E40E945A149A
:103A200084EA0E945A1486EA0E945A148FEA0E947D
:103A30005A140E944F1480910006882399F082E066
:103A40008093420780913107909132079093360717
:103A5000809335078091330790913407909338070E
:103A6000809337070E94A3140E94F913892BD9F47D
:103A70000E94C8050E94E60780910006882399F0FD
:103A800082E08093420780913107909132079093B2
:103A900036078093350780913307909134079093D0
:103AA00038078093370780910506882309F4A2C060
:103AB0000E944F14EE24E394F12C00E010E02FE775
:103AC00030E040E050E060E070E08DE297E00E947E
:103AD000340E81E090E09093400780933F079093ED
:103AE0003E0780933D0790933A078093390784E01F
:103AF00090E090933C0780933B0783E080934107DD
:103B00008AEC90E00E94311A0BE110E02FE730E0E0
:103B10004BE150E060E070E08DE297E00E94340EEF
:103B20008FE090E090933A078093390783E290E02A
:103B300090933C0780933B0781E08093410789EB9A
:103B400090E00E94311A81E290E090933A078093CE
:103B5000390782E390E090933C0780933B078EEA1D
:103B600090E00E94311A0E94A31418EC0E94F913ED
:103B7000892B09F43FC06AE070E080E090E00E9489
:103B80000A18115099F70FE1702E80E8C82ED12C39
:103B9000E12CF12C90E4892E912CA12CB12C7A945B
:103BA000772021F10E94F913892B21F10BEF10E00E
:103BB00001501109C1F00E94A024A70196010E94A2
:103BC000C424662E0E94A024A50194010E94C4244E
:103BD000462F50E0662D70E020E030E08DE297E067
:103BE0000E949411E5CF0E94A314D9CF0E944F14D4
:103BF0000E94A3140E944418DC01CB01805F984D01
:103C0000AF4FBF4F8093210690932206A0932306C7
:103C1000B0932406FEE0CF2ED12CA0E22A2E312C28
:103C2000B9E2AB2EB12C1BE4812E912C0E941D1405
:103C300080932906823009F482C2833041F08130BA
:103C400009F0A5C210910D0690910C0672C2512C7C
:103C500077247394E12CF12C0EE210E02EE630E094
:103C600049E050E069E070E08DE297E00E94830D4A
:103C7000EE24E394F12C0CE210E02CE630E04AE074
:103C800050E06AE070E08DE297E00E94E50D7092EE
:103C90004107D0923A07C0923907D0923C07C092B0
:103CA0003B0701E0511000E081E090E0511002C0BC
:103CB00080E090E090933E0780933D07802F90E056
:103CC0009093400780933F0788E091E00E94311A6B
:103CD000D0923A07C092390787E190E090933C0771
:103CE00080933B0781E090E0E1E05E1202C080E05B
:103CF00090E090933E0780933D0781E090E0F1E0F3
:103D00005F1611F080E090E09093400780933F07AA
:103D100086EF90E00E94311AD0923A07C09239079C
:103D200030923C0720923B0781E090E022E0521263
:103D300002C080E090E090933E0780933D0781E0D1
:103D400090E0E2E05E1611F080E090E09093400792
:103D500080933F0784EE90E00E94311AD0923A0798
:103D6000C0923907B0923C07A0923B0711E0F3E004
:103D70005F1210E081E090E023E0521202C080E088
:103D800090E090933E0780933D07812F90E09093C1
:103D9000400780933F0782ED90E00E94311A0E9415
:103DA000A3140E941D14813021F41111CBC253942D
:103DB00051CF823021F40111C7C25A944BCF8330C6
:103DC00009F048CF92E0591609F4CFC0E3E05E163F
:103DD00009F488C1F1E05F12DAC180910D060E94FA
:103DE00007083C010E944F14EE24E394F12C07E3F2
:103DF00010E02FE730E047E350E060E070E08DE254
:103E000097E00E94340E81E090E090934007809309
:103E10003F0790933E0780933D07509241071092D1
:103E20003A071092390789E390E090933C0780931A
:103E30003B0780910C06882319F080E391E002C0D3
:103E40008AE191E00E94311A60E080E00E947F05E3
:103E500093010AE010E059E3E52E57E1F52E64E600
:103E6000462E29833A830E94F91350900C0629812B
:103E70003A81892B09F442C0511003C083E090E0DD
:103E800002C086E090E0280F391F2A3387E1380707
:103E900038F0511003C02DE036E102C021EE34E1CC
:103EA000C90129833A830E94691569E170E080E0C5
:103EB00090E00E940A1884E10E9464068C589109DF
:103EC000B8010E949022462F29813A81C701821BA6
:103ED000930B511003C063E070E002C066E070E035
:103EE0000E949022862F642F942D981B892F29835E
:103EF0003A830E947F053A812981B3CF511003C0D4
:103F00008CE090E002C088E190E0A901481B590BC9
:103F100000E010E0F12C2F2D30E0511003C08CE0B8
:103F200090E002C088E190E028173907CCF4CA017C
:103F300049835A830E94691569E170E080E090E04E
:103F40000E940A1884E10E94640649815A81081778
:103F5000190710F43A018C01F3944E5F5F4FDBCFE9
:103F6000C3010E946915C301A5C089830E944F1433
:103F700021E030E03093400720933F0730933E0725
:103F800020933D072AE030E030933A072093390729
:103F900010923C0710923B078981809341078DE581
:103FA00091E00E94311A90923A078092390787E097
:103FB00090E090933C0780933B075092410788E53F
:103FC00091E00E94311AEE24E394F12C08E110E014
:103FD0002FE730E048E150E060E070E08DE297E0EC
:103FE0000E94340E10923A07109239078BE190E04C
:103FF00090933C0780933B0781E08093410786E4E0
:1040000091E00E94311A0E94ED060E94A314809153
:104010000D060E940708F0900C06F11003C023E083
:1040200030E002C026E030E02901480E591E40FC75
:1040300003C0EFEF4E1A5E0A82013CE3E32E612CCF
:10404000712CFF2009F4DDC124E3421627E152065A
:1040500008F0D2C186E090E0480E591EC2010E94CD
:10406000691569E170E080E090E00E940A1884E13F
:104070000E9464066816790610F482013C01EA94F5
:10408000E11099C1F1109CC18CE090E02801481A20
:10409000590A612C712CE12C2E2D30E0F11093C1C6
:1040A0008CE090E0281739070CF490C1C8010E94F9
:1040B0006915C8010E942A0980930D0660E070E02E
:1040C0000E9414080E944418DC01CB014996A11DEE
:1040D000B11D8093250690932606A0932706B093E2
:1040E000280655C00E94C8050E94E6078091000678
:1040F000882309F44CC082E0809342078091310705
:10410000909132079093360780933507809133075B
:1041100090913407909338078093370738C09111F6
:104120000CC018E0E12FF0E0E553FA4F80818F3F9B
:1041300011F51F32A0F71F5FF5CF10E0F3CF1091FC
:104140000D0620910C06103370F4412F50E0211120
:1041500003C088E090E002C080E090E04817590773
:1041600011F0115001C01FE2E12FF0E0E553FA4FCA
:1041700080818F3F41F310930D06812F0E94070825
:104180000E94691560E070E0812F0E941408809100
:104190002906882381F00E944418DC01CB01805F4E
:1041A000984DAF4FBF4F8093210690932206A09366
:1041B0002306B09324060E9444180091250610910E
:1041C000260620912706309128060617170728078C
:1041D0003907E0F480910606882309F4B8C04090BE
:1041E00021065090220660902306709024060E94BB
:1041F0004418461657066806790608F0A8C00E94BB
:104200004F140E94A31481E08093FB0590910D064A
:1042100080911E06981781F00E94441800911A069A
:1042200010911B0620911C0630911D0606171707DA
:104230002807390708F4A8C00E9444180091160600
:1042400010911706209118063091190606171707C6
:1042500028073907B8F481E090910001911180E0BE
:10426000809300010E944418DC01CB018C509E4FCA
:10427000AF4FBF4F8093160690931706A093180672
:10428000B0931906609100018DE00E949E17809105
:104290000106882309F44DC0E090FE05F090FF056B
:1042A000E114F10409F445C00E944418009112067B
:1042B0001091130620911406309115060617170762
:1042C00028073907D0F581E090911106911180E01F
:1042D000809311068823A1F081E090E0009002060F
:1042E00002C0880F991F0A94E2F70E94521A0E9496
:1042F0004418DC01CB018E0D9F1DA11DB11D10C006
:1043000080E090E00E94521A0E9444182091FC051F
:104310003091FD05DC01CB01820F931FA11DB11D62
:104320008093120690931306A0931406B09315067B
:1043300004C080E090E00E94521A0E94BC1676CC25
:1043400080E011CA512C86CC23E0522E83CC84E12C
:104350000E9464069093200680931F06BC01809102
:104360000D060E9414080E944418DC01CB018851FC
:104370009C4FAF4FBF4F8093250690932606A09386
:104380002706B093280642CF0E94E60780910D06CB
:1043900080931E060E944418DC01CB01805F984D7B
:1043A000AF4FBF4F80931A0690931B06A0931C0635
:1043B000B0931D0641CF8A3F910508F442CE62CEEC
:1043C00088E190E063CE88E190E06CCEC2010E946B
:1043D000691569E170E080E090E00E940A1884E1CC
:1043E0000E9464066816790610F482013C01E39489
:1043F000F2E04F0E511C50CE91EE492E94E1592E11
:104400002DCE87E3481687E1580618F483E090E044
:1044100023CE8DE0482E86E1582E20CECF93DF9319
:10442000EEE7F6E01382128288EE93E0A0E0B0E0BF
:1044300084839583A683B7832AE135E03183208383
:1044400025EC30E03587248724EC30E03787268759
:1044500020EC30E0318B208B21EC30E0338B228B51
:1044600022EC30E0358B248B26EC30E0378B268B2A
:10447000118E128E138E148EEBE1F7E013821282EE
:1044800084839583A683B7838AE295E091838083B2
:10449000EDE2F7E01382128220E830E035832483D6
:1044A00080E490E097838683318720879387828793
:1044B000158A158614861786168681E0848B2FEF61
:1044C0003FEF338B228B318B208B868B178A118E9B
:1044D000108E8AE395E0918380838FEF848F80A391
:1044E000868F858F84E0878FC7E2D7E082E090E0F7
:1044F0009983888383E090E09B838A8384E090E0C3
:104500009D838C8361E083E00E94CE1761E08C8103
:104510000E94CE1761E08881DF91CF910C94CE1775
:10452000AA1BBB1B51E107C0AA1FBB1FA617B707D9
:1045300010F0A61BB70B881F991F5A95A9F78095F5
:104540009095BC01CD010895EE0FFF1F0590F491E9
:10455000E02D09940E94BE220C949F230E94982370
:1045600058F00E94912340F029F45F3F29F00C9409
:10457000882351110C94D3230C948E230E94B023D2
:1045800068F39923B1F3552391F3951B550BBB2782
:10459000AA2762177307840738F09F5F5F4F220FC7
:1045A000331F441FAA1FA9F335D00E2E3AF0E0E8BE
:1045B00032D091505040E695001CCAF72BD0FE2F08
:1045C00029D0660F771F881FBB1F2617370748079C
:1045D000AB07B0E809F0BB0B802DBF01FF27935854
:1045E0005F4F3AF09E3F510578F00C9488230C946D
:1045F000D3235F3FE4F3983ED4F386957795679590
:10460000B795F7959F5FC9F7880F911D9695879588
:1046100097F90895E1E0660F771F881FBB1F6217A7
:1046200073078407BA0720F0621B730B840BBA0B65
:10463000EE1F88F7E09508950E94B82388F09F57F1
:1046400098F0B92F9927B751B0F0E1F0660F771FB6
:10465000881F991F1AF0BA95C9F714C0B13091F0AC
:104660000E94D223B1E008950C94D223672F782FB3
:104670008827B85F39F0B93FCCF386957795679571
:10468000B395D9F73EF490958095709561957F4FDD
:104690008F4F9F4F0895E89409C097FB3EF4909583
:1046A0008095709561957F4F8F4F9F4F9923A9F00B
:1046B000F92F96E9BB279395F6958795779567959A
:1046C000B795F111F8CFFAF4BB0F11F460FF1BC0DE
:1046D0006F5F7F4F8F4F9F4F16C0882311F096E971
:1046E00011C0772321F09EE8872F762F05C066231F
:1046F00071F096E8862F70E060E02AF09A95660FD8
:10470000771F881FDAF7880F9695879597F9089590
:1047100097F99F6780E870E060E008959FEF80EC74
:10472000089500240A941616170618060906089517
:1047300000240A9412161306140605060895092E7D
:104740000394000C11F4882352F0BB0F40F4BF2BEC
:1047500011F460FF04C06F5F7F4F8F4F9F4F08952C
:1047600057FD9058440F551F59F05F3F71F0479522
:10477000880F97FB991F61F09F3F79F08795089507
:10478000121613061406551FF2CF4695F1DF08C026
:10479000161617061806991FF1CF86957105610543
:1047A00008940895E894BB2766277727CB0197F9EB
:1047B00008950E94EC230C949F230E94912338F0CB
:1047C0000E94982320F0952311F00C9488230C94D8
:1047D0008E2311240C94D3230E94B02370F3959F51
:1047E000C1F3950F50E0551F629FF001729FBB27E8
:1047F000F00DB11D639FAA27F00DB11DAA1F649F84
:104800006627B00DA11D661F829F2227B00DA11D36
:10481000621F739FB00DA11D621F839FA00D611DBC
:10482000221F749F3327A00D611D231F849F600DDD
:10483000211D822F762F6A2F11249F5750409AF006
:10484000F1F088234AF0EE0FFF1FBB1F661F771F92
:10485000881F91505040A9F79E3F510580F00C945D
:1048600088230C94D3235F3FE4F3983ED4F38695DA
:1048700077956795B795F795E7959F5FC1F7FE2BFD
:10488000880F911D9695879597F9089581E090E09E
:10489000F8940C942725FB01DC0101900D92002077
:1048A000E1F708958F929F92AF92BF92CF92DF92DD
:1048B000EF92FF92CF93DF93EC01688179818A8137
:1048C0009B81611571058105910521F464E279ED03
:1048D0008BE597E02DE133EF41E050E00E94C424E6
:1048E00049015A019B01AC01A7EAB1E40E94E3240B
:1048F0006B017C01ACEEB4EFA50194010E94F124A0
:10490000DC01CB018C0D9D1DAE1DBF1DB7FF03C08B
:104910000197A109B04888839983AA83BB83BC010E
:10492000CD019F77DF91CF91FF90EF90DF90CF90F7
:10493000BF90AF909F908F9008950E945224089549
:1049400082E095E00E9452240895609302057093DE
:10495000030580930405909305050895F999FECF0A
:1049600092BD81BDF89A992780B50895262FF999AF
:10497000FECF1FBA92BD81BD20BD0FB6F894FA9A42
:10498000F99A0FBE01960895052E97FB1EF4009428
:104990000E94DB2457FD07D00E94F62407FC03D0B9
:1049A0004EF40C94DB2450954095309521953F4F63
:1049B0004F4F5F4F089590958095709561957F4F0B
:1049C0008F4F9F4F08950E941825A59F900DB49F6B
:1049D000900DA49F800D911D11240895B7FF0C9494
:1049E000E3240E94E324821B930B0895A1E21A2E74
:1049F000AA1BBB1BFD010DC0AA1FBB1FEE1FFF1F83
:104A0000A217B307E407F50720F0A21BB30BE40BD2
:104A1000F50B661F771F881F991F1A9469F7609519
:104A20007095809590959B01AC01BD01CF010895D3
:104A3000A29FB001B39FC001A39F700D811D1124DF
:104A4000911DB29F700D811D1124911D0895F89440
:024A5000FFCF96
:104A5200010E000000000000000000000000000045
:104A62000000000000000000000000000000000044
:104A72000000000000000000000000000000000034
:104A82000000000000000000000000000000000024
:104A92000080808000000000000000000000000094
:104AA2000000008080C0C000000000000000000084
:104AB20000000000000000000000000000000000F4
:104AC20000000000000000000000000000000000E4
:104AD20000000000000000000000000000000000D4
:104AE20000000000000080C0E0F0F8FCF8E00000E8
:104AF2000000000000000000000000000000008034
:104B02008080808000808000000000808080808023
:104B120000FFFFFF00000000808080800000808096
:104B2200000080FFFF808000808000808080800005
:104B320080800000000000808000008C8E840000D5
:104B420080F8F8F88000000000000000000000007B
:104B52000000F0F0F0F0F0F0F0F0F0F0F0F0E0E053
:104B6200C08000E0FCFEFFFFFF7FFFFFFFFFFF00B2
:104B720000000000000000000000000000FEFFC76F
:104B82000101010183FFFF00007CFEC70101010159
:104B920083FFFFFF0038FEC78301010183C7FFFFC8
:104BA200000001FFFF010100FFFF070101010000FA
:104BB2007FFF80000000FFFF7F0000FFFFFF00007B
:104BC20001FFFFFF010000000000000000000000E4
:104BD2000000030F3F7F7FFFFFFFFFFFFFFFE7C7DD
:104BE200C78F8F9FBFFFFFC3C0F0FFFFFFFFFFFC18
:104BF200FCFCFCFCFCFCFCF8F8F0F0E0C00001035B
:104C02000303030301030300000000010303030382
:104C12000101030100000001030303030101030377
:104C22000000000303000000030300000000000076
:104C3200000103030303030100000001030100005C
:104C4200000303010000000000000000000000005B
:104C5200000000000080C0E0F0F9FFFFFFFFFF3F0F
:104C62001F0F87C7F7FFFF1F1F3DFCF8F8F8F87CFE
:104C72007DFFFFFFFFFFFFFFFF7F3F0F0700303089
:104C82000000000000000000000000000000000022
:104C9200000000000000FEFEFC000000000000001A
:104CA200000000000000000000000000000000E022
:104CB200C0000000000000000000000030300000D2
:104CC20000000000000000000000000000000000E2
:104CD200000000C0FEFFFFFFFFFFFFFFFFFF7F7F1F
:104CE2003F1F0F071F7FFFFFF8F8FFFFFFFFFFFEC9
:104CF200F8E0000000010000000000000000FEFEDD
:104D0200000000FCFEFC0C06060EFCF80000F0F8A9
:104D12001C0E0606060CFFFFFF0000FEFE00000050
:104D220000FCFEFC00183C7E66E6CE84000006FF16
:104D3200FF0606FCFEFC0C0606060000FEFE000056
:104D4200C0F8FC4E4646464E7C7840183C76E6CE8D
:104D5200CC80000000000000000000000000000005
:104D620000000000000001070F1F1F3F3F3F3F1FD1
:104D72000F030000000000000000000000000F0F01
:104D82000000000F0F0F000000000F0F00000307CC
:104D92000E0C18180C060F0F0F0000010F0E0C1846
:104DA2000C0F070100040E0C180C0F070000000F77
:104DB2000F00000F0F0F0000000000000F0F000097
:104DC2000007070C0C181C0C060600040E0C180C2D
:104DD2000F070000000000000000000000000000BB
:104DE20000000000000000000000000000000000C1
:104DF20000000000000000000000000000000000B1
:104E020000000000000000000000000000000000A0
:104E12000000000000000000000000000000000090
:104E22000000000000000000000000000000000080
:104E32000000000000000000000000000000000070
:104E42000000000000000000000000000000000060
:104E5200000001000000000103070F1F3F7F0080D8
:104E6200C0E0F0F8FCFE000000005316CF151C163F
:104E7200FA150E169A16000000006212321213176B
:104E82000417F616F516000000008E0CCF159411CB
:104E9200340EDE0E3810E50D830D650DE70A202075
:104EA200202000426F7363616D204100426F736383
:104EB200616D204200466F78746563682F444A49E9
:104EC2002000466174536861726B20005261636511
:104ED20062616E6420004C6F7762616E6420200014
:044EE2000D0A0000B5
:00000001FF
