:100000000C94DD030C9405040C9405040C94050475
:100010000C9405040C9405040C9405040C9405043C
:100020000C9405040C9405040C9405040C9405042C
:100030000C9405040C9405040C9405040C9405041C
:100040000C9433110C9405040C9405040C940504D1
:100050000C9405040C9405040C9405040C940504FC
:100060000C947D110C940504650668066B066E06FB
:100070007106740677067A067D0680060000000089
:10008000240027002A0000000000250028002B0083
:10009000323031372D30332D31300076312E35204E
:1000A00062792044766F676F6E656E004359434CEA
:1000B0004F502B00352E36352020202020352E386D
:1000C0002020202020352E393500352E33352020B4
:1000D000202020352E362020202020352E393500B6
:1000E00020204368616E6E656C202020205253539F
:1000F0004900204D487A005343414E00E916D51679
:10010000C116AD169916851671165D166516781608
:100110008B169E16B116C416D716EA164916351652
:1001200021160D16FD161117251739176C16801696
:100130009416A816BC16D016E416F8161A163F1612
:1001400064168916AE16D316F8161D17F214171575
:100150003C1561158615AB15D015F51528292A2BE8
:100160002C2D2E2F132012112110072208180609FA
:100170001905230A1A040B1B03240C1C020D1D2550
:10018000010E1E000F1F2614152716172000202011
:10019000002000200020204368616E6E656C2020E6
:1001A00020205253534900204D487A004F464600C4
:1001B0004F4E200020004578697420202020202008
:1001C0002020202020200052657365742053657420
:1001D00074696E67732020005465737420416C61EC
:1001E000726D20202020202000446973706C61799A
:1001F000204C6F772042616E6400416C61726D200B
:100200004C6576656C202020202000426174746566
:10021000727920416C61726D2020200053637265F9
:10022000656E205361766572202020200053686F30
:100230007720537461727473637265656E004C69E4
:10024000506F203373204D65746572202020004C60
:1002500069506F203273204D657465722020200034
:10026000466C69702053637265656E2020202020E3
:100270000000000000003E5B4F5B3E3E6B4F6B3E5C
:100280001C3E7C3E1C183C7E3C181C577D571C1C99
:100290005E7F5E1C00183C1800FFE7C3E7FF0018F4
:1002A000241800FFE7DBE7FF30483A060E262979DD
:1002B0002926407F050507407F05253F5A3CE73C3E
:1002C0005A7F3E1C1C08081C1C3E7F14227F2214EF
:1002D0005F5F005F5F06097F017F006689956A6046
:1002E0006060606094A2FFA29408047E040810205D
:1002F0007E201008082A1C08081C2A08081E101056
:1003000010100C1E0C1E0C30383E3830060E3E0EFF
:1003100006000000000000005F000000070007006A
:10032000147F147F14242A7F2A1223130864623650
:10033000495620500008070300001C2241000041DC
:10034000221C002A1C7F1C2A08083E080800807016
:100350003000080808080800006060002010080449
:10036000023E5149453E00427F400072494949469C
:100370002141494D331814127F1027454545393C1A
:100380004A49493141211109073649494936464907
:1003900049291E0000140000004034000000081429
:1003A00022411414141414004122140802015909A2
:1003B000063E415D594E7C1211127C7F49494936F7
:1003C0003E414141227F4141413E7F494949417F70
:1003D000090909013E414151737F0808087F004126
:1003E0007F41002040413F017F081422417F40406F
:1003F00040407F021C027F7F0408107F3E41414144
:100400003E7F090909063E4151215E7F09192946AF
:10041000264949493203017F01033F4040403F1FC5
:100420002040201F3F4038403F63140814630304FA
:100430007804036159494D43007F4141410204085A
:100440001020004141417F0402010204404040402D
:1004500040000307080020545478407F2844443863
:100460003844444428384444287F385454541800AD
:10047000087E090218A4A49C787F0804047800442C
:100480007D40002040403D007F1028440000417F17
:1004900040007C047804787C0804047838444444A0
:1004A00038FC1824241818242418FC7C0804040898
:1004B000485454542404043F44243C4040207C1CB1
:1004C0002040201C3C4030403C44281028444C90A4
:1004D00090907C4464544C440008364100000077FE
:1004E0000000004136080002010204023C262326D7
:1004F0003C1EA1A161123A4040207A38545455590B
:100500002155557941225454784221555478402040
:10051000545579400C1E527212395555555939545B
:1005200054545939555454580000457C41000245F3
:100530007D420001457C407D1211127DF028252866
:10054000F07C545545002054547C547C0A097F4962
:1005500032494949323A4444443A324A4848303AA6
:100560004141217A3A42402078009DA0A07D3D4241
:1005700042423D3D4040403D3C24FF2424487E49CA
:1005800043662B2FFC2F2BFF0929F620C0887E09FC
:100590000320545479410000447D413048484A3298
:1005A000384040227A007A0A0A727D0D19317D2680
:1005B00029292F28262929292630484D4020380866
:1005C00008080808080808382F10C8ACBA2F1028E7
:1005D00034FA00007B000008142A142222142A1482
:1005E000085500550055AA55AA55AAFF55FF55FFB5
:1005F000000000FF00101010FF00141414FF001082
:1006000010FF00FF1010F010F0141414FC0014146C
:10061000F700FF0000FF00FF1414F404FC1414178B
:10062000101F10101F101F1414141F00101010F0B2
:10063000000000001F101010101F10101010F010FC
:10064000000000FF101010101010101010FF10000C
:100650000000FF140000FF00FF00001F1017000043
:10066000FC04F414141710171414F404F40000FF1D
:1006700000F714141414141414F700F714141417B6
:100680001410101F101F141414F4141010F010F094
:1006900000001F101F0000001F14000000FC1400C9
:1006A00000F010F01010FF10FF141414FF141010BD
:1006B000101F00000000F010FFFFFFFFFFF0F0F040
:1006C000F0F0FFFFFF0000000000FFFF0F0F0F0F13
:1006D0000F3844443844FC4A4A4A347E0202060633
:1006E000027E027E0263554941633844443C044023
:1006F0007E201E2006027E020299A5E7A5991C2AEB
:10070000492A1C4C7201724C304A4D4D30304878A9
:100710004830BC625A463D3E494949007E010101CC
:100720007E2A2A2A2A2A44445F444440514A4440AB
:1007300040444A51400000FF0103E080FF000008F0
:10074000086B6B083612362436060F090F060000B8
:1007500018180000001010003040FF0101001F01B8
:10076000011E00191D1712003C3C3C3C000000001B
:1007700000000000002300260029000404040404F3
:10078000040404020202020202030303030303013E
:100790000204081020408001020408102001020415
:1007A00008102000000008000201000003040700F8
:1007B0000000000000000000BF1B11241FBECFEF8F
:1007C000D8E0DEBFCDBF26E0A4E8B5E001C01D92B1
:1007D000A438B207E1F715E0A0E0B1E0EAE2FDE3FA
:1007E00002C005900D92A438B107D9F713E0CDED02
:1007F000D3E004C02197FE010E94101CCC3DD1071C
:10080000C9F70E945B150C94931E0C9400000F9383
:100810001F93CF93DF93DC01FB0155968C91559785
:10082000823081F0833019F1813051F514968D9129
:100830009C911597BC01641B750BAB01415051098C
:10084000BF0181C014966D917C911597CB018E1BD1
:100850009F0BFC0116968D919C911797BC01641B10
:10086000750BAB0141505109E21BF30B09C0169601
:100870006D917C9117976E1B7F0B621B730B63C08E
:1008800057FD1CC116968D919C91179748175907D3
:100890000CF014C1F7FF04C02E0F3F1FE0E0F0E0A2
:1008A00014968D919C911597BF01620F731F861747
:1008B00097071CF49C012E1B3F0B121613060CF01D
:1008C000FDC0CA0157FD079663E0959587956A9527
:1008D000E1F79695982F882797958795E80FF91F48
:1008E000EE5FFE4F4770552781E090E001C0880F12
:1008F0004A95EAF7482F0130110541F088F002309F
:10090000110509F0DBC02E0F3F1F15C02E0F3F1F32
:10091000E217F30709F4D2C08081842B8193F8CFCA
:1009200080952E0F3F1FE217F30709F4C7C090818F
:1009300098239193F8CFE217F30709F4BFC08081A1
:1009400084278193F8CF57FDB9C014968D919C915F
:100950001597481759070CF0B1C077FF04C0260F50
:10096000371F60E070E016968D919C911797FB0100
:10097000E20FF31F8E179F071CF49C01261B370BF9
:10098000121613060CF09AC0A22F862F8695869514
:10099000869590E8899F400D511D1124FA01EE5F64
:1009A000FE4F6770A9F198E0961B492F50E0EA01CD
:1009B000C25FDA4F8881291790F4421B51092FEF4B
:1009C00030E002C0359527954A95E2F78223013041
:1009D000110541F068F00230110589F06FC0013057
:1009E000110519F42081822B0CC00130110520F46F
:1009F00080952081822305C00230110531F42081C9
:100A000082278083A91708F459C0A91BE058FF4F1B
:100A1000A83048F10230110559F4EF018A2F98816E
:100A200090959883C058DF4F88508830C0F731C008
:100A300081E00130110509F080E08195EF019A2FE6
:100A40008883C058DF4F98509830D0F788EF8A0FCE
:100A500086958695869560E8869FE00DF11D1124A8
:100A6000E058FF4FA770AA2349F1B0E0AA5FBA4F40
:100A70008C910130110529F038F002301105D9F0C0
:100A80001DC09081892B03C080959081892380832C
:100A900015C088EF8A0F86958695869570E8879FA2
:100AA000E00DF11D1124E058FF4FA77039F0B0E0C0
:100AB000AA5FBA4F8C9190818927E9CFDF91CF91BE
:100AC0001F910F910895FC0177FD9AC08085918553
:100AD000681779070CF094C057FD92C08285938502
:100AE000481759070CF08CC08589823009F07CC00A
:100AF00084819581DC01A61BB70BBD016150710992
:100B000086819781FC01E41BF50BAF01415051092F
:100B10000AC0813041F484819581841B950BAB011F
:100B2000BC01615071092130310529F008F12230F2
:100B30003105E1F10895FA0157FD3796A3E0F595E7
:100B4000E795AA95E1F7F695FE2FEE27F795E7953D
:100B50006E0F7F1FFB01EE5FFE4F4770552781E050
:100B600090E001C0880F4A95EAF79081892B3AC03E
:100B7000FA0157FD379623E0F595E7952A95E1F7B9
:100B8000F695FE2FEE27F795E7956E0F7F1FFB0179
:100B9000EE5FFE4F4770552781E090E001C0880F5F
:100BA0004A95EAF78095908189231CC0FA0157FD88
:100BB000379683E0F595E7958A95E1F7F695FE2F50
:100BC000EE27F795E7956E0F7F1FFB01EE5FFE4F57
:100BD0004770552781E090E001C0880F4A95EAF7F9
:100BE0009081892780830895833009F092CF868190
:100BF0009781861B970BBA01AC014150510993CFE5
:100C0000089560E082E00E94811060E084E00E942C
:100C1000811061E082E00E94811060E082E00C942B
:100C2000811060E082E00E94811061E084E00E9417
:100C3000811061E082E00E94811060E082E00C940B
:100C40008110EF92FF920F931F93CF93DF93D82FD2
:100C5000E62E0E943E1310926206109261061092D8
:100C600064061092630681E080936906DD2319F023
:100C7000CFEFCD0F01C0CAE087E0F82E01E010E011
:100C8000CB3008F0C0E01093660600936506109222
:100C9000680610926706CD130AC0E11008C01092D2
:100CA00066061092650610936806009367064C2F3F
:100CB00050E0FA013197EA30F10520F4EC5CFF4F87
:100CC0000C94101C80E692E01DC08FE492E01AC0E4
:100CD0008EE392E017C08DE292E014C08CE192E0C6
:100CE00011C08BE092E00EC08AEF91E00BC089EE5C
:100CF00091E008C088ED91E005C087EC91E002C06A
:100D000086EB91E00E943A15109366060093650603
:100D10001092680610926706CD130AC0EE2041F0CB
:100D20001092660610926506109368060093670697
:100D300084EB91E00E943A15C63010F0C73079F488
:100D4000EC2FF0E0E657FA4F8081882319F080EB12
:100D500091E002C08CEA91E00E943A150FC0C630C3
:100D600049F46091900570E080E090E04AE00E94D4
:100D7000F91404C08EE395E00E94E71483E495E043
:100D80000E94E714CF5FFA94F1107ACFDF91CF91F0
:100D90001F910F91FF90EF900C9492130F931F935C
:100DA000CF93DF93C62FDEE0D80F8091AD0526E309
:100DB00030E0281B310990910101692F70E000E0BB
:100DC00010E040E050E085E596E00E94FC0E6D2FBB
:100DD00070E001E010E026E330E040E050E085E51F
:100DE00096E00E94FC0ED0930101C63320F085E30B
:100DF0008093AD0502C0C093AD05DF91CF911F91E7
:100E00000F910C9492131F93CF93DF938F5D9140BA
:100E10009C01369527952F71EC0156E0D695C79524
:100E20005A95E1F7D695DC2FCC27D795C795C22BDD
:100E300061E083E00E94811060E083E00E94811005
:100E40000E9411060E9401060E9401060E940106EE
:100E50000E94110610E1C0FF03C00E94110602C0EB
:100E60000E940106D695C7951150A9F70E94010668
:100E70000E9401060E9401060E94010661E083E0D3
:100E80000E94811060E083E00E94811060E082E0B7
:100E90000E94811060E084E0DF91CF911F910C945B
:100EA000811092EF980F8E3008F0892F8770982F5D
:100EB000906480E240E050E090937C0020917A00C2
:100EC000206420937A0020917A0026FDFCCF2091A7
:100ED00078006091790030E0362B420F531F81502B
:100EE00059F7CA0125E0969587952A95E1F7089567
:100EF000CF92DF92EF92FF920F931F93CF93DF93E6
:100F000090918C0580918B05911103C0882309F481
:100F1000E7C0882329F0CDEAD1E00FE611E004C054
:100F2000C3E8D2E007E212E08FE00E9451078C177D
:100F30009D0708F04AC00817190718F5BC01601B87
:100F4000710B80E090E00E94B71C6B017C01CE0128
:100F5000801B910BBC0180E090E00E94B71C9B01BC
:100F6000AC01C701B6010E94161C20E030E048EC3D
:100F700052E40E94451D0E94881CC62F653010F067
:100F80000AC0C0E082E390E09093890580938805D1
:100F900088EC90E00AC06F3068F484E690E09093AB
:100FA00089058093880588EE93E090938705809368
:100FB000860514C0693150F488EC90E0909389055F
:100FC0008093880588EB9BE0F0CFC3E610928905FB
:100FD000109288051092870510928605EE24E394FE
:100FE000F12C02E010E024E030E040E250E06DE35C
:100FF00070E085E596E00E94030E04E110E02AE02F
:1010000030E042E250E06AE370E085E596E00E945D
:10101000030EE12CF12C00E110E026E030E044E288
:1010200050E06CE370E085E596E00E94030EC63563
:1010300080F0EE24E394F12C02E010E024E030E0B4
:1010400045E250E06DE370E085E596E00E94030E16
:1010500002C0C23480F0EE24E394F12C02E010E0F0
:1010600024E030E048E250E06DE370E085E596E092
:101070000E94030E02C0CE3280F0EE24E394F12CE5
:1010800002E010E024E030E04BE250E06DE370E07D
:1010900085E596E00E94030E02C0CA3180F0EE247E
:1010A000E394F12C02E010E024E030E04EE250E066
:1010B0006DE370E085E596E00E94030E02C0C63045
:1010C00078F0EE24E394F12C02E010E024E030E02C
:1010D00041E350E06DE370E085E596E00E94030E89
:1010E000DF91CF911F910F91FF90EF90DF90CF9004
:1010F00008950F931F93CF93DF936091920580E043
:1011000090E00E94221E0AE815E0C0E0D0E0F8015D
:1011100061918F012196CE010E94221EC830D10517
:10112000B1F76EEE89E090E0DF91CF911F910F91C2
:101130000C94221EEAE8F5E081E08083118282832C
:1011400083831482858390E2968387830895E82FB2
:10115000F0E0E45AFE4FE491F0E0EE0FFF1FE450A0
:10116000FF4F859194910895AF92BF92CF92DF92F5
:10117000EF92FF920F931F93CF93DF93CDB7DEB71C
:1011800066970FB6F894DEBF0FBECDBFB82E6B01C9
:101190000E943E1381E090E090936806809367067A
:1011A00090936606809365068AE090E090936206CD
:1011B00080936106109264061092630683E0809328
:1011C00069068B2D0E94A708BC0180E090E04AE0F0
:1011D0000E94F9148BE490E090936206809361067C
:1011E00087E090E0909364068093630632E0A32E3C
:1011F000A092690687EA91E00E943A15EE24E394F2
:10120000F12C08E110E02FE730E048E150E060E029
:1012100070E085E596E00E94520E109262061092F0
:1012200061068BE190E0909364068093630681E011
:101230008093690685E991E00E943A151092620652
:101240001092610687E290E09093640680936306B3
:10125000A092690683E991E00E943A1581E991E044
:101260000E943A150B2D10E0045A1E4FF80184918C
:10127000883010F491E40DC0803110F492E409C07C
:10128000883110F495E405C0803210F496E401C072
:101290009CE4998387708F5C8A831B82CE010196C0
:1012A0007C010E94E7148EE891E00E943A15B60195
:1012B00080E090E04AE00E94F914109262061092D9
:1012C000610689E390E0909364068093630681E071
:1012D00080936906F8010491083018F466E475E01B
:1012E00016C0003118F46FE475E011C0083118F42D
:1012F00068E575E00CC0003218F465E675E007C0DB
:10130000083218F46FE675E002C069E775E0C701BE
:101310000E94B71DF70101900020E9F73197EE19FF
:10132000FF09FF27D701AE0FBF1F07700F5C0C939B
:10133000EC0FFD1F1282F70101900020E9F7C701B1
:101340008E1B9F0B469696958795182F112331F08B
:101350008CE891E00E943A151150F8CFC7010E9425
:10136000E7140E9478070E94921366960FB6F894CD
:10137000DEBF0FBECDBFDF91CF911F910F91FF90C8
:10138000EF90DF90CF90BF90AF900895EF92FF92D3
:101390000F931F93CF93DF938C0180919105882346
:1013A00011F0D0E001C0D8E0CD2F8CE2E82EFF2470
:1013B000F3948C2F0E94A708801B910B1816190616
:1013C00034F48C2F0E94A708801B910B07C08C2F30
:1013D0000E94A7089801281B390BC9018E159F058B
:1013E00014F4DC2F7C01CF5FC03319F78D2FDF9110
:1013F000CF911F910F91FF90EF900895CF92DF92C0
:10140000EF92FF920F931F93CF93DF936C017A01BA
:101410008B01C0E0D0E0CE15DF0589F0D8016D91D9
:101420008D01D601ED91FC910190F081E02DC60176
:101430000995892B11F47E0102C02196ECCFC701DA
:10144000DF91CF911F910F91FF90EF90DF90CF90A0
:1014500008953FB7F8948091FA059091FB05A0910B
:10146000FC05B091FD0526B5A89B05C02F3F19F0DE
:101470000196A11DB11D3FBFBA2FA92F982F882714
:10148000820F911DA11DB11DBC01CD0143E0660F6E
:10149000771F881F991F4A95D1F7089585ED80938E
:1014A000BC008091BC0084FDFCCF109225060895FD
:1014B0004091D005262F30E0240F311D2132310517
:1014C000DCF4209125062430C9F4FC0180E090E092
:1014D000861758F43091D0052191DC01A255BA4FFE
:1014E000A30FB11D2C930196F3CF8091D005680F07
:1014F0006093D00580E0089581E0089582E008952A
:10150000089581E090E0309185052091840532179F
:1015100010F480E090E09195819591090895809173
:10152000850590918405891730F48F5F8093850538
:1015300080E090E008958FEF9FEF089580918405FB
:1015400090E020918505821B91090895CF92DF924A
:10155000EF92FF920F931F93CF93DF937C01262F7F
:10156000972F8A0180912606882391F0C62FD72FC6
:101570006E01C40ED51ECC15DD0571F06991D70141
:10158000ED91FC910190F081E02DC7010995F3CF19
:10159000642F822F0E94580AC801DF91CF911F91BA
:1015A0000F91FF90EF90DF90CF900895CF93DF934E
:1015B0001F92CDB7DEB76983209126062223D1F092
:1015C00020914806203240F021E030E0FC013383D6
:1015D000228380E090E015C080912706E82FF0E09C
:1015E000E85DF94F998190838F5F80932706809300
:1015F000480605C061E0CE0101960E94580A81E0CC
:1016000090E00F90DF91CF91089508952F923F922F
:101610004F925F926F927F928F929F92AF92BF9202
:10162000CF92DF92EF92FF920F931F93CF93DF93AE
:10163000CDB7DEB76B970FB6F894DEBF0FBECDBF48
:101640004C015A8349831F830E83FD82EC82CB8237
:10165000DC0158964D915C9159974115510509F05F
:10166000A5C018968D919C911997681779070CF071
:101670005AC11A968D919C911B97E981FA81E817BE
:10168000F9070CF050C1D12CCB013B81F6E03F9F14
:10169000800D911D1124181619060CF044C1C601C5
:1016A00033E0880F991F3A95E1F749815A81840FF9
:1016B000951F181619060CF036C157968C9181119A
:1016C00003C0203B08F02F5F55E0259F90011124B7
:1016D0007E876D875B01212CC901861B970B99873B
:1016E0008887A981BA811896BB87AA87B5E02B168F
:1016F00041F0E885F985EA0DFB1DEF58FD4F349068
:1017000001C0312C69807A80230130FE12C0D401DF
:10171000ED91FC91BB81B13031F40480F581E02D75
:101720002E813F8118C00684F785E02DEE80FF8072
:101730001CC0EC81FD812E813F81E217F307E1F0AF
:10174000D401ED91FC91BB81B13051F40480F5815D
:10175000E02D2C813D81A301B501C40109950CC088
:101760000684F785E02DEC80FD8086019601A201BC
:101770006D857E85C40109953694EFEF6E1A7E0A59
:101780004C0C5D1C2A853B856216730609F0BDCFA3
:1017900023943FEFA31AB30A4D855E854C0D5D1D62
:1017A0005E874D8756E02512A1CFBDC0FA01349661
:1017B0003491329785919491231BA7E02A9F800D45
:1017C000911D1124FA01259134913A8B298BFC014A
:1017D00025903490FC0132963491388731964491AB
:1017E0004C873196E491FC013596A4913196849111
:1017F0005B81523050F06A2E0A2E000C7708E82FD9
:10180000082E000CFF0BFB87EA87FB81CF2ED12C23
:101810006C9C90016D9C300D7C9C300D1124A901B5
:10182000460F571F588B4F871C82A12CEA2FAA0FF7
:10183000FF0B3B016E0E7F1E5885650F711DDB018E
:10184000AE0FBF1FBF8BAE8BE981FA81E80FF11D90
:1018500087FDFA95F98FE88F9C85A91608F063C07B
:101860008A2D90E04A855B85480F591F4C9D900159
:101870004D9D300D5C9D300D1124A981BA81A20FC0
:10188000B31FBE87AD877B8E6A8E4F845888BC811C
:10189000B619BB8BE88DF98DE80FF91FFD8BEC8B2A
:1018A0008B89FA8D8F0F2A8D3B8D4E895F89241786
:1018B000350799F1877041F4C1010196E989FA89E8
:1018C000E20DF31DB4901C01B7FE1EC0D401ED91D2
:1018D000FC91BB81B13061F40480F581E02D2E8153
:1018E0003F814C895D896A8D7B8DC40109950CC04F
:1018F0000684F785E02DEE80FF80860196014D85F8
:101900005E85B201C4010995BB0CEA8DFB8D319651
:10191000FB8FEA8F4C0C5D1CC3CF5C818885580F10
:101920005C83A39499CF6B960FB6F894DEBF0FBE7D
:10193000CDBFDF91CF911F910F91FF90EF90DF907E
:10194000CF90BF90AF909F908F907F906F905F905F
:101950004F903F902F900895AF92BF92CF92EF9209
:10196000FF920F931F93CF93DF93EC01262F888D67
:10197000998D009709F042C06A3069F42C898E85F0
:101980009F8538E0239F800D911D11249F878E87AE
:101990001D861C86ACC06D3009F4A9C08E898823D1
:1019A000C1F03C898C859D8546E0349F800D911D5A
:1019B000112448855985841795075CF01D861C867F
:1019C0008E859F85E8E03E9F800D911D11249F87A5
:1019D0008E87EA88FB88088919894E855F856C8522
:1019E0007D85CC88CE010E94060B2C898C859D8537
:1019F000F6E02F9F800D911D112441C06A3079F4CB
:101A00001D861C862C89FC013696E4918E859F8567
:101A10002E9F800D911D11249F878E8768C06D3089
:101A200009F465C0AC014C5F5F4FFA013491631754
:101A300008F45DC03196E491E61708F458C0FA0145
:101A40004491362F341BFC013296A590B490F7E0F8
:101A50003F9FA00CB11C1124F501329634913196B0
:101A6000E491332311F0E1110DC0F5013496E491B6
:101A70002C898C859D85E29F800D911D11249D8769
:101A80008C8735C0F501359644915E89552311F157
:101A90006C89E32FF0E0E40FF11D47FDFA956E9F8E
:101AA000D0016F9FB00D11244C855D854A0F5B1FDF
:101AB000E885F9854E175F076CF01D861C86FC01D2
:101AC0003696E4918E859F856E9F800D911D112421
:101AD0009F878E87EA88FB88088919894E855F85EC
:101AE0006C857D85CC88CE010E94060BBECF81E03F
:101AF00090E0DF91CF911F910F91FF90EF90CF90E9
:101B0000BF90AF900895EF92FF920F931F93DC0167
:101B1000ED91FC9111971A960D911C911B971896B7
:101B20002D913C9119970684F785E02D7B0140E0CB
:101B300050E060E070E009951F910F91FF90EF90E9
:101B400008956F927F928F929F92AF92BF92CF92A1
:101B5000DF92EF92FF920F931F93CF93DF936C016D
:101B60005A014801EB013B01620E731EC615D705F1
:101B700074F4D601ED91FC910084F185E02D87018C
:101B80009401A501BE01C60109952196EFCFDF9111
:101B9000CF911F910F91FF90EF90DF90CF90BF906A
:101BA000AF909F908F907F906F900895EF92FF92EB
:101BB0000F931F93DC01ED91FC91260F371F2150ED
:101BC00031090680F781E02D78018A0109951F917E
:101BD0000F91FF90EF900895EF92FF920F931F9354
:101BE0007801DC01ED91FC91240F351F8901015032
:101BF00011090680F781E02D9B0109951F910F9136
:101C0000FF90EF9008956F927F928F929F92AF9284
:101C1000BF92CF92DF92EF92FF920F931F93CF93D9
:101C2000DF93EC014B015A0169013801E881F98128
:101C30000284F385E02D87010995E881F981A501EA
:101C4000460D571D415051090284F385E02D960140
:101C5000B401CE010995E881F9810084F185E02D78
:101C60009301A501B401CE010995E881F981C80C61
:101C7000D91CB601615071090084F185E02D9301F2
:101C8000A501CE010995DF91CF911F910F91FF9092
:101C9000EF90DF90CF90BF90AF909F908F907F900C
:101CA0006F9008952F923F924F925F926F927F9222
:101CB0008F929F92AF92BF92CF92DF92EF92FF925C
:101CC0000F931F93CF93DF9300D01F92CDB7DEB752
:101CD0004C017B836A836A01590117019801241B17
:101CE000350B37FF03C0319521953109C5014A8174
:101CF0005B81841B950B97FF03C09195819591099A
:101D000051E059838217930714F019820BC09A2D62
:101D10008B2D5801092F182F9A818B81DB82CA8263
:101D2000C92ED82E8A819B81A816B9065CF49C2DF9
:101D30008D2D6801092F182F9A818B81BB82AA8271
:101D4000A92EB82E2501AA81BB814A1A5B0A380147
:101D50006C187D0877FE03C071946194710872015C
:101D600057FE03C0BFEFEB1AFB0AF594E794C016C9
:101D7000D1061CF00FEF1FEF1FC001E010E01CC0E8
:101D8000D401ED91FC91B9810480F581E02D9101A0
:101D9000BB23C1F04A815B81B601C4010995E618F5
:101DA000F708F7FE04C0C00ED11EE40CF51CEA8152
:101DB000FB813196FB83EA834A815B81A416B506D9
:101DC000FCF604C0A6016A817B81E7CF0F900F90DB
:101DD0000F90DF91CF911F910F91FF90EF90DF90C7
:101DE000CF90BF90AF909F908F907F906F905F90BB
:101DF0004F903F902F9008950F931F93CF93DF93B1
:101E0000DC0155968C915597823071F0833009F141
:101E1000813009F08CC01496ED91FC911597E41B6C
:101E2000F50BE21BF30B20C01496ED91FC91159776
:101E3000CF01861B970BBC01615071091696ED917D
:101E4000FC911797CF01841B950BAC01421B530BE0
:101E50006EC01696ED91FC911797CF01861B970BDC
:101E6000BC0161507109FA0177FD1BC116968D9175
:101E70009C911797681779070CF013C1F7FF04C0FE
:101E80002E0F3F1FE0E0F0E014968D919C91159786
:101E9000AF01420F531F841795071CF49C012E1BA2
:101EA0003F0B121613060CF0FCC0CB0177FD079612
:101EB00043E0959587954A95E1F79695982F882761
:101EC00097958795E80FF91FEE5FFE4F67707727AC
:101ED00081E090E001C0880F6A95EAF7482F013051
:101EE000110541F088F00230110509F0DAC02E0F1B
:101EF0003F1F15C02E0F3F1FE217F30709F4D1C093
:101F00008081842B8193F8CF80952E0F3F1FE2179D
:101F1000F30709F4C6C0908198239193F8CFE21794
:101F2000F30709F4BEC0808184278193F8CF77FD41
:101F3000B8C014968D919C911597681779070CF08D
:101F4000B0C057FF04C0240F351F40E050E0169684
:101F50008D919C911797FA01E20FF31F8E179F073F
:101F60001CF49C01241B350B121613060CF099C0AF
:101F7000A22F842F86958695869590E8899F600D7F
:101F8000711D1124FB01EE5FFE4F4770A9F198E02F
:101F9000941B492F50E0EA01C25FDA4F888129176C
:101FA00090F4421B51092FEF30E002C03595279580
:101FB0004A95E2F782230130110541F068F00230C2
:101FC000110589F06EC00130110519F42081822BB2
:101FD0000CC00130110520F480952081822305C0BA
:101FE0000230110531F4208182278083A91708F47B
:101FF00058C0A91BE058FF4FA83048F10230110526
:1020000059F4EF018A2F988190959883C058DF4F3B
:1020100088508830C0F730C081E00130110509F0E8
:1020200080E08195EF019A2F8883C058DF4F985048
:102030009830D0F788EF8A0F86958695869590E838
:10204000899FE00DF11D1124E058FF4FA770AA23CE
:1020500041F1B0E0AA5FBA4F8C910130110529F02F
:1020600038F002301105D1F01CC09081892B18C0C6
:1020700080959081892314C088EF8A0F8695869574
:10208000869590E8899FE00DF11D1124E058FF4FDF
:10209000A77039F0B0E0AA5FBA4F8C919081892780
:1020A0008083DF91CF911F910F9108950E94B21DFF
:1020B000833081F028F4813099F08230A1F00895C6
:1020C0008730A9F08830B9F08430D1F48091800055
:1020D0008F7D03C0809180008F778093800008956A
:1020E00084B58F7702C084B58F7D84BD08958091BB
:1020F000B0008F7703C08091B0008F7D8093B000D7
:1021000008951F93CF93DF93282F30E0F901ED5509
:10211000F84F8491F901E157F84FD491F901E5584E
:10212000F84FC491CC23C9F0162F81110E9458108A
:10213000EC2FF0E0EE0FFF1FEA57FF4FA591B4918F
:102140008FB7F894111105C09C91ED2FE095E9230C
:1021500002C0EC91ED2BEC938FBFDF91CF911F91DB
:102160000895CF93DF9390E0FC01E157F84F24915D
:10217000FC01E558F84F8491882361F190E0880FC5
:10218000991FFC01E458FF4FC591D491FC01EA5717
:10219000FF4FA591B491611109C09FB7F894888150
:1021A000209582238883EC912E230BC0623061F44A
:1021B0009FB7F8943881822F809583238883EC9190
:1021C0002E2B2C939FBF06C08FB7F894E8812E2B3F
:1021D00028838FBFDF91CF9108958F929F92AF9206
:1021E000BF92CF92DF92EF92FF926B017C010E942F
:1021F000290A4B015C01C114D104E104F104F1F09E
:102200000E94290ADC01CB0188199909AA09BB0996
:10221000883E9340A105B10570F321E0C21AD108B0
:10222000E108F10888EE880E83E0981EA11CB11C1D
:10223000C114D104E104F10419F7DDCFFF90EF9050
:10224000DF90CF90BF90AF909F908F9008952FB761
:10225000F8946091F6057091F7058091F8059091DA
:10226000F9052FBF08951F920F920FB60F921124F8
:102270002F933F938F939F93AF93BF938091F605D6
:102280009091F705A091F805B091F9053091F50509
:1022900026E0230F2D3720F40296A11DB11D05C0A5
:1022A00029E8230F0396A11DB11D2093F505809306
:1022B000F6059093F705A093F805B093F905809182
:1022C000FA059091FB05A091FC05B091FD050196E2
:1022D000A11DB11D8093FA059093FB05A093FC0509
:1022E000B093FD05BF91AF919F918F913F912F9139
:1022F0000F900FBE0F901F9018951F920F920FB660
:102300000F9211242F933F934F935F936F937F937B
:102310008F939F93AF93BF93EF93FF938091B900F7
:10232000887F803609F49CC068F5883209F45BC068
:1023300090F4803109F454C038F4882309F4F6C0CD
:10234000883009F44DC0F6C0883109F44CC08032A1
:1023500009F45DC0EFC0803409F468C048F48033EC
:1023600009F455C0883309F0E5C080932306D8C02E
:10237000803509F44FC0883509F45DC0883409F010
:10238000D9C0D6C0883909F4C7C0A8F4883709F481
:1023900067C038F4883609F463C0803709F460C038
:1023A000C9C0883809F4B8C0803909F45FC08038E2
:1023B00009F0C0C05BC0803B09F486C038F4803AA5
:1023C00009F466C0883A09F47FC0B4C0803C09F4BF
:1023D000A7C0883C09F4A4C0883B09F48AC0AAC0FD
:1023E0008091000610C090912206809121069817D6
:1023F00070F5E091220681E08E0F80932206F0E0D6
:10240000EF5FF94F80818093BB0085EC86C080939D
:1024100023068EC0E091220681E08E0F8093220673
:102420008091BB00F0E0EF5FF94F8083909122062E
:10243000809121066EC0E091220681E08E0F80938C
:1024400022068091BB00F0E0EF5FF94F808380911E
:10245000240681116DC081E08093FF0584EA61C08C
:1024600083E0809325061092F405CFCF8091F40588
:10247000803208F051C0E091F40581E08E0F809326
:10248000F4058091BB00F0E0EC52FA4F8083BDCFA1
:1024900085EC8093BC00109225068091F405803273
:1024A00030F4E091F405F0E0EC52FA4F10826091C4
:1024B000F40570E0E091D205F091D30584ED95E04C
:1024C00009951092F40536C084E080932506109299
:1024D000D1051092D005E091CE05F091CF05099578
:1024E0008091D005811105C081E08093D0051092C4
:1024F000AE05E091D10581E08E0F8093D105F0E02B
:10250000E255FA4F80818093BB009091D105809174
:10251000D005981708F479CF85E88093BC000AC0ED
:1025200085EC8093BC001092250604C0109223060F
:102530000E944E0AFF91EF91BF91AF919F918F91B1
:102540007F916F915F914F913F912F910F900FBEAF
:102550000F901F9018952091480690918306213284
:1025600008F04AC0809125068111FCCF32E03093FB
:10257000250631E0309324063FEF30932306109276
:10258000220620932106A8E2B6E041E056E0FA01D7
:102590003E2F341B321718F43D913193F9CF10922E
:1025A000000620910006990F922B909300069091BF
:1025B000FF05913061F41092FF0590910006909311
:1025C000BB009091BC0093FDF8CF95EC01C095EE57
:1025D0009093BC00909125069230E1F390912306F0
:1025E0009F3F79F080912306803241F0809123064D
:1025F000803331F084E005C081E003C082E001C097
:1026000083E010922706109248061092260608953D
:1026100090917606992339F08EBD00000DB407FE27
:10262000FDCF8EB5089528E030E040E8E0917906CE
:10263000F0917A0650819091800690959523908331
:10264000E0917706F091780690917F06542F5823F9
:1026500019F05081952B03C050819095952390835C
:10266000E0917906F0917A06508190918006952B41
:102670009083469521503109C9F6089580E094E091
:10268000E2E0F1E0DF019C011D9221503040E1F7D2
:102690000895CF93C82F809171068F3F59F1E09133
:1026A0007B06F0917C06808190918106982B908327
:1026B000E0917D06F0917E062081909182069095B2
:1026C00092239083E0917B06F0917C06208190918B
:1026D00081069095922390838C2F0E940813E0919D
:1026E0007B06F0917C06908180918106892B808306
:1026F000CF91089580916F0691E090932606809384
:102700008306109227061092480660E089E496E05E
:102710000E94D60A6C2F89E496E00E94D60ACF91D7
:102720000C94AB12EF92FF920F931F93CF93DF9312
:1027300081E20E94491380E00E9449138FE70E94C2
:10274000491382E20E94491380E00E94491387E006
:102750000E944913809171068F3F79F1E0917B06C9
:10276000F0917C06908180918106892B8083E09195
:102770007D06F0917E06908180918206892B808370
:10278000E0917B06F0917C06908180918106809596
:1027900089238083C2E0D1E089910E94081385E0FB
:1027A000C230D807C9F7E0917B06F0917C06908192
:1027B00080918106892B808330C0F090B8008CE036
:1027C0008093B800C2E0D1E0EE24E39480916F06DC
:1027D000E092260680938306109227061092480600
:1027E00060E489E496E00E94D60A00E010E0FE0171
:1027F000E00FF11F608189E496E00E94D60A0F5F26
:102800001F4F0031110599F70E94AB12609685E0C9
:10281000C230D807D9F6F092B800DF91CF911F915E
:102820000F91FF90EF900895CF93DF93E8EAF7E0E0
:102830008491E4E9F7E0D491E0E8F7E0C491CC2397
:1028400091F081110E945810EC2FF0E0EE0FFF1F65
:10285000EF58F84FA591B491EC91ED2381E090E011
:1028600021F480E002C080E090E0DF91CF910895F4
:102870000F931F93CF930E9414140197D1F100E09E
:1028800010E00E941414892B49F40F5F1F4F65E07C
:1028900070E080E090E00E94ED10F3CFC801805519
:1028A00091098C3D910528F00C32114020F0C4E0D4
:1028B00003C0C3E001C0C1E08091FE05811103C0E7
:1028C00000E010E011C01092FE05C130C9F785E0AC
:1028D00020C00F5F1F4F09321105A1F065E070E0C5
:1028E00080E090E00E94ED100E941414019719F40A
:1028F000F0CF80E00EC00832110521F00E941414C0
:10290000892B11F08C2F05C00E941414892BE1F340
:1029100082E0CF911F910F910895CF93DF93EC0147
:1029200061E086E00E94B110209711F460E004C0DD
:10293000CF3FD10531F461E086E0DF91CF910C9477
:102940008110E9EAF7E0E491E330F9F048F4E1308E
:10295000B9F0E230A1F584B5806284BDC8BD34C051
:10296000E730E9F0E83019F1E43049F58091800072
:10297000806280938000D0938B00C0938A0024C033
:1029800084B5806884BDC7BD1FC080918000806809
:1029900080938000D0938900C093880015C08091F7
:1029A000B00080688093B000C093B3000DC08091E8
:1029B000B00080628093B000C093B40005C0C038FE
:1029C000D1050CF0B8CFB2CFDF91CF910895009729
:1029D00069F0FC0101900020E9F73197AF01481B35
:1029E000590BBC0185E596E00C94FE0980E090E06F
:1029F00008958F929F92AF92BF920F931F93CF93A0
:102A0000DF93CDB7DEB7A1970FB6F894DEBF0FBE48
:102A1000CDBF19A2423008F44AE08E010F5D1F4F6E
:102A2000842E912CA12CB12CA50194010E94621E30
:102A3000E62FB901CA0101501109EA3014F4E05D32
:102A400001C0E95CD801EC93232B242B252B61F7E3
:102A5000C8010E94E714A1960FB6F894DEBF0FBE1E
:102A6000CDBFDF91CF911F910F91BF90AF909F90FD
:102A70008F9008950F931F93CF93DF938C01C0E045
:102A8000D0E0F801EC0FFD1F6491662371F0E09136
:102A90005506F09156060190F081E02D85E596E00F
:102AA0000995892B11F02196ECCFCE01DF91CF91C2
:102AB0001F910F910895CF93DF931F92CDB7DEB78B
:102AC000789484B5826084BD84B5816084BD85B509
:102AD000826085BD85B5816085BD80916E00816015
:102AE00080936E00109281008091810082608093BB
:102AF00081008091810081608093810080918000BD
:102B00008160809380008091B10084608093B100E7
:102B10008091B00081608093B00080917A008460E1
:102B200080937A0080917A00826080937A0080910D
:102B30007A008E7F80937A0080917A0080688093FB
:102B40007A001092C10061E08DE00E94B11061E056
:102B50008DE00E94811060E085E00E94B11062E08B
:102B600085E00E94811061E086E00E94B11061E082
:102B700083E00E94B11061E084E00E94B11061E046
:102B800082E00E94B11089E090E00E941A1E8E3E01
:102B9000C9F480E090E00E941A1E809392050AE832
:102BA00015E0EE24E394F12CC7010E941A1EF801EF
:102BB00081938F01FFEFEF1AFF0A89E0E816F10415
:102BC00099F709C08091910581119EC588E0809395
:102BD00092050E949A08809192050E94A7080E947F
:102BE000030782E0809370068CE380936F068091E8
:102BF00071068F3F09F4BDC061E0809173060E94A9
:102C0000B11061E0809175060E94B1108091750647
:102C1000082E000C990BFC01E558F84FE491F0E008
:102C2000EE0FFF1FEA57FF4F2591349130937C063A
:102C300020937B06FC01E157F84FE491E093810675
:102C400080917306082E000C990BFC01E558F84F93
:102C5000E491F0E0EE0FFF1FEA57FF4F259134910A
:102C600030937E0620937D06FC01E157F84FE491F6
:102C7000E09382068091760681113EC061E08091EA
:102C800071060E94B11061E0809172060E94B1103D
:102C900080917206082E000C990BFC01E558F84F44
:102CA000E491F0E0EE0FFF1FEA57FF4F25913491BA
:102CB00030937A0620937906FC01E157F84FE491AE
:102CC000E093800680917106082E000C990BFC01A0
:102CD000E558F84FE491F0E0EE0FFF1FEA57FF4F81
:102CE000259134913093780620937706FC01E157C3
:102CF000F84FE491E0937F0680917606882309F4EB
:102D00005FC01FB7F89480919305811127C0E5E853
:102D1000F7E08491E9E9F7E09491E82FF0E0EE0F15
:102D2000FF1FE458FF4FA591B491EC91E92321F4E2
:102D300061E08AE00E94811061E08AE00E94B110A7
:102D40008CB580618CBD8CB580648CBD61E08DE0FC
:102D50000E94B11061E08BE00E94B1108091930558
:102D60008F5F809393051FBF80E58CBD81E08DBD93
:102D700027C01092850510928405109227061092A4
:102D800048061092250681E0809324061092FF05E4
:102D900061E082E10E94811061E083E10E94811084
:102DA0008091B9008E7F8093B9008091B9008D7FAA
:102DB0008093B90080E28093B80085E48093BC00E2
:102DC0008091740687FD1EC061E00E94B11061E031
:102DD000809174060E94811061E070E080E090E0D4
:102DE0000E94ED1060E0809174060E9481106AE0FC
:102DF00070E080E090E00E94ED1061E08091740648
:102E00000E9481108EEA0E94491385ED0E944913A9
:102E100080E80E94491388EA0E9449138FE30E94C8
:102E2000491383ED0E94491380E00E94491380E416
:102E30000E9449138DE80E94491384E10E944913BE
:102E400080E20E94491380E00E94491381EA0E94B7
:102E5000491388EC0E9449138AED0E94491382E1CC
:102E60000E94491381E80E9449138FEC0E94491384
:102E700089ED0E94491381EF0E9449138BED0E9456
:102E8000491380E40E94491384EA0E94491386EAA8
:102E90000E9449138EE20E9449138FEA0E9449134F
:102EA0000E943E1380918A05882399F082E08093E6
:102EB0006A068091590690915A0690935E06809317
:102EC0005D0680915B0690915C069093600680930E
:102ED0005F060E9492130E941414892B09F0C6C049
:102EE00060E080E00E9421060E943814F12CE12C61
:102EF00010E86F2D8E2D0E9421060E943814FF20AD
:102F000089F18230A9F018F4813029F00EC08530A3
:102F100008F430C40AC096E0E9121AC090919005F6
:102F2000992399F0990F90939005FF24F394E1CFA2
:102F3000E6E0EE120DC080919005811103C0109360
:102F40009005F3CF90E09595879580939005EDCF10
:102F5000EE2DF0E0E657FA4F81E09081911180E08C
:102F60008083E3CF823069F018F4813021F0C1CF43
:102F7000853060F0BECFE394FBE0EF12BACFE12CD6
:102F8000B8CFEE2009F4F8C3EA94B3CF8AE0E8168C
:102F900009F453C099E0E91203C00E949A08A9CF2E
:102FA000E8E0EE12C2CF03E080E290E00E948D14D0
:102FB00068EC70E080E090E00E94ED1080E090E02E
:102FC0000E948D1468EB7BE080E090E00E94ED10A1
:102FD000015051F703E080E290E00E948D1464E616
:102FE00070E080E090E00E94ED1080E090E00E94B0
:102FF0008D1468EE73E080E090E00E94ED100150C7
:1030000051F703E080E290E00E948D1462E370E0EB
:1030100080E090E00E94ED1080E090E00E948D142E
:1030200068EC70E080E090E00E94ED10015051F7F4
:1030300080E090E00E948D145CCF0E94790880911E
:103040008A05882399F082E080936A068091590668
:1030500090915A0690935E0680935D0680915B0680
:1030600090915C069093600680935F0680918D0539
:10307000882309F4A2C00E943E13EE24E394F12CAD
:1030800000E010E02FE730E040E050E060E070E06A
:1030900085E596E00E94520E81E090E090936806EC
:1030A0008093670690936606809365069093620608
:1030B0008093610684E090E09093640680936306B9
:1030C00083E0809369068CEA90E00E943A150BE158
:1030D00010E02FE730E04BE150E060E070E085E584
:1030E00096E00E94520E8FE090E0909362068093EB
:1030F000610683E290E0909364068093630681E02A
:10310000809369068BE990E00E943A1581E290E095
:10311000909362068093610682E390E09093640648
:103120008093630680E990E00E943A150E94921312
:1031300018EC0E941414892B09F43FC06AE070E077
:1031400080E090E00E94ED10115099F7FFE17F2E92
:10315000A0E88A2E912CA12CB12CB0E4CB2ED12C3E
:10316000E12CF12C7A94772021F10E941414892B00
:1031700021F10BEF10E001501109C1F00E940C1E6B
:10318000A50194010E94301E662E0E940C1EA7010C
:1031900096010E94301E462F50E0662D70E020E020
:1031A00030E085E596E00E946305E5CF0E9492132A
:1031B000D9CF0E943E130E9492130E942711DC0176
:1031C000CB01805F984DAF4FBF4F8093A405909384
:1031D000A505A093A605B093A705E9E38E2EE7E128
:1031E0009E2ECC24C394D12C7AE0A72EB12C0E9421
:1031F00038148093AC05823009F48CC120F48130FE
:1032000009F479C1A9C1833009F4A8C0843009F058
:10321000A3C1809192050E94A7083C010E943E1321
:10322000EE24E394F12C07E310E02FE730E047E3CE
:1032300050E060E070E085E596E00E94520ED0928A
:103240006806C0926706D0926606C092650681E065
:1032500080936906109262061092610689E390E0FD
:10326000909364068093630680919105882319F0FA
:103270008AEC90E002C084EB90E00E943A1560E096
:1032800080E00E94CE06730104E60E94381481118A
:1032900041C010919105111103C083E090E002C07C
:1032A00086E090E0E80EF91EFAE3EF16F7E1FF067C
:1032B00058F0111105C04DE0E42E46E1F42E04C093
:1032C00031EEE32E34E1F32EC7010E94030769E1DA
:1032D00070E080E090E00E94ED1084E10E945107D0
:1032E0008C589109B5010E94FC1B462FC4018E1910
:1032F0009F09111103C063E070E002C066E070E056
:103300000E94FC1B862F642F902F981B892F0E94F0
:10331000CE06BBCF8701045111092701E4E14E0E0F
:10332000511CE12CF12CC8010E94030769E170E0F7
:1033300080E090E00E94ED1084E10E945107E816C1
:10334000F90610F438017C010E5F1F4F04151505B6
:1033500051F7C3010E940307C301B5C089830E94CE
:103360003E13D0926806C0926706D0926606C0925D
:103370006506B0926206A0926106109264061092F1
:10338000630689818093690687EF90E00E943A1571
:103390008BE490E0909362068093610687E090E072
:1033A000909364068093630682E08093690682EFBF
:1033B00090E00E943A15EE24E394F12C08E110E02D
:1033C0002FE730E048E150E060E070E085E596E00E
:1033D0000E94520E10926206109261068BE190E0FC
:1033E000909364068093630681E08093690680EE83
:1033F00090E00E943A150E9478070E9492138091F3
:1034000092050E94A70860909105611003C023E017
:1034100030E002C026E030E02901480E591E40FC91
:1034200003C0FFEF4F1A5F0A82019CE3792EE12C63
:10343000F12C053387E1180718F40B5F1F4F07C005
:10344000611003C00DE016E102C001EE14E1C801F5
:103450000E94030769E170E080E090E00E94ED10B7
:1034600084E10E945107E816F90610F428017C0156
:103470007A9471100AC0820104511109720194E119
:10348000E90EF11C612C712C04C08A3F910588F271
:10349000F2CFC8010E94030769E170E080E090E08C
:1034A0000E94ED1084E10E9451076816790610F41D
:1034B00028013C010E5F1F4F0E151F0551F7C20179
:1034C0000E940307C2010E94C6098093920560E032
:1034D00070E00E94B4080E942711DC01CB014996DC
:1034E000A11DB11D8093A8059093A905A093AA05DD
:1034F000B093AB0531C0809192058F3230F080914E
:103500009105811105C018E01BC011E0180F18C00B
:1035100010E016C040919205403388F4242F30E02B
:1035200080919105811103C088E090E002C080E0A5
:1035300090E02817390719F01FEF140F01C01FE2A0
:1035400010939205812F0E94A7080E94030760E054
:1035500070E0812F0E94B4088091AC05882381F02F
:103560000E942711DC01CB01805F984DAF4FBF4F08
:103570008093A4059093A505A093A605B093A705F5
:103580000E9427110091A8051091A9052091AA0574
:103590003091AB050617170728073907E0F480912B
:1035A0008E05882309F4B2C04090A4055090A5056B
:1035B0006090A6057090A7050E9427114616570631
:1035C0006806790608F0A2C00E943E130E9492137A
:1035D00081E08093FE05909192058091A105981756
:1035E00081F00E94271100919D0510919E05209168
:1035F0009F053091A005061717072807390708F41B
:10360000A2C00E9427110091990510919A0520915E
:103610009B0530919C050617170728073907B8F452
:1036200081E090910001911180E0809300010E945F
:103630002711DC01CB018C509E4FAF4FBF4F8093C1
:10364000990590939A05A0939B05B0939C05609172
:1036500000018DE00E94811080918F05882309F47C
:1036600047C0E0908805F0908905E114F10409F461
:103670003FC00E9427110091950510919605209159
:103680009705309198050617170728073907A0F501
:1036900081E090919405911180E0809394058823B6
:1036A00071F08091900590E00E948D140E94271186
:1036B000DC01CB018E0D9F1DA11DB11D10C080E04E
:1036C00090E00E948D140E94271120918605309170
:1036D0008705DC01CB01820F931FA11DB11D8093D3
:1036E000950590939605A0939705B093980504C00F
:1036F00080E090E00E948D1480E090E0892B09F436
:1037000076CD0E9400006DCD80E061CA84E10E9408
:1037100051079093A3058093A205BC018091920567
:103720000E94B4080E942711DC01CB0188519C4FF4
:10373000AF4FBF4F8093A8059093A905A093AA050A
:10374000B093AB0548CF0E94790880919205809391
:10375000A1050E942711DC01CB01805F984DAF4F7E
:10376000BF4F80939D0590939E05A0939F05B093B6
:10377000A00547CFF12CBDCB8AE0E82EBACBE9E417
:10378000F6E01382128288EE93E0A0E0B0E084833A
:103790009583A683B7838AE195E091838083E5E5ED
:1037A000F6E01382128220E830E03583248380E43F
:1037B00090E0978386833187208793878287158A55
:1037C000158614861786168681E0848B2FEF3FEFCF
:1037D000338B228B318B208B868B178A118E108E28
:1037E0008AE295E0918380838FEF848F80A3868F18
:1037F000858F84E0878F0895AA1BBB1B51E107C00A
:10380000AA1FBB1FA617B70710F0A61BB70B881F70
:10381000991F5A95A9F780959095BC01CD010895FF
:10382000EE0FFF1F0590F491E02D09940E942A1CD1
:103830000C940B1D0E94041D58F00E94FD1C40F0CA
:1038400029F45F3F29F00C94F41C51110C943F1D96
:103850000C94FA1C0E941C1D68F39923B1F35523A4
:1038600091F3951B550BBB27AA2762177307840793
:1038700038F09F5F5F4F220F331F441FAA1FA9F329
:1038800035D00E2E3AF0E0E832D091505040E69517
:10389000001CCAF72BD0FE2F29D0660F771F881F78
:1038A000BB1F261737074807AB07B0E809F0BB0B6B
:1038B000802DBF01FF2793585F4F3AF09E3F51057F
:1038C00078F00C94F41C0C943F1D5F3FE4F3983E99
:1038D000D4F3869577956795B795F7959F5FC9F768
:1038E000880F911D9695879597F90895E1E0660FE9
:1038F000771F881FBB1F621773078407BA0720F062
:10390000621B730B840BBA0BEE1F88F7E0950895CA
:103910000E94241D88F09F5798F0B92F9927B7511E
:10392000B0F0E1F0660F771F881F991F1AF0BA9563
:10393000C9F714C0B13091F00E943E1DB1E0089566
:103940000C943E1D672F782F8827B85F39F0B93F58
:10395000CCF3869577956795B395D9F73EF4909516
:103960008095709561957F4F8F4F9F4F0895E89494
:1039700009C097FB3EF490958095709561957F4FB7
:103980008F4F9F4F9923A9F0F92F96E9BB27939565
:10399000F695879577956795B795F111F8CFFAF475
:1039A000BB0F11F460FF1BC06F5F7F4F8F4F9F4FA6
:1039B00016C0882311F096E911C0772321F09EE804
:1039C000872F762F05C0662371F096E8862F70E06A
:1039D00060E02AF09A95660F771F881FDAF7880F44
:1039E0009695879597F9089597F99F6780E870E015
:1039F00060E008959FEF80EC089500240A94161665
:103A0000170618060906089500240A9412161306CC
:103A1000140605060895092E0394000C11F488235A
:103A200052F0BB0F40F4BF2B11F460FF04C06F5F76
:103A30007F4F8F4F9F4F089557FD9058440F551F4C
:103A400059F05F3F71F04795880F97FB991F61F020
:103A50009F3F79F087950895121613061406551F97
:103A6000F2CF4695F1DF08C0161617061806991F03
:103A7000F1CF86957105610508940895E894BB27F8
:103A800066277727CB0197F908950E94581D0C945B
:103A90000B1D0E94FD1C38F00E94041D20F0952390
:103AA00011F00C94F41C0C94FA1C11240C943F1D7E
:103AB0000E941C1D70F3959FC1F3950F50E0551F98
:103AC000629FF001729FBB27F00DB11D639FAA2773
:103AD000F00DB11DAA1F649F6627B00DA11D661FC2
:103AE000829F2227B00DA11D621F739FB00DA11DE3
:103AF000621F839FA00D611D221F749F3327A00D9D
:103B0000611D231F849F600D211D822F762F6A2F38
:103B100011249F5750409AF0F1F088234AF0EE0F9D
:103B2000FF1FBB1F661F771F881F91505040A9F7CA
:103B30009E3F510580F00C94F41C0C943F1D5F3F98
:103B4000E4F3983ED4F3869577956795B795F79506
:103B5000E7959F5FC1F7FE2B880F911D969587957E
:103B600097F9089581E090E0F8940C94931EFB017E
:103B7000DC0101900D920020E1F708958F929F9251
:103B8000AF92BF92CF92DF92EF92FF92CF93DF93EB
:103B9000EC01688179818A819B81611571058105BC
:103BA000910521F464E279ED8BE597E02DE133EFA7
:103BB00041E050E00E94301E49015A019B01AC01D6
:103BC000A7EAB1E40E944F1E6B017C01ACEEB4EF9A
:103BD000A50194010E945D1EDC01CB018C0D9D1D91
:103BE000AE1DBF1DB7FF03C00197A109B048888370
:103BF0009983AA83BB83BC01CD019F77DF91CF91CD
:103C0000FF90EF90DF90CF90BF90AF909F908F90FC
:103C100008950E94BE1D089582E095E00E94BE1D99
:103C200008956093020570930305809304059093B3
:103C300005050895F999FECF92BD81BDF89A99279F
:103C400080B50895262FF999FECF1FBA92BD81BD88
:103C500020BD0FB6F894FA9AF99A0FBE019608950E
:103C6000052E97FB1EF400940E94471E57FD07D0B7
:103C70000E94621E07FC03D04EF40C94471E509520
:103C80004095309521953F4F4F4F5F4F0895909548
:103C90008095709561957F4F8F4F9F4F08950E943B
:103CA000841EA59F900DB49F900DA49F800D911D23
:103CB00011240895B7FF0C944F1E0E944F1E821BC3
:103CC000930B0895A1E21A2EAA1BBB1BFD010DC088
:103CD000AA1FBB1FEE1FFF1FA217B307E407F507BC
:103CE00020F0A21BB30BE40BF50B661F771F881F98
:103CF000991F1A9469F760957095809590959B012E
:103D0000AC01BD01CF010895A29FB001B39FC001D6
:103D1000A39F700D811D1124911DB29F700D811DF7
:0A3D20001124911D0895F894FFCFBF
:103D2A00010EFFFFFFFFFFFFFFFFFFFFFFFFFFFF88
:103D3A00FFFFFFFFFFFFFFFFFFFFFFFFFFFFFFFF89
:103D4A00FFFFFFFFFFFFFFFFFFFFFFFFFFFFFFFF79
:103D5A00FFFFFFFFFFFFFFFFFFFFFFFFFFFFFFFF69
:103D6A00FFFFFFFFFFFFFFFFFFFFFFFFFFFFFFFF59
:103D7A00FFFFFFFFFFFFFFFFFFFFFFFFFFFFFFFF49
:103D8A00FFFFFFFFFFFFFFFFFFFFFFFFFFFFFFFF39
:103D9A00FFFFFFFFFFFFFFFFFFFFFFFFFFFFFFFF29
:103DAA00FFFFFFFFFFFFFFFF7F3F3F3F3F3F3F3FD9
:103DBA003F3F3F3F3F3FFFFFBF3F3F3F3F7F7FFFC9
:103DCA00FF7F7F3F3FBFFFFF7F3F3F3F3F3F3F3F79
:103DDA003F3F3F3F3F3F3F3FFFFF3F3FFFFFFFFF69
:103DEA00FFFFFFFFFFFFFFFFFFFFFF7F3F3F3F3F59
:103DFA003F3F3F3F3F3F3F3F3F3F3F7FFFFF3F3F09
:103E0A003F3F3F3F3F3F3F3F3F3F3F3F3F3F3F7F78
:103E1A00FFFFFFFFFF3F3F3F3FFFFFFFFFFFFFFFA8
:103E2A00FFFFFFFFFFFFFFFFF0E0E2E7E7E7E7E75B
:103E3A00E7E7E7E7E7E7FFFFFFFFFFFEE2E1E1E091
:103E4A00E0FEFEFFFFFFFFFFF0E0E0E2E7E7E7E763
:103E5A00E7E7E7E7E7E7E7E7FFFFE0E0E7E7E7E7C6
:103E6A00E7E7E7E7E7E7E7E7E7FFFFF0E0E2E7E7AB
:103E7A00E7E7E7E7E7E7E7E7E7E2E0F0FFFFE0E0A9
:103E8A00E0FFF9F9F9F9F9F9F9F9F9F9F9F8F8FCAA
:103E9A00FFFFF8F8F8E0E0E0E0F8F8F8FFFFFFFFCE
:103EAA00FFFFFFFFFFFFFFFFFFFF7F7F7F7F7F7F18
:103EBA007F7F7F7F7F7F7F7F7F7F7F7F7F7F7F7F08
:103ECA007F7F7F7F7F7F7F7F7F7F7F7F7F7F7F7FF8
:103EDA007F7F7F7F7F7F7F7F7F7F7F7F7F7F7F7FE8
:103EEA007F7F7F7F7F7F7F7F7F7F7F7F7F7F7F7FD8
:103EFA007F7F7F7F7F7F7F7F7F7F7F7F7F7F7F7FC8
:103F0A007F7F7F7F7F7F7F7F7F7F7F7F7F7F7F7FB7
:103F1A007F7F7F7F7F7F7F7F7F7F7FFFFFFFFFFF27
:103F2A00FFFFFFFFFFFFFFFFFFFFFEFEFEFEFEFE9D
:103F3A00FEFEFEFEFEFEFEFEFEFEFEFEFEFEFEFE97
:103F4A00FEFEFEFEFEFEFEFEFEFEFEFEFEFEFEFE87
:103F5A00FEFEFEFEFEFEFEFEFEFEFEFEFEFEFEFE77
:103F6A00FEFEFEFEFEFEFEFEFEFEFEFEFEFEFEFE67
:103F7A00FEFEFEFEFEFEFEFEFEFEFEFEFEFEFEFE57
:103F8A00FEFEFEFEFEFEFEFEFEFEFEFEFEFEFEFE47
:103F9A00FEFEFEFEFEFEFEFEFEFEFEFFFFFFFFFF32
:103FAA00FFFFFFFFFFFFFFFFFF070707A7A7A7A75F
:103FBA00A7A707474FFFF7E7E7C7472F2F1F1FCFCF
:103FCA00CFE7E7F7FFFFFFFFFFFF070707BFBF07BF
:103FDA00E7E7E7E7E7E7FFFF070707A7A7A7A7A717
:103FEA00A7A7E7E7FFFF070707A7A72727A7A7A707
:103FFA00A7CFFFFF070707E7CF9F3F7FFF07070707
:10400A00FFFF0707A7A7A7A7A7A7A7A7E7E7FFFF96
:10401A00070707E7CF9F3F7FFF070707FFFFFFFF5E
:10402A00FFFFFFFFFFFFFFFFFFFCFCFCFCFCFCFCAB
:10403A00FCFCFCFCFEFFFFFFFFFFFCFCFCFCFCFFA2
:10404A00FFFFFFFFFFFFFFFFFFFFFCFCFCFFFFFC82
:10405A00FCFCFCFCFCFCFFFFFCFCFCFCFCFCFCFC90
:10406A00FCFCFCFCFFFFFCFCFCFFFFFCFCFCFCFC7A
:10407A00FCFCFFFFFCFCFCFFFFFFFFFEFCFCFCFC62
:10408A00FFFFFCFCFCFCFCFCFCFCFCFCFCFCFFFF5A
:10409A00FCFCFCFFFFFFFFFEFCFCFCFCFFFFFFFF3C
:1040AA00FFFFFFFFFFFFFFFFFFFFFFFFFFFFFFFF16
:1040BA00FFFFFFFFFFFFFFFFFFFFFFFFFFFFFFFF06
:1040CA00FFFFFFFFFFFFFFFFFFFFFFFFFFFFFFFFF6
:1040DA00FFFFFFFFFFFFFFFFFFFFFFFFFFFFFFFFE6
:1040EA00FFFFFFFFFFFFFFFFFFFFFFFFFFFFFFFFD6
:1040FA00FFFFFFFFFFFFFFFFFFFFFFFFFFFFFFFFC6
:10410A00FFFFFFFFFFFFFFFFFFFFFFFFFFF9F7EFD3
:10411A00E1FFFFFDE0FFEFFFF1EEEEF1FFFFFFFF32
:10412A00FFFF01000000000103070F1F3F7F00800F
:10413A00C0E0F0F8FCFE00000000D60AA60A9E0ABB
:10414A008F0A810A800A00000000AC0CFE09630590
:10415A00520EFC0E0704030EA10D830D050B202041
:10416A002020000D0A00426F7363616D20410042F6
:10417A006F7363616D204200466F78746563682FC0
:10418A00444A492000466174536861726B200052A8
:10419A0061636562616E6420004C6F7762616E6470
:0441AA0020200000D1
:00000001FF
