:100000000C9471040C9418100C94F10F0C948E0F36
:100010000C942B0F0C94BA0E0C9499040C94990424
:100020000C9499040C9499040C9499040C949904DC
:100030000C9499040C9499040C9499040C949904CC
:100040000C94E3150C9499040C94D6140C94B014ED
:100050000C9499040C9499040C9499040C949904AC
:100060000C942D160C9499045D0B600B630B660BBE
:10007000690B6C0B6F0B720B750B780B7B0B7E0B8C
:10008000810B840B870BE916D516C116AD16991690
:10009000851671165D16651678168B169E16B116A6
:1000A000C416D716EA164916351621160D16FD1672
:1000B0001117251739176C1680169416A816BC163A
:1000C000D016E416F8161A163F1664168916AE16E0
:1000D000D316F8161D17F21417153C156115861561
:1000E000AB15D015F5152700240020001C001900C1
:1000F000150012000E001000130017001A001E0059
:100100002100250028000D000B000A0008002B002C
:100110002C002E002F001100140018001B001F00DF
:1001200022002600290009000C000F0016001D0007
:1001300023002A002D00000001000200030004003B
:1001400005000600070028292A2B2C2D2E2F13200E
:10015000121121100722081806091905230A1A048A
:100160000B1B03240C1C020D1D25010E1E000F1F6E
:10017000261415271617200020200020002000201C
:10018000204368616E6E656C2020202052535349D5
:1001900000204D487A00204F46460020204F4E0058
:1001A0002E00202033730020203273002000457879
:1001B0006974202020202020202020202020005290
:1001C000657365742053657474696E6773202000CD
:1001D0005465737420416C61726D202020202020B2
:1001E000004C6F772042616E642020202020202068
:1001F0002000526163652042616E6420202020202F
:10020000202000466174736861726B2062616E64C5
:1002100020202000466F78746563682F444A492087
:1002200062616E6400426F7363616D20422062619F
:100230006E6420202000426F7363616D2041206254
:10024000616E642020200053637265656E205361E7
:10025000766572202020200053686F7720537461E8
:10026000727473637265656E00426174746572794D
:100270002043616C69622E202000426174746572B3
:100280007920547970652020202000416C61726DC6
:10029000206C6576656C20202020200042617474FB
:1002A00065727920616C61726D20202000466C6956
:1002B000702053637265656E2020202020000001AD
:1002C00002030405060700010203040500010203FE
:1002D000040500000000240027002A0000000000A0
:1002E000250028002B00323031372D30332D3133AB
:1002F0000076312E362062792044766F676F6E6506
:100300006E004359434C4F502B00204F7074696F5F
:100310006E73202020202020202020002041757492
:100320006F205363616E6E6572202020200020478D
:10033000726170686963205363616E6E657220003C
:100340002045786974202020202020202020202093
:100350002000352E36352020202020352E38202034
:10036000202020352E393500352E33352020202011
:1003700020352E362020202020352E393500202013
:100380004368616E6E656C202020205253534900F3
:10039000204D487A005343414E0000000000003ECB
:1003A0005B4F5B3E3E6B4F6B3E1C3E7C3E1C183CE5
:1003B0007E3C181C577D571C1C5E7F5E1C00183C41
:1003C0001800FFE7C3E7FF0018241800FFE7DBE78A
:1003D000FF30483A060E2629792926407F05050771
:1003E000407F05253F5A3CE73C5A7F3E1C1C0808CD
:1003F0001C1C3E7F14227F22145F5F005F5F060992
:100400007F017F006689956A606060606094A2FFEA
:10041000A29408047E040810207E201008082A1CDC
:1004200008081C2A08081E101010100C1E0C1E0CA8
:1004300030383E3830060E3E0E0600000000000048
:10044000005F00000007000700147F147F14242AB7
:100450007F2A122313086462364956205000080789
:100460000300001C2241000041221C002A1C7F1CAA
:100470002A08083E080800807030000808080808AC
:10048000000060600020100804023E5149453E0013
:10049000427F400072494949462141494D33181471
:1004A000127F1027454545393C4A494931412111C0
:1004B00009073649494936464949291E00001400B2
:1004C00000004034000000081422411414141414D5
:1004D000004122140802015909063E415D594E7C33
:1004E0001211127C7F494949363E414141227F41E8
:1004F00041413E7F494949417F090909013E414146
:1005000051737F0808087F00417F41002040413F30
:10051000017F081422417F404040407F021C027F3F
:100520007F0408107F3E4141413E7F090909063E94
:100530004151215E7F091929462649494932030163
:100540007F01033F4040403F1F2040201F3F403875
:10055000403F631408146303047804036159494D50
:1005600043007F4141410204081020004141417F86
:1005700004020102044040404040000307080020FC
:10058000545478407F2844443838444444283844FC
:1005900044287F385454541800087E090218A4A433
:1005A0009C787F0804047800447D40002040403D52
:1005B000007F1028440000417F40007C04780478CC
:1005C0007C080404783844444438FC18242418185F
:1005D000242418FC7C0804040848545454240404BB
:1005E0003F44243C4040207C1C2040201C3C4030A8
:1005F000403C44281028444C9090907C4464544CD7
:100600004400083641000000770000004136080031
:1006100002010204023C2623263C1EA1A161123ADB
:100620004040207A38545455592155557941225427
:10063000547842215554784020545579400C1E522C
:1006400072123955555559395454545939555454D1
:10065000580000457C410002457D420001457C4038
:100660007D1211127DF0282528F07C54554500207C
:1006700054547C547C0A097F4932494949323A44EE
:1006800044443A324A4848303A4141217A3A424059
:100690002078009DA0A07D3D4242423D3D4040402B
:1006A0003D3C24FF2424487E4943662B2FFC2F2BFE
:1006B000FF0929F620C0887E09032054547941009F
:1006C00000447D413048484A32384040227A007A1E
:1006D0000A0A727D0D19317D2629292F28262929FC
:1006E000292630484D40203808080808080808081E
:1006F000382F10C8ACBA2F102834FA00007B000045
:1007000008142A142222142A14085500550055AA48
:1007100055AA55AAFF55FF55FF000000FF00101015
:1007200010FF00141414FF001010FF00FF1010F051
:1007300010F0141414FC001414F700FF0000FF0064
:10074000FF1414F404FC141417101F10101F101FB2
:100750001414141F00101010F0000000001F1010DF
:1007600010101F10101010F010000000FF101010DB
:10077000101010101010FF10000000FF140000FFF8
:1007800000FF00001F10170000FC04F414141710E1
:10079000171414F404F40000FF00F71414141414D4
:1007A0001414F700F7141414171410101F101F144A
:1007B0001414F4141010F010F000001F101F0000AB
:1007C000001F14000000FC140000F010F01010FFD7
:1007D00010FF141414FF141010101F00000000F07C
:1007E00010FFFFFFFFFFF0F0F0F0F0FFFFFF000051
:1007F000000000FFFF0F0F0F0F0F3844443844FC78
:100800004A4A4A347E02020606027E027E0263558E
:100810004941633844443C04407E201E2006027E49
:10082000020299A5E7A5991C2A492A1C4C7201725B
:100830004C304A4D4D303048784830BC625A463DC5
:100840003E494949007E0101017E2A2A2A2A2A447A
:10085000445F444440514A444040444A51400000AF
:10086000FF0103E080FF000008086B6B08361236BA
:100870002436060F090F060000181800000010109B
:10088000003040FF0101001F01011E00191D171259
:10089000003C3C3C3C000000000000000000230045
:1008A00026002900040404040404040402020202D1
:1008B0000202030303030303010204081020408023
:1008C00001020408102001020408102000000008A2
:1008D0000002010000030407000000000000000007
:1008E000C62111241FBECFEFD8E0DEBFCDBF27E069
:1008F000A4E9B5E001C01D92AC3AB207E1F715E0FA
:10090000A0E0B1E0E2ECF9E402C005900D92A43958
:10091000B107D9F714E0C1E7D4E004C02197FE0184
:100920000E945C22C037D107C9F70E94681A0C9454
:10093000DF240C9400006F927F928F929F92AF926F
:10094000BF92CF92DF92EF92FF920F931F93CF93BC
:10095000DF936C015A014801EB013B01620E731EEB
:10096000C615D70574F4D601ED91FC910084F1858C
:10097000E02D87019401A501BE01C60109952196CC
:10098000EFCFDF91CF911F910F91FF90EF90DF900C
:10099000CF90BF90AF909F908F907F906F90089571
:1009A000EF92FF920F931F93DC01ED91FC91260FC4
:1009B000371F215031090680F781E02D78018A0127
:1009C00009951F910F91FF90EF900895EF92FF927C
:1009D0000F931F937801DC01ED91FC91240F351FDB
:1009E0008901015011090680F781E02D9B010995CD
:1009F0001F910F91FF90EF9008956F927F928F92C9
:100A00009F92AF92BF92CF92DF92EF92FF920F939D
:100A10001F93CF93DF93EC014B015A016901380119
:100A2000E881F9810284F385E02D87010995E88149
:100A3000F981A501460D571D415051090284F385E6
:100A4000E02D9601B401CE010995E881F981008479
:100A5000F185E02D9301A501B401CE010995E8814E
:100A6000F981C80CD91CB601615071090084F18567
:100A7000E02D9301A501CE010995DF91CF911F9142
:100A80000F91FF90EF90DF90CF90BF90AF909F902D
:100A90008F907F906F9008952F923F924F925F9228
:100AA0006F927F928F929F92AF92BF92CF92DF927E
:100AB000EF92FF920F931F93CF93DF9300D01F927B
:100AC000CDB7DEB74C017B836A836A0159011701F8
:100AD0009801241B350B37FF03C03195219531094F
:100AE000C5014A815B81841B950B97FF03C09195DB
:100AF0008195910951E059838217930714F0198267
:100B00000BC09A2D8B2D5801092F182F9A818B819C
:100B1000DB82CA82C92ED82E8A819B81A816B9068B
:100B20005CF49C2D8D2D6801092F182F9A818B81E3
:100B3000BB82AA82A92EB82E2501AA81BB814A1A9E
:100B40005B0A38016C187D0877FE03C071946194CC
:100B50007108720157FE03C0BFEFEB1AFB0AF59450
:100B6000E794C016D1061CF00FEF1FEF1FC001E085
:100B700010E01CC0D401ED91FC91B9810480F58195
:100B8000E02D9101BB23C1F04A815B81B601C40114
:100B90000995E618F708F7FE04C0C00ED11EE40C54
:100BA000F51CEA81FB813196FB83EA834A815B81F4
:100BB000A416B506FCF604C0A6016A817B81E7CFC6
:100BC0000F900F900F90DF91CF911F910F91FF9099
:100BD000EF90DF90CF90BF90AF909F908F907F90DD
:100BE0006F905F904F903F902F9008950F931F93B9
:100BF000CF93DF93DC0155968C915597823071F03D
:100C0000833009F1813009F08CC01496ED91FC918C
:100C10001597E41BF50BE21BF30B20C01496ED9126
:100C2000FC911597CF01861B970BBC016150710990
:100C30001696ED91FC911797CF01841B950BAC0193
:100C4000421B530B6EC01696ED91FC911797CF0186
:100C5000861B970BBC0161507109FA0177FD1BC11E
:100C600016968D919C911797681779070CF013C110
:100C7000F7FF04C02E0F3F1FE0E0F0E014968D91C7
:100C80009C911597AF01420F531F841795071CF4D1
:100C90009C012E1B3F0B121613060CF0FCC0CB015F
:100CA00077FD079643E0959587954A95E1F79695E8
:100CB000982F882797958795E80FF91FEE5FFE4FCD
:100CC0006770772781E090E001C0880F6A95EAF7A6
:100CD000482F0130110541F088F00230110509F06C
:100CE000DAC02E0F3F1F15C02E0F3F1FE217F3076C
:100CF00009F4D1C08081842B8193F8CF80952E0F89
:100D00003F1FE217F30709F4C6C09081982391931F
:100D1000F8CFE217F30709F4BEC0808184278193DE
:100D2000F8CF77FDB8C014968D919C9115976817F0
:100D300079070CF0B0C057FF04C0240F351F40E006
:100D400050E016968D919C911797FA01E20FF31FD0
:100D50008E179F071CF49C01241B350B12161306DB
:100D60000CF099C0A22F842F86958695869590E8E1
:100D7000899F600D711D1124FB01EE5FFE4F4770CE
:100D8000A9F198E0941B492F50E0EA01C25FDA4FC5
:100D90008881291790F4421B51092FEF30E002C0DF
:100DA000359527954A95E2F782230130110541F0E8
:100DB00068F00230110589F06EC00130110519F498
:100DC0002081822B0CC00130110520F480952081F8
:100DD000822305C00230110531F4208182278083EF
:100DE000A91708F458C0A91BE058FF4FA83048F1D4
:100DF0000230110559F4EF018A2F9881909598835C
:100E0000C058DF4F88508830C0F730C081E00130D3
:100E1000110509F080E08195EF019A2F8883C05871
:100E2000DF4F98509830D0F788EF8A0F86958695D7
:100E3000869590E8899FE00DF11D1124E058FF4F41
:100E4000A770AA2341F1B0E0AA5FBA4F8C9101309C
:100E5000110529F038F002301105D1F01CC0908145
:100E6000892B18C080959081892314C088EF8A0F40
:100E700086958695869590E8899FE00DF11D112451
:100E8000E058FF4FA77039F0B0E0AA5FBA4F8C91DD
:100E9000908189278083DF91CF911F910F910895D1
:100EA0000F931F93CF93DF93DC01FB0155968C9139
:100EB0005597823081F0833019F1813051F51496C5
:100EC0008D919C911597BC01641B750BAB01415032
:100ED0005109BF0181C014966D917C911597CB018A
:100EE0008E1B9F0BFC0116968D919C911797BC0150
:100EF000641B750BAB0141505109E21BF30B09C098
:100F000016966D917C9117976E1B7F0B621B730B6E
:100F100063C057FD1CC116968D919C911797481779
:100F200059070CF014C1F7FF04C02E0F3F1FE0E07B
:100F3000F0E014968D919C911597BF01620F731F7D
:100F4000861797071CF49C012E1B3F0B12161306E5
:100F50000CF0FDC0CA0157FD079663E09595879593
:100F60006A95E1F79695982F882797958795E80FCA
:100F7000F91FEE5FFE4F4770552781E090E001C0FA
:100F8000880F4A95EAF7482F0130110541F088F0A3
:100F90000230110509F0DBC02E0F3F1F15C02E0FC8
:100FA0003F1FE217F30709F4D2C08081842B81939D
:100FB000F8CF80952E0F3F1FE217F30709F4C7C043
:100FC000908198239193F8CFE217F30709F4BFC0FB
:100FD000808184278193F8CF57FDB9C014968D91F5
:100FE0009C911597481759070CF0B1C077FF04C0C2
:100FF000260F371F60E070E016968D919C91179731
:10100000FB01E20FF31F8E179F071CF49C01261BA8
:10101000370B121613060CF09AC0A22F862F869556
:101020008695869590E8899F400D511D1124FA01FF
:10103000EE5FFE4F6770A9F198E0961B492F50E0D4
:10104000EA01C25FDA4F8881291790F4421B5109E7
:101050002FEF30E002C0359527954A95E2F78223BD
:101060000130110541F068F00230110589F06FC0C0
:101070000130110519F42081822B0CC001301105BB
:1010800020F480952081822305C00230110531F4BF
:10109000208182278083A91708F459C0A91BE05832
:1010A000FF4FA83048F10230110559F4EF018A2FA3
:1010B000988190959883C058DF4F88508830C0F74A
:1010C00031C081E00130110509F080E08195EF0128
:1010D0009A2F8883C058DF4F98509830D0F788EF08
:1010E0008A0F86958695869560E8869FE00DF11DAE
:1010F0001124E058FF4FA770AA2349F1B0E0AA5F7E
:10110000BA4F8C910130110529F038F002301105E9
:10111000D9F01DC09081892B03C0809590818923CF
:10112000808315C088EF8A0F86958695869570E82E
:10113000879FE00DF11D1124E058FF4FA77039F093
:10114000B0E0AA5FBA4F8C9190818927E9CFDF91F7
:10115000CF911F910F910895FC0177FD9AC0808572
:101160009185681779070CF094C057FD92C082856D
:101170009385481759070CF08CC08589823009F097
:101180007CC084819581DC01A61BB70BBD01615039
:10119000710986819781FC01E41BF50BAF01415079
:1011A00051090AC0813041F484819581841B950BDB
:1011B000AB01BC01615071092130310529F008F102
:1011C00022303105E1F10895FA0157FD3796A3E089
:1011D000F595E795AA95E1F7F695FE2FEE27F79599
:1011E000E7956E0F7F1FFB01EE5FFE4F477055279F
:1011F00081E090E001C0880F4A95EAF79081892B41
:101200003AC0FA0157FD379623E0F595E7952A9500
:10121000E1F7F695FE2FEE27F795E7956E0F7F1F06
:10122000FB01EE5FFE4F4770552781E090E001C063
:10123000880F4A95EAF78095908189231CC0FA01AE
:1012400057FD379683E0F595E7958A95E1F7F69592
:10125000FE2FEE27F795E7956E0F7F1FFB01EE5FE0
:10126000FE4F4770552781E090E001C0880F4A95F6
:10127000EAF79081892780830895833009F092CF1F
:1012800086819781861B970BBA01AC0141505109A9
:1012900093CF0895E82FF0E0EE0FFF1FEA51FF4FC4
:1012A000859194910895CF93DF93A0EDB5E0E6E4A6
:1012B000F1E080E38E0F91919D938E13FCCF80918E
:1012C0000C06882329F080910D06882371F019C03F
:1012D000C0E0DFEF8C2F0E944A0980539A4FFC0137
:1012E000D083CF5FC830B1F7EECFC8E0DFEF8C2FEF
:1012F0000E944A0980539A4FFC01D083CF5FC031CE
:10130000B1F780910E0681110CC0C0E1DFEF8C2F88
:101310000E944A0980539A4FFC01D083CF5FC831A5
:10132000B1F780910F0681110CC0C8E1DFEF8C2F5F
:101330000E944A0980539A4FFC01D083CF5FC0328C
:10134000B1F78091100681110CC0C0E2DFEF8C2F45
:101350000E944A0980539A4FFC01D083CF5FC83264
:10136000B1F78091110681110CC0C8E2DFEF8C2F1C
:101370000E944A0980539A4FFC01D083CF5FC0334B
:10138000B1F7DF91CF9108950F931F930E941A1820
:10139000892B59F40E94D715609394057093950595
:1013A000809396059093970556C08091CA069091B8
:1013B000CB06A091CC06B091CD06892B8A2B8B2B26
:1013C000A1F082E08093C9061092940510929505D1
:1013D00010929605109297051092CA061092CB06AD
:1013E0001092CC061092CD0636C08091000688235C
:1013F00031F084E08093C906109200061AC00E9462
:10140000D71500919405109195052091960530917E
:101410009705DC01CB01801B910BA20BB30B8F3521
:101420009140A105B10510F083E001C081E08093F7
:10143000C906109294051092950510929605109287
:1014400097050E94D7156093CA067093CB068093C8
:10145000CC069093CD061F910F9108950F931F9383
:10146000CF93DF93C62FDEE0D80F8091980526E357
:1014700030E0281B310990910001692F70E000E0F5
:1014800010E040E050E08DE797E00E94F6056D2FF8
:1014900070E001E010E026E330E040E050E08DE74E
:1014A00097E00E94F605D0930001C63320F085E353
:1014B0008093980502C0C0939805DF91CF911F914A
:1014C0000F910C94C418E5E0F6E081E080838183FD
:1014D00095E09283138290E89483858316828783B4
:1014E000808781878287838784870C94530992EF52
:1014F000980F8E3008F0892F8770982F906480E2C3
:1015000040E050E090937C0020917A00206420938A
:101510007A0020917A0026FDFCCF2091780060911E
:10152000790030E0362B420F531F815059F7CA0122
:1015300025E0969587952A95E1F708958FE00E941A
:10154000770A2091090630E02A573140820F931F15
:1015500065E070E00E944822CB01C2960895CF93C7
:10156000DF93823041F48FE495E00E949A196091F4
:10157000070670E024C0833051F480910806882368
:1015800019F087EA91E038C082EA91E035C08430F2
:10159000E9F40E949E0ACAE0D0E0BE010E944822FF
:1015A00080E090E04AE00E94AC1980EA91E00E945D
:1015B000ED190E949E0ABE010E944822BC0180E0F3
:1015C00090E04AE0DF91CF910C94AC1993EF980F23
:1015D000933030F48EE495E0DF91CF910C949A191A
:1015E000E82FF0E0EB5FF94F8081882319F08BE959
:1015F00091E002C086E991E0DF91CF910C94ED1962
:10160000FF920F931F93CF93DF93D82F6623D1F0D0
:1016100086E690E090938A078093890788E090E0BF
:1016200090938C0780938B0710928E0710928D07F2
:1016300081E090E09093900780938F078D2F0E9418
:10164000AF0A80C00E94701810928A071092890712
:1016500010928C0710928B0781E080939107DD2315
:1016600019F0CFEFCD0F01C0CFE087E0F82E01E0F9
:1016700010E0C03108F0C0E0CD1309C010928E0711
:1016800010928D071093900700938F0708C0109356
:101690008E0700938D071092900710928F074C2FA2
:1016A00050E0FA013197EF30F10520F4EC5CFF4F88
:1016B0000C945C228DEA92E02CC08CE992E029C067
:1016C0008BE892E026C08AE792E023C089E692E0A8
:1016D00020C088E592E01DC087E492E01AC086E34E
:1016E00092E017C085E292E014C084E192E011C05C
:1016F00083E092E00EC082EF91E00BC081EE91E0BA
:1017000008C080ED91E005C08FEB91E002C08EEA49
:1017100091E00E94ED1910938E0700938D071092AF
:10172000900710928F078CEA91E00E94ED198C2FA0
:101730000E94AF0A83E595E00E949A19CF5FFA9460
:10174000F11097CFDF91CF911F910F91FF900C94E3
:10175000C418FF920F931F93CF93DF9360E080E054
:101760000E94000B0E943E18D0E0C0E001E010E0B3
:101770006D2F8C2F0E94000B0E943E18DD23D1F1AB
:101780008230C1F0833009F47AC0813009F079C029
:10179000C23039F480910706883008F072C08F5F3C
:1017A00011C0C430E9F4809109068A3F08F069C08D
:1017B0008B5F13C0C23049F480910706823008F471
:1017C00060C08150809307065CC0C43049F48091AA
:1017D0000906863008F455C085508093090651C02B
:1017E000EC2FF0E0EB5FF94F81E09081911180E008
:1017F000808347C0823059F0833069F0813009F02E
:10180000B7CFCF5FC03109F0B3CFC0E0B1CFCC23A9
:10181000D1F1C150ADCFCF3059F1CE3019F40E9483
:10182000630AA6CFCD3069F50E943E188111A0CF82
:1018300083E0F82EC8010090070602C0880F991FA8
:101840000A94E2F70E940E1A62E370E080E090E0F2
:101850000E949D1580E090E00E940E1A68EC70E0F6
:1018600080E090E00E949D15FA94F110E3CFDCCF68
:10187000DF91CF911F910F91FF900C945309D0E00D
:1018800077CFD1E075CFCFE073CFCF92DF92EF92D9
:10189000FF920F931F93CF93DF93809108068111DE
:1018A00005C0CEE7D0E006E610E004C0C4E5D0E015
:1018B00004E410E00E949E0A8C179D0708F04AC0BD
:1018C0000817190718F5BC01601B710B80E090E048
:1018D0000E9403236B017C01CE01801B910BBC0194
:1018E00080E090E00E9403239B01AC01C701B60198
:1018F0000E94622220E030E048EC52E40E949123F2
:101900000E94D422C62F653010F00AC0C0E082E3E6
:1019100090E0909304068093030688EC90E00AC060
:101920006F3068F484E690E0909304068093030699
:1019300088EE93E0909302068093010614C069310B
:1019400050F488EC90E0909304068093030688EBB3
:101950009BE0F0CFC3E610920406109203061092AB
:10196000020610920106EE24E394F12C02E010E04E
:1019700024E030E040E250E06DE370E08DE797E076
:101980000E94FD0404E110E02AE030E042E250E071
:101990006AE370E08DE797E00E94FD04E12CF12CF2
:1019A00000E110E026E030E044E250E06CE370E05B
:1019B0008DE797E00E94FD04C63580F0EE24E394A5
:1019C000F12C02E010E024E030E045E250E06DE36D
:1019D00070E08DE797E00E94FD0402C0C23480F001
:1019E000EE24E394F12C02E010E024E030E048E241
:1019F00050E06DE370E08DE797E00E94FD0402C0C7
:101A0000CE3280F0EE24E394F12C02E010E024E0EA
:101A100030E04BE250E06DE370E08DE797E00E942C
:101A2000FD0402C0CA3180F0EE24E394F12C02E000
:101A300010E024E030E04EE250E06DE370E08DE72E
:101A400097E00E94FD0402C0C63078F0EE24E394D3
:101A5000F12C02E010E024E030E041E350E06DE3DF
:101A600070E08DE797E00E94FD04DF91CF911F9118
:101A70000F91FF90EF90DF90CF9008950F931F93F9
:101A8000CF93DF936091120680E090E00E946E2475
:101A900005E016E0C0E0D0E0F80161918F012196E9
:101AA000CE010E946E24CD30D105B1F760EF8EE0FB
:101AB00090E0DF91CF911F910F910C946E24E82F4D
:101AC000F0E0EA5BFE4FE491F0E0EE0FFF1FEA5713
:101AD000FF4F859194910895AF92BF92CF92DF927C
:101AE000EF92FF920F931F93CF93DF93CDB7DEB7A3
:101AF00066970FB6F894DEBF0FBECDBFB82E6B0150
:101B00000E94701881E090E09093900780938F0777
:101B100090938E0780938D078AE090E090938A07D8
:101B20008093890710928C0710928B0783E0809333
:101B300091078B2D0E945F0DBC0180E090E04AE090
:101B40000E94AC198BE490E090938A0780938907F8
:101B500087E090E090938C0780938B0732E0A32E70
:101B6000A092910781E991E00E94ED19EE24E3949F
:101B7000F12C08E110E02FE730E048E150E060E0B0
:101B800070E08DE797E00E944C0510928A07109252
:101B900089078BE190E090938C0780938B0781E01D
:101BA000809391078FE791E00E94ED1910928A07C8
:101BB0001092890787E290E090938C0780938B07BF
:101BC000A09291078DE791E00E94ED198BE791E0DB
:101BD0000E94ED190B2D10E00A5B1E4FF801849155
:101BE000883010F491E411C0803110F492E40DC0FB
:101BF000883110F495E409C0803210F496E405C0F1
:101C0000883210F493E401C09CE4998387708F5C60
:101C10008A831B82CE0101967C010E949A1988E773
:101C200091E00E94ED19B60180E090E04AE00E9448
:101C3000AC1910928A071092890789E390E090937B
:101C40008C0780938B0781E080939107F8010491C2
:101C5000083018F466E575E016C0003118F46FE539
:101C600075E011C0083118F468E675E00CC0003268
:101C700018F465E775E007C0083218F46FE775E0FF
:101C800002C069E875E0C7010E940324F7010190D2
:101C90000020E9F73197EE19FF09FF27D701AE0FB2
:101CA000BF1F07700F5C0C93EC0FFD1F1282F70132
:101CB00001900020E9F7C7018E1B9F0B4696969571
:101CC0008795182F112331F086E791E00E94ED19D6
:101CD0001150F8CFC7010E949A190E94450C0E942A
:101CE000C41866960FB6F894DEBF0FBECDBFDF9165
:101CF000CF911F910F91FF90EF90DF90CF90BF9009
:101D0000AF900895EF92FF920F931F93CF93DF93BD
:101D10008C0180911106882311F0D0E001C0D8E039
:101D2000CD2F8CE2E82EFF24F3948C2F0E945F0DC0
:101D3000801B910B1816190634F48C2F0E945F0D2E
:101D4000801B910B07C08C2F0E945F0D9801281BF0
:101D5000390BC9018E159F0514F4DC2F7C01CF5F70
:101D6000C03319F78D2FDF91CF911F910F91FF9005
:101D7000EF9008951F920F920FB60F9211242F9398
:101D80003F934F935F936F937F938F939F93AF9303
:101D9000BF93CF93EF93FF9329B1C0919D0590918D
:101DA000CB058091C805322F309583239223892B50
:101DB00090916D00C227C923C82320939D05CC2391
:101DC000C1F1C0FF05C0E0919E05F0919F05099506
:101DD000C1FF05C0E091A005F091A1050995C2FFE2
:101DE00005C0E091A205F091A3050995C3FF05C0C8
:101DF000E091A405F091A5050995C4FF05C0E09107
:101E0000A605F091A7050995C5FF05C0E091A805B5
:101E1000F091A9050995C6FF05C0E091AA05F091CA
:101E2000AB050995C7FF05C0E091AC05F091AD0584
:101E30000995FF91EF91CF91BF91AF919F918F91B4
:101E40007F916F915F914F913F912F910F900FBEB6
:101E50000F901F9018951F920F920FB60F9211249A
:101E60002F933F934F935F936F937F938F939F93A2
:101E7000AF93BF93CF93EF93FF9326B1C091AE057D
:101E80009091CC058091C905322F30958323922300
:101E9000892B90916C00C227C923C8232093AE05DB
:101EA000CC2351F1C0FF05C0E091AF05F091B00522
:101EB0000995C1FF05C0E091B105F091B205099502
:101EC000C2FF05C0E091B305F091B4050995C3FFC9
:101ED00005C0E091B505F091B6050995C4FF05C0B0
:101EE000E091B705F091B8050995C5FF05C0E091EF
:101EF000B905F091BA050995FF91EF91CF91BF9186
:101F0000AF919F918F917F916F915F914F913F9191
:101F10002F910F900FBE0F901F9018951F920F9248
:101F20000FB60F9211242F933F934F935F936F93AC
:101F30007F938F939F93AF93BF93CF93EF93FF9331
:101F400023B1C091BB059091CD058091CA05322F78
:101F5000309583239223892B90916B00C227C9234C
:101F6000C8232093BB05CC2351F1C0FF05C0E091ED
:101F7000BC05F091BD050995C1FF05C0E091BE0506
:101F8000F091BF050995C2FF05C0E091C005F09131
:101F9000C1050995C3FF05C0E091C205F091C305D5
:101FA0000995C4FF05C0E091C405F091C5050995E8
:101FB000C5FF05C0E091C605F091C7050995FF91E1
:101FC000EF91CF91BF91AF919F918F917F916F9141
:101FD0005F914F913F912F910F900FBE0F901F90E7
:101FE00018951F920F920FB60F9211242F933F93C3
:101FF0004F935F936F937F938F939F93AF93BF9311
:10200000EF93FF93E0919B05F0919C050995FF915B
:10201000EF91BF91AF919F918F917F916F915F9160
:102020004F913F912F910F900FBE0F901F901895D9
:102030001F920F920FB60F9211242F933F934F933D
:102040005F936F937F938F939F93AF93BF93EF9320
:10205000FF93E0919905F0919A050995FF91EF9111
:10206000BF91AF919F918F917F916F915F914F91B0
:102070003F912F910F900FBE0F901F901895CF9208
:10208000DF92EF92FF920F931F93CF93DF936C0138
:102090007A018B01C0E0D0E0CE15DF0589F0D801D0
:1020A0006D918D01D601ED91FC910190F081E02DB3
:1020B000C6010995892B11F47E0102C02196ECCF4F
:1020C000C701DF91CF911F910F91FF90EF90DF90AB
:1020D000CF900895FC01918D828D981761F0828DCB
:1020E000DF01A80FB11D5D968C91928D9F5F9F734C
:1020F000928F90E008958FEF9FEF0895FC01918DEE
:10210000828D981731F0828DE80FF11D858D90E05A
:1021100008958FEF9FEF0895FC01918D228D892FF7
:1021200090E0805C9F4F821B91098F7399270895DF
:102130008EEC96E00E948C1021E0892B09F420E0BF
:10214000822F0895FC01848DDF01A80FB11DA35AD1
:10215000BF4F2C91848D90E001968F739927848FC7
:10216000A689B7892C93A089B1898C9180648C93BE
:10217000938D848D981306C00288F389E02D8081A9
:102180008F7D80830895EF92FF920F931F93CF93DB
:10219000DF93EC0181E0888F9B8D8C8D981305C0B7
:1021A000E889F989808185FD24C0F62E0B8D10E029
:1021B0000F5F1F4F0F731127E02E8C8DE8120CC09C
:1021C0000FB607FCFACFE889F989808185FFF5CF42
:1021D000CE010E94A210F1CF8B8DFE01E80FF11D00
:1021E000E35AFF4FF0820B8FEA89FB89808180627E
:1021F00007C0EE89FF896083E889F989808180645E
:10220000808381E090E0DF91CF911F910F91FF904B
:10221000EF900895CF93DF93EC01888D8823C9F068
:10222000EA89FB89808185FD05C0A889B9898C91DF
:1022300086FD0FC00FB607FCF5CF808185FFF2CF7A
:10224000A889B9898C9185FFEDCFCE010E94A2109B
:10225000E7CFDF91CF91089580E090E0892B29F0BE
:102260000E94981081110C94000008953FB7F894D3
:1022700080917B0690917C06A0917D06B0917E06B0
:1022800026B5A89B05C02F3F19F00196A11DB11DD1
:102290003FBFBA2FA92F982F8827820F911DA11D0C
:1022A000B11DBC01CD0143E0660F771F881F991F48
:1022B0004A95D1F7089585ED8093BC008091BC00CC
:1022C00084FDFCCF1092A506089540915106262F5B
:1022D00030E0240F311D21323105DCF42091A506B8
:1022E0002430C9F4FC0180E090E0861758F4309166
:1022F00051062191DC01A15DB94FA30FB11D2C93B3
:102300000196F3CF80915106680F6093510680E0EB
:10231000089581E0089582E00895089581E090E0B5
:102320003091CF052091CE05321710F480E090E077
:1023300091958195910908958091CF059091CE0551
:10234000891730F48F5F8093CF0580E090E0089587
:102350008FEF9FEF08958091CE0590E02091CF05FB
:10236000821B91090895CF92DF92EF92FF920F9313
:102370001F93CF93DF937C01262F972F8A018091A3
:10238000A606882391F0C62FD72F6E01C40ED51E46
:10239000CC15DD0571F06991D701ED91FC910190AB
:1023A000F081E02DC7010995F3CF642F822F0E94A1
:1023B0006511C801DF91CF911F910F91FF90EF90B0
:1023C000DF90CF900895CF93DF931F92CDB7DEB704
:1023D00069832091A6062223D1F02091C8062032DD
:1023E00040F021E030E0FC013383228380E090E084
:1023F00015C08091A706E82FF0E0E855F94F9981C4
:1024000090838F5F8093A7068093C80605C061E024
:10241000CE0101960E94651181E090E00F90DF915E
:10242000CF91089508952F923F924F925F926F92AD
:102430007F928F929F92AF92BF92CF92DF92EF9254
:10244000FF920F931F93CF93DF93CDB7DEB76B97B8
:102450000FB6F894DEBF0FBECDBF4C015A8349833F
:102460001F830E83FD82EC82CB82DC0158964D9156
:102470005C9159974115510509F0A5C018968D91A9
:102480009C911997681779070CF05AC11A968D918B
:102490009C911B97E981FA81E817F9070CF050C16C
:1024A000D12CCB013B81F6E03F9F800D911D112483
:1024B000181619060CF044C1C60133E0880F991FA5
:1024C0003A95E1F749815A81840F951F181619062C
:1024D0000CF036C157968C91811103C0203B08F057
:1024E0002F5F55E0259F900111247E876D875B014A
:1024F000212CC901861B970B99878887A981BA81EE
:102500001896BB87AA87B5E02B1641F0E885F985B8
:10251000EA0DFB1DE656FC4F349001C0312C69805A
:102520007A80230130FE12C0D401ED91FC91BB8171
:10253000B13031F40480F581E02D2E813F8118C047
:102540000684F785E02DEE80FF801CC0EC81FD81C4
:102550002E813F81E217F307E1F0D401ED91FC9168
:10256000BB81B13051F40480F581E02D2C813D8197
:10257000A301B501C40109950CC00684F785E02DBF
:10258000EC80FD8086019601A2016D857E85C401E7
:1025900009953694EFEF6E1A7E0A4C0C5D1C2A8565
:1025A0003B856216730609F0BDCF23943FEFA31A53
:1025B000B30A4D855E854C0D5D1D5E874D8756E0E7
:1025C0002512A1CFBDC0FA0134963491329785917E
:1025D0009491231BA7E02A9F800D911D1124FA01DD
:1025E000259134913A8B298BFC0125903490FC0184
:1025F000329634913887319644914C873196E491E4
:10260000FC013596A491319684915B81523050F053
:102610006A2E0A2E000C7708E82F082E000CFF0BFC
:10262000FB87EA87FB81CF2ED12C6C9C90016D9C9F
:10263000300D7C9C300D1124A901460F571F588B7B
:102640004F871C82A12CEA2FAA0FFF0B3B016E0EB5
:102650007F1E5885650F711DDB01AE0FBF1FBF8B3D
:10266000AE8BE981FA81E80FF11D87FDFA95F98FAC
:10267000E88F9C85A91608F063C08A2D90E04A85F2
:102680005B85480F591F4C9D90014D9D300D5C9D01
:10269000300D1124A981BA81A20FB31FBE87AD8767
:1026A0007B8E6A8E4F845888BC81B619BB8BE88DAF
:1026B000F98DE80FF91FFD8BEC8B8B89FA8D8F0F4D
:1026C0002A8D3B8D4E895F892417350799F18770D4
:1026D00041F4C1010196E989FA89E20DF31DB49034
:1026E0001C01B7FE1EC0D401ED91FC91BB81B1303D
:1026F00061F40480F581E02D2E813F814C895D8954
:102700006A8D7B8DC40109950CC00684F785E02D88
:10271000EE80FF80860196014D855E85B201C40181
:102720000995BB0CEA8DFB8D3196FB8FEA8F4C0C23
:102730005D1CC3CF5C818885580F5C83A39499CFBF
:102740006B960FB6F894DEBF0FBECDBFDF91CF9171
:102750001F910F91FF90EF90DF90CF90BF90AF90BF
:102760009F908F907F906F905F904F903F902F90B1
:102770000895AF92BF92CF92EF92FF920F931F9363
:10278000CF93DF93EC01262F888D998D009709F068
:1027900042C06A3069F42C898E859F8538E0239F7A
:1027A000800D911D11249F878E871D861C86ACC0CD
:1027B0006D3009F4A9C08E898823C1F03C898C85CD
:1027C0009D8546E0349F800D911D112448855985D3
:1027D000841795075CF01D861C868E859F85E8E032
:1027E0003E9F800D911D11249F878E87EA88FB886C
:1027F000088919894E855F856C857D85CC88CE01D9
:102800000E9413122C898C859D85F6E02F9F800DE8
:10281000911D112441C06A3079F41D861C862C89D3
:10282000FC013696E4918E859F852E9F800D911D2B
:1028300011249F878E8768C06D3009F465C0AC0194
:102840004C5F5F4FFA013491631708F45DC0319615
:10285000E491E61708F458C0FA014491362F341B6E
:10286000FC013296A590B490F7E03F9FA00CB11CFC
:102870001124F501329634913196E491332311F00D
:10288000E1110DC0F5013496E4912C898C859D856C
:10289000E29F800D911D11249D878C8735C0F50125
:1028A000359644915E89552311F16C89E32FF0E050
:1028B000E40FF11D47FDFA956E9FD0016F9FB00D9B
:1028C00011244C855D854A0F5B1FE885F9854E17FD
:1028D0005F076CF01D861C86FC013696E4918E85A0
:1028E0009F856E9F800D911D11249F878E87EA889A
:1028F000FB88088919894E855F856C857D85CC8824
:10290000CE010E941312BECF81E090E0DF91CF9103
:102910001F910F91FF90EF90CF90BF90AF900895CF
:10292000EF92FF920F931F93DC01ED91FC911197B1
:102930001A960D911C911B9718962D913C91199701
:102940000684F785E02D7B0140E050E060E070E018
:1029500009951F910F91FF90EF9008950E94FE231B
:102960001F920F920FB60F9211242F933F934F9304
:102970005F936F937F938F939F93AF93BF93EF93E7
:10298000FF938EEC96E00E94A210FF91EF91BF9111
:10299000AF919F918F917F916F915F914F913F91F7
:1029A0002F910F900FBE0F901F9018951F920F92AE
:1029B0000FB60F9211242F938F939F93EF93FF9352
:1029C000E091DE06F091DF068081E091E406F0916F
:1029D000E50682FD12C090818091E7068F5F8F73BC
:1029E0002091E806821751F0E091E706F0E0E2530B
:1029F000F94F958F8093E70601C08081FF91EF9199
:102A00009F918F912F910F900FBE0F901F9018954F
:102A1000833081F028F4813099F08230A1F008955C
:102A20008730A9F08830B9F08430D1F480918000EB
:102A30008F7D03C0809180008F7780938000089500
:102A400084B58F7702C084B58F7D84BD0895809151
:102A5000B0008F7703C08091B0008F7D8093B0006D
:102A600008951F93CF93DF93282F30E0F901E453AB
:102A7000F74F8491F901E854F74FD491F901EC55DF
:102A8000F74FC491CC23C9F0162F81110E9408156D
:102A9000EC2FF0E0EE0FFF1FE452FD4FA591B49133
:102AA0008FB7F894111105C09C91ED2FE095E923A3
:102AB00002C0EC91ED2BEC938FBFDF91CF911F9172
:102AC0000895CF93DF9390E0FC01E854F74F2491F1
:102AD000FC01EC55F74F8491882361F190E0880F59
:102AE000991FFC01EE52FD4FC591D491FC01E452B7
:102AF000FD4FA591B491611109C09FB7F8948881E9
:102B0000209582238883EC912E230BC0623061F4E0
:102B10009FB7F8943881822F809583238883EC9126
:102B20002E2B2C939FBF06C08FB7F894E8812E2BD5
:102B300028838FBFDF91CF9108958F929F92AF929C
:102B4000BF92CF92DF92EF92FF926B017C010E94C5
:102B500036114B015C01C114D104E104F104F1F020
:102B60000E943611DC01CB0188199909AA09BB0919
:102B7000883E9340A105B10570F321E0C21AD10847
:102B8000E108F10888EE880E83E0981EA11CB11CB4
:102B9000C114D104E104F10419F7DDCFFF90EF90E7
:102BA000DF90CF90BF90AF909F908F9008952FB7F8
:102BB000F8946091770670917806809179069091EB
:102BC0007A062FBF08951F920F920FB60F9211240D
:102BD0002F933F938F939F93AF93BF9380917706EB
:102BE00090917806A0917906B0917A063091760698
:102BF00026E0230F2D3720F40296A11DB11D05C03C
:102C000029E8230F0396A11DB11D2093760680931A
:102C1000770690937806A0937906B0937A06809110
:102C20007B0690917C06A0917D06B0917E06019670
:102C3000A11DB11D80937B0690937C06A0937D0619
:102C4000B0937E06BF91AF919F918F913F912F914D
:102C50000F900FBE0F901F9018951F920F920FB6F6
:102C60000F9211242F933F934F935F936F937F9312
:102C70008F939F93AF93BF93EF93FF938091B9008E
:102C8000887F803609F49CC068F5883209F45BC0FF
:102C900090F4803109F454C038F4882309F4F6C064
:102CA000883009F44DC0F6C0883109F44CC0803238
:102CB00009F45DC0EFC0803409F468C048F4803383
:102CC00009F455C0883309F0E5C08093A306D8C045
:102CD000803509F44FC0883509F45DC0883409F0A7
:102CE000D9C0D6C0883909F4C7C0A8F4883709F418
:102CF00067C038F4883609F463C0803709F460C0CF
:102D0000C9C0883809F4B8C0803909F45FC0803878
:102D100009F0C0C05BC0803B09F486C038F4803A3B
:102D200009F466C0883A09F47FC0B4C0803C09F455
:102D3000A7C0883C09F4A4C0883B09F48AC0AAC093
:102D40008091800610C09091A2068091A1069817EC
:102D500070F5E091A20681E08E0F8093A206F0E06C
:102D6000EF57F94F80818093BB0085EC86C080933C
:102D7000A3068EC0E091A20681E08E0F8093A2068A
:102D80008091BB00F0E0EF57F94F80839091A2064D
:102D90008091A1066EC0E091A20681E08E0F809323
:102DA000A2068091BB00F0E0EF57F94F808380913D
:102DB000A40681116DC081E080937F0684EA61C022
:102DC00083E08093A50610927506CFCF809175069B
:102DD000803208F051C0E091750681E08E0F80933B
:102DE00075068091BB00F0E0EB5AF94F8083BDCFB0
:102DF00085EC8093BC001092A50680917506803208
:102E000030F4E0917506F0E0EB5AF94F10826091D2
:102E1000750670E0E0915306F091540685E596E062
:102E200009951092750636C084E08093A50610922D
:102E3000520610925106E0914F06F0915006099506
:102E400080915106811105C081E080935106109256
:102E50002F06E091520681E08E0F80935206F0E03B
:102E6000E15DF94F80818093BB0090915206809183
:102E70005106981708F479CF85E88093BC000AC002
:102E800085EC8093BC001092A50604C01092A306A6
:102E90000E945B11FF91EF91BF91AF919F918F9134
:102EA0007F916F915F914F913F912F910F900FBE46
:102EB0000F901F9018952091C8069091AB07213272
:102EC00008F04AC08091A5068111FCCF32E0309312
:102ED000A50631E03093A4063FEF3093A30610928D
:102EE000A2062093A106A8EAB6E041E856E0FA015E
:102EF0003E2F341B321718F43D913193F9CF1092C5
:102F0000800620918006990F922B909380069091D5
:102F10007F06913061F410927F0690918006909325
:102F2000BB009091BC0093FDF8CF95EC01C095EEED
:102F30009093BC009091A5069230E1F39091A30686
:102F40009F3F79F08091A306803241F08091A306E3
:102F5000803331F084E005C081E003C082E001C02D
:102F600083E01092A7061092C8061092A606089554
:102F700090919E07992339F08EBD00000DB407FE95
:102F8000FDCF8EB5089528E030E040E8E091A1073C
:102F9000F091A20750819091A80790959523908376
:102FA000E0919F07F091A0079091A707542F582315
:102FB00019F05081952B03C05081909595239083F3
:102FC000E091A107F091A20750819091A807952B5D
:102FD0009083469521503109C9F60895CF93DF9328
:102FE000C7E7D7E060E088810E94311560E08C81FE
:102FF0000E94311561E088810E94311560E088816E
:10300000DF91CF910C943115CF93DF93C7E7D7E0D1
:1030100060E088810E94311561E08C810E94311549
:1030200061E088810E94311560E08881DF91CF9155
:103030000C943115CF93DF93E1EDF8E08491EDEB43
:10304000F8E0D491E9EAF8E0C491CC2391F0811141
:103050000E940815EC2FF0E0EE0FFF1FE656F74F29
:10306000A591B491EC91ED2381E090E021F480E012
:1030700002C080E090E0DF91CF910895CF92DF927F
:10308000EF92FF92C090CA06D090CB06E090CC069B
:10309000F090CD06C114D104E104F10479F00E944E
:1030A000D715DC01CB018C199D09AE09BF098E35FE
:1030B0009140A105B10510F480E00DC01092CA0640
:1030C0001092CB061092CC061092CD068091C906C4
:1030D00081111092C906FF90EF90DF90CF90089574
:1030E00080E094E0E2E0F1E0DF019C011D922150DC
:1030F0003040E1F70895CF93C82F809199078F3F13
:1031000059F1E091A307F091A40780819091A9075C
:10311000982B9083E091A507F091A60720819091CC
:10312000AA07909592239083E091A307F091A407BA
:1031300020819091A9079095922390838C2F0E94D3
:10314000B817E091A307F091A40790818091A90797
:10315000892B8083CF9108958091970791E0909378
:10316000A6068093AB071092A7061092C80660E0EF
:103170008BE697E00E94E3116C2F8BE697E00E94AC
:10318000E311CF910C945B17EF92FF920F931F9373
:10319000CF93DF9381E20E947B1880E00E947B182E
:1031A0008FE70E947B1882E20E947B1880E00E94D9
:1031B0007B1887E00E947B18809199078F3F79F1F7
:1031C000E091A307F091A40790818091A907892B32
:1031D0008083E091A507F091A60790818091AA07CE
:1031E000892B8083E091A307F091A40790818091BF
:1031F000A907809589238083C2E0D1E089910E944C
:10320000B81785E0C230D807C9F7E091A307F0915D
:10321000A40790818091A907892B808330C0F0900A
:10322000B8008CE08093B800C2E0D1E0EE24E394D3
:1032300080919707E092A6068093AB071092A706AD
:103240001092C80660E48BE697E00E94E31100E06C
:1032500010E0FE01E00FF11F60818BE697E00E9415
:10326000E3110F5F1F4F0031110599F70E945B17A3
:10327000609685E0C230D807D9F6F092B800DF91A9
:10328000CF911F910F91FF90EF9008951F93CF93CF
:10329000DF938F5D91409C01369527952F71EC014E
:1032A00056E0D695C7955A95E1F7D695DC2FCC27F1
:1032B000D795C795C22B61E0809179070E9431159F
:1032C00060E0809179070E9431150E9404180E94E5
:1032D000EE170E94EE170E94EE170E94041810E1EC
:1032E000C0FF03C00E94041802C00E94EE17D695CA
:1032F000C7951150A9F70E94EE170E94EE170E9481
:10330000EE170E94EE1761E0809179070E94311557
:1033100060E0809179070E94311560E08091770725
:103320000E94311560E080917B07DF91CF911F9162
:103330000C943115009769F0FC0101900020E9F729
:103340003197AF01481B590BBC018DE797E00C94F6
:103350003F1080E090E008958F929F92AF92BF92CD
:103360000F931F93CF93DF93CDB7DEB7A1970FB61F
:10337000F894DEBF0FBECDBF19A2423008F44AE078
:103380008E010F5D1F4F842E912CA12CB12CA50115
:1033900094010E94AE24E62FB901CA01015011091F
:1033A000EA3014F4E05D01C0E95CD801EC93232B12
:1033B000242B252B61F7C8010E949A19A1960FB6FC
:1033C000F894DEBF0FBECDBFDF91CF911F910F915B
:1033D000BF90AF909F908F9008950F931F93CF93BE
:1033E000DF938C01C0E0D0E0F801EC0FFD1F649189
:1033F000662371F0E0917D07F0917E070190F081E6
:10340000E02D8DE797E00995892B11F02196ECCFFF
:10341000CE01DF91CF911F910F910895CF93DF934C
:10342000EC0161E086E00E946115209711F460E0F4
:1034300004C0CF3FD10531F461E086E0DF91CF9148
:103440000C943115E2EDF8E0E491E330F9F048F442
:10345000E130B9F0E230A1F584B5806284BDC8BD29
:1034600034C0E730E9F0E83019F1E43049F58091F3
:103470008000806280938000D0938B00C0938A008C
:1034800024C084B5806884BDC7BD1FC08091800002
:10349000806880938000D0938900C093880015C015
:1034A0008091B00080688093B000C093B3000DC0DD
:1034B0008091B00080628093B000C093B40005C0DA
:1034C000C038D1050CF0B8CFB2CFDF91CF910895BD
:1034D000CF93DF9300D0CDB7DEB7789484B5826008
:1034E00084BD84B5816084BD85B5826085BD85B5A8
:1034F000816085BD80916E00816080936E00109226
:1035000081008091810082608093810080918100A0
:103510008160809381008091800081608093800031
:103520008091B10084608093B1008091B00081608F
:103530008093B00080917A00846080937A008091BB
:103540007A00826080937A0080917A008E7F8093E7
:103550007A0080917A00806880937A001092C1008E
:1035600061E08DE00E94611561E08DE00E943115FF
:1035700062E085E00E946115EDEBF8E08491E9EAF4
:10358000F8E09491923059F42091CD05282B2093A6
:10359000CD052091CA05282B2093CA0519C0933068
:1035A00059F42091CC05282B2093CC052091C905F6
:1035B000282B2093C9050CC0943051F42091CB05E1
:1035C000282B2093CB052091C805282B2093C805D4
:1035D000E3ECF2E0A4919230D1F4B0E0AA0FBB1F6B
:1035E000A454BA4F24EC39E02D933C93EEE9F8E073
:1035F000A591B4919C919093BB052BE630E030935C
:1036000014062093130690916800916037C09330A0
:10361000D1F4B0E0AA0FBB1FA155BA4F24EC39E09A
:103620002D933C93E0EAF8E0A591B4919C9190939E
:10363000AE052CE630E030931406209313069091EB
:10364000680092601BC09430D9F4B0E0AA0FBB1F91
:10365000A256BA4F24EC39E02D933C93E2EAF8E00D
:10366000A591B4919C9190939D052DE630E0309307
:10367000140620931306909168009460909368005C
:10368000A0911306B0911406EC918E2B8C9361E0FF
:1036900086E00E9461158EE090E00E946624803FE3
:1036A000C9F480E090E00E9466248093120605E051
:1036B00016E0EE24E394F12CC7010E946624F80181
:1036C00081938F01FFEFEF1AFF0A2EE0E216F1045B
:1036D00099F709C0809111068111F0C588E08093A7
:1036E00012060E94630A809112060E945F0D0E94DA
:1036F000461982E0809398078CE380939707809126
:1037000099078F3F09F4BDC061E080919B070E943B
:10371000611561E080919D070E94611580919D0770
:10372000082E000C990BFC01EC55F74FE491F0E0EA
:10373000EE0FFF1FE452FD4F259134913093A40703
:103740002093A307FC01E854F74FE491E093A90705
:1037500080919B07082E000C990BFC01EC55F74F4C
:10376000E491F0E0EE0FFF1FE452FD4F25913491FC
:103770003093A6072093A507FC01E854F74FE49186
:10378000E093AA0780919E0781113EC061E080917D
:1037900099070E94611561E080919A070E94611566
:1037A00080919A07082E000C990BFC01EC55F74FFD
:1037B000E491F0E0EE0FFF1FE452FD4F25913491AC
:1037C0003093A2072093A107FC01E854F74FE4913E
:1037D000E093A80780919907082E000C990BFC0133
:1037E000EC55F74FE491F0E0EE0FFF1FE452FD4F70
:1037F000259134913093A00720939F07FC01E85452
:10380000F74FE491E093A70780919E07882309F47E
:103810005FC01FB7F89480911506811127C0EEEAAA
:10382000F8E08491E2ECF8E09491E82FF0E0EE0FFC
:10383000FF1FEE52FD4FA591B491EC91E92321F4C5
:1038400061E08AE00E94311561E08AE00E94611522
:103850008CB580618CBD8CB580648CBD61E08DE0E1
:103860000E94611561E08BE00E9461158091150650
:103870008F5F809315061FBF80E58CBD81E08DBDF5
:1038800027C01092CF051092CE051092A706109275
:10389000C8061092A50681E08093A40610927F06C8
:1038A00061E082E10E94311561E083E10E943115FF
:1038B0008091B9008E7F8093B9008091B9008D7F8F
:1038C0008093B90080E28093B80085E48093BC00C7
:1038D00080919C0787FD1EC061E00E94611561E038
:1038E00080919C070E94311561E070E080E090E0DB
:1038F0000E949D1560E080919C070E9431156AE04E
:1039000070E080E090E00E949D1561E080919C074E
:103910000E9431158EEA0E947B1885ED0E947B186B
:1039200080E80E947B1888EA0E947B188FE30E943F
:103930007B1883ED0E947B1880E00E947B1880E456
:103940000E947B188DE80E947B1884E10E947B18FE
:1039500080E20E947B1880E00E947B1881EA0E942E
:103960007B1888EC0E947B188AED0E947B1882E10C
:103970000E947B1881E80E947B188FEC0E947B18C4
:1039800089ED0E947B1881EF0E947B188BED0E94CD
:103990007B1880E40E947B1884EA0E947B1886EAE8
:1039A0000E947B188EE20E947B188FEA0E947B188F
:1039B0000E94701880910506882399F082E0809318
:1039C0009207809181079091820790938607809358
:1039D000850780918307909184079093880780934F
:1039E00087070E94C4180E941A18892BD9F40E94D4
:1039F000A90B0E943E0D80910506882399F082E074
:103A00008093920780918107909182079093860717
:103A1000809385078091830790918407909388070E
:103A20008093870780910A06882309F4A2C00E9428
:103A30007018EE24E394F12C00E010E02FE730E062
:103A400040E050E060E070E08DE797E00E944C05B8
:103A500081E090E09093900780938F0790938E077A
:103A600080938D0790938A078093890784E090E084
:103A700090938C0780938B0783E08093910782E07B
:103A800093E00E94ED190BE110E02FE730E04BE1ED
:103A900050E060E070E08DE797E00E944C058FE019
:103AA00090E090938A078093890783E290E0909357
:103AB0008C0780938B0781E08093910781EF92E0E0
:103AC0000E94ED1981E290E090938A078093890724
:103AD00082E390E090938C0780938B0786EE92E0D0
:103AE0000E94ED190E94C41818EC0E941A18892B24
:103AF00009F43FC06AE070E080E090E00E949D150C
:103B0000115099F71FE1712E00E8C02ED12CE12C45
:103B1000F12C80E4882E912CA12CB12C7A94772062
:103B200021F10E941A18892B21F10BEF10E00150AE
:103B30001109C1F00E945824A70196010E947C241B
:103B4000662E0E945824A50194010E947C24462FD1
:103B500050E0662D70E020E030E08DE797E00E94B5
:103B6000AC08E5CF0E94C418D9CF0E9470180E94FB
:103B7000C4180E94D715DC01CB01805F984DAF4F70
:103B8000BF4F8093260690932706A0932806B093F4
:103B90002906EEE0CE2ED12CF0E22F2E312CA9E218
:103BA000AA2EB12CBBE48B2E912C0E943E18809340
:103BB0002E06823009F481C2833041F0813009F051
:103BC000A4C2109112069091110671C2512C772453
:103BD0007394E12CF12C0EE210E02EE630E049E087
:103BE00050E069E070E08DE797E00E949B04EE24CE
:103BF000E394F12C0CE210E02CE630E04AE050E0D7
:103C00006AE070E08DE797E00E94FD0470929107F2
:103C1000D0928A07C0928907D0928C07C0928B07F6
:103C200001E0511000E081E090E0511002C080E01E
:103C300090E090938E0780938D07802F90E0909373
:103C4000900780938F0780E493E00E94ED19D09253
:103C50008A07C092890787E190E090938C07809350
:103C60008B0781E090E0E1E05E1202C080E090E02E
:103C700090938E0780938D0781E090E0F1E05F16CE
:103C800011F080E090E09093900780938F078EE290
:103C900093E00E94ED19D0928A07C0928907309272
:103CA0008C0720928B0781E090E022E0521202C044
:103CB00080E090E090938E0780938D0781E090E004
:103CC000E2E05E1611F080E090E090939007809320
:103CD0008F078CE193E00E94ED19D0928A07C09281
:103CE0008907B0928C07A0928B0711E0F3E05F1276
:103CF00010E081E090E023E0521202C080E090E00A
:103D000090938E0780938D07812F90E0909390077A
:103D100080938F078AE093E00E94ED190E94C418F7
:103D20000E943E18813021F41111CAC2539451CF20
:103D3000823021F40111C6C25A944BCF833009F06E
:103D400048CF92E0591609F4CFC0E3E05E1609F4BB
:103D500087C1F1E05F12D9C1809112060E945F0D08
:103D60003C010E947018EE24E394F12C07E310E06C
:103D70002FE730E047E350E060E070E08DE797E048
:103D80000E944C0581E090E09093900780938F070C
:103D900090938E0780938D075092910710928A0717
:103DA0001092890789E390E090938C0780938B07AA
:103DB00080911106882319F088E693E002C082E51D
:103DC00093E00E94ED1960E080E00E942E0A9301CA
:103DD0000AE010E049E3E42E47E1F42E54E6452ED4
:103DE00029833A830E941A185090110629813A813A
:103DF000892B09F442C0511003C083E090E002C057
:103E000086E090E0280F391F2A3387E1380738F021
:103E1000511003C02DE036E102C021EE34E1C901AA
:103E200029833A830E94461969E170E080E090E0BE
:103E30000E949D1584E10E94770A8C589109B8016F
:103E40000E944822462F29813A81C701821B930B89
:103E5000511003C063E070E002C066E070E00E94B1
:103E60004822862F642F942D981B892F29833A830B
:103E70000E942E0A3A812981B3CF511003C08CE0F1
:103E800090E002C088E190E0A901481B590B00E0D6
:103E900010E0F12C2F2D30E0511003C08CE090E0A9
:103EA00002C088E190E028173907CCF4CA014983A1
:103EB0005A830E94461969E170E080E090E00E9418
:103EC0009D1584E10E94770A49815A8108171907D4
:103ED00010F43A018C01F3944E5F5F4FDBCFC301C6
:103EE0000E944619C301A4C089830E94701821E072
:103EF00030E03093900720938F0730938E07209304
:103F00008D072AE030E030938A07209389071092CA
:103F10008C0710928B0789818093910785E993E044
:103F20000E94ED1990928A078092890787E090E0BD
:103F300090938C0780938B075092910780E993E0D0
:103F40000E94ED19EE24E394F12C08E110E02FE734
:103F500030E048E150E060E070E08DE797E00E94DB
:103F60004C0510928A07109289078BE190E090939C
:103F70008C0780938B0781E0809391078EE793E015
:103F80000E94ED190E94450C0E94C41880911206EF
:103F90000E945F0DF0901106F11003C023E030E0A5
:103FA00002C026E030E02901480E591E40FC03C043
:103FB000EFEF4E1A5E0A82019CE3E92E612C712C10
:103FC000FF2009F4D9C10433F7E11F0708F0D1C17C
:103FD00086E090E0080F191FC8010E94461969E1A8
:103FE00070E080E090E00E949D1584E10E94770AD5
:103FF0006816790610F428013C01EA94E11099C191
:10400000F1109CC18CE090E08201081B190B612C1F
:10401000712CE12C2E2D30E0F11093C18CE090E05A
:10402000281739070CF490C1C2010E944619C20139
:104030000E94820E8093120660E070E00E946C0D78
:104040000E94D715DC01CB014996A11DB11D8093BB
:104050002A0690932B06A0932C06B0932D0655C0EC
:104060000E94A90B0E943E0D80910506882309F449
:104070004CC082E0809392078091810790918207E3
:10408000909386078093850780918307909184079A
:10409000909388078093870738C091110CC018E06F
:1040A000E12FF0E0E053FA4F80818F3F11F51F328E
:1040B000A0F71F5FF5CF10E0F3CF1091120620910B
:1040C0001106103370F4412F50E0211103C088E035
:1040D00090E002C080E090E04817590711F01150BD
:1040E00001C01FE2E12FF0E0E053FA4F80818F3FE3
:1040F00041F310931206812F0E945F0D0E94461912
:1041000060E070E0812F0E946C0D80912E06882364
:1041100081F00E94D715DC01CB01805F984DAF4F35
:10412000BF4F8093260690932706A0932806B0934E
:1041300029060E94D71500912A0610912B0620917E
:104140002C0630912D060617170728073907E0F4CB
:1041500080910B06882309F4B8C040902606509041
:10416000270660902806709029060E94D7154616EB
:1041700057066806790608F0A8C00E9470180E94C9
:10418000C41881E080930006909112068091230666
:10419000981781F00E94D71500911F0610912006F4
:1041A00020912106309122060617170728073907A4
:1041B00008F4A8C00E94D71500911B0610911C0698
:1041C00020911D0630911E0606171707280739078C
:1041D000B8F481E090910101911180E08093010198
:1041E0000E94D715DC01CB018C509E4FAF4FBF4FC3
:1041F00080931B0690931C06A0931D06B0931E0689
:10420000609101018DE00E9431158091060688239E
:1042100009F44DC0E0900306F0900406E114F104A7
:1042200009F445C00E94D715009117061091180691
:104230002091190630911A06061717072807390723
:10424000D0F581E090911606911180E080931606DA
:104250008823A1F081E090E00090070602C0880F5B
:10426000991F0A94E2F70E940E1A0E94D715DC01EA
:10427000CB018E0D9F1DA11DB11D10C080E090E0EF
:104280000E940E1A0E94D715209101063091020655
:10429000DC01CB01820F931FA11DB11D8093170676
:1042A00090931806A0931906B0931A0604C080E0F4
:1042B00090E00E940E1A0E942C1177CC80E00FCA69
:1042C000512C87CC83E0582E84CC84E10E94770A5D
:1042D0009093250680932406BC01809112060E94CB
:1042E0006C0D0E94D715DC01CB0188519C4FAF4F5C
:1042F000BF4F80932A0690932B06A0932C06B09371
:104300002D0642CF0E943E0D809112068093230617
:104310000E94D715DC01CB01805F984DAF4FBF4F96
:1043200080931F0690932006A0932106B093220647
:1043300041CF8A3F910508F443CE62CE88E190E0F8
:1043400063CE88E190E06CCEC8010E94461969E115
:1043500070E080E090E00E949D1584E10E94770A61
:104360006816790610F428013C01E3940E5F1F4F94
:1043700051CE01EE14E130CE073327E1120718F4D5
:1043800083E090E027CE0DE016E126CECF93DF93B9
:10439000EEECF6E01382128288EE93E0A0E0B0E04B
:1043A00084839583A683B7832AE135E03183208314
:1043B00025EC30E03587248724EC30E037872687EA
:1043C00020EC30E0318B208B21EC30E0338B228BE2
:1043D00022EC30E0358B248B26EC30E0378B268BBB
:1043E000118E128E138E148EEBE6F7E0138212827A
:1043F00084839583A683B7838AE295E09183808343
:10440000EDE7F7E01382128220E830E03583248361
:1044100080E490E097838683318720879387828723
:10442000158A158614861786168681E0848B2FEFF1
:104430003FEF338B228B318B208B868B178A118E2B
:10444000108E8AE395E0918380838FEF848F80A321
:10445000868F858F84E0878FC7E7D7E082E090E082
:104460009983888383E090E09B838A8384E090E053
:104470009D838C8361E083E00E94611561E08C8103
:104480000E94611561E08881DF91CF910C946115E4
:10449000AA1BBB1B51E107C0AA1FBB1FA617B7076A
:1044A00010F0A61BB70B881F991F5A95A9F7809586
:1044B0009095BC01CD010895EE0FFF1F0590F4917A
:1044C000E02D09940E9476220C9457230E945023D9
:1044D00058F00E94492340F029F45F3F29F00C94E2
:1044E000402351110C948B230C9446230E94682383
:1044F00068F39923B1F3552391F3951B550BBB2713
:10450000AA2762177307840738F09F5F5F4F220F57
:10451000331F441FAA1FA9F335D00E2E3AF0E0E84E
:1045200032D091505040E695001CCAF72BD0FE2F98
:1045300029D0660F771F881FBB1F2617370748072C
:10454000AB07B0E809F0BB0B802DBF01FF279358E4
:104550005F4F3AF09E3F510578F00C9440230C9445
:104560008B235F3FE4F3983ED4F386957795679568
:10457000B795F7959F5FC9F7880F911D9695879519
:1045800097F90895E1E0660F771F881FBB1F621738
:1045900073078407BA0720F0621B730B840BBA0BF6
:1045A000EE1F88F7E09508950E94702388F09F57CA
:1045B00098F0B92F9927B751B0F0E1F0660F771F47
:1045C000881F991F1AF0BA95C9F714C0B13091F03D
:1045D0000E948A23B1E008950C948A23672F782FD4
:1045E0008827B85F39F0B93FCCF386957795679502
:1045F000B395D9F73EF490958095709561957F4F6E
:104600008F4F9F4F0895E89409C097FB3EF4909513
:104610008095709561957F4F8F4F9F4F9923A9F09B
:10462000F92F96E9BB279395F6958795779567952A
:10463000B795F111F8CFFAF4BB0F11F460FF1BC06E
:104640006F5F7F4F8F4F9F4F16C0882311F096E901
:1046500011C0772321F09EE8872F762F05C06623AF
:1046600071F096E8862F70E060E02AF09A95660F68
:10467000771F881FDAF7880F9695879597F9089521
:1046800097F99F6780E870E060E008959FEF80EC05
:10469000089500240A9416161706180609060895A8
:1046A00000240A9412161306140605060895092E0E
:1046B0000394000C11F4882352F0BB0F40F4BF2B7D
:1046C00011F460FF04C06F5F7F4F8F4F9F4F0895BD
:1046D00057FD9058440F551F59F05F3F71F04795B3
:1046E000880F97FB991F61F09F3F79F08795089598
:1046F000121613061406551FF2CF4695F1DF08C0B7
:10470000161617061806991FF1CF869571056105D3
:1047100008940895E894BB2766277727CB0197F97B
:1047200008950E94A4230C9457230E94492338F033
:104730000E94502320F0952311F00C9440230C94F8
:10474000462311240C948B230E94682370F3959FB9
:10475000C1F3950F50E0551F629FF001729FBB2778
:10476000F00DB11D639FAA27F00DB11DAA1F649F14
:104770006627B00DA11D661F829F2227B00DA11DC7
:10478000621F739FB00DA11D621F839FA00D611D4D
:10479000221F749F3327A00D611D231F849F600D6E
:1047A000211D822F762F6A2F11249F5750409AF097
:1047B000F1F088234AF0EE0FFF1FBB1F661F771F23
:1047C000881F91505040A9F79E3F510580F00C94EE
:1047D00040230C948B235F3FE4F3983ED4F38695FB
:1047E00077956795B795F795E7959F5FC1F7FE2B8E
:1047F000880F911D9695879597F9089581E090E02F
:10480000F8940C94DF24FB01DC0101900D92002050
:10481000E1F708958F929F92AF92BF92CF92DF926D
:10482000EF92FF92CF93DF93EC01688179818A81C7
:104830009B81611571058105910521F464E279ED93
:104840008BE597E02DE133EF41E050E00E947C24BE
:1048500049015A019B01AC01A7EAB1E40E949B24E3
:104860006B017C01ACEEB4EFA50194010E94A92478
:10487000DC01CB018C0D9D1DAE1DBF1DB7FF03C01C
:104880000197A109B04888839983AA83BB83BC019F
:10489000CD019F77DF91CF91FF90EF90DF90CF9088
:1048A000BF90AF909F908F9008950E940A24089522
:1048B00082E095E00E940A240895609302057093B7
:1048C000030580930405909305050895F999FECF9B
:1048D00092BD81BDF89A992780B50895262FF99940
:1048E000FECF1FBA92BD81BD20BD0FB6F894FA9AD3
:1048F000F99A0FBE01960895052E97FB1EF40094B9
:104900000E94932457FD07D00E94AE2407FC03D0D9
:104910004EF40C94932450954095309521953F4F3B
:104920004F4F5F4F089590958095709561957F4F9B
:104930008F4F9F4F08950E94D024A59F900DB49F44
:10494000900DA49F800D911D11240895B7FF0C9424
:104950009B240E949B24821B930B0895A1E21A2E94
:10496000AA1BBB1BFD010DC0AA1FBB1FEE1FFF1F13
:10497000A217B307E407F50720F0A21BB30BE40B63
:10498000F50B661F771F881F991F1A9469F76095AA
:104990007095809590959B01AC01BD01CF01089564
:1049A000A29FB001B39FC001A39F700D811D112470
:1049B000911DB29F700D811D1124911D0895F894D1
:0249C000FFCF27
:1049C2000E01FFFFFFFFFFFFFFFFFFFFFFFFFFFFE4
:1049D200FFFFFFFFFFFFFFFFFFFFFFFFFFFFFFFFE5
:1049E200FFFFFFFFFFFFFFFFFFFFFFFFFFFFFFFFD5
:1049F200FFFFFFFFFFFFFFFFFFFFFFFFFFFFFFFFC5
:104A0200FFFFFFFFFFFFFFFFFFFFFFFFFFFFFFFFB4
:104A1200FFFFFFFFFFFFFFFFFFFFFFFFFFFFFFFFA4
:104A2200FFFFFFFFFFFFFFFFFFFFFFFFFFFFFFFF94
:104A3200FFFFFFFFFFFFFFFFFFFFFFFFFFFFFFFF84
:104A4200FFFFFFFFFFFFFFFF7F3F3F3F3F3F3F3F34
:104A52003F3F3F3F3F3FFFFFBF3F3F3F3F7F7FFF24
:104A6200FF7F7F3F3FBFFFFF7F3F3F3F3F3F3F3FD4
:104A72003F3F3F3F3F3F3F3FFFFF3F3FFFFFFFFFC4
:104A8200FFFFFFFFFFFFFFFFFFFFFF7F3F3F3F3FB4
:104A92003F3F3F3F3F3F3F3F3F3F3F7FFFFF3F3F64
:104AA2003F3F3F3F3F3F3F3F3F3F3F3F3F3F3F7FD4
:104AB200FFFFFFFFFF3F3F3F3FFFFFFFFFFFFFFF04
:104AC200FFFFFFFFFFFFFFFFF0E0E2E7E7E7E7E7B7
:104AD200E7E7E7E7E7E7FFFFFFFFFFFEE2E1E1E0ED
:104AE200E0FEFEFFFFFFFFFFF0E0E0E2E7E7E7E7BF
:104AF200E7E7E7E7E7E7E7E7FFFFE0E0E7E7E7E722
:104B0200E7E7E7E7E7E7E7E7E7FFFFF0E0E2E7E706
:104B1200E7E7E7E7E7E7E7E7E7E2E0F0FFFFE0E004
:104B2200E0FFF9F9F9F9F9F9F9F9F9F9F9F8F8FC05
:104B3200FFFFF8F8F8E0E0E0E0F8F8F8FFFFFFFF29
:104B4200FFFFFFFFFFFFFFFFFFFF7F7F7F7F7F7F73
:104B52007F7F7F7F7F7F7F7F7F7F7F7F7F7F7F7F63
:104B62007F7F7F7F7F7F7F7F7F7F7F7F7F7F7F7F53
:104B72007F7F7F7F7F7F7F7F7F7F7F7F7F7F7F7F43
:104B82007F7F7F7F7F7F7F7F7F7F7F7F7F7F7F7F33
:104B92007F7F7F7F7F7F7F7F7F7F7F7F7F7F7F7F23
:104BA2007F7F7F7F7F7F7F7F7F7F7F7F7F7F7F7F13
:104BB2007F7F7F7F7F7F7F7F7F7F7FFFFFFFFFFF83
:104BC200FFFFFFFFFFFFFFFFFFFFFEFEFEFEFEFEF9
:104BD200FEFEFEFEFEFEFEFEFEFEFEFEFEFEFEFEF3
:104BE200FEFEFEFEFEFEFEFEFEFEFEFEFEFEFEFEE3
:104BF200FEFEFEFEFEFEFEFEFEFEFEFEFEFEFEFED3
:104C0200FEFEFEFEFEFEFEFEFEFEFEFEFEFEFEFEC2
:104C1200FEFEFEFEFEFEFEFEFEFEFEFEFEFEFEFEB2
:104C2200FEFEFEFEFEFEFEFEFEFEFEFEFEFEFEFEA2
:104C3200FEFEFEFEFEFEFEFEFEFEFEFFFFFFFFFF8D
:104C4200FFFFFFFFFFFFFFFFFF070707A7A7A7A7BA
:104C5200A7A707474FFFF7E7E7C7472F2F1F1FCF2A
:104C6200CFE7E7F7FFFFFFFFFFFF070707BFBF071A
:104C7200E7E7E7E7E7E7FFFF070707A7A7A7A7A772
:104C8200A7A7E7E7FFFF070707A7A72727A7A7A762
:104C9200A7CFFFFF070707E7CF9F3F7FFF07070762
:104CA200FFFF0707A7A7A7A7A7A7A7A7E7E7FFFFF2
:104CB200070707E7CF9F3F7FFF070707FFFFFFFFBA
:104CC200FFFFFFFFFFFFFFFFFFFCFCFCFCFCFCFC07
:104CD200FCFCFCFCFEFFFFFFFFFFFCFCFCFCFCFFFE
:104CE200FFFFFFFFFFFFFFFFFFFFFCFCFCFFFFFCDE
:104CF200FCFCFCFCFCFCFFFFFCFCFCFCFCFCFCFCEC
:104D0200FCFCFCFCFFFFFCFCFCFFFFFCFCFCFCFCD5
:104D1200FCFCFFFFFCFCFCFFFFFFFFFEFCFCFCFCBD
:104D2200FFFFFCFCFCFCFCFCFCFCFCFCFCFCFFFFB5
:104D3200FCFCFCFFFFFFFFFEFCFCFCFCFFFFFFFF97
:104D4200FFFFFFFFFFFFFFFFFFFFFFFFFFFFFFFF71
:104D5200FFFFFFFFFFFFFFFFFFFFFFFFFFFFFFFF61
:104D6200FFFFFFFFFFFFFFFFFFFFFFFFFFFFFFFF51
:104D7200FFFFFFFFFFFFFFFFFFFFFFFFFFFFFFFF41
:104D8200FFFFFFFFFFFFFFFFFFFFFFFFFFFFFFFF31
:104D9200FFFFFFFFFFFFFFFFFFFFFFFFFFFFFFFF21
:104DA200FFFFFFFFFFFFFFFFFFFFFFFFFFF9F7EF2F
:104DB200E1FFFFFDE0FFEFFFF1EEEEF1FFFFFFFF8E
:104DC200FFFF01000000000103070F1F3F7F00806B
:104DD200C0E0F0F8FCFE00000000C3103F108C1091
:104DE2006A107E100A1100000000E311B311AB112A
:104DF2009C118E118D1100000000B9133F10AC08F8
:104E02004C05F6055007FD049B0490141212202055
:104E12002020000D0A00426F7363616D2041004241
:104E22006F7363616D204200466F78746563682F0B
:104E3200444A492000466174536861726B200052F3
:104E420061636562616E6420004C6F7762616E64BB
:044E5200202000001C
:00000001FF
