:100000000C941F030C9447030C9447030C94470370
:100010000C9447030C9447030C9447030C94470338
:100020000C9447030C9447030C9447030C94470328
:100030000C9447030C9447030C9447030C94470318
:100040000C9400160C9447030C9447030C9447033C
:100050000C9447030C9447030C9447030C944703F8
:100060000C94D3140C944703E916D516C116AD169B
:100070009916851671165D16651678168B169E16DE
:10008000B116C416D716EA164916351621160D16DE
:10009000FD161117251739176C1680169416A81619
:1000A000BC16D016E416F8161A163F1664168916F2
:1000B000AE16D316F8161D171312201121100722A1
:1000C000081806091905230A1A040B1B03240C1C23
:1000D000020D1D25010E1E000F1F261415271617D1
:1000E00000000000003E5B4F5B3E3E6B4F6B3E1CD2
:1000F0003E7C3E1C183C7E3C181C577D571C1C5EE9
:100100007F5E1C00183C1800FFE7C3E7FF001824BF
:100110001800FFE7DBE7FF30483A060E2629792969
:1001200026407F050507407F05253F5A3CE73C5A9E
:100130007F3E1C1C08081C1C3E7F14227F22145F7B
:100140005F005F5F06097F017F006689956A6060D6
:1001500060606094A2FFA29408047E040810207ED0
:10016000201008082A1C08081C2A08081E10101055
:10017000100C1E0C1E0C30383E3830060E3E0E069B
:10018000000000000000005F0000000700070014EE
:100190007F147F14242A7F2A1223130864623649AD
:1001A0005620500008070300001C22410000412295
:1001B0001C002A1C7F1C2A08083E0808008070309A
:1001C0000008080808080000606000201008040209
:1001D0003E5149453E00427F40007249494946210F
:1001E00041494D331814127F1027454545393C4A83
:1001F000494931412111090736494949364649499A
:10020000291E0000140000004034000000081422E1
:10021000411414141414004122140802015909064F
:100220003E415D594E7C1211127C7F494949363E50
:10023000414141227F4141413E7F494949417F0936
:100240000909013E414151737F0808087F00417F41
:1002500041002040413F017F081422417F4040403F
:10026000407F021C027F7F0408107F3E4141413ED7
:100270007F090909063E4151215E7F091929462659
:100280004949493203017F01033F4040403F1F205D
:1002900040201F3F4038403F631408146303047834
:1002A00004036159494D43007F4141410204081054
:1002B00020004141417F040201020440404040408F
:1002C000000307080020545478407F2844443838FD
:1002D00044444428384444287F385454541800086F
:1002E0007E090218A4A49C787F0804047800447D49
:1002F00040002040403D007F1028440000417F40E6
:10030000007C047804787C08040478384444443839
:10031000FC1824241818242418FC7C080404084819
:100320005454542404043F44243C4040207C1C206A
:1003300040201C3C4030403C44281028444C9090C5
:10034000907C4464544C440008364100000077001F
:1003500000004136080002010204023C2623263C2C
:100360001EA1A161123A4040207A385454555921B7
:10037000555579412254547842215554784020549F
:100380005579400C1E5272123955555559395454ED
:10039000545939555454580000457C410002457D5C
:1003A000420001457C407D1211127DF0282528F085
:1003B0007C545545002054547C547C0A097F4932B2
:1003C000494949323A4444443A324A4848303A4129
:1003D00041217A3A42402078009DA0A07D3D4242D2
:1003E000423D3D4040403D3C24FF2424487E49435B
:1003F000662B2FFC2F2BFF0929F620C0887E0903CE
:1004000020545479410000447D413048484A3238F4
:100410004040227A007A0A0A727D0D19317D262920
:10042000292F28262929292630484D402038080818
:10043000080808080808382F10C8ACBA2F1028344C
:10044000FA00007B000008142A142222142A14083F
:100450005500550055AA55AA55AAFF55FF55FF004E
:100460000000FF00101010FF00141414FF00101003
:10047000FF00FF1010F010F0141414FC001414F717
:1004800000FF0000FF00FF1414F404FC1414171004
:100490001F10101F101F1414141F00101010F00054
:1004A0000000001F101010101F10101010F010008E
:1004B0000000FF101010101010101010FF1000009E
:1004C00000FF140000FF00FF00001F10170000FCD9
:1004D00004F414141710171414F404F40000FF00AB
:1004E000F714141414141414F700F7141414171434
:1004F00010101F101F141414F4141010F010F0003A
:10050000001F101F0000001F14000000FC1400005A
:10051000F010F01010FF10FF141414FF141010103E
:100520001F00000000F010FFFFFFFFFFF0F0F0F0F1
:10053000F0FFFFFF0000000000FFFF0F0F0F0F0F85
:100540003844443844FC4A4A4A347E0202060602D1
:100550007E027E0263554941633844443C04407E38
:10056000201E2006027E020299A5E7A5991C2A49B1
:100570002A1C4C7201724C304A4D4D30304878483C
:1005800030BC625A463D3E494949007E0101017E28
:100590002A2A2A2A2A44445F444440514A4440407B
:1005A000444A51400000FF0103E080FF00000808BA
:1005B0006B6B083612362436060F090F060000183A
:1005C000180000001010003040FF0101001F010161
:1005D0001E00191D1712003C3C3C3C0000000000AE
:1005E00000000008000201000003040700000000F2
:1005F00000000000010204081020408001020408ED
:10060000102001020408102004040404040404045B
:1006100002020202020203030303030300000000BC
:1006200023002600290000000000250028002B00E0
:1006300000000000240027002A00C90631141124FC
:100640001FBECFEFD8E0DEBFCDBF15E0A0E0B1E028
:10065000E8E5F3E302C005900D92A43FB107D9F796
:1006600027E0A4EFB5E001C01D92A030B207E1F78A
:1006700016E0CEE3D6E004C02297FE010E941019D6
:10068000CA33D107C9F70E949E180C94AA190C947A
:100690000000E82FF0E0E854FF4FE491F0E0EE0FA7
:1006A000FF1FE859FF4F859194910895682F80E0CE
:1006B00090E00C949419CF93DF93EC0180E090E0EC
:1006C0000E948C198883DF91CF9108950F931F9317
:1006D000CF93DF93182F0E94AC17019711F480E09D
:1006E0004BC06BE470E080E090E00E947916812FAF
:1006F0000E94AC17019799F3C0E0D0E0812F0E94CF
:10070000AC17892B41F4219665E070E080E090E021
:100710000E947916F3CF9E01205531092C3D3105F9
:1007200028F0CC32D14020F401E003C003E001C046
:1007300004E0C0E0D0E0812F0E94AC17019791F453
:100740002196C932D10589F46BE470E080E090E035
:100750000E947916812F0E94AC17892B09F402E0C0
:10076000802F0AC0A89781F7FBCF65E070E080E09A
:1007700090E00E947916DFCFDF91CF911F910F910A
:100780000895EF92FF920F931F93CF93DF938C0105
:10079000F12CE12CCCE2D1E08F2D0E944903801B8B
:1007A000910B1816190634F48F2D0E944903801BF3
:1007B000910B07C08F2D0E9449039801281B390B0C
:1007C000C9018C179D0714F0CE0101C0EF2CF394E2
:1007D00038E2F31611F0EC01DFCF8E2DDF91CF91CF
:1007E0001F910F91FF90EF9008951F93CF93DF9388
:1007F00010E2C0E0D0E084E10E94F716C80FD91FD4
:100800001150C9F7CE0125E0969587952A95E1F715
:10081000DF91CF911F910895DB01E82FF0E0E854BC
:10082000FF4FE491E83010F481E40DC0E03110F4A2
:1008300082E409C0E83110F485E405C0E03210F428
:1008400086E401C083E48C93E770EF5C1196EC932F
:10085000119712961C921297CD0108951F93CF9372
:10086000DF93EB01E82FF0E0E854FF4F14911830CC
:1008700018F46DE175E011C0103118F466E275E00E
:100880000CC0183118F46FE275E007C0103218F48C
:100890006CE375E002C066E475E0CE010E94851944
:1008A000DE010D900020E9F71197AC1BBD0BCE01C6
:1008B0008A0F911DDC0117701F5C1C9311961C920E
:1008C000CE01DF91CF911F9108958F5D91409C01E2
:1008D000369527952F7156E0969587955A95E1F7AD
:1008E0009695982F882797958795822B089560E095
:1008F00082E00E94761781E090E00E94B31661E0EA
:1009000084E00E94761781E090E00E94B31661E0D7
:1009100082E00E94761781E090E00E94B31660E0CA
:1009200082E00E94761781E090E00C94B31660E0BC
:1009300082E00E94761781E090E00E94B31660E0AA
:1009400084E00E94761781E090E00E94B31661E097
:1009500082E00E94761781E090E00E94B31660E08A
:1009600082E00E94761781E090E00C94B31681E05B
:1009700090E00E94B31660E083E00E94761781E069
:1009800090E00C94B31681E090E00E94B31661E011
:1009900083E00E94761781E090E00C94B3161F93D9
:1009A000CF93DF930E946504EC010E94C30481E0B1
:1009B00090E00E94B3160E94B7040E9477040E9440
:1009C00097040E9497040E9497040E94770410E104
:1009D000C0FF03C00E94770402C00E949704D6950E
:1009E000C7951150A9F70E9497040E9497040E948E
:1009F00097040E9497040E94C30481E090E00E9443
:100A0000B31660E083E00E94761760E082E00E9407
:100A1000761760E084E0DF91CF911F910C947617F8
:100A2000CF92DF92EF92FF920F931F93CF93DF93BA
:100A3000EC012A96C0FF21968E01ECE3DE2EE12C1C
:100A4000F12C053387E1180718F40B5F1F4F02C024
:100A50000DE016E1C8010E94CF0469E170E080E07A
:100A600090E00E9479160E94F503E816F90610F44A
:100A7000E8017C01DA9451F48E01045111096E01F0
:100A800024E1C20ED11CE12CF12C0BC08A3F910550
:100A9000C0F2F2CFE8010E5F1F4F0C151D0589F063
:100AA0007C01C8010E94CF0469E170E080E090E021
:100AB0000E9479160E94F503E816F90658F3C7015B
:100AC000EACFCE010E94CF04CE01DF91CF911F91DA
:100AD0000F91FF90EF90DF90CF900895BF92CF924B
:100AE000DF92EF92FF920F931F93CF93DF93CDB7D7
:100AF000DEB766970FB6F894DEBF0FBECDBFB82E37
:100B00006B0185E096E00E94C40C61E070E085E036
:100B100096E00E945D1340E050E06AE070E085E0FE
:100B200096E00E94511363E085E096E00E9457131F
:100B30008B2D0E944903BC014AE050E085E096E01D
:100B40000E94711847E050E06BE470E085E096E0A9
:100B50000E94511362E085E096E00E94571360E521
:100B600075E085E096E00E941318E0910506F0918B
:100B700006060680F781E02DEE24E394F12C08E1CF
:100B800010E02FE730E048E150E060E070E085E001
:100B900096E009954BE150E060E070E085E096E07A
:100BA0000E94511361E085E096E00E94571365E5CD
:100BB00075E085E096E00E94131847E250E060E09F
:100BC00070E085E096E00E94511362E085E096E0D7
:100BD0000E94571368E675E085E096E00E941318BE
:100BE00068E675E085E096E00E9413188E010F5FBD
:100BF0001F4FB8018B2D0E940C04BC0185E096E0CC
:100C00000E94131867E675E085E096E00E941318CD
:100C10004AE050E0B60185E096E00E94711849E391
:100C200050E060E070E085E096E00E94511361E0E2
:100C300085E096E00E945713B8018B2D0E942E0488
:100C4000F80101900020E9F7C8018E1B9F0B469622
:100C500096958795D82EE12CF12CDE1451F068E69C
:100C600075E085E096E00E9413188FEFE81AF80A05
:100C7000F4CFB80185E096E00E94131885E096E075
:100C80000E94740E66960FB6F894DEBF0FBECDBFFD
:100C9000DF91CF911F910F91FF90EF90DF90CF9058
:100CA000BF900895EF92FF920F931F9385E096E017
:100CB0000E94C40C61E070E085E096E00E945D1344
:100CC00040E050E06AE070E085E096E00E94511359
:100CD00063E085E096E00E9457136AE675E085E0E0
:100CE00096E00E94131847E050E06BE470E085E066
:100CF00096E00E94511362E085E096E00E9457134F
:100D000060E575E085E096E00E941318E091050625
:100D1000F09106060680F781E02DEE24E394F12C95
:100D200008E110E02FE730E048E150E060E070E0DB
:100D300085E096E009954BE150E060E070E085E0E9
:100D400096E00E94511361E085E096E00E945713FF
:100D500065E575E085E096E00E94131847E250E0F3
:100D600060E070E085E096E00E94511362E085E06B
:100D700096E00E9457136FE675E085E096E00E94CA
:100D8000131885E096E01F910F91FF90EF900C945F
:100D9000740E64E085E096E00C94AB0C0F931F9307
:100DA000CF93DF931FE1115031F185E00E94AC1722
:100DB000892B69F1CBEFD0E02197C1F060E870E0BA
:100DC00080E090E00E947718062F60E470E080E0F9
:100DD00090E00E947718462F50E0602F70E020E0EE
:100DE00030E085E096E00E94F40BE6CF85E096E0E7
:100DF0000E94740ED8CF85E096E00E94C40C85E076
:100E000096E0DF91CF911F910F910C94740EDF91BA
:100E1000CF911F910F910895EF92FF920F931F931F
:100E2000CF9385E096E00E94C40CE0910506F09116
:100E300006060680F781E02DEE24E394F12C00E015
:100E400010E02FE730E040E050E060E070E085E047
:100E500096E0099561E070E085E096E00E945D1300
:100E600044E050E061E070E085E096E00E945113BC
:100E700063E085E096E00E94571369E775E085E03E
:100E800096E00E941318E0910506F0910606068090
:100E9000F781E02D0BE110E02FE730E04BE150E06F
:100EA00060E070E085E096E0099543E250E06FE095
:100EB00070E085E096E00E94511361E085E096E0E5
:100EC0000E94571361E875E085E096E00E941318D0
:100ED00042E350E061E270E085E096E00E94511349
:100EE00062E975E085E096E00E94131885E096E0DF
:100EF0000E94740EC8EC85E00E94AC17892B79F033
:100F00006AE070E080E090E00E947916C15099F7A5
:100F1000CF911F910F91FF90EF900C94CE06CF913F
:100F20001F910F91FF90EF90089561E08DE00E9476
:100F30003D1761E08DE00E94761760E085E00E9439
:100F40003D1762E085E00E94761761E083E00E9431
:100F50003D1761E084E00E943D1761E082E00E945D
:100F60003D1784E096E00E945B038091040688327E
:100F700010F010920406809104060E9449030E941A
:100F8000CF0421E04CE362E085E096E00E943F0D53
:100F90000C940C070F931F93CF93DF93C62FDEE0C3
:100FA000D80F8091F40526E330E0281B31096091C9
:100FB0000A0170E000E010E040E050E085E096E0DB
:100FC0000E94B90A6D2F70E001E010E026E330E0E6
:100FD00040E050E085E096E00E94B90AD0930A0113
:100FE000C63320F085E38093F40502C0C093F40576
:100FF00085E096E0DF91CF911F910F910C94740ED4
:10100000EF92FF920F931F9385E096E00E94C40C2D
:10101000E0910506F09106060680F781E02DEE24AA
:10102000E394F12C07E310E02FE730E047E350E0D2
:1010300060E070E085E096E0099561E070E085E0B1
:1010400096E00E945D1361E085E096E00E945713F0
:1010500049E350E060E070E085E096E00E945113C3
:101060006DE975E085E096E00E94131860E080E08D
:101070001F910F91FF90EF900C94CA079F92AF922F
:10108000BF92CF92DF92EF92FF920F931F93CF9375
:10109000DF935C010E940008CA2DDB2D0AE010E0FE
:1010A00099E3E92E97E1F92E23E0C22ED12C34E604
:1010B000932E85E00E946603811126C02396CA33D1
:1010C00087E1D80710F0CDE0D6E1CE010E94CF0431
:1010D00069E170E080E090E00E9479160E94F503DB
:1010E0008C589109B8010E94AE18262FC7018C1B9D
:1010F0009D0BB6010E94AE18862F622F992D981B6A
:10110000892F0E94CA07D5CF8E0104511109649618
:10111000E12CF12CC8010E94CF0469E170E080E06D
:1011200090E00E9479160E94F503E816F90610F087
:10113000C70101C058010E5F1F4F0C171D0711F0AA
:101140007C01E8CFC5010E94CF04C501DF91CF919A
:101150001F910F91FF90EF90DF90CF90BF90AF90D5
:101160009F9008950F931F9385E00E94660382303D
:10117000B9F118F4813061F145C0833051F0843009
:1011800009F040C0809104060E9449030E943E0875
:1011900008C00E945206809104060E9449030E94E2
:1011A00010050E94C1038093040660E070E00E9475
:1011B0006E050E944A16675E7F4F8F4F9F4F609368
:1011C000FD057093FE058093FF05909300061AC0FD
:1011D00080910406873210F48F5F08C080E006C05B
:1011E000809104068150873208F087E280930406DC
:1011F0000E9449030E94CF0460E070E080910406E1
:101200000E946E050E944A160091FD051091FE0590
:101210002091FF05309100060617170728073907A8
:10122000C8F40E94F5039093020680930106BC0166
:10123000809104060E946E050E944A1668517C4FF8
:101240008F4F9F4F6093FD057093FE058093FF05C0
:10125000909300069091040680910306981779F008
:101260000E944A160091F9051091FA052091FB059C
:101270003091FC05061717072807390758F10E9417
:101280004A160091F5051091F6052091F705309169
:10129000F8050617170728073907A8F481E0909189
:1012A0000B01911180E080930B010E944A166C5053
:1012B0007E4F8F4F9F4F6093F5057093F605809397
:1012C000F7059093F80560910B018DE01F910F9148
:1012D0000C947617809104060E94560380910406B0
:1012E000809303060E944A16605F784D8F4F9F4F90
:1012F0006093F9057093FA058093FB059093FC05C4
:10130000BECF0F931F93CF93DF93EC018D89823073
:1013100061F08330D9F0813009F0C8C0EC81FD81E3
:10132000E41BF50B3197DB0118C08C819D81DC013A
:10133000A61BB70BBD018E819F81FC01E41BF50B41
:10134000AF0141505109621B730BB0C0AE81BF8128
:10135000A61BB70BA21BB30BFA01F7FD05C18C81CD
:101360009D81E817F9070CF0FFC0B7FF04C02A0FF2
:101370003B1FA0E0B0E08E819F81AD01420F531F63
:10138000841795071CF49C012A1B3B0B12161306AD
:101390000CF0EAC0422F8A2F86958695869590E8B4
:1013A000899FE00DF11D1124E45EFE4FA77069F1E5
:1013B00058E05A1B852F90E0EC01CC5EDE4F68812F
:1013C000251760F4DC01A21BB1098FEF90E00A2E13
:1013D00002C0959587950A94E2F7682301301105BC
:1013E00039F048F00230110551F48081862706C09B
:1013F0008081862B03C0609580818623808345177A
:1014000008F4B2C0451BE058FF4F4830A0F102304D
:101410001105A9F4DF01842F9C9190959C93A0580D
:10142000BF4F88508830C0F788EF840F8695869527
:101430008695B0E88B9FE00DF11D112419C081E065
:101440000130110509F080E0982F9195EF01842F6C
:101450009883C058DF4F88508830D0F788EF840FCA
:1014600086958695869590E8899FE00DF11D11245B
:10147000E058FF4F4770442309F476C0A42FB0E032
:10148000A45FBE4F9C910130110541F050F0023035
:10149000110509F069C08081892706C08081892BE8
:1014A00003C090958081892380835EC057FD5CC016
:1014B0008E819F81481759070CF056C077FF04C0F2
:1014C000260F371F60E070E08C819D81FB01E20FE9
:1014D000F31F8E179F071CF49C01261B370B121657
:1014E00013060CF041C0CA0157FD0796E3E095953D
:1014F0008795EA95E1F79695982F88279795879590
:10150000845E9E4F860F971F4770552761E070E0FD
:1015100001C0660F4A95EAF7462F0130110541F0E8
:1015200088F00230110501F5FC01280F391F15C0A4
:10153000FC01280F391FE217F307B1F08081842BDB
:101540008193F9CF6095FC01280F391FE217F3074B
:1015500059F0808186238193F9CFE217F30721F0B8
:10156000808184278193F9CFDF91CF911F910F91D3
:1015700008950F931F93CF93DF93FC0185898230E9
:1015800069F08330E1F0813009F082C0C481D581F7
:10159000C41BD50BC21BD30BDB0117C08481958103
:1015A000DC01A61BB70BBD016150710986819781D3
:1015B000DC01A41BB50BAD01421B530B69C0A68116
:1015C000B781A61BB70B1197EA01B7FD08C1868149
:1015D0009781A817B9070CF002C1D7FF04C02C0FE0
:1015E0003D1FC0E0D0E084819581AE01420F531FC2
:1015F000841795071CF49C012C1B3D0B1216130637
:101600000CF0EDC0CD01B7FD079643E095958795A9
:101610004A95E1F79695982F882797958795845E48
:101620009E4F8C0F9D1FA770BB2741E050E00A2EF4
:1016300001C0440F0A94EAF7642F0130110549F004
:1016400098F00230110509F0CAC0FC01280F391FBB
:1016500017C0FC01280F391FE217F30709F4BFC0B8
:101660008081862B8193F8CF4095FC01280F391F8C
:10167000E217F30709F4B3C0808184238193F8CF84
:10168000E217F30709F4ABC0808186278193F8CF76
:1016900077FDA5C084819581681779070CF09FC0FC
:1016A00057FF04C0240F351F40E050E0868197812A
:1016B000FA01E20FF31F8E179F071CF49C01241BF5
:1016C000350B121613060CF08AC0522F842F869504
:1016D00086958695FB01B0E88B9FE00DF11D1124E6
:1016E000E45EFE4F477069F168E0641B862F90E06E
:1016F000EC01CC5EDE4F4881261760F4DC01A21BB2
:10170000B1098FEF90E00A2E02C0959587950A9453
:10171000E2F748230130110539F048F00230110595
:1017200051F48081842706C08081842B03C04095BA
:10173000808184238083561708F451C0561BE058DB
:10174000FF4F5830A0F102301105A9F4DF01852FB9
:101750009C9190959C93A058BF4F88508830C0F7BB
:1017600088EF850F869586958695B0E88B9FE00D6E
:10177000F11D112419C081E00130110509F080E04C
:10178000982F9195EF01852F9883C058DF4F88508F
:101790008830D0F788EF850F86958695869590E8F6
:1017A000899FE00DF11D1124E058FF4F577055231C
:1017B000B1F0A52FB0E0A45FBE4F9C9101301105A0
:1017C00039F048F00230110551F48081892706C0B4
:1017D0008081892B03C09095808189238083DF914C
:1017E000CF911F910F910895CF92DF92EF92FF92C8
:1017F0000F931F93CF93DF937C018B01EA01690163
:1018000077FDA0C00E946613081719070CF09AC054
:10181000D7FD98C0C7010E946A13C817D9070CF0FA
:1018200091C0C7010E946313823009F07FC0F701A5
:10183000848195819C01201B310B89010150110984
:1018400086819781FC01EC1BFD0BEF0121970BC0FA
:10185000813049F4F701848195818C1B9D0BE8014F
:101860008C0101501109F1E0CF16D10431F010F1D3
:1018700032E0C316D104E1F165C0FE01D7FD379611
:1018800083E0F595E7958A95E1F7F695FE2FEE272B
:10189000F795E795E00FF11FE45EFE4FC770DD2777
:1018A00081E090E00C2E01C0880F0A94EAF7908145
:1018B000982B3AC0FE01D7FD3796A3E0F595E79542
:1018C000AA95E1F7F695FE2FEE27F795E795E00F3D
:1018D000F11FE45EFE4FC770DD2781E090E00C2E23
:1018E00001C0880F0A94EAF78095908198231CC064
:1018F000FE01D7FD379663E0F595E7956A95E1F728
:10190000F695FE2FEE27F795E795E00FF11FE45EC1
:10191000FE4FC770DD2781E090E00C2E01C0880FDC
:101920000A94EAF79081982790830CC0833009F0DD
:101930008FCFF70186819781801B910B8E01EC017F
:10194000219791CFDF91CF911F910F91FF90EF9051
:10195000DF90CF9008951F93CF93DF93EC01162F64
:1019600040E450E060E870E00E94B81087EB95E03A
:10197000998388838FEF8C8F88A38E8F8D8F1F8F95
:10198000DF91CF911F91089580E094E0ECE1F1E0C8
:10199000DF019C011D9221503040E1F70895FC01C8
:1019A00081A1882339F06EBD00000DB407FEFDCF84
:1019B0008EB5089588E090E030E8A4A1B5A14C91DF
:1019C00023A5209524232C93A2A1B3A122A5432FC4
:1019D000462321F04C91422B4C9304C04C9120950E
:1019E00024232C93A4A1B5A12C9143A5242B2C93A3
:1019F0003695019711F708951F93CF93DF93EC016C
:101A0000162F8C8D8F3F09F1EEA1FFA180819CA53F
:101A1000892B8083E8A5F9A590818DA580958923E0
:101A20008083EEA1FFA190818CA58095892380837E
:101A3000CE010E94CF0CEEA1FFA180819CA5892B35
:101A40008083DF91CF911F9108958A8D682F77272A
:101A500067FD709587E396E00E94191460E087E3C4
:101A600096E00E94C613612F87E396E00E94C6139A
:101A700087E396E0DF91CF911F910C942E140F9382
:101A80001F93CF93DF93EC01162F022F6B8F4A8F9A
:101A90008C8D8F3F09F48CC061E08E8D0E943D17C4
:101AA00061E088A10E943D1788A1992787FD909544
:101AB000FC01E85FF94FE491F0E0EE0FFF1FEA5DF3
:101AC000F94F259134913FA32EA3FC01EC50FA4F1E
:101AD00084918CA78E8D992787FD9095FC01E85FF6
:101AE000F94FE491F0E0EE0FFF1FEA5DF94F259109
:101AF000349139A728A7FC01EC50FA4F84918DA7A7
:101B000089A1811134C061E08C8D0E943D1761E094
:101B10008D8D0E943D178D8D992787FD9095FC0135
:101B2000E85FF94FE491F0E0EE0FFF1FEA5DF94F37
:101B3000259134913DA32CA3FC01EC50FA4F8491E4
:101B40008BA78C8D992787FD9095FC01E85FF94F55
:101B5000E491F0E0EE0FFF1FEA5DF94F259134911B
:101B60003BA32AA3FC01EC50FA4F84918AA789A1D8
:101B7000882311F10E94FB0E80913506882399F08D
:101B80009FB7F89480913506813059F48DB38093D6
:101B900033062DB380913406809582238DBB9FBF81
:101BA00002C09093330680E58CBD81E08DBD04C0FA
:101BB00087E396E00E9405140023F1F08F8D87FDE6
:101BC0001BC061E00E943D1761E08F8D0E94761777
:101BD00061E070E080E090E00E94791660E08F8D17
:101BE0000E9476176AE070E080E090E00E9479162B
:101BF00061E08F8D0E9476176EEACE010E94FC0C88
:101C000065EDCE010E94FC0C60E8CE010E94FC0C48
:101C100068EACE010E94FC0C6FE3CE010E94FC0C2E
:101C200063EDCE010E94FC0C60E0CE010E94FC0C32
:101C300060E4CE010E94FC0C6DE8CE010E94FC0C19
:101C4000113011F460E101C064E1CE010E94FC0C8E
:101C500060E2CE010E94FC0C60E0CE010E94FC0C10
:101C600061EACE010E94FC0C68ECCE010E94FC0CE3
:101C70006AEDCE010E94FC0C62E1CE010E94FC0CD8
:101C800061E8CE010E94FC0C113011F46FE901C033
:101C90006FECCE010E94FC0C69EDCE010E94FC0CA1
:101CA000113011F462E201C061EFCE010E94FC0C20
:101CB0006BEDCE010E94FC0C60E4CE010E94FC0C96
:101CC00064EACE010E94FC0C66EACE010E94FC0C84
:101CD0006EE2CE010E94FC0C6FEACE01DF91CF9143
:101CE0001F910F910C94FC0CDF92EF92FF920F93D7
:101CF0001F93CF93DF93EC0161E20E94FC0C60E044
:101D0000CE010E94FC0C6FE7CE010E94FC0C62E247
:101D1000CE010E94FC0C60E0CE010E94FC0C67E04A
:101D2000CE010E94FC0C8C8D8F3F31F1EEA1FFA102
:101D300080819CA5892B8083E8A5F9A580819DA53C
:101D4000892B8083EEA1FFA190818CA580958923AA
:101D500080830CE111E0F80161918F01CE010E94B6
:101D6000CF0CF5E00C311F07B1F7EEA1FFA1808188
:101D70009CA5892B808337C0D090B8008CE08093DD
:101D8000B8000CE111E06A8D772767FD709587E355
:101D900096E00E941914E0913706F0913806019000
:101DA000F081E02D60E487E396E00995E12CF12CC9
:101DB000F801EE0DFF1D608187E396E00E94C613D7
:101DC0008FEFE81AF80AE0E1EE16F10489F787E3ED
:101DD00096E00E942E14005F1F4FF5E00C311F07A4
:101DE00091F6D092B800DF91CF911F910F91FF90A3
:101DF000EF90DF900895CF93CFB7F8948091360697
:101E0000811127C0E2E1F6E08491EEEFF5E09491D4
:101E1000E82FF0E0EE0FFF1FE05DF94FA591B491C0
:101E20008C91892321F461E08AE00E94761761E0B9
:101E30008AE00E943D178CB580618CBD8CB58064B2
:101E40008CBD61E08DE00E943D1761E08BE00E9457
:101E50003D17809136068F5F80933606CFBFCF91B6
:101E600008952F923F924F925F926F927F928F923E
:101E70009F92AF92BF92CF92DF92EF92FF920F9319
:101E80001F93CF93DF9300D000D0CDB7DEB74C01C6
:101E90007C836B836A015901C8018701AC014C192D
:101EA0005D0957FF03C051954195510995016B811B
:101EB0007C81261B370B37FF03C0319521953109F3
:101EC00022242394312C2417350714F0212C312C93
:101ED0002114310459F03A2D2B2D5C01832F922FC0
:101EE0003B812C81DC82CB82C32ED22EAB81BC8184
:101EF000AA16BB065CF43C2D2D2D6C01832F922F6E
:101F00003B812C81BC82AB82A32EB22E2501EB81BA
:101F1000FC814E1A5F0A3C016C187D0877FE03C0F5
:101F2000719461947108720157FE03C0FFEFEF1ABC
:101F3000FF0AF594E794C816D9062CF421E030E0A6
:101F40003A83298324C06FEF7FEF7A8369831FC0B0
:101F5000D401ED91FC910480F581E02D98012114CC
:101F60003104D9F04B815C81B601C4010995E618B2
:101F7000F708F7FE06C0E981FA81CE0EDF1EE40CF9
:101F8000F51C2B813C812F5F3F4F3C832B836B8162
:101F90007C81A616B706E4F604C0A6016B817C819D
:101FA000E4CF0F900F900F900F90DF91CF911F9182
:101FB0000F91FF90EF90DF90CF90BF90AF909F90E8
:101FC0008F907F906F905F904F903F902F900895EB
:101FD0006F927F928F929F92AF92BF92CF92DF9239
:101FE000EF92FF920F931F93CF93DF93EC015B016E
:101FF0006A0139014801E881F9810284F385E02D05
:1020000087010995E881F981A601480D591D4150C4
:1020100051090284F385E02D9301B501CE010995A4
:10202000E881F9810084F185E02D9401A601B501D4
:10203000CE010995E881F981B501660D771D6150E2
:1020400071090084F185E02D9401A601CE01099566
:10205000DF91CF911F910F91FF90EF90DF90CF9084
:10206000BF90AF909F908F907F906F900895EF9268
:10207000FF920F931F93DC01ED91FC91240F351F0C
:10208000215031090680F781E02D780189019B01FB
:1020900009951F910F91FF90EF900895EF92FF9295
:1020A0000F931F93DC01ED91FC91260F371F2150F8
:1020B00031090680F781E02D78018A0109951F9189
:1020C0000F91FF90EF9008956F927F928F929F9261
:1020D000AF92BF92CF92DF92EF92FF920F931F9336
:1020E000CF93DF935C014A0169013801EB01C60E11
:1020F000D71ECC15DD0574F4D501ED91FC9100845B
:10210000F185E02D87019301A401BE01C501099568
:102110002196EFCFDF91CF911F910F91FF90EF901C
:10212000DF90CF90BF90AF909F908F907F906F90F7
:102130000895EF92FF920F931F93DC01ED91FC91B4
:1021400011971A960D911C911B9718962D913C9101
:1021500019970684F785E02D7B0140E050E060E0B0
:1021600070E009951F910F91FF90EF9008950895E9
:10217000FC01138212828FEC95E09183808375833A
:102180006483578346837187608753874287158AA4
:10219000158614861786168621E0248B8FEF9FEF15
:1021A000938B828B918B808B268B178A118E108E4E
:1021B00008952F923F924F925F926F927F928F92EB
:1021C0009F92AF92BF92CF92DF92EF92FF920F93C6
:1021D0001F93CF93DF93CDB7DEB76A970FB6F8940E
:1021E000DEBF0FBECDBF1C0158874F831C870B87F6
:1021F000FA86E986CC82DC0158964D915C9159971C
:102200004115510509F0A6C018968D919C9119971A
:10221000681779070CF056C11A968D919C911B97FF
:10222000EF81F885E817F9070CF04CC1D12CCB01F0
:102230003C81F6E03F9F800D911D11241816190670
:102240000CF040C1C60103E0880F991F0A95E1F721
:102250004F815885840F951F181619060CF032C14E
:1022600057968C91811103C0203B08F02F5F7E8729
:102270006D874B01198210EEA12E10E0B12EA61A27
:10228000B70A55E0259FA00CB11C11248981853027
:1022900039F0ED85FE85EA0DFB1D94919A8301C00E
:1022A0001A826F8078842301A8E0AD83BA81B0FFE1
:1022B00012C0D101ED91FC91BC81B13031F40480A8
:1022C000F581E02D2B853C8518C00684F785E02D2F
:1022D000EB84FC841DC0E985FA852B853C85E217DB
:1022E000F307E1F0D101ED91FC91BC81B13059F4DB
:1022F0000480F581E02D29853A85A2016D857E85D2
:10230000C10109950BC00684F785E02DE984FA84A4
:1023100086019601A301B401C1010995EA81E69500
:10232000EA83FD81F150FD836C0C7D1C2FEF421A76
:10233000520AF111BBCF39813F5F39838C0C9D1C50
:102340004D855E854F5F5F4F5E874D87363009F064
:102350009DCFB8C0FA01349634913297859194910B
:10236000231BA7E02A9F800D911D1124FA012591BE
:102370003491398B288BFC01459154915A8F498FA8
:10238000FC013296549159873196A491AF873196CA
:10239000E491FC013596249131968491BC81B23050
:1023A00050F0622E772467FC7094E82FFF27E7FD3A
:1023B000F095FE87ED87FC81CF2ED12C6C9C4001DF
:1023C0006D9C900C7C9C900C1124860E971EA12C69
:1023D0001982DE8ACD8AAB01420F511D27FD5A9525
:1023E0005E834D83AF81B885A80FB11D87FDBA9577
:1023F000B88FAF8B59818F85581708F063C0852F30
:1024000090E02D853E85280F391F2C9DD0012D9DF4
:10241000B00D3C9DB00D1124EF81F885EA0FFB1F34
:10242000FB83EA836D807E802401FA2D2D81F21BCF
:10243000FA8B4F89588D480F591F5C8B4B8B9A89AB
:10244000960D862D2D81821B39858317B0F59770E7
:1024500061F4898D9A8D0196E889F989298D3A8DE3
:10246000E20FF31FB4909A8F898FB7FE1DC0D10180
:10247000ED91FC91BC81B13059F40480F581E02DDF
:102480002B853C854B895C89B301C10109950CC042
:102490000684F785E02DEB84FC84860196014A8151
:1024A0005B81B201C1010995BB0CED89FE894E0E1D
:1024B0005F1EFFEF6F1A7F0AC2CFA30E49814F5FE5
:1024C000498398CF6A960FB6F894DEBF0FBECDBF92
:1024D000DF91CF911F910F91FF90EF90DF90CF9000
:1024E000BF90AF909F908F907F906F905F904F9034
:1024F0003F902F900895AF92BF92CF92EF92FF92AC
:102500000F931F93CF93DF93EC01262F888D998D26
:10251000009709F042C06A3069F42C898E859F8546
:1025200038E0239F800D911D11249F878E871D8683
:102530001C86ABC06D3009F4A8C08E898823C1F019
:102540003C898C859D8546E0349F800D911D11242A
:1025500048855985841795075CF01D861C868E85F5
:102560009F85E8E03E9F800D911D11249F878E87F7
:10257000EA88FB88088919894E855F856C857D8589
:10258000CC88CE010E94D9102C898C859D85F6E0DF
:102590002F9F800D911D112441C06A3079F41D8652
:1025A0001C864C89FC01369684912E853F85489F78
:1025B000200D311D11243F872E8767C06D3009F42F
:1025C00064C0AC014C5F5F4FFA013491631708F4AB
:1025D0005CC03196E491E61708F457C0FA014491C3
:1025E000362F341BFC013296A590B490F7E03F9F44
:1025F000A00CB11C1124F5013296A4913196E491FE
:10260000AA2311F0E1110DC0F5013496A4902C8994
:102610008C859D85A29E800D911D11249D878C87A0
:1026200034C0F5013596E4913E89332309F13C89A4
:10263000B0E0AE0FB11DE7FDBA953A9FA0013B9FF8
:10264000500D11246C857D85460F571F688579854F
:10265000461757076CF01D861C86FC013696849140
:102660004E855F85389F400D511D11245F874E8731
:10267000EA88FB88088919894E855F856C857D8588
:10268000CC88CE010E94D910BFCF81E090E0DF91CD
:10269000CF911F910F91FF90EF90CF90BF90AF908F
:1026A0000895FC01758764875787468708956111EF
:1026B00001C061E0FC01648B0895FC01738B628BA7
:1026C000718B608B0895FC0185890895FC018085DC
:1026D00091850895FC018285938508958091670610
:1026E00090E020916806821B910908952091680668
:1026F00080916706281750F4E22FF0E0E759F94F70
:10270000808190E02F5F2093680608958FEF9FEF00
:102710000895E091680680916706E81730F4F0E0CC
:10272000E759F94F808190E008958FEF9FEF08956A
:102730000895CF92DF92EF92FF920F931F93CF9362
:10274000DF937C01CB018A0120914306222389F08B
:10275000EB016B01C40ED51ECC15DD0569F0699146
:10276000D701ED91FC910190F081E02DC701099511
:10277000F3CF642F0E94AA14C801DF91CF911F915B
:102780000F91FF90EF90DF90CF900895CF93DF935C
:102790001F92CDB7DEB76983209143062223D1F083
:1027A00020914406203240F021E030E0FC013383E8
:1027B000228380E090E015C080914506E82FF0E08C
:1027C000EA5BF94F998190838F5F809345068093F0
:1027D000440605C061E0CE0101960E94AA1481E082
:1027E00090E00F90DF91CF910895FC011382128247
:1027F00048EE53E060E070E044835583668377835E
:1028000087EE95E091838083089510926806109278
:10281000670610924506109244060C94351481E028
:102820008093430660936606109245061092440614
:1028300008950C940F140F93062F21E04091440645
:1028400066E476E0809166060E9453141092450675
:1028500010924406109243060F91089561E00C9483
:102860001B1487E396E00C94F5131092F60681E0B2
:102870008093F4061092F30661E082E10E947617DD
:1028800061E083E10E947617E9EBF0E080818E7FC2
:10289000808380818D7F808380E28093B80085E48F
:1028A0008093BC0008950F93413208F04AC0909184
:1028B000F6069111FCCF92E09093F6060093F40691
:1028C0009FEF909389061092CE064093CD06FB01B0
:1028D0006FEC76E0DB019A2F961B941718F4919118
:1028E0009D93F9CF1092F5069091F506880F892BEC
:1028F0008093F5068091F306813061F41092F3061F
:102900008091F5068093BB008091BC0083FDF8CFD9
:1029100085EC01C085EE8093BC00222321F08091DC
:10292000F6068230E1F3809189068F3F61F0809155
:102930008906803251F080918906803341F483E02A
:1029400007C081E005C080E003C082E001C084E0F0
:102950000F910895613298F42091F606243089F49D
:102960006093AB06FC018DEA96E0DC012A2F281B60
:10297000261718F421912D93F9CF80E0089581E076
:10298000089582E0089585ED8093BC008091BC009D
:1029900084FDFCCF1092F606089585EC8093BC0070
:1029A0001092F60608951F920F920FB60F921124FF
:1029B0002F933F934F935F936F937F938F939F9347
:1029C000AF93BF93EF93FF938091B900887F8036D8
:1029D00009F49EC078F5883209F45DC090F4803126
:1029E00009F456C038F4882309F4F5C0883009F496
:1029F0004FC0F5C0883109F44EC0803209F45FC081
:102A0000EEC0803409F46AC058F4803309F457C02A
:102A1000883309F0E4C0809389060E94CD14DFC09A
:102A2000803509F44FC0883509F45DC0883409F059
:102A3000D6C0D3C0883909F4C4C0A8F4883709F4D3
:102A400067C038F4883609F463C0803709F460C081
:102A5000C6C0883809F4B5C0803909F45FC0803831
:102A600009F0BDC05BC0803B09F483C038F4803AF4
:102A700009F466C0883A09F47CC0B1C0803C09F40E
:102A8000A4C0883C09F4A1C0883B09F487C0A7C052
:102A90008091F50610C09091CE068091CD069817D2
:102AA00070F5E091CE0681E08E0F8093CE06F0E0C7
:102AB000E153F94F80818093BB0085EC83C0809304
:102AC00089068BC0E091CE0681E08E0F8093CE0602
:102AD0008091BB00F0E0E153F94F80839091CE06E6
:102AE0008091CD066BC0E091CE0681E08E0F809381
:102AF000CE068091BB00F0E0E153F94F80838091D6
:102B0000F40681116AC081E08093F30684EA5EC016
:102B100083E08093F60610928A06CFCF80918A06D2
:102B2000803208F04EC0E0918A0681E08E0F8093DB
:102B30008A068091BB00F0E0E557F94F8083BDCF56
:102B40000E94CD1480918A06803230F4E0918A068A
:102B5000F0E0E557F94F108260918A0670E0E0914D
:102B6000EF06F091F0068BE896E0099510928A0640
:102B700036C084E08093F6061092AC061092AB0645
:102B8000E091F106F091F20609958091AB06811172
:102B900005C081E08093AB061092AD06E091AC06D3
:102BA00081E08E0F8093AC06F0E0E355F94F808111
:102BB0008093BB009091AC068091AB06981708F407
:102BC0007CCF85E88093BC000AC085EC8093BC0074
:102BD0001092F60604C0109289060E94C314FF9159
:102BE000EF91BF91AF919F918F917F916F915F9185
:102BF0004F913F912F910F900FBE0F901F901895FE
:102C00001F920F920FB60F9211242F933F938F9321
:102C10009F93AF93BF938091F8069091F906A0918E
:102C2000FA06B091FB063091F70626E0230F2D3708
:102C300020F40296A11DB11D05C029E8230F0396BB
:102C4000A11DB11D2093F7068093F8069093F90615
:102C5000A093FA06B093FB068091FC069091FD06C6
:102C6000A091FE06B091FF060196A11DB11D8093B3
:102C7000FC069093FD06A093FE06B093FF06BF915D
:102C8000AF919F918F913F912F910F900FBE0F9019
:102C90001F9018952FB7F8946091F8067091F90677
:102CA0008091FA069091FB062FBF08953FB7F894E4
:102CB0008091FC069091FD06A091FE06B091FF0662
:102CC00026B5A89B05C02F3F19F00196A11DB11D87
:102CD0003FBF6627782F892F9A2F620F711D811DA4
:102CE000911D43E0660F771F881F991F4A95D1F702
:102CF00008958F929F92AF92BF92CF92DF92EF9200
:102D0000FF926B017C010E9456164B015C01C114BD
:102D1000D104E104F104F1F00E94AD180E945616AE
:102D2000681979098A099B09683E734081059105F4
:102D300070F321E0C21AD108E108F10888EE880E8C
:102D400083E0981EA11CB11CC114D104E104F1045C
:102D500029F7DDCFFF90EF90DF90CF90BF90AF903D
:102D60009F908F9008958330910528F0880F991FC8
:102D700004970197F1F70895789484B5826084BD33
:102D800084B5816084BD85B5826085BD85B581606F
:102D900085BDEEE6F0E0808181608083E1E8F0E0CF
:102DA0001082808182608083808181608083E0E8FE
:102DB000F0E0808181608083E1EBF0E080818460DD
:102DC0008083E0EBF0E0808181608083EAE7F0E0DF
:102DD00080818460808380818260808380818E7F17
:102DE00080838081806880831092C10008958E3036
:102DF00008F08E50877020911C0590E4299F900167
:102E00001124822B80937C0080917A0080648093CF
:102E10007A0080917A0086FDFCCF80917800209125
:102E2000790090E0922B0895833081F028F481306E
:102E300099F08230A1F008958730A9F08830B9F078
:102E40008430D1F4809180008F7D03C08091800018
:102E50008F7780938000089584B58F7702C084B502
:102E60008F7D84BD08958091B0008F7703C08091DD
:102E7000B0008F7D8093B0000895CF93DF9390E0F2
:102E8000FC01EC50FA4F2491FC01E85FF94F84916A
:102E9000882349F190E0880F991FFC01E05DF94F0C
:102EA000A591B4918A5D994FFC01C591D4919FB7CA
:102EB000611108C0F8948C91209582238C938881AD
:102EC00082230AC0623051F4F8948C91322F3095ED
:102ED00083238C938881822B888304C0F8948C91FF
:102EE000822B8C939FBFDF91CF9108950F931F93F7
:102EF000CF93DF931F92CDB7DEB7282F30E0F901D3
:102F0000E052FA4F8491F901EC50FA4F1491F90113
:102F1000E85FF94F04910023C9F0882321F0698309
:102F20000E9414176981E02FF0E0EE0FFF1FEA5DA9
:102F3000F94FA591B4919FB7F8948C91611103C09A
:102F40001095812301C0812B8C939FBF0F90DF913F
:102F5000CF911F910F910895CF93DF93282F30E0E9
:102F6000F901E052FA4F8491F901EC50FA4FD491F3
:102F7000F901E85FF94FC491CC2391F081110E94CF
:102F80001417EC2FF0E0EE0FFF1FE45EF94FA59150
:102F9000B4912C912D2381E090E021F480E002C0D7
:102FA00080E090E0DF91CF910895CF92DF92EF9291
:102FB000FF920F931F93CF93DF937C016A01EB0184
:102FC00000E010E00C151D0571F06991D701ED913D
:102FD000FC910190F081E02DC7010995892B19F032
:102FE0000F5F1F4FEFCFC801DF91CF911F910F915E
:102FF000FF90EF90DF90CF9008956115710581F0FB
:10300000DB010D900020E9F7AD0141505109461B4D
:10301000570BDC01ED91FC910280F381E02D0994C6
:1030200080E090E008950C94FD178F929F92AF92EC
:10303000BF92DF92EF92FF920F931F93CF93DF9394
:10304000CDB7DEB7A1970FB6F894DEBF0FBECDBFE8
:103050007C01F42FD52ECB0119A2223008F42AE0EE
:103060008E010F5D1F4F822E912CA12CB12C6F2F42
:103070007D2DA50194010E94C218F22FD32ECA0102
:10308000015011096A3014F4E0E301C0E7E3E60FF0
:10309000D801EC93232B242B252B49F7B801C7012A
:1030A0000E94FD17A1960FB6F894DEBF0FBECDBFEC
:1030B000DF91CF911F910F91FF90EF90DF90BF9024
:1030C000AF909F908F9008952115310541F4DC0158
:1030D000ED91FC910190F081E02D642F09940C9406
:1030E00015189A01AB0160E070E00C946418CF935E
:1030F000DF9300D000D0CDB7DEB79B01AC016115E6
:1031000071058105910569F069833A834B835C837E
:103110000E94721929813A814B815C810E94E418D6
:1031200003C060E070E0CB010F900F900F900F9004
:10313000DF91CF9108950E94801908950E94BC16D6
:103140000E949D180E949507C0E0D0E00E94B2083E
:103150002097E1F30E940000F9CF0895AA1BBB1B42
:1031600051E107C0AA1FBB1FA617B70710F0A61B87
:10317000B70B881F991F5A95A9F780959095BC01A8
:10318000CD010895A1E21A2EAA1BBB1BFD010DC0A3
:10319000AA1FBB1FEE1FFF1FA217B307E407F50707
:1031A00020F0A21BB30BE40BF50B661F771F881FE3
:1031B000991F1A9469F760957095809590959B0179
:1031C000AC01BD01CF010895052E97FB1EF40094BC
:1031D0000E94FB1857FD07D00E94C21807FC03D0BD
:1031E0004EF40C94FB1850954095309521953F4F27
:1031F0004F4F5F4F089590958095709561957F4FE3
:103200008F4F9F4F08950E941419A59F900DB49F52
:10321000900DA49F800D911D11240895EE0FFF1FA6
:103220000590F491E02D0994A29FB001B39FC001D5
:10323000A39F700D811D1124911DB29F700D811DE2
:103240001124911D08958F929F92AF92BF92CF92B9
:10325000DF92EF92FF92CF93DF93EC016881798147
:103260008A819B81611571058105910521F464E2D4
:1032700079ED8BE597E02DE133EF41E050E00E94DE
:10328000E41849015A019B01AC01A7EAB1E40E948C
:1032900003196B017C01ACEEB4EFA50194010E940F
:1032A000A519C60ED71EE81EF91EF7FE06C081E05E
:1032B000C81AD108E10880E8F80AC882D982EA82EF
:1032C000FB82C701B6019F77DF91CF91FF90EF900E
:1032D000DF90CF90BF90AF909F908F9008950E9405
:1032E0002319089586E091E00E94231908956093C0
:1032F00006017093070180930801909309010895D6
:1033000081E090E0F8940C94AA19FB01DC01019093
:103310000D920020E1F70895F999FECF92BD81BD8D
:10332000F89A992780B50895262FF999FECF1FBAEC
:1033300092BD81BD20BD0FB6F894FA9AF99A0FBEDE
:1033400001960895B7FF0C9403190E940319821B7C
:08335000930B0895F894FFCFE0
:10335800000000078000010000000E0100010307C3
:103368000F1F3F7F0080C0E0F0F8FCFEFFFFFFFF6B
:10337800FFFFFFFFFFFFFFFFFFFFFFFFFFFFFFFF55
:10338800FFFFFFFFFFFFFFFFFFFFFFFFFFFFFFFF45
:10339800FFFFFFFFFFFFFFFFFFFFFFFFFFFFFFFF35
:1033A800FFFFFFFFFFFFFFFFFFFFFFFFFFFFFFFF25
:1033B800FFFFFFFFFFFFFFFFFFFFFFFFFFFFFFFF15
:1033C800FFFFFFFFFFFFFFFFFFFFFFFFFFFFFFFF05
:1033D800FFFFFFFFFFFFFFFFFFFFFFFFFFFFFFFFF5
:1033E800FFFFFFFFFFFFFFFFFFFFFFFFFFFFFFFFE5
:1033F800FFFF7F3F3F3F3F3F3F3F3F3F3F3F3F3F15
:10340800FFFFBF3F3F3F3F7F7FFFFF7F7F3F3FBFC4
:10341800FFFF7F3F3F3F3F3F3F3F3F3F3F3F3F3FF4
:103428003F3FFFFF3F3FFFFFFFFFFFFFFFFFFFFFA4
:10343800FFFFFFFFFF7F3F3F3F3F3F3F3F3F3F3F94
:103448003F3F3F3F3F7FFFFF3F3F3F3F3F3F3F3FC4
:103458003F3F3F3F3F3F3F3F3F7FFFFFFFFFFF3F74
:103468003F3F3FFFFFFFFFFFFFFFFFFFFFFFFFFFA4
:10347800FFFFF0E0E2E7E7E7E7E7E7E7E7E7E7E7A7
:10348800FFFFFFFFFFFEE2E1E1E0E0FEFEFFFFFFDE
:10349800FFFFF0E0E0E2E7E7E7E7E7E7E7E7E7E78E
:1034A800E7E7FFFFE0E0E7E7E7E7E7E7E7E7E7E782
:1034B800E7E7E7FFFFF0E0E2E7E7E7E7E7E7E7E767
:1034C800E7E7E7E2E0F0FFFFE0E0E0FFF9F9F9F90C
:1034D800F9F9F9F9F9F9F9F8F8FCFFFFF8F8F8E063
:1034E800E0E0E0F8F8F8FFFFFFFFFFFFFFFFFFFF56
:1034F800FFFFFFFF7F7F7F7F7F7F7F7F7F7F7F7FD4
:103508007F7F7F7F7F7F7F7F7F7F7F7F7F7F7F7FC3
:103518007F7F7F7F7F7F7F7F7F7F7F7F7F7F7F7FB3
:103528007F7F7F7F7F7F7F7F7F7F7F7F7F7F7F7FA3
:103538007F7F7F7F7F7F7F7F7F7F7F7F7F7F7F7F93
:103548007F7F7F7F7F7F7F7F7F7F7F7F7F7F7F7F83
:103558007F7F7F7F7F7F7F7F7F7F7F7F7F7F7F7F73
:103568007F7F7F7F7FFFFFFFFFFFFFFFFFFFFFFFE3
:10357800FFFFFFFFFEFEFEFEFEFEFEFEFEFEFEFE5F
:10358800FEFEFEFEFEFEFEFEFEFEFEFEFEFEFEFE53
:10359800FEFEFEFEFEFEFEFEFEFEFEFEFEFEFEFE43
:1035A800FEFEFEFEFEFEFEFEFEFEFEFEFEFEFEFE33
:1035B800FEFEFEFEFEFEFEFEFEFEFEFEFEFEFEFE23
:1035C800FEFEFEFEFEFEFEFEFEFEFEFEFEFEFEFE13
:1035D800FEFEFEFEFEFEFEFEFEFEFEFEFEFEFEFE03
:1035E800FEFEFEFEFEFFFFFFFFFFFFFFFFFFFFFFE8
:1035F800FFFFFF070707A7A7A7A7A7A707474FFF2B
:10360800F7E7E7C7472F2F1F1FCFCFE7E7F7FFFFE2
:10361800FFFFFFFF070707BFBF07E7E7E7E7E7E7A2
:10362800FFFF070707A7A7A7A7A7A7A7E7E7FFFF22
:10363800070707A7A72727A7A7A7A7CFFFFF07075A
:1036480007E7CF9F3F7FFF070707FFFF0707A7A7EA
:10365800A7A7A7A7A7A7E7E7FFFF070707E7CF9F42
:103668003F7FFF070707FFFFFFFFFFFFFFFFFFFF8A
:10367800FFFFFFFCFCFCFCFCFCFCFCFCFCFCFEFF74
:10368800FFFFFFFFFCFCFCFCFCFFFFFFFFFFFFFF51
:10369800FFFFFFFFFCFCFCFFFFFCFCFCFCFCFCFC50
:1036A800FFFFFCFCFCFCFCFCFCFCFCFCFCFCFFFF46
:1036B800FCFCFCFFFFFCFCFCFCFCFCFCFFFFFCFC36
:1036C800FCFFFFFFFFFEFCFCFCFCFFFFFCFCFCFC1E
:1036D800FCFCFCFCFCFCFCFCFFFFFCFCFCFFFFFF13
:1036E800FFFEFCFCFCFCFFFFFFFFFFFFFFFFFFFFEF
:1036F800FFFFFFFFFFFFFFFFFFFFFFFFFFFFFFFFD2
:10370800FFFFFFFFFFFFFFFFFFFFFFFFFFFFFFFFC1
:10371800FFFFFFFFFFFFFFFFFFFFFFFFFFFFFFFFB1
:10372800FFFFFFFFFFFFFFFFFFFFFFFFFFFFFFFFA1
:10373800FFFFFFFFFFFFFFFFFFFFFFFFFFFFFFFF91
:10374800FFFFFFFFFFFFFFFFFFFFFFFFFFFFFFFF81
:10375800FFFFFFFFFFFFFFF9F7EFE1FFFFFDE0FFCE
:10376800EFFFF1EEEEF1FFFFFFFFFFFF01426F7386
:1037780063616D204100426F7363616D20420046B2
:103788006F78746563682F444A4920004661745312
:103798006861726B20005261636562616E6420002B
:1037A800204D487A00204368616E6E656C202020A9
:1037B800202052535349002020002D2D2D2D00206C
:1037C8005343414E4E494E47004359434C4F502BAB
:1037D8000076312E322062792044766F676F6E65ED
:1037E8006E00323031362D30362D323000352E36DF
:1037F800352020202020352E382020202020352E4E
:10380800393500000000007B12D517F40B310FB9D1
:103818000A8109E80F64109910B710000000007BB6
:1038280012D5179B18310F37104E10E80F641099F6
:1038380010B71000000000C61399136E1376138991
:0438480013981300BE
:00000001FF
