:100000000C94BD030C94E5030C94E5030C94E503F8
:100010000C94E5030C94E5030C94E5030C94E503C0
:100020000C94E5030C94E5030C94E5030C94E503B0
:100030000C94E5030C94E5030C94E5030C94E503A0
:100040000C94291A0C94E5030C94E5030C94E50335
:100050000C94E5030C94E5030C94E5030C94E50380
:100060000C94FC180C94E503840987098A098D090E
:100070009009A609A009A309204F464600204F4E2B
:100080000045786974202020202020202020202076
:1000900020005465737420416C61726D2020202013
:1000A00020200052657365742053657474696E670F
:1000B0007320200053637265656E2053617665720C
:1000C000202020200053686F77205374617274736E
:1000D000637265656E004261747465727920416C6B
:1000E00061726D202020004C69506F203373204DC9
:1000F00065746572202020004C69506F2032732097
:100100004D6574657220202000466C697020536331
:100110007265656E20202020200020003E004F7078
:1001200074696F6E7320436F6E66696700352E3693
:10013000352020202020352E382020202020352E4C
:1001400039350020204368616E6E656C20202020C8
:100150005253534900204D487A005343414E0020EA
:10016000002020002000200020204368616E6E6582
:100170006C202020205253534900204D487A0055CE
:100180004E46494E49534845440076312E3420624C
:10019000792044766F676F6E656E004359434C4F0C
:1001A000502B00E916D516C116AD16991685167195
:1001B000165D16651678168B169E16B116C416D7E0
:1001C00016EA164916351621160D16FD16111725B5
:1001D0001739176C1680169416A816BC16D016E49C
:1001E00016F8161A163F1664168916AE16D316F8A8
:1001F000161D1713122011211007220818060919BD
:1002000005230A1A040B1B03240C1C020D1D2501D7
:100210000E1E000F1F2614152716170000000000E1
:100220003E5B4F5B3E3E6B4F6B3E1C3E7C3E1C1864
:100230003C7E3C181C577D571C1C5E7F5E1C0018C2
:100240003C1800FFE7C3E7FF0018241800FFE7DBB6
:10025000E7FF30483A060E2629792926407F050512
:1002600007407F05253F5A3CE73C5A7F3E1C1C084F
:10027000081C1C3E7F14227F22145F5F005F5F0614
:10028000097F017F006689956A606060606094A262
:10029000FFA29408047E040810207E201008082A7B
:1002A0001C08081C2A08081E101010100C1E0C1E1A
:1002B0000C30383E3830060E3E0E060000000000BE
:1002C00000005F00000007000700147F147F142463
:1002D0002A7F2A12231308646236495620500008E8
:1002E000070300001C2241000041221C002A1C7F41
:1002F0001C2A08083E08080080703000080808081A
:1003000008000060600020100804023E5149453E8C
:1003100000427F400072494949462141494D331806
:1003200014127F1027454545393C4A49493141213E
:100330001109073649494936464949291E00001422
:10034000000000403400000008142241141414146A
:1003500014004122140802015909063E415D594E1C
:100360007C1211127C7F494949363E414141227F2E
:100370004141413E7F494949417F090909013E41C7
:100380004151737F0808087F00417F4100204041B0
:100390003F017F081422417F404040407F021C0201
:1003A0007F7F0408107F3E4141413E7F09090906D5
:1003B0003E4151215E7F09192946264949493203A8
:1003C000017F01033F4040403F1F2040201F3F402E
:1003D00038403F63140814630304780403615949E7
:1003E0004D43007F4141410204081020004141413A
:1003F0007F0402010204404040404000030708001F
:1004000020545478407F28444438384444442838A1
:100410004444287F385454541800087E090218A414
:10042000A49C787F0804047800447D40002040406C
:100430003D007F1028440000417F40007C04780488
:10044000787C080404783844444438FC1824241880
:1004500018242418FC7C0804040848545454240428
:10046000043F44243C4040207C1C2040201C3C4055
:1004700030403C44281028444C9090907C44645474
:100480004C44000836410000007700000041360867
:100490000002010204023C2623263C1EA1A1611297
:1004A0003A4040207A3854545559215555794122C3
:1004B00054547842215554784020545579400C1EAC
:1004C0005272123955555559395454545939555455
:1004D00054580000457C410002457D420001457CA6
:1004E000407D1211127DF0282528F07C54554500DE
:1004F0002054547C547C0A097F4932494949323A94
:100500004444443A324A4848303A4141217A3A42D6
:10051000402078009DA0A07D3D4242423D3D4040AC
:10052000403D3C24FF2424487E4943662B2FFC2F6A
:100530002BFF0929F620C0887E09032054547941F5
:100540000000447D413048484A32384040227A0019
:100550007A0A0A727D0D19317D2629292F2826292C
:1005600029292630484D402038080808080808087E
:1005700008382F10C8ACBA2F102834FA00007B00BE
:100580000008142A142222142A1408550055005574
:10059000AA55AA55AAFF55FF55FF000000FF0010FD
:1005A0001010FF00141414FF001010FF00FF1010B3
:1005B000F010F0141414FC001414F700FF0000FFF6
:1005C00000FF1414F404FC141417101F10101F1053
:1005D0001F1414141F00101010F0000000001F1052
:1005E0001010101F10101010F010000000FF10105D
:1005F00010101010101010FF10000000FF14000069
:10060000FF00FF00001F10170000FC04F414141773
:1006100010171414F404F40000FF00F71414141459
:10062000141414F700F7141414171410101F101FCB
:10063000141414F4141010F010F000001F101F0018
:1006400000001F14000000FC140000F010F0101057
:10065000FF10FF141414FF141010101F00000000EE
:10066000F010FFFFFFFFFFF0F0F0F0F0FFFFFF00E2
:1006700000000000FFFF0F0F0F0F0F3844443844F5
:10068000FC4A4A4A347E02020606027E027E026369
:10069000554941633844443C04407E201E200602F4
:1006A0007E020299A5E7A5991C2A492A1C4C7201D1
:1006B000724C304A4D4D303048784830BC625A4612
:1006C0003D3E494949007E0101017E2A2A2A2A2A03
:1006D00044445F444440514A444040444A514000ED
:1006E00000FF0103E080FF000008086B6B08361272
:1006F000362436060F090F060000181800000010F7
:1007000010003040FF0101001F01011E00191D17DC
:1007100012003C3C3C3C00000000000000000800CF
:1007200002010000030407000000000000000001B7
:100730000204081020408001020408102001020475
:100740000810200404040404040404020202020247
:100750000203030303030300000000230026002913
:100760000000000000250028002B000000000024ED
:100770000027002A0000020A5A1811241FBECFEFDA
:10078000D8E0DEBFCDBF15E0A0E0B1E0E0ECFFE3D4
:1007900002C005900D92A23AB107D9F726E0A2EA6D
:1007A000B5E001C01D92AE3BB207E1F717E0CAE722
:1007B000D7E004C02297FE010E94391FC637D10737
:1007C000C9F70E944D1D0C94DE1F0C940000E82F09
:1007D000F0E0ED50FE4FE491F0E0EE0FFF1FED551D
:1007E000FE4F85919491089581E08093A305109226
:1007F000A4058093A5051092A6058093A7051092E5
:10080000A80508950F931F93CF93DF936091C405BC
:1008100080E090E00E94C81F03EA15E0C0E0D0E04D
:10082000F80161918F012196CE010E94C81FC63048
:10083000D105B1F76EEE87E090E0DF91CF911F9187
:100840000F910C94C81F0F931F93CF93DF9387E0F2
:1008500090E00E94C01F8E3EA9F480E090E00E94CC
:10086000C01F8093C40503EA15E0C1E0D0E0CE01CB
:100870000E94C01FF80181938F012196C730D105D6
:10088000B1F702C080E001C081E0DF91CF911F91FC
:100890000F9108950F931F93CF93DF93182F0E940A
:1008A000341C019711F480E04BC06BE470E080E0F1
:1008B00090E00E94A21A812F0E94341C019799F3A4
:1008C000C0E0D0E0812F0E94341C892B41F4219696
:1008D00065E070E080E090E00E94A21AF3CF9E01F4
:1008E000205531092C3D310528F0CC32D14020F47F
:1008F00001E003C003E001C004E0C0E0D0E0812FCC
:100900000E94341C019791F42196C932D10589F4D3
:100910006BE470E080E090E00E94A21A812F0E94B8
:10092000341C892B09F402E0802F0AC0A89781F7B4
:10093000FBCF65E070E080E090E00E94A21ADFCF7C
:10094000DF91CF911F910F910895EF92FF920F9336
:100950001F93CF93DF938C01F12CE12CCCE2D1E0FB
:100960008F2D0E94E703801B910B1816190634F493
:100970008F2D0E94E703801B910B07C08F2D0E94D3
:10098000E7039801281B390BC9018C179D0714F048
:10099000CE0101C0EF2CF39438E2F31611F0EC0114
:1009A000DFCF8E2DDF91CF911F910F91FF90EF90B0
:1009B00008950F931F93CF93DF93082F10E2C0E0A9
:1009C000D0E0802F0E94201BC80FD91F1150C9F7FB
:1009D000CE0125E0969587952A95E1F7DF91CF9195
:1009E0001F910F910895DB01E82FF0E0ED50FE4FCD
:1009F000E491E83010F481E40DC0E03110F482E4B9
:100A000009C0E83110F485E405C0E03210F486E452
:100A100001C082E58C93E770EF5C1196EC9311971F
:100A200012961C921297CD0108951F93CF93DF93D6
:100A3000EB01E82FF0E0ED50FE4F1491183018F460
:100A40006DE175E011C0103118F466E275E00CC07C
:100A5000183118F46FE275E007C0103218F46CE337
:100A600075E002C066E475E0CE010E94B91FDE01A8
:100A70000D900020E9F71197AC1BBD0BCE018A0F3A
:100A8000911DDC0117701F5C1C9311961C92CE0106
:100A9000DF91CF911F9108958F5D91409C01369514
:100AA00027952F7156E0969587955A95E1F796957B
:100AB000982F882797958795822B089560E082E08C
:100AC0000E94FE1B81E090E00E94DC1A61E084E05D
:100AD0000E94FE1B81E090E00E94DC1A61E082E04F
:100AE0000E94FE1B81E090E00E94DC1A60E082E040
:100AF0000E94FE1B81E090E00C94DC1A60E082E032
:100B00000E94FE1B81E090E00E94DC1A60E084E01D
:100B10000E94FE1B81E090E00E94DC1A61E082E00E
:100B20000E94FE1B81E090E00E94DC1A60E082E0FF
:100B30000E94FE1B81E090E00C94DC1A81E090E0C2
:100B40000E94DC1A60E083E00E94FE1B81E090E0DE
:100B50000C94DC1A81E090E00E94DC1A61E083E0F2
:100B60000E94FE1B81E090E00C94DC1A1F93CF934F
:100B7000DF930E944C05EC010E94AA0581E090E001
:100B80000E94DC1A0E949E050E945E050E947E055E
:100B90000E947E050E947E050E945E0510E1C0FF56
:100BA00003C00E945E0502C00E947E05D695C795CF
:100BB0001150A9F70E947E050E947E050E947E05C5
:100BC0000E947E050E94AA0581E090E00E94DC1A46
:100BD00060E083E00E94FE1B60E082E00E94FE1B5A
:100BE00060E084E0DF91CF911F910C94FE1BCF92C7
:100BF000DF92EF92FF920F931F93CF93DF93EC015D
:100C00002A96C0FF21968E01ECE3DE2EE12CF12C1A
:100C1000053387E1180718F40B5F1F4F02C00DE082
:100C200016E1C8010E94B60569E170E080E090E03D
:100C30000E94A21A84E10E94D904E816F90610F471
:100C4000E8017C01DA9451F48E01045111096E011E
:100C500024E1C20ED11CE12CF12C0BC08A3F91057E
:100C6000B8F2F2CFE8010E5F1F4F0C151D0591F091
:100C70007C01C8010E94B60569E170E080E090E067
:100C80000E94A21A84E10E94D904E816F90650F3E2
:100C9000C701E9CFCE010E94B605CE01DF91CF9109
:100CA0001F910F91FF90EF90DF90CF90089560E833
:100CB00070E086E00E943D1B68EC70E080E090E010
:100CC0000E94A21A60E070E086E00E943D1B68EE80
:100CD00073E080E090E00E94A21A61E086E00E944A
:100CE000FE1B68EC70E080E090E00E94A21A60E0D9
:100CF00086E00C94FE1B9F92AF92BF92CF92DF9240
:100D0000EF92FF920F931F93CF93DF93942EC62FF2
:100D1000D0E0A82EB12C650183E0C80ED11CE09173
:100D2000C605F091C7050484F585E02DEE24E39413
:100D3000F12C02E010E024E030E0AE01B60186ECD8
:100D400095E00995E091C605F091C705AE014E5FAB
:100D50005F4F0484F585E02D04E110E02AE030E0E7
:100D6000B50186EC95E00995E091C605F091C705BF
:100D7000AE014C5F5F4FB5016E5F7F4F0484F58518
:100D8000E02DE12CF12C00E110E026E030E086ECD3
:100D900095E009958FE58915B0F4E091C605F091CD
:100DA000C7050484F585E02DEE24E394F12C02E0E0
:100DB00010E024E030E0AE014B5F5F4FB60186ECFF
:100DC00095E0099503C08BE48915B0F4E091C60560
:100DD000F091C7050484F585E02DEE24E394F12C11
:100DE00002E010E024E030E0AE01485F5F4FB60162
:100DF00086EC95E0099503C087E38915B0F4E0918E
:100E0000C605F091C7050484F585E02DEE24E39432
:100E1000F12C02E010E024E030E0AE01455F5F4FCE
:100E2000B60186EC95E0099503C083E28915B0F41C
:100E3000E091C605F091C7050484F585E02DEE2408
:100E4000E394F12C02E010E024E030E0AE01425FD8
:100E50005F4FB60186EC95E0099503C08FE08915D8
:100E6000A8F4E091C605F091C705AE014F5E5F4F53
:100E70000484F585E02DEE24E394F12C02E010E0EB
:100E800024E030E0B60186EC95E00995DF91CF9142
:100E90001F910F91FF90EF90DF90CF90BF90AF9098
:100EA0009F900895CF92DF92EF92FF920F931F933E
:100EB000CF93DF939091A5058091A405911103C074
:100EC000882309F467C0811105C003E812E0C7E276
:100ED000D2E004C00DEA11E0CFE6D1E08FE00E943D
:100EE000D9048017910718F5C817D90710F5BC0168
:100EF0006C1B7D0B80E090E00E94F11D6B017C017A
:100F0000B8016C1B7D0B80E090E00E94F11D9B01FD
:100F1000AC01C701B6010E945D1D20E030E048EC45
:100F200052E40E947F1E0E94C51D462F03C043E667
:100F300001C040E01092AC0588EE8093AA05809332
:100F4000A905453038F483E08093AC0588EC8093A4
:100F5000AA0512C04A3038F482E08093AC0588ECD0
:100F60008093AA050BC0443148F481E08093AC051E
:100F700088EC8093AA0588EB8093A90560E28AE358
:100F8000DF91CF911F910F91FF90EF90DF90CF9065
:100F90000C947B06DF91CF911F910F91FF90EF9002
:100FA000DF90CF900895BF92CF92DF92EF92FF92A1
:100FB0000F931F93CF93DF93CDB7DEB766970FB62E
:100FC000F894DEBF0FBECDBFB82E6B0186EC95E066
:100FD0000E94AA1061E070E086EC95E00E94711713
:100FE00040E050E06AE070E086EC95E00E94651712
:100FF00063E086EC95E00E946B178B2D0E94E7035F
:10100000BC014AE050E086EC95E00E94201D47E0DC
:1010100050E06BE470E086EC95E00E94651762E0BA
:1010200086EC95E00E946B176AE771E086EC95E02C
:101030000E949B1CE091C605F091C7050680F781D0
:10104000E02DEE24E394F12C08E110E02FE730E0EE
:1010500048E150E060E070E086EC95E009954BE1F6
:1010600050E060E070E086EC95E00E94651761E07A
:1010700086EC95E00E946B1768E671E086EC95E0DF
:101080000E949B1C47E250E060E070E086EC95E037
:101090000E94651762E086EC95E00E946B1766E699
:1010A00071E086EC95E00E949B1C64E671E086ECA2
:1010B00095E00E949B1C8E010F5F1F4FB8018B2D86
:1010C0000E94F304BC0186EC95E00E94BE1C61E620
:1010D00071E086EC95E00E949B1C4AE050E0B6016E
:1010E00086EC95E00E94201D49E350E060E070E04E
:1010F00086EC95E00E94651761E086EC95E00E9421
:101100006B17B8018B2D0E941505F8010190002086
:10111000E9F7C8018E1B9F0B469696958795D82EAA
:10112000E12CF12CDE1451F06FE571E086EC95E0D6
:101130000E949B1C8FEFE81AF80AF4CFB80186ECE6
:1011400095E00E94BE1C0E94520786EC95E00E942A
:101150003F1266960FB6F894DEBF0FBECDBFDF918B
:10116000CF911F910F91FF90EF90DF90CF90BF90A4
:101170000895EF92FF920F931F9386EC95E00E94E3
:10118000AA1061E070E086EC95E00E94711740E0E3
:1011900050E06AE070E086EC95E00E94651763E03D
:1011A00086EC95E00E946B176AE571E086EC95E0AD
:1011B0000E949B1C47E050E06BE470E086EC95E0F9
:1011C0000E94651762E086EC95E00E946B1765E56A
:1011D00071E086EC95E00E949B1CE091C605F091C1
:1011E000C7050680F781E02DEE24E394F12C08E199
:1011F00010E02FE730E048E150E060E070E086EC7E
:1012000095E009954BE150E060E070E086EC95E0F8
:101210000E94651761E086EC95E00E946B1763E41D
:1012200071E086EC95E00E949B1C0E94520786ECC0
:1012300095E01F910F91FF90EF900C943F12EF9269
:10124000FF920F931F93CF93DF93D82F86EC95E0F7
:101250000E94AA10E091C605F091C7050684F785A3
:10126000E02DEE24E394F12C0BE010E020E830E0D8
:1012700040E050E060E070E086EC95E0099560E0C9
:1012800070E086EC95E00E94711761E086EC95E0D5
:101290000E946B1742E050E062E070E086EC95E05F
:1012A0000E9465176EE171E086EC95E00E949B1C40
:1012B0004EE050E060E070E086EC95E00E9465173B
:1012C00061E070E086EC95E00E947117CD2F16E08A
:1012D000C93008F0C0E0CD1303C06CE171E002C07A
:1012E0006AE171E086EC95E00E949B1C4C2F50E077
:1012F000FA013197E830F10520F4EC5CFF4F0C94D3
:10130000371F69E071E00EC068EF70E00BC067EE58
:1013100070E008C066ED70E005C065EC70E002C0EA
:1013200064EB70E086EC95E00E949B1CEC2FF0E0F3
:10133000ED55FA4F8081882361F06DE770E00BC0B6
:1013400063EA70E008C062E970E005C061E870E03F
:1013500002C068E770E086EC95E00E949B1C86EC7A
:1013600095E00E94C01CCF5F115009F0B1CF86EC10
:1013700095E0DF91CF911F910F91FF90EF900C942A
:101380003F12CF9380E00E941F0985E00E944A042B
:10139000C0E08C2F0E941F0985E00E944A04823021
:1013A00059F018F4813021F0F4CF853048F0F1CFB6
:1013B000CF5FC93069F3EDCFCC23C1F0C150E9CF85
:1013C000C630B1F0C73019F40E94F403E2CFC83040
:1013D00019F40E945706DDCFEC2FF0E0ED55FA4FDF
:1013E00081E09081911180E08083D3CFC8E0D1CF9C
:1013F000CF91089586EC95E00E94AA1086EC95E0C6
:101400000C943F1264E086EC95E00C9491100F93DD
:101410001F93CF93DF931FE1115031F185E00E94BC
:10142000341C892B69F1CBEFD0E02197C1F060E843
:1014300070E080E090E00E94261D062F60E470E0DE
:1014400080E090E00E94261D462F50E0602F70E063
:1014500020E030E086EC95E00E94DA0FE6CF86ECE3
:1014600095E00E943F12D8CF86EC95E00E94AA102A
:1014700086EC95E0DF91CF911F910F910C943F1274
:10148000DF91CF911F910F910895EF92FF920F93EB
:101490001F93CF9386EC95E00E94AA10E091C605B9
:1014A000F091C7050680F781E02DEE24E394F12C3E
:1014B00000E010E02FE730E040E050E060E070E056
:1014C00086EC95E0099561E070E086EC95E00E947D
:1014D000711744E050E061E070E086EC95E00E9416
:1014E000651763E086EC95E00E946B176BE971E08D
:1014F00086EC95E00E949B1CE091C605F091C70523
:101500000680F781E02D0BE110E02FE730E04BE1A2
:1015100050E060E070E086EC95E0099543E250E031
:101520006FE070E086EC95E00E94651761E086EC64
:1015300095E00E946B176AE871E086EC95E00E94E6
:101540009B1C42E350E061E270E086EC95E00E9473
:1015500065176FE771E086EC95E00E949B1C86ECB6
:1015600095E00E943F12C8EC85E00E94341C892B54
:1015700079F06AE070E080E090E00E94A21AC15029
:1015800099F7CF911F910F91FF90EF900C94070A5C
:10159000CF911F910F91FF90EF90089561E08DE042
:1015A0000E94C51B61E08DE00E94FE1B60E085E0AB
:1015B0000E94C51B62E085E00E94FE1B61E086E0A0
:1015C0000E94C51B61E083E00E94C51B61E084E0CE
:1015D0000E94C51B61E082E00E94C51B0E9423049B
:1015E000811104C01092C4050E94F4038091C405C7
:1015F0000E94E7030E94B60521E04CE362E086EC1E
:1016000095E00E94251186EC95E00E94AA10809139
:10161000A305882329F062E086EC95E00E947A1702
:1016200086EC95E00E943F1285E00E94341C892BD5
:1016300069F40E94C1090E9402048091A3058823D5
:1016400029F062E086EC95E00E947A178091A70568
:1016500081110E94450A0E94731A605F784D8F4F76
:101660009F4F6093BD057093BE058093BF05909317
:10167000C00508950F931F93CF93DF93C62FDEE02D
:10168000D80F8091A20526E330E0281B3109609134
:101690000A0170E000E010E040E050E086EC95E0E8
:1016A0000E949F0E6D2F70E001E010E026E330E015
:1016B00040E050E086EC95E00E949F0ED0930A0136
:1016C000C63320F085E38093A20502C0C093A20533
:1016D00086EC95E0DF91CF911F910F910C943F1212
:1016E000EF92FF920F931F9386EC95E00E94AA1051
:1016F000E091C605F091C7050680F781E02DEE2444
:10170000E394F12C07E310E02FE730E047E350E0EB
:1017100060E070E086EC95E0099561E070E086ECB1
:1017200095E00E94711761E086EC95E00E946B17CE
:1017300049E350E060E070E086EC95E00E946517B8
:101740006DE271E086EC95E00E949B1C60E080E019
:101750001F910F91FF90EF900C943A0B9F92AF92D4
:10176000BF92CF92DF92EF92FF920F931F93CF938E
:10177000DF935C010E94700BCA2DDB2D0AE010E0A4
:10178000E9E3EE2EE7E1FE2EF3E0CF2ED12CA4E626
:101790009A2E85E00E944A04811127C02396CA33FD
:1017A00087E1D80710F0CDE0D6E1CE010E94B60562
:1017B00069E170E080E090E00E94A21A84E10E945A
:1017C000D9048C589109B8010E94E21E262FC70146
:1017D0008C1B9D0BB6010E94E21E862F622F992D55
:1017E000981B892F0E943A0BD4CF8E010451110906
:1017F0006496E12CF12CC8010E94B60569E170E005
:1018000080E090E00E94A21A84E10E94D904E816C8
:10181000F90610F0C70101C058010E5F1F4F0C17E9
:101820001D0711F07C01E7CFC5010E94B605C50177
:10183000DF91CF911F910F91FF90EF90DF90CF90AC
:10184000BF90AF909F900895CF92DF92EF92FF925A
:1018500085E00E944A048093C5058230B9F118F4EE
:10186000813061F145C0833051F0843009F040C0CF
:101870008091C4050E94E7030E94AE0B08C00E943D
:10188000B9088091C4050E94E7030E94F7050E94F1
:10189000A5048093C40560E070E00E94D3070E9415
:1018A000731A675E7F4F8F4F9F4F6093B905709398
:1018B000BA058093BB059093BC051AC08091C405FE
:1018C000873210F48F5F08C080E006C08091C405A5
:1018D0008150873208F087E28093C4050E94E703B5
:1018E0000E94B60560E070E08091C4050E94D307B5
:1018F0008091C505882371F00E94731A605F784D4E
:101900008F4F9F4F6093BD057093BE058093BF05B9
:101910009093C0050E94731AC090B905D090BA0583
:10192000E090BB05F090BC05C616D706E806F906A0
:10193000B8F48091A805882309F494C0C090BD052F
:10194000D090BE05E090BF05F090C0050E94731ACC
:10195000C616D706E806F90608F084C00E94FA0900
:101960009091C4058091C305981781F00E94731A65
:10197000C090B505D090B605E090B705F090B805D9
:10198000C616D706E806F90608F487C00E94731A3F
:10199000C090B105D090B205E090B305F090B405C9
:1019A000C616D706E806F906A8F481E090910B0167
:1019B000911180E080930B010E94731A6C507E4F4E
:1019C0008F4F9F4F6093B1057093B2058093B3051D
:1019D0009093B40560910B018DE00E94FE1B8091F5
:1019E000A605882309F46EC08091AC05882309F40C
:1019F00069C00E94731AC090AD05D090AE05E0900A
:101A0000AF05F090B005C616D706E806F90608F04F
:101A100059C081E09091AB05911180E08093AB05B6
:101A2000882351F060E870E086E00E943D1B0E9430
:101A3000731A2091AA0509C060E070E086E00E9458
:101A40003D1B0E94731A2091A905620F711D811D13
:101A5000911D6093AD057093AE058093AF05909393
:101A6000B00530C084E10E94D9049093C2058093F0
:101A7000C105BC018091C4050E94D3070E94731A5E
:101A800068517C4F8F4F9F4F6093B9057093BA0593
:101A90008093BB059093BC0563CF0E9402048091A4
:101AA000C4058093C3050E94731A605F784D8F4F01
:101AB0009F4F6093B5057093B6058093B7059093DB
:101AC000B80564CFFF90EF90DF90CF9008950F930B
:101AD0001F93CF93DF93EC018D89823061F08330C7
:101AE000D9F0813009F0C8C0EC81FD81E41BF50B11
:101AF0003197DB0118C08C819D81DC01A61BB70BDF
:101B0000BD018E819F81FC01E41BF50BAF014150AB
:101B10005109621B730BB0C0AE81BF81A61BB70B0E
:101B2000A21BB30BFA01F7FD05C18C819D81E8175B
:101B3000F9070CF0FFC0B7FF04C02A0F3B1FA0E05D
:101B4000B0E08E819F81AD01420F531F841795072E
:101B50001CF49C012A1B3B0B121613060CF0EAC066
:101B6000422F8A2F86958695869590E8899FE00D6D
:101B7000F11D1124E45EFE4FA77069F158E05A1B75
:101B8000852F90E0EC01CC5EDE4F6881251760F474
:101B9000DC01A21BB1098FEF90E00A2E02C09595DF
:101BA00087950A94E2F768230130110539F048F06F
:101BB0000230110551F48081862706C08081862B72
:101BC00003C06095808186238083451708F4B2C0E6
:101BD000451BE058FF4F4830A0F102301105A9F431
:101BE000DF01842F9C9190959C93A058BF4F885003
:101BF0008830C0F788EF840F869586958695B0E883
:101C00008B9FE00DF11D112419C081E001301105F9
:101C100009F080E0982F9195EF01842F9883C058A8
:101C2000DF4F88508830D0F788EF840F86958695EF
:101C3000869590E8899FE00DF11D1124E058FF4F33
:101C40004770442309F476C0A42FB0E0A45FBE4FD0
:101C50009C910130110541F050F00230110509F05E
:101C600069C08081892706C08081892B03C0909537
:101C70008081892380835EC057FD5CC08E819F81F7
:101C8000481759070CF056C077FF04C0260F371FBE
:101C900060E070E08C819D81FB01E20FF31F8E17E5
:101CA0009F071CF49C01261B370B121613060CF021
:101CB00041C0CA0157FD0796E3E095958795EA95DF
:101CC000E1F79695982F882797958795845E9E4F84
:101CD000860F971F4770552761E070E001C0660FBF
:101CE0004A95EAF7462F0130110541F088F002309D
:101CF000110501F5FC01280F391F15C0FC01280F43
:101D0000391FE217F307B1F08081842B8193F9CF5B
:101D10006095FC01280F391FE217F30759F0808105
:101D200086238193F9CFE217F30721F0808184277E
:101D30008193F9CFDF91CF911F910F9108950F9368
:101D40001F93CF93DF93FC018589823069F0833044
:101D5000E1F0813009F082C0C481D581C41BD50B6C
:101D6000C21BD30BDB0117C084819581DC01A61B4C
:101D7000B70BBD016150710986819781DC01A41BFD
:101D8000B50BAD01421B530B69C0A681B781A61BE1
:101D9000B70B1197EA01B7FD08C186819781A81793
:101DA000B9070CF002C1D7FF04C02C0F3D1FC0E0E3
:101DB000D0E084819581AE01420F531F84179507AF
:101DC0001CF49C012C1B3D0B121613060CF0EDC0ED
:101DD000CD01B7FD079643E0959587954A95E1F7C4
:101DE0009695982F882797958795845E9E4F8C0FA0
:101DF0009D1FA770BB2741E050E00A2E01C0440F91
:101E00000A94EAF7642F0130110549F098F0023086
:101E1000110509F0CAC0FC01280F391F17C0FC01C9
:101E2000280F391FE217F30709F4BFC08081862B02
:101E30008193F8CF4095FC01280F391FE217F30773
:101E400009F4B3C0808184238193F8CFE217F307AC
:101E500009F4ABC0808186278193F8CF77FDA5C0B8
:101E600084819581681779070CF09FC057FF04C0E3
:101E7000240F351F40E050E086819781FA01E20F80
:101E8000F31F8E179F071CF49C01241B350B1216A1
:101E900013060CF08AC0522F842F8695869586955E
:101EA000FB01B0E88B9FE00DF11D1124E45EFE4FB5
:101EB000477069F168E0641B862F90E0EC01CC5E0E
:101EC000DE4F4881261760F4DC01A21BB1098FEFB9
:101ED00090E00A2E02C0959587950A94E2F7482370
:101EE0000130110539F048F00230110551F48081BC
:101EF000842706C08081842B03C040958081842381
:101F00008083561708F451C0561BE058FF4F5830D5
:101F1000A0F102301105A9F4DF01852F9C91909565
:101F20009C93A058BF4F88508830C0F788EF850F2A
:101F3000869586958695B0E88B9FE00DF11D11245E
:101F400019C081E00130110509F080E0982F9195CA
:101F5000EF01852F9883C058DF4F88508830D0F725
:101F600088EF850F86958695869590E8899FE00D88
:101F7000F11D1124E058FF4F57705523B1F0A52FE4
:101F8000B0E0A45FBE4F9C910130110539F048F0DC
:101F90000230110551F48081892706C08081892B88
:101FA00003C09095808189238083DF91CF911F9119
:101FB0000F910895CF92DF92EF92FF920F931F93AC
:101FC000CF93DF937C018B01EA01690177FDA0C00B
:101FD0000E948F17081719070CF09AC0D7FD98C0F8
:101FE000C7010E949317C817D9070CF091C0C70109
:101FF0000E947717823009F07FC0F70184819581B4
:102000009C01201B310B89010150110986819781A8
:10201000FC01EC1BFD0BEF0121970BC0813049F453
:10202000F701848195818C1B9D0BE8018C01015087
:102030001109F1E0CF16D10431F010F132E0C316EE
:10204000D104E1F165C0FE01D7FD379683E0F59537
:10205000E7958A95E1F7F695FE2FEE27F795E79538
:10206000E00FF11FE45EFE4FC770DD2781E090E0D6
:102070000C2E01C0880F0A94EAF79081982B3AC081
:10208000FE01D7FD3796A3E0F595E795AA95E1F710
:10209000F695FE2FEE27F795E795E00FF11FE45E2A
:1020A000FE4FC770DD2781E090E00C2E01C0880F45
:1020B0000A94EAF78095908198231CC0FE01D7FD11
:1020C000379663E0F595E7956A95E1F7F695FE2F6B
:1020D000EE27F795E795E00FF11FE45EFE4FC7701E
:1020E000DD2781E090E00C2E01C0880F0A94EAF70A
:1020F0009081982790830CC0833009F08FCFF7012F
:1021000086819781801B910B8E01EC01219791CFE5
:10211000DF91CF911F910F91FF90EF90DF90CF90C3
:1021200008951F93CF93DF93EC01162F40E450E006
:1021300060E870E00E94CC1484E595E09983888380
:102140008FEF8C8F88A38E8F8D8F1F8FDF91CF9114
:102150001F91089580E094E0ECE1F1E0DF019C0143
:102160001D9221503040E1F70895FC0181A18823A0
:1021700039F06EBD00000DB407FEFDCF8EB5089599
:1021800088E090E030E8A4A1B5A14C9123A520956A
:1021900024232C93A2A1B3A122A5432F462321F0EF
:1021A0004C91422B4C9304C04C91209524232C93AA
:1021B000A4A1B5A12C9143A5242B2C93369501976E
:1021C00011F708951F93CF93DF93EC01162F8C8D99
:1021D0008F3F09F1EEA1FFA180819CA5892B80830F
:1021E000E8A5F9A590818DA5809589238083EEA12E
:1021F000FFA190818CA5809589238083CE010E94C8
:10220000B510EEA1FFA180819CA5892B8083DF9171
:10221000CF911F9108958A8D682F772767FD70955C
:1022200085EF95E00E94421860E085EF95E00E94FE
:10223000EF17612F85EF95E00E94EF1785EF95E08E
:10224000DF91CF911F910C9457180F931F93CF9349
:10225000DF93EC01162F022F6B8F4A8F8C8D8F3FEF
:1022600009F477C061E08E8D0E94C51B61E088A1F2
:102270000E94C51B88A1992787FD9095FC01ED5B05
:10228000F84FE491F0E0EE0FFF1FEF59F84F259162
:1022900034913FA32EA3FC01E15DF84F84918CA7FC
:1022A0008E8D992787FD9095FC01ED5BF84FE491A9
:1022B000F0E0EE0FFF1FEF59F84F2591349139A749
:1022C00028A7FC01E15DF84F84918DA789A18111B8
:1022D00034C061E08C8D0E94C51B61E08D8D0E9431
:1022E000C51B8D8D992787FD9095FC01ED5BF84FFF
:1022F000E491F0E0EE0FFF1FEF59F84F2591349174
:102300003DA32CA3FC01E15DF84F84918BA78C8D3C
:10231000992787FD9095FC01ED5BF84FE491F0E083
:10232000EE0FFF1FEF59F84F259134913BA32AA3DD
:10233000FC01E15DF84F84918AA789A1882369F0A7
:102340000E940F138CB58C7F8CBD8DB581608DBDC7
:1023500004C085EF95E00E942E180023E1F061E0B3
:102360008F8D0E94C51B61E08F8D0E94FE1B61E076
:1023700070E080E090E00E94A21A60E08F8D0E94E1
:10238000FE1B6AE070E080E090E00E94A21A61E02B
:102390008F8D0E94FE1B6EEACE010E94E21065ED59
:1023A000CE010E94E21060E8CE010E94E21068EACD
:1023B000CE010E94E2106FE3CE010E94E21063EDB5
:1023C000CE010E94E21060E0CE010E94E21060E4C3
:1023D000CE010E94E2106DE8CE010E94E2101130A1
:1023E00011F460E101C064E1CE010E94E21060E2FC
:1023F000CE010E94E21060E0CE010E94E21061EA8C
:10240000CE010E94E21068ECCE010E94E2106AED5B
:10241000CE010E94E21062E1CE010E94E21061E86A
:10242000CE010E94E210113011F46FE901C06FEC8F
:10243000CE010E94E21069EDCE010E94E21011303F
:1024400011F462E201C061EFCE010E94E2106BED77
:10245000CE010E94E21060E4CE010E94E21064EA24
:10246000CE010E94E21066EACE010E94E2106FEAFD
:10247000CE01DF91CF911F910F910C94E2106F92DA
:102480007F928F929F92AF92BF92CF92DF92EF9204
:10249000FF920F931F93CF93DF93EC0160E00E94B4
:1024A000E21060E1CE010E94E21060E4CE010E94E1
:1024B000E2108C8D8F3F09F44FC070EB772EC12C4A
:1024C000D12C672DCE010E94E21062E0CE010E9465
:1024D000E21060E1CE010E94E21000E010E0C601CF
:1024E000845E9E4F5C01EEA1FFA180819CA5892B9B
:1024F0008083E8A5F9A580819DA5892B8083EEA125
:10250000FFA190818CA5809589238083E12CF12CFB
:102510004501800E911EF401EE0DFF1D6081CE017C
:102520000E94B5109FEFE91AF90A80E1E816F1045C
:1025300091F7EEA1FFA180819CA5892B8083005F8C
:102540001F4F0038110579F690E8C90ED11C73941D
:1025500088EB7812B6CF54C06090B8008CE08093BE
:10256000B80060EB762EC12CD12C672DCE010E94D5
:10257000E21062E0CE010E94E21060E1CE010E9412
:10258000E21000E010E0C601845E9E4F5C016A8D9F
:10259000772767FD709585EF95E00E944218E091DE
:1025A000F505F091F6050190F081E02D60E485EFEE
:1025B00095E00995E12CF12C4501800E911EF40166
:1025C000EE0DFF1D608185EF95E00E94EF179FEFF4
:1025D000E91AF90A80E1E816F10489F785EF95E038
:1025E0000E945718005F1F4F0038110581F690E8D0
:1025F000C90ED11C739488EB7812B7CF6092B800E3
:10260000DF91CF911F910F91FF90EF90DF90CF90CE
:10261000BF90AF909F908F907F906F900895CF93D1
:10262000CFB7F8948091F405811127C0EDE4F7E06D
:102630008491E9E3F7E09491E82FF0E0EE0FFF1FBB
:10264000E559F84FA591B4918C91892321F461E06B
:102650008AE00E94FE1B61E08AE00E94C51B8CB5E7
:1026600080618CBD8CB580648CBD61E08DE00E9482
:10267000C51B61E08BE00E94C51B8091F4058F5F54
:102680008093F405CFBFCF9108952F923F924F9240
:102690005F926F927F928F929F92AF92BF92CF92F2
:1026A000DF92EF92FF920F931F93CF93DF9300D0AF
:1026B00000D0CDB7DEB74C017C836B836A01590132
:1026C000C8018701AC014C195D0957FF03C0519542
:1026D0004195510995016B817C81261B370B37FF92
:1026E00003C031952195310922242394312C2417DC
:1026F000350714F0212C312C2114310459F03A2DD6
:102700002B2D5C01832F922F3B812C81DC82CB828D
:10271000C32ED22EAB81BC81AA16BB065CF43C2D25
:102720002D2D6C01832F922F3B812C81BC82AB829B
:10273000A32EB22E2501EB81FC814E1A5F0A3C01CB
:102740006C187D0877FE03C0719461947108720162
:1027500057FE03C0FFEFEF1AFF0AF594E794C8167F
:10276000D9062CF421E030E03A83298324C06FEFAE
:102770007FEF7A8369831FC0D401ED91FC910480BF
:10278000F581E02D980121143104D9F04B815C8151
:10279000B601C4010995E618F708F7FE06C0E981FD
:1027A000FA81CE0EDF1EE40CF51C2B813C812F5FDD
:1027B0003F4F3C832B836B817C81A616B706E4F6E2
:1027C00004C0A6016B817C81E4CF0F900F900F9025
:1027D0000F90DF91CF911F910F91FF90EF90DF90BD
:1027E000CF90BF90AF909F908F907F906F905F90B1
:1027F0004F903F902F9008956F927F928F929F926B
:10280000AF92BF92CF92DF92EF92FF920F931F93FE
:10281000CF93DF93EC015B016A0139014801E88144
:10282000F9810284F385E02D87010995E881F9811A
:10283000A601480D591D415051090284F385E02D30
:102840009301B501CE010995E881F9810084F185F4
:10285000E02D9401A601B501CE010995E881F98129
:10286000B501660D771D615071090084F185E02D79
:102870009401A601CE010995DF91CF911F910F918F
:10288000FF90EF90DF90CF90BF90AF909F908F9090
:102890007F906F900895EF92FF920F931F93DC014A
:1028A000ED91FC91240F351F215031090680F781ED
:1028B000E02D780189019B0109951F910F91FF90EF
:1028C000EF900895EF92FF920F931F93DC01ED912B
:1028D000FC91260F371F215031090680F781E02D2A
:1028E00078018A0109951F910F91FF90EF9008954B
:1028F0006F927F928F929F92AF92BF92CF92DF9210
:10290000EF92FF920F931F93CF93DF935C014A01E5
:1029100069013801EB01C60ED71ECC15DD0574F434
:10292000D501ED91FC910084F185E02D87019301A3
:10293000A401BE01C50109952196EFCFDF91CF918A
:102940001F910F91FF90EF90DF90CF90BF90AF90CD
:102950009F908F907F906F900895EF92FF920F93CA
:102960001F93DC01ED91FC9111971A960D911C912A
:102970001B9718962D913C9119970684F785E02DA9
:102980007B0140E050E060E070E009951F910F91FD
:10299000FF90EF9008950895FC01138212828CE657
:1029A00095E0918380837583648357834683718721
:1029B000608753874287158A158614861786168680
:1029C00021E0248B8FEF9FEF938B828B918B808BF9
:1029D000268B178A118E108E08952F923F924F9258
:1029E0005F926F927F928F929F92AF92BF92CF929F
:1029F000DF92EF92FF920F931F93CF93DF93CDB7A8
:102A0000DEB76A970FB6F894DEBF0FBECDBF1C01CC
:102A100058874F831C870B87FA86E986CC82DC01B6
:102A200058964D915C9159974115510509F0A6C0F2
:102A300018968D919C911997681779070CF056C1DB
:102A40001A968D919C911B97EF81F885E817F907ED
:102A50000CF04CC1D12CCB013C81F6E03F9F800DA6
:102A6000911D1124181619060CF040C1C60103E08F
:102A7000880F991F0A95E1F74F815885840F951F9C
:102A8000181619060CF032C157968C91811103C0AB
:102A9000203B08F02F5F7E876D874B0119821BE179
:102AA000A12E12E0B12EA61AB70A55E0259FA00C60
:102AB000B11C11248981853039F0ED85FE85EA0D40
:102AC000FB1D94919A8301C01A826F807884230140
:102AD000A8E0AD83BA81B0FF12C0D101ED91FC91A5
:102AE000BC81B13031F40480F581E02D2B853C852B
:102AF00018C00684F785E02DEB84FC841DC0E985B1
:102B0000FA852B853C85E217F307E1F0D101ED91C1
:102B1000FC91BC81B13059F40480F581E02D298508
:102B20003A85A2016D857E85C10109950BC0068499
:102B3000F785E02DE984FA8486019601A301B401AA
:102B4000C1010995EA81E695EA83FD81F150FD8393
:102B50006C0C7D1C2FEF421A520AF111BBCF398148
:102B60003F5F39838C0C9D1C4D855E854F5F5F4FA9
:102B70005E874D87363009F09DCFB8C0FA01349694
:102B80003491329785919491231BA7E02A9F800D61
:102B9000911D1124FA0125913491398B288BFC0168
:102BA000459154915A8F498FFC013296549159871F
:102BB0003196A491AF873196E491FC01359624912A
:102BC00031968491BC81B23050F0622E772467FC3C
:102BD0007094E82FFF27E7FDF095FE87ED87FC81D5
:102BE000CF2ED12C6C9C40016D9C900C7C9C900C49
:102BF0001124860E971EA12C1982DE8ACD8AAB0184
:102C0000420F511D27FD5A955E834D83AF81B885D4
:102C1000A80FB11D87FDBA95B88FAF8B59818F85ED
:102C2000581708F063C0852F90E02D853E85280F4A
:102C3000391F2C9DD0012D9DB00D3C9DB00D112450
:102C4000EF81F885EA0FFB1FFB83EA836D807E80AE
:102C50002401FA2D2D81F21BFA8B4F89588D480FD4
:102C6000591F5C8B4B8B9A89960D862D2D81821B6B
:102C700039858317B0F5977061F4898D9A8D019627
:102C8000E889F989298D3A8DE20FF31FB4909A8F64
:102C9000898FB7FE1DC0D101ED91FC91BC81B1308F
:102CA00059F40480F581E02D2B853C854B895C89A6
:102CB000B301C10109950CC00684F785E02DEB84B2
:102CC000FC84860196014A815B81B201C1010995AC
:102CD000BB0CED89FE894E0E5F1EFFEF6F1A7F0A57
:102CE000C2CFA30E49814F5F498398CF6A960FB632
:102CF000F894DEBF0FBECDBFDF91CF911F910F9132
:102D0000FF90EF90DF90CF90BF90AF909F908F900B
:102D10007F906F905F904F903F902F900895AF926B
:102D2000BF92CF92EF92FF920F931F93CF93DF93B7
:102D3000EC01262F888D998D009709F042C06A30EA
:102D400069F42C898E859F8538E0239F800D911D25
:102D500011249F878E871D861C86ABC06D3009F4B9
:102D6000A8C08E898823C1F03C898C859D8546E06A
:102D7000349F800D911D112448855985841795072E
:102D80005CF01D861C868E859F85E8E03E9F800D49
:102D9000911D11249F878E87EA88FB8808891989ED
:102DA0004E855F856C857D85CC88CE010E94ED14B3
:102DB0002C898C859D85F6E02F9F800D911D112417
:102DC00041C06A3079F41D861C864C89FC01369618
:102DD00084912E853F85489F200D311D11243F870A
:102DE0002E8767C06D3009F464C0AC014C5F5F4F43
:102DF000FA013491631708F45CC03196E491E61748
:102E000008F457C0FA014491362F341BFC01329666
:102E1000A590B490F7E03F9FA00CB11C1124F501E0
:102E20003296A4913196E491AA2311F0E1110DC0DC
:102E3000F5013496A4902C898C859D85A29E800DE9
:102E4000911D11249D878C8734C0F5013596E4913E
:102E50003E89332309F13C89B0E0AE0FB11DE7FD97
:102E6000BA953A9FA0013B9F500D11246C857D853A
:102E7000460F571F68857985461757076CF01D86E2
:102E80001C86FC01369684914E855F85389F400DE7
:102E9000511D11245F874E87EA88FB8808891989AC
:102EA0004E855F856C857D85CC88CE010E94ED14B2
:102EB000BFCF81E090E0DF91CF911F910F91FF9004
:102EC000EF90CF90BF90AF900895FC017587648715
:102ED000578746870895611101C061E0FC01648B4A
:102EE0000895FC01738B628B718B608B0895FC01DC
:102EF00085890895FC016370658B848195812681A5
:102F00003781613039F0633029F0918780873387CA
:102F10002287089531872087938782870895FC014F
:102F2000808591850895FC0182859385089580911F
:102F3000250690E020912606821B91090895209194
:102F4000260680912506281750F4E22FF0E0E95D6F
:102F5000F94F808190E02F5F2093260608958FEF30
:102F60009FEF0895E091260680912506E81730F43A
:102F7000F0E0E95DF94F808190E008958FEF9FEFD9
:102F800008950895CF92DF92EF92FF920F931F93CF
:102F9000CF93DF937C01CB018A012091010622238C
:102FA00089F0EB016B01C40ED51ECC15DD0569F06F
:102FB0006991D701ED91FC910190F081E02DC7015D
:102FC0000995F3CF642F0E94D318C801DF91CF91E8
:102FD0001F910F91FF90EF90DF90CF900895CF93C6
:102FE000DF931F92CDB7DEB76983209101062223BC
:102FF000D1F020910206203240F021E030E0FC01C7
:103000003383228380E090E015C080910306E82F8F
:10301000F0E0EC5FF94F998190838F5F8093030616
:103020008093020605C061E0CE0101960E94D3188C
:1030300081E090E00F90DF91CF910895FC01138221
:10304000128248EE53E060E070E04483558366836B
:10305000778384E895E09183808308951092260613
:103060001092250610920306109202060C945E1828
:1030700081E080930106609324061092030610926B
:10308000020608950C9438180F93062F21E0409102
:10309000020664E076E0809124060E947C1810927B
:1030A000030610920206109201060F91089561E046
:1030B0000C94441885EF95E00C941E181092B406F9
:1030C00081E08093B2061092B10661E082E10E9435
:1030D000FE1B61E083E10E94FE1BE9EBF0E08081D2
:1030E0008E7F808380818D7F808380E28093B80093
:1030F00085E48093BC0008950F93413208F04AC0E4
:103100009091B4069111FCCF92E09093B406009395
:10311000B2069FEF9093470610928C0640938B0661
:10312000FB016DE876E0DB019A2F961B941718F4EB
:1031300091919D93F9CF1092B3069091B306880FA9
:10314000892B8093B3068091B106813061F410928F
:10315000B1068091B3068093BB008091BC0083FDD3
:10316000F8CF85EC01C085EE8093BC00222321F0CE
:103170008091B4068230E1F3809147068F3F61F081
:1031800080914706803251F080914706803341F4A8
:1031900083E007C081E005C080E003C082E001C099
:1031A00084E00F910895613298F42091B4062430A0
:1031B00089F460936906FC018BE696E0DC012A2F16
:1031C000281B261718F421912D93F9CF80E008953C
:1031D00081E0089582E0089585ED8093BC008091A0
:1031E000BC0084FDFCCF1092B406089585EC80935A
:1031F000BC001092B40608951F920F920FB60F9262
:1032000011242F933F934F935F936F937F938F93EB
:103210009F93AF93BF93EF93FF938091B900887F03
:10322000803609F49EC078F5883209F45DC090F4C8
:10323000803109F456C038F4882309F4F5C0883089
:1032400009F44FC0F5C0883109F44EC0803209F44A
:103250005FC0EEC0803409F46AC058F4803309F4CA
:1032600057C0883309F0E4C0809347060E94F618DF
:10327000DFC0803509F44FC0883509F45DC088345B
:1032800009F0D6C0D3C0883909F4C4C0A8F488377F
:1032900009F467C038F4883609F463C0803709F44C
:1032A00060C0C6C0883809F4B5C0803909F45FC071
:1032B000803809F0BDC05BC0803B09F483C038F49E
:1032C000803A09F466C0883A09F47CC0B1C0803CF9
:1032D00009F4A4C0883C09F4A1C0883B09F487C064
:1032E000A7C08091B30610C090918C0680918B0688
:1032F000981770F5E0918C0681E08E0F80938C0614
:10330000F0E0E357F94F80818093BB0085EC83C0E8
:10331000809347068BC0E0918C0681E08E0F8093EE
:103320008C068091BB00F0E0E357F94F80839091C9
:103330008C0680918B066BC0E0918C0681E08E0F2D
:1033400080938C068091BB00F0E0E357F94F8083B7
:103350008091B20681116AC081E08093B10684EA4F
:103360005EC083E08093B40610924806CFCF809170
:103370004806803208F04EC0E091480681E08E0F8A
:10338000809348068091BB00F0E0E75BF94F8083B3
:10339000BDCF0E94F61880914806803230F4E0914B
:1033A0004806F0E0E75BF94F10826091480670E054
:1033B000E091AD06F091AE0689E496E00995109291
:1033C000480636C084E08093B40610926A061092D4
:1033D0006906E091AF06F091B00609958091690603
:1033E000811105C081E08093690610926B06E0911F
:1033F0006A0681E08E0F80936A06F0E0E559F94F86
:1034000080818093BB0090916A068091690698172D
:1034100008F47CCF85E88093BC000AC085EC8093DB
:10342000BC001092B40604C0109247060E94EC182B
:10343000FF91EF91BF91AF919F918F917F916F918C
:103440005F914F913F912F910F900FBE0F901F9062
:1034500018951F920F920FB60F9211242F933F933E
:103460008F939F93AF93BF938091B6069091B706C9
:10347000A091B806B091B9063091B50626E0230FA9
:103480002D3720F40296A11DB11D05C029E8230F98
:103490000396A11DB11D2093B5068093B6069093A7
:1034A000B706A093B806B093B9068091BA0690917A
:1034B000BB06A091BC06B091BD060196A11DB11D31
:1034C0008093BA069093BB06A093BC06B093BD064A
:1034D000BF91AF919F918F913F912F910F900FBE10
:1034E0000F901F9018952FB7F8946091B6067091C1
:1034F000B7068091B8069091B9062FBF08953FB7DF
:10350000F8948091BA069091BB06A091BC06B09148
:10351000BD0626B5A89B05C02F3F19F00196A11D39
:10352000B11D3FBF6627782F892F9A2F620F711D1B
:10353000811D911D43E0660F771F881F991F4A95D3
:10354000D1F708958F929F92AF92BF92CF92DF9260
:10355000EF92FF926B017C010E947F1A4B015C018C
:10356000C114D104E104F104F1F00E945C1D0E9439
:103570007F1A681979098A099B09683E7340810599
:10358000910570F321E0C21AD108E108F10888EE34
:10359000880E83E0981EA11CB11CC114D104E10463
:1035A000F10429F7DDCFFF90EF90DF90CF90BF902F
:1035B000AF909F908F9008958330910528F0880FE9
:1035C000991F04970197F1F70895789484B5826064
:1035D00084BD84B5816084BD85B5826085BD85B5B7
:1035E000816085BDEEE6F0E0808181608083E1E866
:1035F000F0E010828081826080838081816080839E
:10360000E0E8F0E0808181608083E1EBF0E08081A0
:1036100084608083E0EBF0E0808181608083EAE772
:10362000F0E08081846080838081826080838081FB
:103630008E7F80838081806880831092C10008958E
:103640008E3008F08E50877020911C0590E4299FE1
:1036500090011124822B80937C0080917A008064F9
:1036600080937A0080917A0086FDFCCF809178006B
:103670002091790090E0922B08951F93CF93DF93D0
:10368000182FEB0161E00E94C51B209711F460E048
:1036900004C0CF3FD10539F461E0812FDF91CF9194
:1036A0001F910C94FE1BE12FF0E0E55EF84FE491D2
:1036B000E330F9F048F4E130B9F0E230A1F584B537
:1036C000806284BDC8BD34C0E730E9F0E83019F14C
:1036D000E43049F580918000806280938000D0932F
:1036E0008B00C0938A0024C084B5806884BDC7BDA8
:1036F0001FC080918000806880938000D0938900F3
:10370000C093880015C08091B00080688093B0009D
:10371000C093B3000DC08091B00080628093B00070
:10372000C093B40005C0C038D1050CF0B5CFAFCF01
:10373000DF91CF911F910895833081F028F481307B
:1037400099F08230A1F008958730A9F08830B9F05F
:103750008430D1F4809180008F7D03C080918000FF
:103760008F7780938000089584B58F7702C084B5E9
:103770008F7D84BD08958091B0008F7703C08091C4
:10378000B0008F7D8093B0000895CF93DF9390E0D9
:10379000FC01E15DF84F2491FC01ED5BF84F849151
:1037A000882349F190E0880F991FFC01E559F84FF3
:1037B000A591B4918F59984FFC01C591D4919FB7B1
:1037C000611108C0F8948C91209582238C93888194
:1037D00082230AC0623051F4F8948C91322F3095D4
:1037E00083238C938881822B888304C0F8948C91E6
:1037F000822B8C939FBFDF91CF9108950F931F93DE
:10380000CF93DF931F92CDB7DEB7282F30E0F901B9
:10381000E55EF84F8491F901E15DF84F1491F901EB
:10382000ED5BF84F04910023C9F0882321F06983F0
:103830000E949C1B6981E02FF0E0EE0FFF1FEF5903
:10384000F84FA591B4919FB7F8948C91611103C082
:103850001095812301C0812B8C939FBF0F90DF9126
:10386000CF911F910F910895CF93DF93282F30E0D0
:10387000F901E55EF84F8491F901E15DF84FD491CB
:10388000F901ED5BF84FC491CC2391F081110E94B6
:103890009C1BEC2FF0E0EE0FFF1FE95AF84FA591AB
:1038A000B4912C912D2381E090E021F480E002C0BE
:1038B00080E090E0DF91CF910895CF92DF92EF9278
:1038C000FF920F931F93CF93DF937C016A01EB016B
:1038D00000E010E00C151D0571F06991D701ED9124
:1038E000FC910190F081E02DC7010995892B19F019
:1038F0000F5F1F4FEFCFC801DF91CF911F910F9145
:10390000FF90EF90DF90CF9008956115710581F0E1
:10391000DB010D900020E9F7AD0141505109461B34
:10392000570BDC01ED91FC910280F381E02D0994AD
:1039300080E090E00895EF92FF920F931F93CF9352
:10394000DF938C017B01C0E0D0E0F701EC0FFD1F9D
:103950006491662359F0F801A081B181ED91FC9149
:10396000C8010995892B11F02196EFCFCE01DF9187
:10397000CF911F910F91FF90EF9008950C94851CAB
:1039800060E975E00C94851C8F929F92AF92BF9274
:10399000DF92EF92FF920F931F93CF93DF93CDB7F8
:1039A000DEB7A1970FB6F894DEBF0FBECDBF7C0186
:1039B000F42FD52ECB0119A2223008F42AE08E0173
:1039C0000F5D1F4F822E912CA12CB12C6F2F7D2DBE
:1039D000A50194010E94F61EF22FD32ECA010150B8
:1039E00011096A3014F4E0E301C0E7E3E60FD801FF
:1039F000EC93232B242B252B49F7B801C7010E94F8
:103A0000851CA1960FB6F894DEBF0FBECDBFDF9127
:103A1000CF911F910F91FF90EF90DF90BF90AF90EB
:103A20009F908F9008952115310541F4DC01ED91AF
:103A3000FC910190F081E02D642F09940C94C41C3A
:103A40009A01AB0160E070E00C94131DCF93DF93FB
:103A500000D000D0CDB7DEB79B01AC016115710578
:103A60008105910569F069833A834B835C830E94E9
:103A7000A61F29813A814B815C810E94181F03C0D7
:103A800060E070E0CB010F900F900F900F90DF91EE
:103A9000CF9108950E94B41F08950E94E51A0E94D4
:103AA0004C1D0E94CE0AC0E0D0E00E94240C20975A
:103AB000E1F30E940000F9CF08950CD0E6C0DED0FB
:103AC00040F0D5D030F021F45F3F19F0C7C051115C
:103AD00010C1CAC0EBD098F39923C9F35523B1F3B1
:103AE000951B550BBB27AA2762177307840738F06D
:103AF0009F5F5F4F220F331F441FAA1FA9F333D0CC
:103B00000E2E3AF0E0E830D091505040E695001C7F
:103B1000CAF729D0FE2F27D0660F771F881FBB1F3B
:103B2000261737074807AB07B0E809F0BB0B802D15
:103B3000BF01FF2793585F4F2AF09E3F510568F061
:103B40008DC0D7C05F3FECF3983EDCF38695779548
:103B50006795B795F7959F5FC9F7880F911D969563
:103B6000879597F90895E1E0660F771F881FBB1FBF
:103B7000621773078407BA0720F0621B730B840B6C
:103B8000BA0BEE1F88F7E095089598D088F09F57FC
:103B900090F0B92F9927B751A0F0D1F0660F771F99
:103BA000881F991F1AF0BA95C9F712C0B13081F079
:103BB0009FD0B1E008959CC0672F782F8827B85F09
:103BC00039F0B93FCCF3869577956795B395D9F7DA
:103BD0003EF490958095709561957F4F8F4F9F4FE4
:103BE0000895E89409C097FB3EF4909580957095F0
:103BF00061957F4F8F4F9F4F9923A9F0F92F96E939
:103C0000BB279395F695879577956795B795F111AD
:103C1000F8CFFAF4BB0F11F460FF1BC06F5F7F4F4A
:103C20008F4F9F4F16C0882311F096E911C077235C
:103C300021F09EE8872F762F05C0662371F096E865
:103C4000862F70E060E02AF09A95660F771F881F34
:103C5000DAF7880F9695879597F9089597F99F67F2
:103C600080E870E060E008959FEF80EC0895002404
:103C70000A941616170618060906089500240A94D1
:103C800012161306140605060895092E0394000C57
:103C900011F4882352F0BB0F40F4BF2B11F460FFE6
:103CA00004C06F5F7F4F8F4F9F4F089557FD90580F
:103CB000440F551F59F05F3F71F04795880F97FBF0
:103CC000991F61F09F3F79F08795089512161306AA
:103CD0001406551FF2CF4695F1DF08C016161706D9
:103CE0001806991FF1CF869571056105089408950E
:103CF000E894BB2766277727CB0197F908950BD067
:103D0000C4CFB5DF28F0BADF18F0952309F0A6CFAD
:103D1000ABCF1124EECFCADFA0F3959FD1F3950F5F
:103D200050E0551F629FF001729FBB27F00DB11D3F
:103D3000639FAA27F00DB11DAA1F649F6627B00DCF
:103D4000A11D661F829F2227B00DA11D621F739FB8
:103D5000B00DA11D621F839FA00D611D221F749FC6
:103D60003327A00D611D231F849F600D211D822F0D
:103D7000762F6A2F11249F5750408AF0E1F0882354
:103D80004AF0EE0FFF1FBB1F661F771F881F915061
:103D90005040A9F79E3F510570F060CFAACF5F3F1A
:103DA000ECF3983EDCF3869577956795B795F79594
:103DB000E7959F5FC1F7FE2B880F911D969587951C
:103DC00097F90895AA1BBB1B51E107C0AA1FBB1F8F
:103DD000A617B70710F0A61BB70B881F991F5A9597
:103DE000A9F780959095BC01CD010895A1E21A2E06
:103DF000AA1BBB1BFD010DC0AA1FBB1FEE1FFF1F8F
:103E0000A217B307E407F50720F0A21BB30BE40BDE
:103E1000F50B661F771F881F991F1A9469F7609525
:103E20007095809590959B01AC01BD01CF010895DF
:103E3000052E97FB1EF400940E942F1F57FD07D0FC
:103E40000E94F61E07FC03D04EF40C942F1F5095D1
:103E50004095309521953F4F4F4F5F4F0895909576
:103E60008095709561957F4F8F4F9F4F0895EE0F0E
:103E7000FF1F0590F491E02D09940E94481FA59F13
:103E8000900DB49F900DA49F800D911D1124089555
:103E9000A29FB001B39FC001A39F700D811D11248B
:103EA000911DB29F700D811D1124911D08958F9257
:103EB0009F92AF92BF92CF92DF92EF92FF92CF93F9
:103EC000DF93EC01688179818A819B81611571059D
:103ED0008105910521F464E279ED8BE597E02DE110
:103EE00033EF41E050E00E94181F49015A019B0145
:103EF000AC01A7EAB1E40E943D1F6B017C01ACEE6E
:103F0000B4EFA50194010E94D91FC60ED71EE81E6A
:103F1000F91EF7FE06C081E0C81AD108E10880E862
:103F2000F80AC882D982EA82FB82C701B6019F776C
:103F3000DF91CF91FF90EF90DF90CF90BF90AF9047
:103F40009F908F9008950E94571F089586E091E0FA
:103F50000E94571F08956093060170930701809394
:103F6000080190930901089581E090E0F8940C9481
:103F7000DE1FFB01DC0101900D920020E1F70895A6
:103F8000F999FECF92BD81BDF89A992780B5089521
:103F9000262FF999FECF1FBA92BD81BD20BD0FB665
:103FA000F894FA9AF99A0FBE01960895B7FF0C9407
:103FB0003D1F0E943D1F821B930B0895F894FFCF75
:103FC0000000BE068000010000000E010001030792
:103FD0000F1F3F7F0080C0E0F0F8FCFE00000000F3
:103FE00000000000000000000000000000000000D1
:103FF00000000000000000000000000000000000C1
:1040000000000000000000000000000000000000B0
:104010000000000000000000000000808080000020
:10402000000000000000000000000000008080C0D0
:10403000C0000000000000000000000000000000C0
:104040000000000000000000000000000000000070
:104050000000000000000000000000000000000060
:104060000000000000000000000000000000000050
:1040700080C0E0F0F8FCF8E0000000000000000064
:104080000000000000000000008080808080008030
:104090008000000000808080808000FFFFFF000023
:1040A00000008080808000008080000080FFFF8012
:1040B0008000808000808080800080800000000080
:1040C00000808000008C8E84000080F8F8F880006A
:1040D000000000000000000000000000F0F0F0F020
:1040E000F0F0F0F0F0F0F0F0E0E0C08000E0FCFE76
:1040F000FFFFFF7FFFFFFFFFFF0000000000000049
:1041000000000000000000FEFFC70101010183FF65
:10411000FF00007CFEC70101010183FFFFFF0038A3
:10412000FEC78301010183C7FFFF000001FFFF01FC
:104130000100FFFF0701010100007FFF8000000078
:10414000FFFF7F0000FFFFFF000001FFFFFF0100F6
:10415000000000000000000000000000030F3F7F8F
:104160007FFFFFFFFFFFFFFFE7C7C78F8F9FBFFFE7
:10417000FFC3C0F0FFFFFFFFFFFCFCFCFCFCFCFCEE
:10418000FCF8F8F0F0E0C0000103030303030103AF
:104190000300000000010303030301010301000009
:1041A00000010303030301010303000000030300F4
:1041B00000000303000000000000000103030303EC
:1041C00003010000000103010000000303010000DF
:1041D000000000000000000000000000000000805F
:1041E000C0E0F0F9FFFFFFFFFF3F1F0F87C7F7FF9A
:1041F000FF1F1F3DFCF8F8F8F87C7DFFFFFFFFFF75
:10420000FFFFFF7F3F0F070030300000000000007D
:10421000000000000000000000000000000000009E
:10422000FEFEFC0000000000000000000000000096
:10423000000000000000000000E0C00000000000DE
:10424000000000000000303000000000000000000E
:1042500000000000000000000000000000C0FEFFA1
:10426000FFFFFFFFFFFFFFFF7F7F3F1F0F071F7F46
:10427000FFFFF8F8FFFFFFFFFFFEF8E0000000017E
:104280000000000000000000FEFE000000FCFEFC3C
:104290000C06060EFCF80000F0F81C0E0606060CD4
:1042A000FFFFFF0000FEFE00000000FCFEFC001807
:1042B0003C7E66E6CE84000006FFFF0606FCFEFCA0
:1042C0000C0606060000FEFE0000C0F8FC4E464646
:1042D000464E7C7840183C76E6CECC80000000004C
:1042E00000000000000000000000000000000000CE
:1042F00001070F1F1F3F3F3F3F1F0F03000000003C
:1043000000000000000000000F0F0000000F0F0F62
:10431000000000000F0F000003070E0C18180C0619
:104320000F0F0F0000010F0E0C180C0F07010004F7
:104330000E0C180C0F070000000F0F00000F0F0FDE
:104340000000000000000F0F00000007070C0C1811
:104350001C0C060600040E0C180C0F0700000000D1
:10436000000000000000000000000000000000004D
:10437000000000000000000000000000000000003D
:10438000000000000000000000000000000000002D
:10439000000000000000000000000000000000001D
:1043A000000000000000000000000000000000000D
:1043B00000000000000000000000000000000000FD
:1043C00000000000000000000000000000000000ED
:1043D00000000000000000000000000001426F73B8
:1043E00063616D204100426F7363616D204200463E
:1043F0006F78746563682F444A492000466174539E
:104400006861726B20005261636562616E642000B6
:10441000000000008F165D1CDA0F45139F0E670D1C
:10442000FC137814AD14CB14000000008F165D1C33
:104430004A1D45134B146214FC137814AD14CB14AD
:1044400000000000EF17C21797179F17B217C11788
:104450000D0A006E616E00696E66006F7666002E52
:0244600000005A
:00000001FF
